{
  "transactions": [
    {
      "hash": "0xd495fe67fc731321935b94530b8d041d93f290d937f2a0d6135592e4bb34af5a",
      "transactionType": "CALL",
      "contractName": null,
      "contractAddress": "0xa4253e7c13525287c56550b8708100f93e60509f",
      "function": "transfer(address,uint256)",
      "arguments": [
        "0xA0084dE38Eee190c6f1d4d83B20B9adcc4998799",
        "3000000"
      ],
      "transaction": {
        "from": "0xbe2680dc1752109b4344dbeb1072fd8cd880e54b",
        "to": "0xa4253e7c13525287c56550b8708100f93e60509f",
        "value": "0x0",
        "input": "0xa9059cbb000000000000000000000000a0084de38eee190c6f1d4d83b20b9adcc499879900000000000000000000000000000000000000000000000000000000002dc6c0",
        "nonce": "0x2de",
        "chainId": "0x14a34"
      },
      "additionalContracts": [],
      "isFixedGasLimit": false
    },
    {
      "hash": "0xd251eb1fa69995c219389e2d073a26cdcc43c4c3bc9214b1377ead2ebe97cd56",
      "transactionType": "CALL",
      "contractName": null,
      "contractAddress": "0xa0084de38eee190c6f1d4d83b20b9adcc4998799",
      "function": null,
      "arguments": null,
      "transaction": {
        "from": "0xbe2680dc1752109b4344dbeb1072fd8cd880e54b",
        "to": "0xa0084de38eee190c6f1d4d83b20b9adcc4998799",
        "value": "0x9184e72a000",
        "input": "0x",
        "nonce": "0x2df",
        "chainId": "0x14a34"
      },
      "additionalContracts": [],
      "isFixedGasLimit": false
    },
    {
      "hash": "0x2d1a40fd3b7414ff7ab418bda65657d1a26645fc739660bf3aa3013eacfdff18",
      "transactionType": "CALL",
      "contractName": null,
      "contractAddress": "0xa4253e7c13525287c56550b8708100f93e60509f",
      "function": "transfer(address,uint256)",
      "arguments": [
        "0x070806B631A667a3Da88177d326adB27fde834Db",
        "9000000"
      ],
      "transaction": {
        "from": "0xbe2680dc1752109b4344dbeb1072fd8cd880e54b",
        "to": "0xa4253e7c13525287c56550b8708100f93e60509f",
        "value": "0x0",
        "input": "0xa9059cbb000000000000000000000000070806b631a667a3da88177d326adb27fde834db0000000000000000000000000000000000000000000000000000000000895440",
        "nonce": "0x2e0",
        "chainId": "0x14a34"
      },
      "additionalContracts": [],
      "isFixedGasLimit": false
    },
    {
      "hash": "0xa554668153a440d4ac4470ec8ebb5cfb1ba229174487fb631a30a7147f25bfd4",
      "transactionType": "CALL",
      "contractName": null,
      "contractAddress": "0x070806b631a667a3da88177d326adb27fde834db",
      "function": null,
      "arguments": null,
      "transaction": {
        "from": "0xbe2680dc1752109b4344dbeb1072fd8cd880e54b",
        "to": "0x070806b631a667a3da88177d326adb27fde834db",
        "value": "0x9184e72a000",
        "input": "0x",
        "nonce": "0x2e1",
        "chainId": "0x14a34"
      },
      "additionalContracts": [],
      "isFixedGasLimit": false
    },
    {
      "hash": "0xe7e3b5e68d39b59b2c29c57d02f1416a71994eb8fdcae44965b5dff7834c8ecf",
      "transactionType": "CALL",
      "contractName": null,
      "contractAddress": "0xa4253e7c13525287c56550b8708100f93e60509f",
      "function": "transfer(address,uint256)",
      "arguments": [
        "0x546da7C993D811d067f4C102B4281fE3c2AF6A8d",
        "19000000"
      ],
      "transaction": {
        "from": "0xbe2680dc1752109b4344dbeb1072fd8cd880e54b",
        "to": "0xa4253e7c13525287c56550b8708100f93e60509f",
        "value": "0x0",
        "input": "0xa9059cbb000000000000000000000000546da7c993d811d067f4c102b4281fe3c2af6a8d000000000000000000000000000000000000000000000000000000000121eac0",
        "nonce": "0x2e2",
        "chainId": "0x14a34"
      },
      "additionalContracts": [],
      "isFixedGasLimit": false
    },
    {
      "hash": "0x702fd9b60f996991bcaea019656594c0e40b10c724f3f8f07e9a9bd120fc8d1f",
      "transactionType": "CALL",
      "contractName": null,
      "contractAddress": "0x546da7c993d811d067f4c102b4281fe3c2af6a8d",
      "function": null,
      "arguments": null,
      "transaction": {
        "from": "0xbe2680dc1752109b4344dbeb1072fd8cd880e54b",
        "to": "0x546da7c993d811d067f4c102b4281fe3c2af6a8d",
        "value": "0x9184e72a000",
        "input": "0x",
        "nonce": "0x2e3",
        "chainId": "0x14a34"
      },
      "additionalContracts": [],
      "isFixedGasLimit": false
    },
    {
      "hash": "0x7fd94601f21a0bba2df8a8140f69218d37a1416b86c5a7a77db5f0bbc31ab73f",
      "transactionType": "CALL",
      "contractName": null,
      "contractAddress": "0xa4253e7c13525287c56550b8708100f93e60509f",
      "function": "transfer(address,uint256)",
      "arguments": [
        "0xBef88420F20AB95e5F7ea851F6008dbbeE97dc26",
        "33000000"
      ],
      "transaction": {
        "from": "0xbe2680dc1752109b4344dbeb1072fd8cd880e54b",
        "to": "0xa4253e7c13525287c56550b8708100f93e60509f",
        "value": "0x0",
        "input": "0xa9059cbb000000000000000000000000bef88420f20ab95e5f7ea851f6008dbbee97dc260000000000000000000000000000000000000000000000000000000001f78a40",
        "nonce": "0x2e4",
        "chainId": "0x14a34"
      },
      "additionalContracts": [],
      "isFixedGasLimit": false
    },
    {
      "hash": "0x68cf5acff1cee7bc2f2fea3fbe601da9d9fe8e7ca4b9924b723b9776cb12e723",
      "transactionType": "CALL",
      "contractName": null,
      "contractAddress": "0xbef88420f20ab95e5f7ea851f6008dbbee97dc26",
      "function": null,
      "arguments": null,
      "transaction": {
        "from": "0xbe2680dc1752109b4344dbeb1072fd8cd880e54b",
        "to": "0xbef88420f20ab95e5f7ea851f6008dbbee97dc26",
        "value": "0x9184e72a000",
        "input": "0x",
        "nonce": "0x2e5",
        "chainId": "0x14a34"
      },
      "additionalContracts": [],
      "isFixedGasLimit": false
    },
    {
      "hash": "0x7e68a7ed663e641c2db2835e4e440e1cef5791bba5ba911510312a99d3d1e06c",
      "transactionType": "CALL",
      "contractName": null,
      "contractAddress": "0xa4253e7c13525287c56550b8708100f93e60509f",
      "function": "transfer(address,uint256)",
      "arguments": [
        "0x19f19e10E6CB2ea89dAe8a40635f7A0E10AEaC3D",
        "51000000"
      ],
      "transaction": {
        "from": "0xbe2680dc1752109b4344dbeb1072fd8cd880e54b",
        "to": "0xa4253e7c13525287c56550b8708100f93e60509f",
        "value": "0x0",
        "input": "0xa9059cbb00000000000000000000000019f19e10e6cb2ea89dae8a40635f7a0e10aeac3d00000000000000000000000000000000000000000000000000000000030a32c0",
        "nonce": "0x2e6",
        "chainId": "0x14a34"
      },
      "additionalContracts": [],
      "isFixedGasLimit": false
    },
    {
      "hash": "0xbb3d58f7883db90996b88587fca4eef6bc47744ca4b2cf915dad38b5f82ea2be",
      "transactionType": "CALL",
      "contractName": null,
      "contractAddress": "0x19f19e10e6cb2ea89dae8a40635f7a0e10aeac3d",
      "function": null,
      "arguments": null,
      "transaction": {
        "from": "0xbe2680dc1752109b4344dbeb1072fd8cd880e54b",
        "to": "0x19f19e10e6cb2ea89dae8a40635f7a0e10aeac3d",
        "value": "0x9184e72a000",
        "input": "0x",
        "nonce": "0x2e7",
        "chainId": "0x14a34"
      },
      "additionalContracts": [],
      "isFixedGasLimit": false
    },
    {
      "hash": "0xebc6dddc4b62756751abef0917970bf5dd9f391ba17832533bb040e790524213",
      "transactionType": "CALL",
      "contractName": null,
      "contractAddress": "0xa4253e7c13525287c56550b8708100f93e60509f",
      "function": "approve(address,uint256)",
      "arguments": [
        "0x9aa2E7FFEE192DcBdb40c9D75917d0D33501e5c6",
        "2000000"
      ],
      "transaction": {
        "from": "0xa0084de38eee190c6f1d4d83b20b9adcc4998799",
        "to": "0xa4253e7c13525287c56550b8708100f93e60509f",
        "value": "0x0",
        "input": "0x095ea7b30000000000000000000000009aa2e7ffee192dcbdb40c9d75917d0d33501e5c600000000000000000000000000000000000000000000000000000000001e8480",
        "nonce": "0x8",
        "chainId": "0x14a34"
      },
      "additionalContracts": [],
      "isFixedGasLimit": false
    },
    {
      "hash": "0x4d335a0803d2848840535eeac6ea545cbd0f7a16eb6f382d56c9f6fb0ffa3f15",
      "transactionType": "CALL",
      "contractName": null,
      "contractAddress": "0x9aa2e7ffee192dcbdb40c9d75917d0d33501e5c6",
      "function": "createSubscription(uint256,uint256)",
      "arguments": [
        "1",
        "2"
      ],
      "transaction": {
        "from": "0xa0084de38eee190c6f1d4d83b20b9adcc4998799",
        "to": "0x9aa2e7ffee192dcbdb40c9d75917d0d33501e5c6",
        "value": "0x0",
        "input": "0xa71b6cd000000000000000000000000000000000000000000000000000000000000000010000000000000000000000000000000000000000000000000000000000000002",
        "nonce": "0x9",
        "chainId": "0x14a34"
      },
      "additionalContracts": [],
      "isFixedGasLimit": false
    },
    {
      "hash": "0xf2123f2118d117148153033ba448f2a11d334d32eea6ee1d6bb7abe4b1255e24",
      "transactionType": "CALL",
      "contractName": null,
      "contractAddress": "0xa4253e7c13525287c56550b8708100f93e60509f",
      "function": "approve(address,uint256)",
      "arguments": [
        "0x9aa2E7FFEE192DcBdb40c9D75917d0D33501e5c6",
        "8000000"
      ],
      "transaction": {
        "from": "0x070806b631a667a3da88177d326adb27fde834db",
        "to": "0xa4253e7c13525287c56550b8708100f93e60509f",
        "value": "0x0",
        "input": "0x095ea7b30000000000000000000000009aa2e7ffee192dcbdb40c9d75917d0d33501e5c600000000000000000000000000000000000000000000000000000000007a1200",
        "nonce": "0x8",
        "chainId": "0x14a34"
      },
      "additionalContracts": [],
      "isFixedGasLimit": false
    },
    {
      "hash": "0x07236b5f29b52296ab010bec8e2c236675c78443083371cbbc7510f381068449",
      "transactionType": "CALL",
      "contractName": null,
      "contractAddress": "0x9aa2e7ffee192dcbdb40c9d75917d0d33501e5c6",
      "function": "createSubscription(uint256,uint256)",
      "arguments": [
        "2",
        "4"
      ],
      "transaction": {
        "from": "0x070806b631a667a3da88177d326adb27fde834db",
        "to": "0x9aa2e7ffee192dcbdb40c9d75917d0d33501e5c6",
        "value": "0x0",
        "input": "0xa71b6cd000000000000000000000000000000000000000000000000000000000000000020000000000000000000000000000000000000000000000000000000000000004",
        "nonce": "0x9",
        "chainId": "0x14a34"
      },
      "additionalContracts": [],
      "isFixedGasLimit": false
    },
    {
      "hash": "0x762a40759f978fb83b58e6e69cf767a308120266479042f2e85f9122043f4f90",
      "transactionType": "CALL",
      "contractName": null,
      "contractAddress": "0xa4253e7c13525287c56550b8708100f93e60509f",
      "function": "approve(address,uint256)",
      "arguments": [
        "0x9aa2E7FFEE192DcBdb40c9D75917d0D33501e5c6",
        "18000000"
      ],
      "transaction": {
        "from": "0x546da7c993d811d067f4c102b4281fe3c2af6a8d",
        "to": "0xa4253e7c13525287c56550b8708100f93e60509f",
        "value": "0x0",
        "input": "0x095ea7b30000000000000000000000009aa2e7ffee192dcbdb40c9d75917d0d33501e5c6000000000000000000000000000000000000000000000000000000000112a880",
        "nonce": "0x8",
        "chainId": "0x14a34"
      },
      "additionalContracts": [],
      "isFixedGasLimit": false
    },
    {
      "hash": "0xebdf415d578e7bb75cde19728327d7c7b51bbd4932bffb50da22223e917df74b",
      "transactionType": "CALL",
      "contractName": null,
      "contractAddress": "0x9aa2e7ffee192dcbdb40c9d75917d0d33501e5c6",
      "function": "createSubscription(uint256,uint256)",
      "arguments": [
        "3",
        "6"
      ],
      "transaction": {
        "from": "0x546da7c993d811d067f4c102b4281fe3c2af6a8d",
        "to": "0x9aa2e7ffee192dcbdb40c9d75917d0d33501e5c6",
        "value": "0x0",
        "input": "0xa71b6cd000000000000000000000000000000000000000000000000000000000000000030000000000000000000000000000000000000000000000000000000000000006",
        "nonce": "0x9",
        "chainId": "0x14a34"
      },
      "additionalContracts": [],
      "isFixedGasLimit": false
    },
    {
      "hash": "0x633d137acedd95ecf095cd0ef44eec5d9421e242b537674ecf053e535907ffcf",
      "transactionType": "CALL",
      "contractName": null,
      "contractAddress": "0xa4253e7c13525287c56550b8708100f93e60509f",
      "function": "approve(address,uint256)",
      "arguments": [
        "0x9aa2E7FFEE192DcBdb40c9D75917d0D33501e5c6",
        "32000000"
      ],
      "transaction": {
        "from": "0xbef88420f20ab95e5f7ea851f6008dbbee97dc26",
        "to": "0xa4253e7c13525287c56550b8708100f93e60509f",
        "value": "0x0",
        "input": "0x095ea7b30000000000000000000000009aa2e7ffee192dcbdb40c9d75917d0d33501e5c60000000000000000000000000000000000000000000000000000000001e84800",
        "nonce": "0x8",
        "chainId": "0x14a34"
      },
      "additionalContracts": [],
      "isFixedGasLimit": false
    },
    {
      "hash": "0x14230980ba52edd82ddd8d8cd8d8bcb4284c3f50f3b50d005b067ffa73001705",
      "transactionType": "CALL",
      "contractName": null,
      "contractAddress": "0x9aa2e7ffee192dcbdb40c9d75917d0d33501e5c6",
      "function": "createSubscription(uint256,uint256)",
      "arguments": [
        "4",
        "8"
      ],
      "transaction": {
        "from": "0xbef88420f20ab95e5f7ea851f6008dbbee97dc26",
        "to": "0x9aa2e7ffee192dcbdb40c9d75917d0d33501e5c6",
        "value": "0x0",
        "input": "0xa71b6cd000000000000000000000000000000000000000000000000000000000000000040000000000000000000000000000000000000000000000000000000000000008",
        "nonce": "0x9",
        "chainId": "0x14a34"
      },
      "additionalContracts": [],
      "isFixedGasLimit": false
    },
    {
      "hash": "0x5d3c2affe9b8d4c65bc52ee0ffafeb62ff9a47e65f1f16f1521e6029a2d00132",
      "transactionType": "CALL",
      "contractName": null,
      "contractAddress": "0xa4253e7c13525287c56550b8708100f93e60509f",
      "function": "approve(address,uint256)",
      "arguments": [
        "0x9aa2E7FFEE192DcBdb40c9D75917d0D33501e5c6",
        "50000000"
      ],
      "transaction": {
        "from": "0x19f19e10e6cb2ea89dae8a40635f7a0e10aeac3d",
        "to": "0xa4253e7c13525287c56550b8708100f93e60509f",
        "value": "0x0",
        "input": "0x095ea7b30000000000000000000000009aa2e7ffee192dcbdb40c9d75917d0d33501e5c60000000000000000000000000000000000000000000000000000000002faf080",
        "nonce": "0x8",
        "chainId": "0x14a34"
      },
      "additionalContracts": [],
      "isFixedGasLimit": false
    },
    {
      "hash": "0x4160a89d3bbb7e9b5cbc8fe1163570115f166579eec9dc9b3d0345220ac44be7",
      "transactionType": "CALL",
      "contractName": null,
      "contractAddress": "0x9aa2e7ffee192dcbdb40c9d75917d0d33501e5c6",
      "function": "createSubscription(uint256,uint256)",
      "arguments": [
        "5",
        "10"
      ],
      "transaction": {
        "from": "0x19f19e10e6cb2ea89dae8a40635f7a0e10aeac3d",
        "to": "0x9aa2e7ffee192dcbdb40c9d75917d0d33501e5c6",
        "value": "0x0",
        "input": "0xa71b6cd00000000000000000000000000000000000000000000000000000000000000005000000000000000000000000000000000000000000000000000000000000000a",
        "nonce": "0x9",
        "chainId": "0x14a34"
      },
      "additionalContracts": [],
      "isFixedGasLimit": false
    },
    {
      "hash": "0x07a83c274f2bc5b79b49091c2cbd83a8e290cf33efc451b8cd77298009911fa0",
      "transactionType": "CALL",
      "contractName": null,
      "contractAddress": "0x9aa2e7ffee192dcbdb40c9d75917d0d33501e5c6",
      "function": "processDailyBatch(uint256)",
      "arguments": [
        "0"
      ],
      "transaction": {
        "from": "0xbe2680dc1752109b4344dbeb1072fd8cd880e54b",
        "to": "0x9aa2e7ffee192dcbdb40c9d75917d0d33501e5c6",
        "value": "0x0",
        "input": "0x4c47c3ed0000000000000000000000000000000000000000000000000000000000000000",
        "nonce": "0x2e8",
        "chainId": "0x14a34"
      },
      "additionalContracts": [],
      "isFixedGasLimit": false
    }
  ],
  "receipts": [
    {
      "status": "0x1",
      "cumulativeGasUsed": "0x7fcfd1",
      "logs": [
        {
          "address": "0xa4253e7c13525287c56550b8708100f93e60509f",
          "topics": [
            "0xddf252ad1be2c89b69c2b068fc378daa952ba7f163c4a11628f55a4df523b3ef",
            "0x000000000000000000000000be2680dc1752109b4344dbeb1072fd8cd880e54b",
            "0x000000000000000000000000a0084de38eee190c6f1d4d83b20b9adcc4998799"
          ],
          "data": "0x00000000000000000000000000000000000000000000000000000000002dc6c0",
          "blockHash": "0x092e409ab445ceae5496df13c32fb9387f37ae4f2a7859984c06d8876e2b5412",
          "blockNumber": "0x16d7f63",
          "transactionHash": "0xd495fe67fc731321935b94530b8d041d93f290d937f2a0d6135592e4bb34af5a",
          "transactionIndex": "0x1d",
          "logIndex": "0x8a",
          "removed": false
        }
      ],
      "logsBloom": "0x00000000000000800000080000000000000000000000200000000000000000000000000000000000000000000000200000000000000000000020000000000000000000000000000040000008000000000000000000000000000000000000000000000000000000000000000000000000000000000000000000000010000000000000000000000000000000000000000000000000000000000000000000000000000000000000000000000000000000000000000000000000000000000000000000000042000000000000000000000000000000000000000400000000000000000000000000000000000000000000000000000000000000000000000000008000",
      "type": "0x2",
      "transactionHash": "0xd495fe67fc731321935b94530b8d041d93f290d937f2a0d6135592e4bb34af5a",
      "transactionIndex": "0x1d",
      "blockHash": "0x092e409ab445ceae5496df13c32fb9387f37ae4f2a7859984c06d8876e2b5412",
      "blockNumber": "0x16d7f63",
      "gasUsed": "0x86b4",
      "effectiveGasPrice": "0xe5daa",
      "from": "0xbe2680dc1752109b4344dbeb1072fd8cd880e54b",
      "to": "0xa4253e7c13525287c56550b8708100f93e60509f",
      "contractAddress": null,
      "l1BaseFeeScalar": "0x44d",
      "l1BlobBaseFee": "0x1",
      "l1BlobBaseFeeScalar": "0xa118b",
      "l1Fee": "0x31e1419cf",
      "l1GasPrice": "0x1c50ab662",
      "l1GasUsed": "0x640"
    },
    {
      "status": "0x1",
      "cumulativeGasUsed": "0x3e9601",
      "logs": [],
      "logsBloom": "0x00000000000000000000000000000000000000000000000000000000000000000000000000000000000000000000000000000000000000000000000000000000000000000000000000000000000000000000000000000000000000000000000000000000000000000000000000000000000000000000000000000000000000000000000000000000000000000000000000000000000000000000000000000000000000000000000000000000000000000000000000000000000000000000000000000000000000000000000000000000000000000000000000000000000000000000000000000000000000000000000000000000000000000000000000000000",
      "type": "0x2",
      "transactionHash": "0xd251eb1fa69995c219389e2d073a26cdcc43c4c3bc9214b1377ead2ebe97cd56",
      "transactionIndex": "0x11",
      "blockHash": "0xf40519e7c6493e3a475580fe926e467fdbc0c7383f69ca0a0d9ecae7bda81ddd",
      "blockNumber": "0x16d7f65",
      "gasUsed": "0x5208",
      "effectiveGasPrice": "0xe5daa",
      "from": "0xbe2680dc1752109b4344dbeb1072fd8cd880e54b",
      "to": "0xa0084de38eee190c6f1d4d83b20b9adcc4998799",
      "contractAddress": null,
      "l1BaseFeeScalar": "0x44d",
      "l1BlobBaseFee": "0x1",
      "l1BlobBaseFeeScalar": "0xa118b",
      "l1Fee": "0x320331c4f",
      "l1GasPrice": "0x1c63ef5e2",
      "l1GasUsed": "0x640"
    },
    {
      "status": "0x1",
      "cumulativeGasUsed": "0x59e534",
      "logs": [
        {
          "address": "0xa4253e7c13525287c56550b8708100f93e60509f",
          "topics": [
            "0xddf252ad1be2c89b69c2b068fc378daa952ba7f163c4a11628f55a4df523b3ef",
            "0x000000000000000000000000be2680dc1752109b4344dbeb1072fd8cd880e54b",
            "0x000000000000000000000000070806b631a667a3da88177d326adb27fde834db"
          ],
          "data": "0x0000000000000000000000000000000000000000000000000000000000895440",
          "blockHash": "0xf03de2886d972bdb663d4983e16843f8ac1ea7dcfd6975a6b2aa09f44d9a9758",
          "blockNumber": "0x16d7f67",
          "transactionHash": "0x2d1a40fd3b7414ff7ab418bda65657d1a26645fc739660bf3aa3013eacfdff18",
          "transactionIndex": "0x1f",
          "logIndex": "0x81",
          "removed": false
        }
      ],
      "logsBloom": "0x00000000000000800000080000040000000000000000200000000000000000000000000000000000000000000000000000000000000000000000000000000000000000000000000040000008000000000000000000000000000000000000000000000000000000000000000000000000000000000000000000000010000000000000000000000000000000000000000000000000000000000000000000000040000000000000000000000000000000000000000000000000000000000000000000000002000000000000000000000000000000000000000400000000000000000000000000000000000000000004000000000000000000000000000000008000",
      "type": "0x2",
      "transactionHash": "0x2d1a40fd3b7414ff7ab418bda65657d1a26645fc739660bf3aa3013eacfdff18",
      "transactionIndex": "0x1f",
      "blockHash": "0xf03de2886d972bdb663d4983e16843f8ac1ea7dcfd6975a6b2aa09f44d9a9758",
      "blockNumber": "0x16d7f67",
      "gasUsed": "0x86b4",
      "effectiveGasPrice": "0xe5daa",
      "from": "0xbe2680dc1752109b4344dbeb1072fd8cd880e54b",
      "to": "0xa4253e7c13525287c56550b8708100f93e60509f",
      "contractAddress": null,
      "l1BaseFeeScalar": "0x44d",
      "l1BlobBaseFee": "0x1",
      "l1BlobBaseFeeScalar": "0xa118b",
      "l1Fee": "0x320331c4f",
      "l1GasPrice": "0x1c63ef5e2",
      "l1GasUsed": "0x640"
    },
    {
      "status": "0x1",
      "cumulativeGasUsed": "0x1cdf7b",
      "logs": [],
      "logsBloom": "0x00000000000000000000000000000000000000000000000000000000000000000000000000000000000000000000000000000000000000000000000000000000000000000000000000000000000000000000000000000000000000000000000000000000000000000000000000000000000000000000000000000000000000000000000000000000000000000000000000000000000000000000000000000000000000000000000000000000000000000000000000000000000000000000000000000000000000000000000000000000000000000000000000000000000000000000000000000000000000000000000000000000000000000000000000000000",
      "type": "0x2",
      "transactionHash": "0xa554668153a440d4ac4470ec8ebb5cfb1ba229174487fb631a30a7147f25bfd4",
      "transactionIndex": "0x6",
      "blockHash": "0xc39f964cb4030e61335053e80b6378d441e4feef9de7bb10d31ccd9596e7f5b9",
      "blockNumber": "0x16d7f69",
      "gasUsed": "0x5208",
      "effectiveGasPrice": "0xe5daa",
      "from": "0xbe2680dc1752109b4344dbeb1072fd8cd880e54b",
      "to": "0x070806b631a667a3da88177d326adb27fde834db",
      "contractAddress": null,
      "l1BaseFeeScalar": "0x44d",
      "l1BlobBaseFee": "0x1",
      "l1BlobBaseFeeScalar": "0xa118b",
      "l1Fee": "0x320331c4f",
      "l1GasPrice": "0x1c63ef5e2",
      "l1GasUsed": "0x640"
    },
    {
      "status": "0x1",
      "cumulativeGasUsed": "0x1d5dd6",
      "logs": [
        {
          "address": "0xa4253e7c13525287c56550b8708100f93e60509f",
          "topics": [
            "0xddf252ad1be2c89b69c2b068fc378daa952ba7f163c4a11628f55a4df523b3ef",
            "0x000000000000000000000000be2680dc1752109b4344dbeb1072fd8cd880e54b",
            "0x000000000000000000000000546da7c993d811d067f4c102b4281fe3c2af6a8d"
          ],
          "data": "0x000000000000000000000000000000000000000000000000000000000121eac0",
          "blockHash": "0x05cb33b616e9c26957a34069fd827d782d2eb34fada73b692fa0a7d8abe09280",
          "blockNumber": "0x16d7f6b",
          "transactionHash": "0xe7e3b5e68d39b59b2c29c57d02f1416a71994eb8fdcae44965b5dff7834c8ecf",
          "transactionIndex": "0x6",
          "logIndex": "0x11",
          "removed": false
        }
      ],
      "logsBloom": "0x00000000000000800000080000000000000020000400200000000000000000000000000000000000000000000000000000000000000000000000000000000000000000000000000040000008000000000000000000000000000000000000000000000000000000000000000000000000000000000000000000000010000000000000200000000000000000000000000000000000000000000000000000000000000000000000000000000000000000000000000000000000000000000000000000000002000000000000000000000000000000000000000400000000000000000000000000000000000000000000000000000000000000000000000000008000",
      "type": "0x2",
      "transactionHash": "0xe7e3b5e68d39b59b2c29c57d02f1416a71994eb8fdcae44965b5dff7834c8ecf",
      "transactionIndex": "0x6",
      "blockHash": "0x05cb33b616e9c26957a34069fd827d782d2eb34fada73b692fa0a7d8abe09280",
      "blockNumber": "0x16d7f6b",
      "gasUsed": "0x86c0",
      "effectiveGasPrice": "0xe5da8",
      "from": "0xbe2680dc1752109b4344dbeb1072fd8cd880e54b",
      "to": "0xa4253e7c13525287c56550b8708100f93e60509f",
      "contractAddress": null,
      "l1BaseFeeScalar": "0x44d",
      "l1BlobBaseFee": "0x1",
      "l1BlobBaseFeeScalar": "0xa118b",
      "l1Fee": "0x30384f489",
      "l1GasPrice": "0x1b5f711fe",
      "l1GasUsed": "0x640"
    },
    {
      "status": "0x1",
      "cumulativeGasUsed": "0x996fe5",
      "logs": [],
      "logsBloom": "0x00000000000000000000000000000000000000000000000000000000000000000000000000000000000000000000000000000000000000000000000000000000000000000000000000000000000000000000000000000000000000000000000000000000000000000000000000000000000000000000000000000000000000000000000000000000000000000000000000000000000000000000000000000000000000000000000000000000000000000000000000000000000000000000000000000000000000000000000000000000000000000000000000000000000000000000000000000000000000000000000000000000000000000000000000000000",
      "type": "0x2",
      "transactionHash": "0x702fd9b60f996991bcaea019656594c0e40b10c724f3f8f07e9a9bd120fc8d1f",
      "transactionIndex": "0x2b",
      "blockHash": "0x2e2d6b19b0023ab9d77d86a9bbf5b4de851eb19adbc87ba0ea585b06b9a9f1a4",
      "blockNumber": "0x16d7f6c",
      "gasUsed": "0x5208",
      "effectiveGasPrice": "0xe5da8",
      "from": "0xbe2680dc1752109b4344dbeb1072fd8cd880e54b",
      "to": "0x546da7c993d811d067f4c102b4281fe3c2af6a8d",
      "contractAddress": null,
      "l1BaseFeeScalar": "0x44d",
      "l1BlobBaseFee": "0x1",
      "l1BlobBaseFeeScalar": "0xa118b",
      "l1Fee": "0x30384f489",
      "l1GasPrice": "0x1b5f711fe",
      "l1GasUsed": "0x640"
    },
    {
      "status": "0x1",
      "cumulativeGasUsed": "0x52901b",
      "logs": [
        {
          "address": "0xa4253e7c13525287c56550b8708100f93e60509f",
          "topics": [
            "0xddf252ad1be2c89b69c2b068fc378daa952ba7f163c4a11628f55a4df523b3ef",
            "0x000000000000000000000000be2680dc1752109b4344dbeb1072fd8cd880e54b",
            "0x000000000000000000000000bef88420f20ab95e5f7ea851f6008dbbee97dc26"
          ],
          "data": "0x0000000000000000000000000000000000000000000000000000000001f78a40",
          "blockHash": "0xca67117fbc400c7c5353cb6fbe911f59efabea5b5eb657e1649a03ca8a4331f8",
          "blockNumber": "0x16d7f6e",
          "transactionHash": "0x7fd94601f21a0bba2df8a8140f69218d37a1416b86c5a7a77db5f0bbc31ab73f",
          "transactionIndex": "0x1b",
          "logIndex": "0x2d",
          "removed": false
        }
      ],
      "logsBloom": "0x00020000000000800000080000000000000000000000200000000000000000000000000000000000000000000000000000000000000080000000000000000000000000000000000040000008000000000000000000000000000000000000000000000000000000000000000000000000000000000000000000000010000000000000000000000000000000000000000000000000000000000100000000000000000000000000000000000000000000000000000000000000000000000000000000000002000000000000000000000000000000000000000400000000000000000000000000000000000000000000000000000000000000000000000000008000",
      "type": "0x2",
      "transactionHash": "0x7fd94601f21a0bba2df8a8140f69218d37a1416b86c5a7a77db5f0bbc31ab73f",
      "transactionIndex": "0x1b",
      "blockHash": "0xca67117fbc400c7c5353cb6fbe911f59efabea5b5eb657e1649a03ca8a4331f8",
      "blockNumber": "0x16d7f6e",
      "gasUsed": "0x86b4",
      "effectiveGasPrice": "0xe5da7",
      "from": "0xbe2680dc1752109b4344dbeb1072fd8cd880e54b",
      "to": "0xa4253e7c13525287c56550b8708100f93e60509f",
      "contractAddress": null,
      "l1BaseFeeScalar": "0x44d",
      "l1BlobBaseFee": "0x1",
      "l1BlobBaseFeeScalar": "0xa118b",
      "l1Fee": "0x30384f489",
      "l1GasPrice": "0x1b5f711fe",
      "l1GasUsed": "0x640"
    },
    {
      "status": "0x1",
      "cumulativeGasUsed": "0x2572c0",
      "logs": [],
      "logsBloom": "0x00000000000000000000000000000000000000000000000000000000000000000000000000000000000000000000000000000000000000000000000000000000000000000000000000000000000000000000000000000000000000000000000000000000000000000000000000000000000000000000000000000000000000000000000000000000000000000000000000000000000000000000000000000000000000000000000000000000000000000000000000000000000000000000000000000000000000000000000000000000000000000000000000000000000000000000000000000000000000000000000000000000000000000000000000000000",
      "type": "0x2",
      "transactionHash": "0x68cf5acff1cee7bc2f2fea3fbe601da9d9fe8e7ca4b9924b723b9776cb12e723",
      "transactionIndex": "0x13",
      "blockHash": "0x39382fee96148a81f0f408a1e3bec0ca789aebc07b721189bec4cc66e9dbb213",
      "blockNumber": "0x16d7f70",
      "gasUsed": "0x5208",
      "effectiveGasPrice": "0xe5da7",
      "from": "0xbe2680dc1752109b4344dbeb1072fd8cd880e54b",
      "to": "0xbef88420f20ab95e5f7ea851f6008dbbee97dc26",
      "contractAddress": null,
      "l1BaseFeeScalar": "0x44d",
      "l1BlobBaseFee": "0x1",
      "l1BlobBaseFeeScalar": "0xa118b",
      "l1Fee": "0x2eda1e35f",
      "l1GasPrice": "0x1a98a66a7",
      "l1GasUsed": "0x640"
    },
    {
      "status": "0x1",
      "cumulativeGasUsed": "0x29acab",
      "logs": [
        {
          "address": "0xa4253e7c13525287c56550b8708100f93e60509f",
          "topics": [
            "0xddf252ad1be2c89b69c2b068fc378daa952ba7f163c4a11628f55a4df523b3ef",
            "0x000000000000000000000000be2680dc1752109b4344dbeb1072fd8cd880e54b",
            "0x00000000000000000000000019f19e10e6cb2ea89dae8a40635f7a0e10aeac3d"
          ],
          "data": "0x00000000000000000000000000000000000000000000000000000000030a32c0",
          "blockHash": "0x5ee020b9f6dbd6862879edbddf95a7b21ba77b12aff7e671ccfbb8c69c14bd59",
          "blockNumber": "0x16d7f72",
          "transactionHash": "0x7e68a7ed663e641c2db2835e4e440e1cef5791bba5ba911510312a99d3d1e06c",
          "transactionIndex": "0xe",
          "logIndex": "0x46",
          "removed": false
        }
      ],
      "logsBloom": "0x00000000000000800000080000000000000000000000200000000000000000000000000000000000000000000000000000000000000000000000000000000000000000000000000040000088000000000000000000000000000000000000000000000000000000000000000000000000000000000000000000000010000000000000000000000000000000000000000000000000000000000000000000000000000000000000000000080000000000000000000000000000000000000000200000000002000000000000000000000000000000000000000400000000000000000000000000000000000000000000000000000000000000000000000000008000",
      "type": "0x2",
      "transactionHash": "0x7e68a7ed663e641c2db2835e4e440e1cef5791bba5ba911510312a99d3d1e06c",
      "transactionIndex": "0xe",
      "blockHash": "0x5ee020b9f6dbd6862879edbddf95a7b21ba77b12aff7e671ccfbb8c69c14bd59",
      "blockNumber": "0x16d7f72",
      "gasUsed": "0x86c0",
      "effectiveGasPrice": "0xe5da7",
      "from": "0xbe2680dc1752109b4344dbeb1072fd8cd880e54b",
      "to": "0xa4253e7c13525287c56550b8708100f93e60509f",
      "contractAddress": null,
      "l1BaseFeeScalar": "0x44d",
      "l1BlobBaseFee": "0x1",
      "l1BlobBaseFeeScalar": "0xa118b",
      "l1Fee": "0x2eda1e35f",
      "l1GasPrice": "0x1a98a66a7",
      "l1GasUsed": "0x640"
    },
    {
      "status": "0x1",
      "cumulativeGasUsed": "0x359b8c",
      "logs": [],
      "logsBloom": "0x00000000000000000000000000000000000000000000000000000000000000000000000000000000000000000000000000000000000000000000000000000000000000000000000000000000000000000000000000000000000000000000000000000000000000000000000000000000000000000000000000000000000000000000000000000000000000000000000000000000000000000000000000000000000000000000000000000000000000000000000000000000000000000000000000000000000000000000000000000000000000000000000000000000000000000000000000000000000000000000000000000000000000000000000000000000",
      "type": "0x2",
      "transactionHash": "0xbb3d58f7883db90996b88587fca4eef6bc47744ca4b2cf915dad38b5f82ea2be",
      "transactionIndex": "0xd",
      "blockHash": "0xf72f7f20d4dea63c0b3fa24823cefc10c5c89e95d30d35183a5180b1ee5c0e7d",
      "blockNumber": "0x16d7f74",
      "gasUsed": "0x5208",
      "effectiveGasPrice": "0xe5da5",
      "from": "0xbe2680dc1752109b4344dbeb1072fd8cd880e54b",
      "to": "0x19f19e10e6cb2ea89dae8a40635f7a0e10aeac3d",
      "contractAddress": null,
      "l1BaseFeeScalar": "0x44d",
      "l1BlobBaseFee": "0x1",
      "l1BlobBaseFeeScalar": "0xa118b",
      "l1Fee": "0x2eda1e35f",
      "l1GasPrice": "0x1a98a66a7",
      "l1GasUsed": "0x640"
    },
    {
      "status": "0x1",
      "cumulativeGasUsed": "0xf1d77",
      "logs": [
        {
          "address": "0xa4253e7c13525287c56550b8708100f93e60509f",
          "topics": [
            "0x8c5be1e5ebec7d5bd14f71427d1e84f3dd0314c0f7b2291e5b200ac8c7c3b925",
            "0x000000000000000000000000a0084de38eee190c6f1d4d83b20b9adcc4998799",
            "0x0000000000000000000000009aa2e7ffee192dcbdb40c9d75917d0d33501e5c6"
          ],
          "data": "0x00000000000000000000000000000000000000000000000000000000001e8480",
          "blockHash": "0x2ef9fe653718ab74f86287dcec9a832bee1777fad2c2e24bf428fa21f96e1a4b",
          "blockNumber": "0x16d7f76",
          "transactionHash": "0xebc6dddc4b62756751abef0917970bf5dd9f391ba17832533bb040e790524213",
          "transactionIndex": "0xa",
          "logIndex": "0xc",
          "removed": false
        }
      ],
      "logsBloom": "0x00000000000000800000000000000000000000000000200000000000000000000000002000000000000000000000200000000000000000000020000000200000000000000000000040000000000000000000000000000000000000000000000000001000000000000000000000000000000000000000000000000000000000000000000000000000000000000000000000000000000000000000000000000000020000000000000000000000000000000000000000000000000000000000000000000040000000000000800000000000000000000000000000000000000000000010000000000000000000000000000000000000000000000000000000000000",
      "type": "0x2",
      "transactionHash": "0xebc6dddc4b62756751abef0917970bf5dd9f391ba17832533bb040e790524213",
      "transactionIndex": "0xa",
      "blockHash": "0x2ef9fe653718ab74f86287dcec9a832bee1777fad2c2e24bf428fa21f96e1a4b",
      "blockNumber": "0x16d7f76",
      "gasUsed": "0xb4ff",
      "effectiveGasPrice": "0xe5da4",
      "from": "0xa0084de38eee190c6f1d4d83b20b9adcc4998799",
      "to": "0xa4253e7c13525287c56550b8708100f93e60509f",
      "contractAddress": null,
      "l1BaseFeeScalar": "0x44d",
      "l1BlobBaseFee": "0x1",
      "l1BlobBaseFeeScalar": "0xa118b",
      "l1Fee": "0x301ffc987",
      "l1GasPrice": "0x1b51a2727",
      "l1GasUsed": "0x640"
    },
    {
      "status": "0x1",
      "cumulativeGasUsed": "0x111e1b4",
      "logs": [
        {
          "address": "0xa4253e7c13525287c56550b8708100f93e60509f",
          "topics": [
            "0xddf252ad1be2c89b69c2b068fc378daa952ba7f163c4a11628f55a4df523b3ef",
            "0x000000000000000000000000a0084de38eee190c6f1d4d83b20b9adcc4998799",
            "0x0000000000000000000000009aa2e7ffee192dcbdb40c9d75917d0d33501e5c6"
          ],
          "data": "0x00000000000000000000000000000000000000000000000000000000001e8480",
          "blockHash": "0xc2240ee4a7334d65844cbab7fca05870966c9297ee6dfcd82195b0e717d152ee",
          "blockNumber": "0x16d7f77",
          "transactionHash": "0x4d335a0803d2848840535eeac6ea545cbd0f7a16eb6f382d56c9f6fb0ffa3f15",
          "transactionIndex": "0x34",
          "logIndex": "0x1a3",
          "removed": false
        },
        {
          "address": "0x9aa2e7ffee192dcbdb40c9d75917d0d33501e5c6",
          "topics": [
            "0x7bd0f397cad502ff77ef77218a9bc164a74f31a190560438785c85c38c3f64dd",
            "0x000000000000000000000000a0084de38eee190c6f1d4d83b20b9adcc4998799"
          ],
          "data": "0x0000000000000000000000000000000000000000000000000000000000000001000000000000000000000000000000000000000000000000000000000000000600000000000000000000000000000000000000000000000000000000001e8480",
          "blockHash": "0xc2240ee4a7334d65844cbab7fca05870966c9297ee6dfcd82195b0e717d152ee",
          "blockNumber": "0x16d7f77",
          "transactionHash": "0x4d335a0803d2848840535eeac6ea545cbd0f7a16eb6f382d56c9f6fb0ffa3f15",
          "transactionIndex": "0x34",
          "logIndex": "0x1a4",
          "removed": false
        }
      ],
      "logsBloom": "0x00000000000000800000000000000000000000000000200000000000000000000000002000000000000000000000200000000000000000000020000000800000000000000000000140000008000400000000000000000000000000000400000000001000000000000000000000000000000000000000000000000010000000000000000000000000000000000000000000000000000000000000000008000000000000000000000000000000000000000000000000000000000000000000000000000042000000000000800000000000000000000000000000000000000000000000000000000000000000000000000000000000000000000800000000000000",
      "type": "0x2",
      "transactionHash": "0x4d335a0803d2848840535eeac6ea545cbd0f7a16eb6f382d56c9f6fb0ffa3f15",
      "transactionIndex": "0x34",
      "blockHash": "0xc2240ee4a7334d65844cbab7fca05870966c9297ee6dfcd82195b0e717d152ee",
      "blockNumber": "0x16d7f77",
      "gasUsed": "0x1090f",
      "effectiveGasPrice": "0xe5da4",
      "from": "0xa0084de38eee190c6f1d4d83b20b9adcc4998799",
      "to": "0x9aa2e7ffee192dcbdb40c9d75917d0d33501e5c6",
      "contractAddress": null,
      "l1BaseFeeScalar": "0x44d",
      "l1BlobBaseFee": "0x1",
      "l1BlobBaseFeeScalar": "0xa118b",
      "l1Fee": "0x301ffc987",
      "l1GasPrice": "0x1b51a2727",
      "l1GasUsed": "0x640"
    },
    {
      "status": "0x1",
      "cumulativeGasUsed": "0x5721ad",
      "logs": [
        {
          "address": "0xa4253e7c13525287c56550b8708100f93e60509f",
          "topics": [
            "0x8c5be1e5ebec7d5bd14f71427d1e84f3dd0314c0f7b2291e5b200ac8c7c3b925",
            "0x000000000000000000000000070806b631a667a3da88177d326adb27fde834db",
            "0x0000000000000000000000009aa2e7ffee192dcbdb40c9d75917d0d33501e5c6"
          ],
          "data": "0x00000000000000000000000000000000000000000000000000000000007a1200",
          "blockHash": "0x661dfbeed8421190eea453343f0e8a043387918ca25609c164d62c136e0adb47",
          "blockNumber": "0x16d7f79",
          "transactionHash": "0xf2123f2118d117148153033ba448f2a11d334d32eea6ee1d6bb7abe4b1255e24",
          "transactionIndex": "0x17",
          "logIndex": "0x72",
          "removed": false
        }
      ],
      "logsBloom": "0x00000000000000800000000000040000000000000000200000000000000000000000002000000000000000000000000000000000000000000000000000200000000000000000000040000000000000000000000000000000000000000000000000001000000000000000000000000000000000000000000000000000000000000000000000000000000000000000000000000000000000000000000000000040020000000000000000000000000000000000000000000000000000000000000000000000000000000000800000000000000000000000000000000000000000000010000000000000000000000004000000000000000000000000000000000000",
      "type": "0x2",
      "transactionHash": "0xf2123f2118d117148153033ba448f2a11d334d32eea6ee1d6bb7abe4b1255e24",
      "transactionIndex": "0x17",
      "blockHash": "0x661dfbeed8421190eea453343f0e8a043387918ca25609c164d62c136e0adb47",
      "blockNumber": "0x16d7f79",
      "gasUsed": "0xb4f3",
      "effectiveGasPrice": "0xe5da5",
      "from": "0x070806b631a667a3da88177d326adb27fde834db",
      "to": "0xa4253e7c13525287c56550b8708100f93e60509f",
      "contractAddress": null,
      "l1BaseFeeScalar": "0x44d",
      "l1BlobBaseFee": "0x1",
      "l1BlobBaseFeeScalar": "0xa118b",
      "l1Fee": "0x301ffc987",
      "l1GasPrice": "0x1b51a2727",
      "l1GasUsed": "0x640"
    },
    {
      "status": "0x1",
      "cumulativeGasUsed": "0xb8b483",
      "logs": [
        {
          "address": "0xa4253e7c13525287c56550b8708100f93e60509f",
          "topics": [
            "0xddf252ad1be2c89b69c2b068fc378daa952ba7f163c4a11628f55a4df523b3ef",
            "0x000000000000000000000000070806b631a667a3da88177d326adb27fde834db",
            "0x0000000000000000000000009aa2e7ffee192dcbdb40c9d75917d0d33501e5c6"
          ],
          "data": "0x00000000000000000000000000000000000000000000000000000000007a1200",
          "blockHash": "0xbdf248c40cb8886b9dfce2c64dfc5e6b2e57799d29057e2b1aca373eaaa688cb",
          "blockNumber": "0x16d7f7a",
          "transactionHash": "0x07236b5f29b52296ab010bec8e2c236675c78443083371cbbc7510f381068449",
          "transactionIndex": "0x22",
          "logIndex": "0x11c",
          "removed": false
        },
        {
          "address": "0x9aa2e7ffee192dcbdb40c9d75917d0d33501e5c6",
          "topics": [
            "0x7bd0f397cad502ff77ef77218a9bc164a74f31a190560438785c85c38c3f64dd",
            "0x000000000000000000000000070806b631a667a3da88177d326adb27fde834db"
          ],
          "data": "0x0000000000000000000000000000000000000000000000000000000000000002000000000000000000000000000000000000000000000000000000000000000c00000000000000000000000000000000000000000000000000000000007a1200",
          "blockHash": "0xbdf248c40cb8886b9dfce2c64dfc5e6b2e57799d29057e2b1aca373eaaa688cb",
          "blockNumber": "0x16d7f7a",
          "transactionHash": "0x07236b5f29b52296ab010bec8e2c236675c78443083371cbbc7510f381068449",
          "transactionIndex": "0x22",
          "logIndex": "0x11d",
          "removed": false
        }
      ],
      "logsBloom": "0x00000000000000800000000000040000000000000000200000000000000000000000002000000000000000000000000000000000000000000000000000800000000000000000000140000008000400000000000000000000000000000400000000001000000000000000000000000000000000000000000000000010000000000000000000000000000000000000000000000000000000000000000008000040000000000000000000000000000000000000000000000000000000000000000000000002000000000000800000000000000000000000000000000000000000000000000000000000000000000004000000000000000000000800000000000000",
      "type": "0x2",
      "transactionHash": "0x07236b5f29b52296ab010bec8e2c236675c78443083371cbbc7510f381068449",
      "transactionIndex": "0x22",
      "blockHash": "0xbdf248c40cb8886b9dfce2c64dfc5e6b2e57799d29057e2b1aca373eaaa688cb",
      "blockNumber": "0x16d7f7a",
      "gasUsed": "0x1090f",
      "effectiveGasPrice": "0xe5da4",
      "from": "0x070806b631a667a3da88177d326adb27fde834db",
      "to": "0x9aa2e7ffee192dcbdb40c9d75917d0d33501e5c6",
      "contractAddress": null,
      "l1BaseFeeScalar": "0x44d",
      "l1BlobBaseFee": "0x1",
      "l1BlobBaseFeeScalar": "0xa118b",
      "l1Fee": "0x301ffc987",
      "l1GasPrice": "0x1b51a2727",
      "l1GasUsed": "0x640"
    },
    {
      "status": "0x1",
      "cumulativeGasUsed": "0x32f9cb",
      "logs": [
        {
          "address": "0xa4253e7c13525287c56550b8708100f93e60509f",
          "topics": [
            "0x8c5be1e5ebec7d5bd14f71427d1e84f3dd0314c0f7b2291e5b200ac8c7c3b925",
            "0x000000000000000000000000546da7c993d811d067f4c102b4281fe3c2af6a8d",
            "0x0000000000000000000000009aa2e7ffee192dcbdb40c9d75917d0d33501e5c6"
          ],
          "data": "0x000000000000000000000000000000000000000000000000000000000112a880",
          "blockHash": "0x8a2f07b680aeee3651c3e3db69b89299998e3c4ddebe2322ecbc5a49ece93771",
          "blockNumber": "0x16d7f7c",
          "transactionHash": "0x762a40759f978fb83b58e6e69cf767a308120266479042f2e85f9122043f4f90",
          "transactionIndex": "0x10",
          "logIndex": "0x17",
          "removed": false
        }
      ],
      "logsBloom": "0x00000000000000800000000000000000000020000400200000000000000000000000002000000000000000000000000000000000000000000000000000200000000000000000000040000000000000000000000000000000000000000000000000001000000000000000000000000000000000000000000000000000000000000000200000000000000000000000000000000000000000000000000000000000020000000000000000000000000000000000000000000000000000000000000000000000000000000000800000000000000000000000000000000000000000000010000000000000000000000000000000000000000000000000000000000000",
      "type": "0x2",
      "transactionHash": "0x762a40759f978fb83b58e6e69cf767a308120266479042f2e85f9122043f4f90",
      "transactionIndex": "0x10",
      "blockHash": "0x8a2f07b680aeee3651c3e3db69b89299998e3c4ddebe2322ecbc5a49ece93771",
      "blockNumber": "0x16d7f7c",
      "gasUsed": "0xb50b",
      "effectiveGasPrice": "0xe5da3",
      "from": "0x546da7c993d811d067f4c102b4281fe3c2af6a8d",
      "to": "0xa4253e7c13525287c56550b8708100f93e60509f",
      "contractAddress": null,
      "l1BaseFeeScalar": "0x44d",
      "l1BlobBaseFee": "0x1",
      "l1BlobBaseFeeScalar": "0xa118b",
      "l1Fee": "0x2f5e388fe",
      "l1GasPrice": "0x1ae3a3ef9",
      "l1GasUsed": "0x640"
    },
    {
      "status": "0x1",
      "cumulativeGasUsed": "0x5b4f5e",
      "logs": [
        {
          "address": "0xa4253e7c13525287c56550b8708100f93e60509f",
          "topics": [
            "0xddf252ad1be2c89b69c2b068fc378daa952ba7f163c4a11628f55a4df523b3ef",
            "0x000000000000000000000000546da7c993d811d067f4c102b4281fe3c2af6a8d",
            "0x0000000000000000000000009aa2e7ffee192dcbdb40c9d75917d0d33501e5c6"
          ],
          "data": "0x000000000000000000000000000000000000000000000000000000000112a880",
          "blockHash": "0xe45a41f5f8c0630a0537029d0fd2d7de1263fa6bdc00236e5615697cea4644ba",
          "blockNumber": "0x16d7f7e",
          "transactionHash": "0xebdf415d578e7bb75cde19728327d7c7b51bbd4932bffb50da22223e917df74b",
          "transactionIndex": "0x16",
          "logIndex": "0x11",
          "removed": false
        },
        {
          "address": "0x9aa2e7ffee192dcbdb40c9d75917d0d33501e5c6",
          "topics": [
            "0x7bd0f397cad502ff77ef77218a9bc164a74f31a190560438785c85c38c3f64dd",
            "0x000000000000000000000000546da7c993d811d067f4c102b4281fe3c2af6a8d"
          ],
          "data": "0x00000000000000000000000000000000000000000000000000000000000000030000000000000000000000000000000000000000000000000000000000000012000000000000000000000000000000000000000000000000000000000112a880",
          "blockHash": "0xe45a41f5f8c0630a0537029d0fd2d7de1263fa6bdc00236e5615697cea4644ba",
          "blockNumber": "0x16d7f7e",
          "transactionHash": "0xebdf415d578e7bb75cde19728327d7c7b51bbd4932bffb50da22223e917df74b",
          "transactionIndex": "0x16",
          "logIndex": "0x12",
          "removed": false
        }
      ],
      "logsBloom": "0x00000000000000800000000000000000000020000400200000000000000000000000002000000000000000000000000000000000000000000000000000800000000000000000000140000008000400000000000000000000000000000400000000001000000000000000000000000000000000000000000000000010000000000000200000000000000000000000000000000000000000000000000008000000000000000000000000000000000000000000000000000000000000000000000000000002000000000000800000000000000000000000000000000000000000000000000000000000000000000000000000000000000000000800000000000000",
      "type": "0x2",
      "transactionHash": "0xebdf415d578e7bb75cde19728327d7c7b51bbd4932bffb50da22223e917df74b",
      "transactionIndex": "0x16",
      "blockHash": "0xe45a41f5f8c0630a0537029d0fd2d7de1263fa6bdc00236e5615697cea4644ba",
      "blockNumber": "0x16d7f7e",
      "gasUsed": "0x1090f",
      "effectiveGasPrice": "0xe5da2",
      "from": "0x546da7c993d811d067f4c102b4281fe3c2af6a8d",
      "to": "0x9aa2e7ffee192dcbdb40c9d75917d0d33501e5c6",
      "contractAddress": null,
      "l1BaseFeeScalar": "0x44d",
      "l1BlobBaseFee": "0x1",
      "l1BlobBaseFeeScalar": "0xa118b",
      "l1Fee": "0x2f5e388fe",
      "l1GasPrice": "0x1ae3a3ef9",
      "l1GasUsed": "0x640"
    },
    {
      "status": "0x1",
      "cumulativeGasUsed": "0x2d880f",
      "logs": [
        {
          "address": "0xa4253e7c13525287c56550b8708100f93e60509f",
          "topics": [
            "0x8c5be1e5ebec7d5bd14f71427d1e84f3dd0314c0f7b2291e5b200ac8c7c3b925",
            "0x000000000000000000000000bef88420f20ab95e5f7ea851f6008dbbee97dc26",
            "0x0000000000000000000000009aa2e7ffee192dcbdb40c9d75917d0d33501e5c6"
          ],
          "data": "0x0000000000000000000000000000000000000000000000000000000001e84800",
          "blockHash": "0x43569dab60f1673de31fbd7b6086a13f06dfe8bb1031b0c1ee4d89d5cff53124",
          "blockNumber": "0x16d7f80",
          "transactionHash": "0x633d137acedd95ecf095cd0ef44eec5d9421e242b537674ecf053e535907ffcf",
          "transactionIndex": "0x8",
          "logIndex": "0x37",
          "removed": false
        }
      ],
      "logsBloom": "0x00020000000000800000000000000000000000000000200000000000000000000000002000000000000000000000000000000000000080000000000000200000000000000000000040000000000000000000000000000000000000000000000000001000000000000000000000000000000000000000000000000000000000000000000000000000000000000000000000000000000000000100000000000000020000000000000000000000000000000000000000000000000000000000000000000000000000000000800000000000000000000000000000000000000000000010000000000000000000000000000000000000000000000000000000000000",
      "type": "0x2",
      "transactionHash": "0x633d137acedd95ecf095cd0ef44eec5d9421e242b537674ecf053e535907ffcf",
      "transactionIndex": "0x8",
      "blockHash": "0x43569dab60f1673de31fbd7b6086a13f06dfe8bb1031b0c1ee4d89d5cff53124",
      "blockNumber": "0x16d7f80",
      "gasUsed": "0xb4ff",
      "effectiveGasPrice": "0xe5da1",
      "from": "0xbef88420f20ab95e5f7ea851f6008dbbee97dc26",
      "to": "0xa4253e7c13525287c56550b8708100f93e60509f",
      "contractAddress": null,
      "l1BaseFeeScalar": "0x44d",
      "l1BlobBaseFee": "0x1",
      "l1BlobBaseFeeScalar": "0xa118b",
      "l1Fee": "0x2f5e388fe",
      "l1GasPrice": "0x1ae3a3ef9",
      "l1GasUsed": "0x640"
    },
    {
      "status": "0x1",
      "cumulativeGasUsed": "0x230a3f",
      "logs": [
        {
          "address": "0xa4253e7c13525287c56550b8708100f93e60509f",
          "topics": [
            "0xddf252ad1be2c89b69c2b068fc378daa952ba7f163c4a11628f55a4df523b3ef",
            "0x000000000000000000000000bef88420f20ab95e5f7ea851f6008dbbee97dc26",
            "0x0000000000000000000000009aa2e7ffee192dcbdb40c9d75917d0d33501e5c6"
          ],
          "data": "0x0000000000000000000000000000000000000000000000000000000001e84800",
          "blockHash": "0x6702a23db60e18e94b3cb20f83835d2516f58a166c3a2c3493e3ae8ec684798c",
          "blockNumber": "0x16d7f82",
          "transactionHash": "0x14230980ba52edd82ddd8d8cd8d8bcb4284c3f50f3b50d005b067ffa73001705",
          "transactionIndex": "0x9",
          "logIndex": "0x5",
          "removed": false
        },
        {
          "address": "0x9aa2e7ffee192dcbdb40c9d75917d0d33501e5c6",
          "topics": [
            "0x7bd0f397cad502ff77ef77218a9bc164a74f31a190560438785c85c38c3f64dd",
            "0x000000000000000000000000bef88420f20ab95e5f7ea851f6008dbbee97dc26"
          ],
          "data": "0x000000000000000000000000000000000000000000000000000000000000000400000000000000000000000000000000000000000000000000000000000000180000000000000000000000000000000000000000000000000000000001e84800",
          "blockHash": "0x6702a23db60e18e94b3cb20f83835d2516f58a166c3a2c3493e3ae8ec684798c",
          "blockNumber": "0x16d7f82",
          "transactionHash": "0x14230980ba52edd82ddd8d8cd8d8bcb4284c3f50f3b50d005b067ffa73001705",
          "transactionIndex": "0x9",
          "logIndex": "0x6",
          "removed": false
        }
      ],
      "logsBloom": "0x00020000000000800000000000000000000000000000200000000000000000000000002000000000000000000000000000000000000080000000000000800000000000000000000140000008000400000000000000000000000000000400000000001000000000000000000000000000000000000000000000000010000000000000000000000000000000000000000000000000000000000100000008000000000000000000000000000000000000000000000000000000000000000000000000000002000000000000800000000000000000000000000000000000000000000000000000000000000000000000000000000000000000000800000000000000",
      "type": "0x2",
      "transactionHash": "0x14230980ba52edd82ddd8d8cd8d8bcb4284c3f50f3b50d005b067ffa73001705",
      "transactionIndex": "0x9",
      "blockHash": "0x6702a23db60e18e94b3cb20f83835d2516f58a166c3a2c3493e3ae8ec684798c",
      "blockNumber": "0x16d7f82",
      "gasUsed": "0x1090f",
      "effectiveGasPrice": "0xe5da1",
      "from": "0xbef88420f20ab95e5f7ea851f6008dbbee97dc26",
      "to": "0x9aa2e7ffee192dcbdb40c9d75917d0d33501e5c6",
      "contractAddress": null,
      "l1BaseFeeScalar": "0x44d",
      "l1BlobBaseFee": "0x1",
      "l1BlobBaseFeeScalar": "0xa118b",
      "l1Fee": "0x2fab12249",
      "l1GasPrice": "0x1b0f43f43",
      "l1GasUsed": "0x640"
    },
    {
      "status": "0x1",
      "cumulativeGasUsed": "0xdafb72",
      "logs": [
        {
          "address": "0xa4253e7c13525287c56550b8708100f93e60509f",
          "topics": [
            "0x8c5be1e5ebec7d5bd14f71427d1e84f3dd0314c0f7b2291e5b200ac8c7c3b925",
            "0x00000000000000000000000019f19e10e6cb2ea89dae8a40635f7a0e10aeac3d",
            "0x0000000000000000000000009aa2e7ffee192dcbdb40c9d75917d0d33501e5c6"
          ],
          "data": "0x0000000000000000000000000000000000000000000000000000000002faf080",
          "blockHash": "0xe2c4035a714ba878192f0354eae59547c3f2d4599b32fdb16cab2d0437860755",
          "blockNumber": "0x16d7f83",
          "transactionHash": "0x5d3c2affe9b8d4c65bc52ee0ffafeb62ff9a47e65f1f16f1521e6029a2d00132",
          "transactionIndex": "0x2a",
          "logIndex": "0x1c4",
          "removed": false
        }
      ],
      "logsBloom": "0x00000000000000800000000000000000000000000000200000000000000000000000002000000000000000000000000000000000000000000000000000200000000000000000000040000080000000000000000000000000000000000000000000001000000000000000000000000000000000000000000000000000000000000000000000000000000000000000000000000000000000000000000000000000020000000000000000080000000000000000000000000000000000000000200000000000000000000000800000000000000000000000000000000000000000000010000000000000000000000000000000000000000000000000000000000000",
      "type": "0x2",
      "transactionHash": "0x5d3c2affe9b8d4c65bc52ee0ffafeb62ff9a47e65f1f16f1521e6029a2d00132",
      "transactionIndex": "0x2a",
      "blockHash": "0xe2c4035a714ba878192f0354eae59547c3f2d4599b32fdb16cab2d0437860755",
      "blockNumber": "0x16d7f83",
      "gasUsed": "0xb50b",
      "effectiveGasPrice": "0xe5da1",
      "from": "0x19f19e10e6cb2ea89dae8a40635f7a0e10aeac3d",
      "to": "0xa4253e7c13525287c56550b8708100f93e60509f",
      "contractAddress": null,
      "l1BaseFeeScalar": "0x44d",
      "l1BlobBaseFee": "0x1",
      "l1BlobBaseFeeScalar": "0xa118b",
      "l1Fee": "0x2fab12249",
      "l1GasPrice": "0x1b0f43f43",
      "l1GasUsed": "0x640"
    },
    {
      "status": "0x1",
      "cumulativeGasUsed": "0x83a338",
      "logs": [
        {
          "address": "0xa4253e7c13525287c56550b8708100f93e60509f",
          "topics": [
            "0xddf252ad1be2c89b69c2b068fc378daa952ba7f163c4a11628f55a4df523b3ef",
            "0x00000000000000000000000019f19e10e6cb2ea89dae8a40635f7a0e10aeac3d",
            "0x0000000000000000000000009aa2e7ffee192dcbdb40c9d75917d0d33501e5c6"
          ],
          "data": "0x0000000000000000000000000000000000000000000000000000000002faf080",
          "blockHash": "0xcdcfe0aa46e6dfa6fd79238bc69f2419f4c712863e107e0cf855850da1ac9f3e",
          "blockNumber": "0x16d7f85",
          "transactionHash": "0x4160a89d3bbb7e9b5cbc8fe1163570115f166579eec9dc9b3d0345220ac44be7",
          "transactionIndex": "0x25",
          "logIndex": "0x9f",
          "removed": false
        },
        {
          "address": "0x9aa2e7ffee192dcbdb40c9d75917d0d33501e5c6",
          "topics": [
            "0x7bd0f397cad502ff77ef77218a9bc164a74f31a190560438785c85c38c3f64dd",
            "0x00000000000000000000000019f19e10e6cb2ea89dae8a40635f7a0e10aeac3d"
          ],
          "data": "0x0000000000000000000000000000000000000000000000000000000000000005000000000000000000000000000000000000000000000000000000000000001e0000000000000000000000000000000000000000000000000000000002faf080",
          "blockHash": "0xcdcfe0aa46e6dfa6fd79238bc69f2419f4c712863e107e0cf855850da1ac9f3e",
          "blockNumber": "0x16d7f85",
          "transactionHash": "0x4160a89d3bbb7e9b5cbc8fe1163570115f166579eec9dc9b3d0345220ac44be7",
          "transactionIndex": "0x25",
          "logIndex": "0xa0",
          "removed": false
        }
      ],
      "logsBloom": "0x00000000000000800000000000000000000000000000200000000000000000000000002000000000000000000000000000000000000000000000000000800000000000000000000140000088000400000000000000000000000000000400000000001000000000000000000000000000000000000000000000000010000000000000000000000000000000000000000000000000000000000000000008000000000000000000000000080000000000000000000000000000000000000000200000000002000000000000800000000000000000000000000000000000000000000000000000000000000000000000000000000000000000000800000000000000",
      "type": "0x2",
      "transactionHash": "0x4160a89d3bbb7e9b5cbc8fe1163570115f166579eec9dc9b3d0345220ac44be7",
      "transactionIndex": "0x25",
      "blockHash": "0xcdcfe0aa46e6dfa6fd79238bc69f2419f4c712863e107e0cf855850da1ac9f3e",
      "blockNumber": "0x16d7f85",
      "gasUsed": "0x1090f",
      "effectiveGasPrice": "0xe5da1",
      "from": "0x19f19e10e6cb2ea89dae8a40635f7a0e10aeac3d",
      "to": "0x9aa2e7ffee192dcbdb40c9d75917d0d33501e5c6",
      "contractAddress": null,
      "l1BaseFeeScalar": "0x44d",
      "l1BlobBaseFee": "0x1",
      "l1BlobBaseFeeScalar": "0xa118b",
      "l1Fee": "0x2fab12249",
      "l1GasPrice": "0x1b0f43f43",
      "l1GasUsed": "0x640"
    },
    {
      "status": "0x1",
      "cumulativeGasUsed": "0x8cfc4f",
      "logs": [
        {
          "address": "0xa4253e7c13525287c56550b8708100f93e60509f",
          "topics": [
            "0x8c5be1e5ebec7d5bd14f71427d1e84f3dd0314c0f7b2291e5b200ac8c7c3b925",
            "0x0000000000000000000000009aa2e7ffee192dcbdb40c9d75917d0d33501e5c6",
            "0x0000000000000000000000006f03c7bcadadbf5e6f5900da3d56add8fbdac5de"
          ],
          "data": "0xffffffffffffffffffffffffffffffffffffffffffffffffffffffffffffffff",
          "blockHash": "0xb20b771e63490415726761170b081b8fde2f9916b739aeeaeb9800de91fb9da5",
          "blockNumber": "0x16d7f87",
          "transactionHash": "0x07a83c274f2bc5b79b49091c2cbd83a8e290cf33efc451b8cd77298009911fa0",
          "transactionIndex": "0x2d",
          "logIndex": "0xc4",
          "removed": false
        },
        {
          "address": "0xa4253e7c13525287c56550b8708100f93e60509f",
          "topics": [
            "0xddf252ad1be2c89b69c2b068fc378daa952ba7f163c4a11628f55a4df523b3ef",
            "0x0000000000000000000000009aa2e7ffee192dcbdb40c9d75917d0d33501e5c6",
            "0x0000000000000000000000006f03c7bcadadbf5e6f5900da3d56add8fbdac5de"
          ],
          "data": "0x00000000000000000000000000000000000000000000000000000000000f4240",
          "blockHash": "0xb20b771e63490415726761170b081b8fde2f9916b739aeeaeb9800de91fb9da5",
          "blockNumber": "0x16d7f87",
          "transactionHash": "0x07a83c274f2bc5b79b49091c2cbd83a8e290cf33efc451b8cd77298009911fa0",
          "transactionIndex": "0x2d",
          "logIndex": "0xc5",
          "removed": false
        },
        {
          "address": "0x6f03c7bcadadbf5e6f5900da3d56add8fbdac5de",
          "topics": [
            "0xd72c70202ab87b3549553b1d4ceb2a632c83cb96fa2dfe65c30282862fe11ade",
            "0x000000000000000000000000a0084de38eee190c6f1d4d83b20b9adcc4998799",
            "0x00000000000000000000000044d4f5694ba6a9f138f41c3cd74c8af1de83a002",
            "0x0000000000000000000000009aa2e7ffee192dcbdb40c9d75917d0d33501e5c6"
          ],
          "data": "0x0000000000000000000000000000000000000000000000000000000000002134",
          "blockHash": "0xb20b771e63490415726761170b081b8fde2f9916b739aeeaeb9800de91fb9da5",
          "blockNumber": "0x16d7f87",
          "transactionHash": "0x07a83c274f2bc5b79b49091c2cbd83a8e290cf33efc451b8cd77298009911fa0",
          "transactionIndex": "0x2d",
          "logIndex": "0xc6",
          "removed": false
        },
        {
          "address": "0xa4253e7c13525287c56550b8708100f93e60509f",
          "topics": [
            "0xddf252ad1be2c89b69c2b068fc378daa952ba7f163c4a11628f55a4df523b3ef",
            "0x0000000000000000000000009aa2e7ffee192dcbdb40c9d75917d0d33501e5c6",
            "0x000000000000000000000000a0084de38eee190c6f1d4d83b20b9adcc4998799"
          ],
          "data": "0x00000000000000000000000000000000000000000000000000000000000003e8",
          "blockHash": "0xb20b771e63490415726761170b081b8fde2f9916b739aeeaeb9800de91fb9da5",
          "blockNumber": "0x16d7f87",
          "transactionHash": "0x07a83c274f2bc5b79b49091c2cbd83a8e290cf33efc451b8cd77298009911fa0",
          "transactionIndex": "0x2d",
          "logIndex": "0xc7",
          "removed": false
        },
        {
          "address": "0x9aa2e7ffee192dcbdb40c9d75917d0d33501e5c6",
          "topics": [
            "0x87626fcf863fe95167f65a33e5d7e3575b77e1cfbcd0595ba2438689b409833f",
            "0x000000000000000000000000a0084de38eee190c6f1d4d83b20b9adcc4998799"
          ],
          "data": "0x00000000000000000000000000000000000000000000000000000000000000010000000000000000000000000000000000000000000000000000000000000005",
          "blockHash": "0xb20b771e63490415726761170b081b8fde2f9916b739aeeaeb9800de91fb9da5",
          "blockNumber": "0x16d7f87",
          "transactionHash": "0x07a83c274f2bc5b79b49091c2cbd83a8e290cf33efc451b8cd77298009911fa0",
          "transactionIndex": "0x2d",
          "logIndex": "0xc8",
          "removed": false
        },
        {
          "address": "0xa4253e7c13525287c56550b8708100f93e60509f",
          "topics": [
            "0xddf252ad1be2c89b69c2b068fc378daa952ba7f163c4a11628f55a4df523b3ef",
            "0x0000000000000000000000009aa2e7ffee192dcbdb40c9d75917d0d33501e5c6",
            "0x0000000000000000000000006f03c7bcadadbf5e6f5900da3d56add8fbdac5de"
          ],
          "data": "0x00000000000000000000000000000000000000000000000000000000001e8480",
          "blockHash": "0xb20b771e63490415726761170b081b8fde2f9916b739aeeaeb9800de91fb9da5",
          "blockNumber": "0x16d7f87",
          "transactionHash": "0x07a83c274f2bc5b79b49091c2cbd83a8e290cf33efc451b8cd77298009911fa0",
          "transactionIndex": "0x2d",
          "logIndex": "0xc9",
          "removed": false
        },
        {
          "address": "0x6f03c7bcadadbf5e6f5900da3d56add8fbdac5de",
          "topics": [
            "0xd72c70202ab87b3549553b1d4ceb2a632c83cb96fa2dfe65c30282862fe11ade",
            "0x000000000000000000000000070806b631a667a3da88177d326adb27fde834db",
            "0x00000000000000000000000044d4f5694ba6a9f138f41c3cd74c8af1de83a002",
            "0x0000000000000000000000009aa2e7ffee192dcbdb40c9d75917d0d33501e5c6"
          ],
          "data": "0x0000000000000000000000000000000000000000000000000000000000004268",
          "blockHash": "0xb20b771e63490415726761170b081b8fde2f9916b739aeeaeb9800de91fb9da5",
          "blockNumber": "0x16d7f87",
          "transactionHash": "0x07a83c274f2bc5b79b49091c2cbd83a8e290cf33efc451b8cd77298009911fa0",
          "transactionIndex": "0x2d",
          "logIndex": "0xca",
          "removed": false
        },
        {
          "address": "0xa4253e7c13525287c56550b8708100f93e60509f",
          "topics": [
            "0xddf252ad1be2c89b69c2b068fc378daa952ba7f163c4a11628f55a4df523b3ef",
            "0x0000000000000000000000009aa2e7ffee192dcbdb40c9d75917d0d33501e5c6",
            "0x000000000000000000000000070806b631a667a3da88177d326adb27fde834db"
          ],
          "data": "0x00000000000000000000000000000000000000000000000000000000000007d0",
          "blockHash": "0xb20b771e63490415726761170b081b8fde2f9916b739aeeaeb9800de91fb9da5",
          "blockNumber": "0x16d7f87",
          "transactionHash": "0x07a83c274f2bc5b79b49091c2cbd83a8e290cf33efc451b8cd77298009911fa0",
          "transactionIndex": "0x2d",
          "logIndex": "0xcb",
          "removed": false
        },
        {
          "address": "0x9aa2e7ffee192dcbdb40c9d75917d0d33501e5c6",
          "topics": [
            "0x87626fcf863fe95167f65a33e5d7e3575b77e1cfbcd0595ba2438689b409833f",
            "0x000000000000000000000000070806b631a667a3da88177d326adb27fde834db"
          ],
          "data": "0x0000000000000000000000000000000000000000000000000000000000000002000000000000000000000000000000000000000000000000000000000000000b",
          "blockHash": "0xb20b771e63490415726761170b081b8fde2f9916b739aeeaeb9800de91fb9da5",
          "blockNumber": "0x16d7f87",
          "transactionHash": "0x07a83c274f2bc5b79b49091c2cbd83a8e290cf33efc451b8cd77298009911fa0",
          "transactionIndex": "0x2d",
          "logIndex": "0xcc",
          "removed": false
        },
        {
          "address": "0xa4253e7c13525287c56550b8708100f93e60509f",
          "topics": [
            "0xddf252ad1be2c89b69c2b068fc378daa952ba7f163c4a11628f55a4df523b3ef",
            "0x0000000000000000000000009aa2e7ffee192dcbdb40c9d75917d0d33501e5c6",
            "0x0000000000000000000000006f03c7bcadadbf5e6f5900da3d56add8fbdac5de"
          ],
          "data": "0x00000000000000000000000000000000000000000000000000000000002dc6c0",
          "blockHash": "0xb20b771e63490415726761170b081b8fde2f9916b739aeeaeb9800de91fb9da5",
          "blockNumber": "0x16d7f87",
          "transactionHash": "0x07a83c274f2bc5b79b49091c2cbd83a8e290cf33efc451b8cd77298009911fa0",
          "transactionIndex": "0x2d",
          "logIndex": "0xcd",
          "removed": false
        },
        {
          "address": "0x6f03c7bcadadbf5e6f5900da3d56add8fbdac5de",
          "topics": [
            "0xd72c70202ab87b3549553b1d4ceb2a632c83cb96fa2dfe65c30282862fe11ade",
            "0x000000000000000000000000546da7c993d811d067f4c102b4281fe3c2af6a8d",
            "0x00000000000000000000000044d4f5694ba6a9f138f41c3cd74c8af1de83a002",
            "0x0000000000000000000000009aa2e7ffee192dcbdb40c9d75917d0d33501e5c6"
          ],
          "data": "0x000000000000000000000000000000000000000000000000000000000000639c",
          "blockHash": "0xb20b771e63490415726761170b081b8fde2f9916b739aeeaeb9800de91fb9da5",
          "blockNumber": "0x16d7f87",
          "transactionHash": "0x07a83c274f2bc5b79b49091c2cbd83a8e290cf33efc451b8cd77298009911fa0",
          "transactionIndex": "0x2d",
          "logIndex": "0xce",
          "removed": false
        },
        {
          "address": "0xa4253e7c13525287c56550b8708100f93e60509f",
          "topics": [
            "0xddf252ad1be2c89b69c2b068fc378daa952ba7f163c4a11628f55a4df523b3ef",
            "0x0000000000000000000000009aa2e7ffee192dcbdb40c9d75917d0d33501e5c6",
            "0x000000000000000000000000546da7c993d811d067f4c102b4281fe3c2af6a8d"
          ],
          "data": "0x0000000000000000000000000000000000000000000000000000000000000bb8",
          "blockHash": "0xb20b771e63490415726761170b081b8fde2f9916b739aeeaeb9800de91fb9da5",
          "blockNumber": "0x16d7f87",
          "transactionHash": "0x07a83c274f2bc5b79b49091c2cbd83a8e290cf33efc451b8cd77298009911fa0",
          "transactionIndex": "0x2d",
          "logIndex": "0xcf",
          "removed": false
        },
        {
          "address": "0x9aa2e7ffee192dcbdb40c9d75917d0d33501e5c6",
          "topics": [
            "0x87626fcf863fe95167f65a33e5d7e3575b77e1cfbcd0595ba2438689b409833f",
            "0x000000000000000000000000546da7c993d811d067f4c102b4281fe3c2af6a8d"
          ],
          "data": "0x00000000000000000000000000000000000000000000000000000000000000030000000000000000000000000000000000000000000000000000000000000011",
          "blockHash": "0xb20b771e63490415726761170b081b8fde2f9916b739aeeaeb9800de91fb9da5",
          "blockNumber": "0x16d7f87",
          "transactionHash": "0x07a83c274f2bc5b79b49091c2cbd83a8e290cf33efc451b8cd77298009911fa0",
          "transactionIndex": "0x2d",
          "logIndex": "0xd0",
          "removed": false
        },
        {
          "address": "0xa4253e7c13525287c56550b8708100f93e60509f",
          "topics": [
            "0xddf252ad1be2c89b69c2b068fc378daa952ba7f163c4a11628f55a4df523b3ef",
            "0x0000000000000000000000009aa2e7ffee192dcbdb40c9d75917d0d33501e5c6",
            "0x0000000000000000000000006f03c7bcadadbf5e6f5900da3d56add8fbdac5de"
          ],
          "data": "0x00000000000000000000000000000000000000000000000000000000003d0900",
          "blockHash": "0xb20b771e63490415726761170b081b8fde2f9916b739aeeaeb9800de91fb9da5",
          "blockNumber": "0x16d7f87",
          "transactionHash": "0x07a83c274f2bc5b79b49091c2cbd83a8e290cf33efc451b8cd77298009911fa0",
          "transactionIndex": "0x2d",
          "logIndex": "0xd1",
          "removed": false
        },
        {
          "address": "0x6f03c7bcadadbf5e6f5900da3d56add8fbdac5de",
          "topics": [
            "0xd72c70202ab87b3549553b1d4ceb2a632c83cb96fa2dfe65c30282862fe11ade",
            "0x000000000000000000000000bef88420f20ab95e5f7ea851f6008dbbee97dc26",
            "0x00000000000000000000000044d4f5694ba6a9f138f41c3cd74c8af1de83a002",
            "0x0000000000000000000000009aa2e7ffee192dcbdb40c9d75917d0d33501e5c6"
          ],
          "data": "0x00000000000000000000000000000000000000000000000000000000000084d0",
          "blockHash": "0xb20b771e63490415726761170b081b8fde2f9916b739aeeaeb9800de91fb9da5",
          "blockNumber": "0x16d7f87",
          "transactionHash": "0x07a83c274f2bc5b79b49091c2cbd83a8e290cf33efc451b8cd77298009911fa0",
          "transactionIndex": "0x2d",
          "logIndex": "0xd2",
          "removed": false
        },
        {
          "address": "0xa4253e7c13525287c56550b8708100f93e60509f",
          "topics": [
            "0xddf252ad1be2c89b69c2b068fc378daa952ba7f163c4a11628f55a4df523b3ef",
            "0x0000000000000000000000009aa2e7ffee192dcbdb40c9d75917d0d33501e5c6",
            "0x000000000000000000000000bef88420f20ab95e5f7ea851f6008dbbee97dc26"
          ],
          "data": "0x0000000000000000000000000000000000000000000000000000000000000fa0",
          "blockHash": "0xb20b771e63490415726761170b081b8fde2f9916b739aeeaeb9800de91fb9da5",
          "blockNumber": "0x16d7f87",
          "transactionHash": "0x07a83c274f2bc5b79b49091c2cbd83a8e290cf33efc451b8cd77298009911fa0",
          "transactionIndex": "0x2d",
          "logIndex": "0xd3",
          "removed": false
        },
        {
          "address": "0x9aa2e7ffee192dcbdb40c9d75917d0d33501e5c6",
          "topics": [
            "0x87626fcf863fe95167f65a33e5d7e3575b77e1cfbcd0595ba2438689b409833f",
            "0x000000000000000000000000bef88420f20ab95e5f7ea851f6008dbbee97dc26"
          ],
          "data": "0x00000000000000000000000000000000000000000000000000000000000000040000000000000000000000000000000000000000000000000000000000000017",
          "blockHash": "0xb20b771e63490415726761170b081b8fde2f9916b739aeeaeb9800de91fb9da5",
          "blockNumber": "0x16d7f87",
          "transactionHash": "0x07a83c274f2bc5b79b49091c2cbd83a8e290cf33efc451b8cd77298009911fa0",
          "transactionIndex": "0x2d",
          "logIndex": "0xd4",
          "removed": false
        },
        {
          "address": "0xa4253e7c13525287c56550b8708100f93e60509f",
          "topics": [
            "0xddf252ad1be2c89b69c2b068fc378daa952ba7f163c4a11628f55a4df523b3ef",
            "0x0000000000000000000000009aa2e7ffee192dcbdb40c9d75917d0d33501e5c6",
            "0x0000000000000000000000006f03c7bcadadbf5e6f5900da3d56add8fbdac5de"
          ],
          "data": "0x00000000000000000000000000000000000000000000000000000000004c4b40",
          "blockHash": "0xb20b771e63490415726761170b081b8fde2f9916b739aeeaeb9800de91fb9da5",
          "blockNumber": "0x16d7f87",
          "transactionHash": "0x07a83c274f2bc5b79b49091c2cbd83a8e290cf33efc451b8cd77298009911fa0",
          "transactionIndex": "0x2d",
          "logIndex": "0xd5",
          "removed": false
        },
        {
          "address": "0x6f03c7bcadadbf5e6f5900da3d56add8fbdac5de",
          "topics": [
            "0xd72c70202ab87b3549553b1d4ceb2a632c83cb96fa2dfe65c30282862fe11ade",
            "0x00000000000000000000000019f19e10e6cb2ea89dae8a40635f7a0e10aeac3d",
            "0x00000000000000000000000044d4f5694ba6a9f138f41c3cd74c8af1de83a002",
            "0x0000000000000000000000009aa2e7ffee192dcbdb40c9d75917d0d33501e5c6"
          ],
          "data": "0x000000000000000000000000000000000000000000000000000000000000a604",
          "blockHash": "0xb20b771e63490415726761170b081b8fde2f9916b739aeeaeb9800de91fb9da5",
          "blockNumber": "0x16d7f87",
          "transactionHash": "0x07a83c274f2bc5b79b49091c2cbd83a8e290cf33efc451b8cd77298009911fa0",
          "transactionIndex": "0x2d",
          "logIndex": "0xd6",
          "removed": false
        },
        {
          "address": "0xa4253e7c13525287c56550b8708100f93e60509f",
          "topics": [
            "0xddf252ad1be2c89b69c2b068fc378daa952ba7f163c4a11628f55a4df523b3ef",
            "0x0000000000000000000000009aa2e7ffee192dcbdb40c9d75917d0d33501e5c6",
            "0x00000000000000000000000019f19e10e6cb2ea89dae8a40635f7a0e10aeac3d"
          ],
          "data": "0x0000000000000000000000000000000000000000000000000000000000001388",
          "blockHash": "0xb20b771e63490415726761170b081b8fde2f9916b739aeeaeb9800de91fb9da5",
          "blockNumber": "0x16d7f87",
          "transactionHash": "0x07a83c274f2bc5b79b49091c2cbd83a8e290cf33efc451b8cd77298009911fa0",
          "transactionIndex": "0x2d",
          "logIndex": "0xd7",
          "removed": false
        },
        {
          "address": "0x9aa2e7ffee192dcbdb40c9d75917d0d33501e5c6",
          "topics": [
            "0x87626fcf863fe95167f65a33e5d7e3575b77e1cfbcd0595ba2438689b409833f",
            "0x00000000000000000000000019f19e10e6cb2ea89dae8a40635f7a0e10aeac3d"
          ],
          "data": "0x0000000000000000000000000000000000000000000000000000000000000005000000000000000000000000000000000000000000000000000000000000001d",
          "blockHash": "0xb20b771e63490415726761170b081b8fde2f9916b739aeeaeb9800de91fb9da5",
          "blockNumber": "0x16d7f87",
          "transactionHash": "0x07a83c274f2bc5b79b49091c2cbd83a8e290cf33efc451b8cd77298009911fa0",
          "transactionIndex": "0x2d",
          "logIndex": "0xd8",
          "removed": false
        },
        {
          "address": "0xa4253e7c13525287c56550b8708100f93e60509f",
          "topics": [
            "0x8c5be1e5ebec7d5bd14f71427d1e84f3dd0314c0f7b2291e5b200ac8c7c3b925",
            "0x0000000000000000000000009aa2e7ffee192dcbdb40c9d75917d0d33501e5c6",
            "0x0000000000000000000000006f03c7bcadadbf5e6f5900da3d56add8fbdac5de"
          ],
          "data": "0x0000000000000000000000000000000000000000000000000000000000000000",
          "blockHash": "0xb20b771e63490415726761170b081b8fde2f9916b739aeeaeb9800de91fb9da5",
          "blockNumber": "0x16d7f87",
          "transactionHash": "0x07a83c274f2bc5b79b49091c2cbd83a8e290cf33efc451b8cd77298009911fa0",
          "transactionIndex": "0x2d",
          "logIndex": "0xd9",
          "removed": false
        },
        {
          "address": "0x9aa2e7ffee192dcbdb40c9d75917d0d33501e5c6",
          "topics": [
            "0x3838459cd794256a3c29bb3186da72029a8036c0f596fee1bd526f8eb9493d41"
          ],
          "data": "0x00000000000000000000000000000000000000000000000000000000000000000000000000000000000000000000000000000000000000000000000000000005",
          "blockHash": "0xb20b771e63490415726761170b081b8fde2f9916b739aeeaeb9800de91fb9da5",
          "blockNumber": "0x16d7f87",
          "transactionHash": "0x07a83c274f2bc5b79b49091c2cbd83a8e290cf33efc451b8cd77298009911fa0",
          "transactionIndex": "0x2d",
          "logIndex": "0xda",
          "removed": false
        }
      ],
      "logsBloom": "0x00020000000000800000000000040000020020000400200000000000000000000000002001000000000000000000200000800000100080000020000000a00004000000000000000060000088000400000000000000000000000000000800000000001000000000000000000000000000000000000000000000000010004000000000200000000000080000000800000000000480040000000100000000000040020000000000000000080000000000000000000000000000000000000000200000000042000010020000800000000000000000000000000000400000000000000010000000000000000000000004000000000000000000000800000000800000",
      "type": "0x2",
      "transactionHash": "0x07a83c274f2bc5b79b49091c2cbd83a8e290cf33efc451b8cd77298009911fa0",
      "transactionIndex": "0x2d",
      "blockHash": "0xb20b771e63490415726761170b081b8fde2f9916b739aeeaeb9800de91fb9da5",
      "blockNumber": "0x16d7f87",
      "gasUsed": "0x5b446",
      "effectiveGasPrice": "0xe5da1",
      "from": "0xbe2680dc1752109b4344dbeb1072fd8cd880e54b",
      "to": "0x9aa2e7ffee192dcbdb40c9d75917d0d33501e5c6",
      "contractAddress": null,
      "l1BaseFeeScalar": "0x44d",
      "l1BlobBaseFee": "0x1",
      "l1BlobBaseFeeScalar": "0xa118b",
      "l1Fee": "0x2fab12249",
      "l1GasPrice": "0x1b0f43f43",
      "l1GasUsed": "0x640"
    }
  ],
  "libraries": [],
  "pending": [],
  "returns": {},
  "timestamp": 1743674863,
  "chain": 84532,
  "commit": "fee831d"
}