{
  "transactions": [
    {
      "hash": "0x666dbf5b527af6b59a95e7655d91abd9eaefa4196753a4b8bfcbf5b068dd0732",
      "transactionType": "CALL",
      "contractName": null,
      "contractAddress": "0xa4253e7c13525287c56550b8708100f93e60509f",
      "function": "transfer(address,uint256)",
      "arguments": [
        "0xA0084dE38Eee190c6f1d4d83B20B9adcc4998799",
        "3000000"
      ],
      "transaction": {
        "from": "0xbe2680dc1752109b4344dbeb1072fd8cd880e54b",
        "to": "0xa4253e7c13525287c56550b8708100f93e60509f",
        "value": "0x0",
        "input": "0xa9059cbb000000000000000000000000a0084de38eee190c6f1d4d83b20b9adcc499879900000000000000000000000000000000000000000000000000000000002dc6c0",
        "nonce": "0x2c9",
        "chainId": "0x14a34"
      },
      "additionalContracts": [],
      "isFixedGasLimit": false
    },
    {
      "hash": "0xce46de914f506ef1a085238d0a01d6e52037e09283b68c02e0d8c48c2d02ad21",
      "transactionType": "CALL",
      "contractName": null,
      "contractAddress": "0xa0084de38eee190c6f1d4d83b20b9adcc4998799",
      "function": null,
      "arguments": null,
      "transaction": {
        "from": "0xbe2680dc1752109b4344dbeb1072fd8cd880e54b",
        "to": "0xa0084de38eee190c6f1d4d83b20b9adcc4998799",
        "value": "0x9184e72a000",
        "input": "0x",
        "nonce": "0x2ca",
        "chainId": "0x14a34"
      },
      "additionalContracts": [],
      "isFixedGasLimit": false
    },
    {
      "hash": "0x58887d722e62f61de43378c7b1a5c3f64880d2bebb3b2bb7b11618f36e909f96",
      "transactionType": "CALL",
      "contractName": null,
      "contractAddress": "0xa4253e7c13525287c56550b8708100f93e60509f",
      "function": "transfer(address,uint256)",
      "arguments": [
        "0x070806B631A667a3Da88177d326adB27fde834Db",
        "9000000"
      ],
      "transaction": {
        "from": "0xbe2680dc1752109b4344dbeb1072fd8cd880e54b",
        "to": "0xa4253e7c13525287c56550b8708100f93e60509f",
        "value": "0x0",
        "input": "0xa9059cbb000000000000000000000000070806b631a667a3da88177d326adb27fde834db0000000000000000000000000000000000000000000000000000000000895440",
        "nonce": "0x2cb",
        "chainId": "0x14a34"
      },
      "additionalContracts": [],
      "isFixedGasLimit": false
    },
    {
      "hash": "0xe75253e275432fa083f47983168afc6350bf51ec8790e5e6b74bf9138724ada7",
      "transactionType": "CALL",
      "contractName": null,
      "contractAddress": "0x070806b631a667a3da88177d326adb27fde834db",
      "function": null,
      "arguments": null,
      "transaction": {
        "from": "0xbe2680dc1752109b4344dbeb1072fd8cd880e54b",
        "to": "0x070806b631a667a3da88177d326adb27fde834db",
        "value": "0x9184e72a000",
        "input": "0x",
        "nonce": "0x2cc",
        "chainId": "0x14a34"
      },
      "additionalContracts": [],
      "isFixedGasLimit": false
    },
    {
      "hash": "0x49b9cc10e47f21ab2ecadb48d8029d20f689b6fd583e01ac2c07ca2db5cc2378",
      "transactionType": "CALL",
      "contractName": null,
      "contractAddress": "0xa4253e7c13525287c56550b8708100f93e60509f",
      "function": "transfer(address,uint256)",
      "arguments": [
        "0x546da7C993D811d067f4C102B4281fE3c2AF6A8d",
        "19000000"
      ],
      "transaction": {
        "from": "0xbe2680dc1752109b4344dbeb1072fd8cd880e54b",
        "to": "0xa4253e7c13525287c56550b8708100f93e60509f",
        "value": "0x0",
        "input": "0xa9059cbb000000000000000000000000546da7c993d811d067f4c102b4281fe3c2af6a8d000000000000000000000000000000000000000000000000000000000121eac0",
        "nonce": "0x2cd",
        "chainId": "0x14a34"
      },
      "additionalContracts": [],
      "isFixedGasLimit": false
    },
    {
      "hash": "0xd75d9f841fa0f037b3034999dbc58b336edf4961437caffc7c040a766c10856f",
      "transactionType": "CALL",
      "contractName": null,
      "contractAddress": "0x546da7c993d811d067f4c102b4281fe3c2af6a8d",
      "function": null,
      "arguments": null,
      "transaction": {
        "from": "0xbe2680dc1752109b4344dbeb1072fd8cd880e54b",
        "to": "0x546da7c993d811d067f4c102b4281fe3c2af6a8d",
        "value": "0x9184e72a000",
        "input": "0x",
        "nonce": "0x2ce",
        "chainId": "0x14a34"
      },
      "additionalContracts": [],
      "isFixedGasLimit": false
    },
    {
      "hash": "0x6e6bbd794e1c06f05624a66160a472704b065caef02632c9b2820c52ae93f748",
      "transactionType": "CALL",
      "contractName": null,
      "contractAddress": "0xa4253e7c13525287c56550b8708100f93e60509f",
      "function": "transfer(address,uint256)",
      "arguments": [
        "0xBef88420F20AB95e5F7ea851F6008dbbeE97dc26",
        "33000000"
      ],
      "transaction": {
        "from": "0xbe2680dc1752109b4344dbeb1072fd8cd880e54b",
        "to": "0xa4253e7c13525287c56550b8708100f93e60509f",
        "value": "0x0",
        "input": "0xa9059cbb000000000000000000000000bef88420f20ab95e5f7ea851f6008dbbee97dc260000000000000000000000000000000000000000000000000000000001f78a40",
        "nonce": "0x2cf",
        "chainId": "0x14a34"
      },
      "additionalContracts": [],
      "isFixedGasLimit": false
    },
    {
      "hash": "0x2d3f6806a7f6a36ca0f97bbf0c3cd7a0a13f1c5e8d219575e7da23cbd4d07f08",
      "transactionType": "CALL",
      "contractName": null,
      "contractAddress": "0xbef88420f20ab95e5f7ea851f6008dbbee97dc26",
      "function": null,
      "arguments": null,
      "transaction": {
        "from": "0xbe2680dc1752109b4344dbeb1072fd8cd880e54b",
        "to": "0xbef88420f20ab95e5f7ea851f6008dbbee97dc26",
        "value": "0x9184e72a000",
        "input": "0x",
        "nonce": "0x2d0",
        "chainId": "0x14a34"
      },
      "additionalContracts": [],
      "isFixedGasLimit": false
    },
    {
      "hash": "0x01d993cc05cfd0459778c216a63a07598fee77cf9fe7a2f51234947e19b2443c",
      "transactionType": "CALL",
      "contractName": null,
      "contractAddress": "0xa4253e7c13525287c56550b8708100f93e60509f",
      "function": "transfer(address,uint256)",
      "arguments": [
        "0x19f19e10E6CB2ea89dAe8a40635f7A0E10AEaC3D",
        "51000000"
      ],
      "transaction": {
        "from": "0xbe2680dc1752109b4344dbeb1072fd8cd880e54b",
        "to": "0xa4253e7c13525287c56550b8708100f93e60509f",
        "value": "0x0",
        "input": "0xa9059cbb00000000000000000000000019f19e10e6cb2ea89dae8a40635f7a0e10aeac3d00000000000000000000000000000000000000000000000000000000030a32c0",
        "nonce": "0x2d1",
        "chainId": "0x14a34"
      },
      "additionalContracts": [],
      "isFixedGasLimit": false
    },
    {
      "hash": "0xfa54205dc6f296ac6f04424b7fa06ed76bdfc1f443c03b3f7e98dfe3607a06f2",
      "transactionType": "CALL",
      "contractName": null,
      "contractAddress": "0x19f19e10e6cb2ea89dae8a40635f7a0e10aeac3d",
      "function": null,
      "arguments": null,
      "transaction": {
        "from": "0xbe2680dc1752109b4344dbeb1072fd8cd880e54b",
        "to": "0x19f19e10e6cb2ea89dae8a40635f7a0e10aeac3d",
        "value": "0x9184e72a000",
        "input": "0x",
        "nonce": "0x2d2",
        "chainId": "0x14a34"
      },
      "additionalContracts": [],
      "isFixedGasLimit": false
    },
    {
      "hash": "0x5c0a0dec02b38897316a21dabccd71cbee7b57c1dd74b0444b0737404f0526ac",
      "transactionType": "CALL",
      "contractName": null,
      "contractAddress": "0xa4253e7c13525287c56550b8708100f93e60509f",
      "function": "approve(address,uint256)",
      "arguments": [
        "0x9aa2E7FFEE192DcBdb40c9D75917d0D33501e5c6",
        "2000000"
      ],
      "transaction": {
        "from": "0xa0084de38eee190c6f1d4d83b20b9adcc4998799",
        "to": "0xa4253e7c13525287c56550b8708100f93e60509f",
        "value": "0x0",
        "input": "0x095ea7b30000000000000000000000009aa2e7ffee192dcbdb40c9d75917d0d33501e5c600000000000000000000000000000000000000000000000000000000001e8480",
        "nonce": "0x4",
        "chainId": "0x14a34"
      },
      "additionalContracts": [],
      "isFixedGasLimit": false
    },
    {
      "hash": "0x63d9ae9493ff1e990cb991278af8905e77accfaa4ca296968b18fc33f4278730",
      "transactionType": "CALL",
      "contractName": null,
      "contractAddress": "0x9aa2e7ffee192dcbdb40c9d75917d0d33501e5c6",
      "function": "createSubscription(uint256,uint256)",
      "arguments": [
        "1",
        "2"
      ],
      "transaction": {
        "from": "0xa0084de38eee190c6f1d4d83b20b9adcc4998799",
        "to": "0x9aa2e7ffee192dcbdb40c9d75917d0d33501e5c6",
        "value": "0x0",
        "input": "0xa71b6cd000000000000000000000000000000000000000000000000000000000000000010000000000000000000000000000000000000000000000000000000000000002",
        "nonce": "0x5",
        "chainId": "0x14a34"
      },
      "additionalContracts": [],
      "isFixedGasLimit": false
    },
    {
      "hash": "0x87d518c597f3a434a2d80f06f0e0f0542af8b3c8a5fa7094ccbecbd1294bdb20",
      "transactionType": "CALL",
      "contractName": null,
      "contractAddress": "0xa4253e7c13525287c56550b8708100f93e60509f",
      "function": "approve(address,uint256)",
      "arguments": [
        "0x9aa2E7FFEE192DcBdb40c9D75917d0D33501e5c6",
        "8000000"
      ],
      "transaction": {
        "from": "0x070806b631a667a3da88177d326adb27fde834db",
        "to": "0xa4253e7c13525287c56550b8708100f93e60509f",
        "value": "0x0",
        "input": "0x095ea7b30000000000000000000000009aa2e7ffee192dcbdb40c9d75917d0d33501e5c600000000000000000000000000000000000000000000000000000000007a1200",
        "nonce": "0x4",
        "chainId": "0x14a34"
      },
      "additionalContracts": [],
      "isFixedGasLimit": false
    },
    {
      "hash": "0x8c677c6988676e6adee83d5218854c389d32c09f64e7d3a6b0efd846f8c49079",
      "transactionType": "CALL",
      "contractName": null,
      "contractAddress": "0x9aa2e7ffee192dcbdb40c9d75917d0d33501e5c6",
      "function": "createSubscription(uint256,uint256)",
      "arguments": [
        "2",
        "4"
      ],
      "transaction": {
        "from": "0x070806b631a667a3da88177d326adb27fde834db",
        "to": "0x9aa2e7ffee192dcbdb40c9d75917d0d33501e5c6",
        "value": "0x0",
        "input": "0xa71b6cd000000000000000000000000000000000000000000000000000000000000000020000000000000000000000000000000000000000000000000000000000000004",
        "nonce": "0x5",
        "chainId": "0x14a34"
      },
      "additionalContracts": [],
      "isFixedGasLimit": false
    },
    {
      "hash": "0x79690d1995a3c2bde03ec12cda7d65c569d21ebbb8dac8640a462f8d2191cdee",
      "transactionType": "CALL",
      "contractName": null,
      "contractAddress": "0xa4253e7c13525287c56550b8708100f93e60509f",
      "function": "approve(address,uint256)",
      "arguments": [
        "0x9aa2E7FFEE192DcBdb40c9D75917d0D33501e5c6",
        "18000000"
      ],
      "transaction": {
        "from": "0x546da7c993d811d067f4c102b4281fe3c2af6a8d",
        "to": "0xa4253e7c13525287c56550b8708100f93e60509f",
        "value": "0x0",
        "input": "0x095ea7b30000000000000000000000009aa2e7ffee192dcbdb40c9d75917d0d33501e5c6000000000000000000000000000000000000000000000000000000000112a880",
        "nonce": "0x4",
        "chainId": "0x14a34"
      },
      "additionalContracts": [],
      "isFixedGasLimit": false
    },
    {
      "hash": "0x23e1dad3f174919bf6369f365540067490a840edc5af5b6f69856da7a34a5873",
      "transactionType": "CALL",
      "contractName": null,
      "contractAddress": "0x9aa2e7ffee192dcbdb40c9d75917d0d33501e5c6",
      "function": "createSubscription(uint256,uint256)",
      "arguments": [
        "3",
        "6"
      ],
      "transaction": {
        "from": "0x546da7c993d811d067f4c102b4281fe3c2af6a8d",
        "to": "0x9aa2e7ffee192dcbdb40c9d75917d0d33501e5c6",
        "value": "0x0",
        "input": "0xa71b6cd000000000000000000000000000000000000000000000000000000000000000030000000000000000000000000000000000000000000000000000000000000006",
        "nonce": "0x5",
        "chainId": "0x14a34"
      },
      "additionalContracts": [],
      "isFixedGasLimit": false
    },
    {
      "hash": "0x1a38a17372113b0310cbe64947f71f79a80076f7d0d846a16ecc64b51a69fc3f",
      "transactionType": "CALL",
      "contractName": null,
      "contractAddress": "0xa4253e7c13525287c56550b8708100f93e60509f",
      "function": "approve(address,uint256)",
      "arguments": [
        "0x9aa2E7FFEE192DcBdb40c9D75917d0D33501e5c6",
        "32000000"
      ],
      "transaction": {
        "from": "0xbef88420f20ab95e5f7ea851f6008dbbee97dc26",
        "to": "0xa4253e7c13525287c56550b8708100f93e60509f",
        "value": "0x0",
        "input": "0x095ea7b30000000000000000000000009aa2e7ffee192dcbdb40c9d75917d0d33501e5c60000000000000000000000000000000000000000000000000000000001e84800",
        "nonce": "0x4",
        "chainId": "0x14a34"
      },
      "additionalContracts": [],
      "isFixedGasLimit": false
    },
    {
      "hash": "0xf27c0f5607e1415e38f338a6c67eb628ba2f833a9e34bb8a25b84ba5e0de8045",
      "transactionType": "CALL",
      "contractName": null,
      "contractAddress": "0x9aa2e7ffee192dcbdb40c9d75917d0d33501e5c6",
      "function": "createSubscription(uint256,uint256)",
      "arguments": [
        "4",
        "8"
      ],
      "transaction": {
        "from": "0xbef88420f20ab95e5f7ea851f6008dbbee97dc26",
        "to": "0x9aa2e7ffee192dcbdb40c9d75917d0d33501e5c6",
        "value": "0x0",
        "input": "0xa71b6cd000000000000000000000000000000000000000000000000000000000000000040000000000000000000000000000000000000000000000000000000000000008",
        "nonce": "0x5",
        "chainId": "0x14a34"
      },
      "additionalContracts": [],
      "isFixedGasLimit": false
    },
    {
      "hash": "0x581ddee02ee93366e5e1e1f100456a774ff7da2c47061a4b10f933905a271fdb",
      "transactionType": "CALL",
      "contractName": null,
      "contractAddress": "0xa4253e7c13525287c56550b8708100f93e60509f",
      "function": "approve(address,uint256)",
      "arguments": [
        "0x9aa2E7FFEE192DcBdb40c9D75917d0D33501e5c6",
        "50000000"
      ],
      "transaction": {
        "from": "0x19f19e10e6cb2ea89dae8a40635f7a0e10aeac3d",
        "to": "0xa4253e7c13525287c56550b8708100f93e60509f",
        "value": "0x0",
        "input": "0x095ea7b30000000000000000000000009aa2e7ffee192dcbdb40c9d75917d0d33501e5c60000000000000000000000000000000000000000000000000000000002faf080",
        "nonce": "0x4",
        "chainId": "0x14a34"
      },
      "additionalContracts": [],
      "isFixedGasLimit": false
    },
    {
      "hash": "0xc92980a7a5884654b7980bbab451eba3857d4ba5ebf0f428a00a7d9fc0099134",
      "transactionType": "CALL",
      "contractName": null,
      "contractAddress": "0x9aa2e7ffee192dcbdb40c9d75917d0d33501e5c6",
      "function": "createSubscription(uint256,uint256)",
      "arguments": [
        "5",
        "10"
      ],
      "transaction": {
        "from": "0x19f19e10e6cb2ea89dae8a40635f7a0e10aeac3d",
        "to": "0x9aa2e7ffee192dcbdb40c9d75917d0d33501e5c6",
        "value": "0x0",
        "input": "0xa71b6cd00000000000000000000000000000000000000000000000000000000000000005000000000000000000000000000000000000000000000000000000000000000a",
        "nonce": "0x5",
        "chainId": "0x14a34"
      },
      "additionalContracts": [],
      "isFixedGasLimit": false
    },
    {
      "hash": null,
      "transactionType": "CALL",
      "contractName": null,
      "contractAddress": "0x9aa2e7ffee192dcbdb40c9d75917d0d33501e5c6",
      "function": "processDailyBatch(uint256)",
      "arguments": [
        "0"
      ],
      "transaction": {
        "from": "0xbe2680dc1752109b4344dbeb1072fd8cd880e54b",
        "to": "0x9aa2e7ffee192dcbdb40c9d75917d0d33501e5c6",
        "value": "0x0",
        "input": "0x4c47c3ed0000000000000000000000000000000000000000000000000000000000000000",
        "nonce": "0x2d3",
        "chainId": "0x14a34"
      },
      "additionalContracts": [],
      "isFixedGasLimit": false
    }
  ],
  "receipts": [
    {
      "status": "0x1",
      "cumulativeGasUsed": "0xd48dd",
      "logs": [
        {
          "address": "0xa4253e7c13525287c56550b8708100f93e60509f",
          "topics": [
            "0xddf252ad1be2c89b69c2b068fc378daa952ba7f163c4a11628f55a4df523b3ef",
            "0x000000000000000000000000be2680dc1752109b4344dbeb1072fd8cd880e54b",
            "0x000000000000000000000000a0084de38eee190c6f1d4d83b20b9adcc4998799"
          ],
          "data": "0x00000000000000000000000000000000000000000000000000000000002dc6c0",
          "blockHash": "0xdae0b5ccf89a1e8d51d54c70f490baea0ddab58b8d63be82fd6e276476c0b7f5",
          "blockNumber": "0x16d7ee7",
          "transactionHash": "0x666dbf5b527af6b59a95e7655d91abd9eaefa4196753a4b8bfcbf5b068dd0732",
          "transactionIndex": "0x7",
          "logIndex": "0x13",
          "removed": false
        }
      ],
      "logsBloom": "0x00000000000000800000080000000000000000000000200000000000000000000000000000000000000000000000200000000000000000000020000000000000000000000000000040000008000000000000000000000000000000000000000000000000000000000000000000000000000000000000000000000010000000000000000000000000000000000000000000000000000000000000000000000000000000000000000000000000000000000000000000000000000000000000000000000042000000000000000000000000000000000000000400000000000000000000000000000000000000000000000000000000000000000000000000008000",
      "type": "0x2",
      "transactionHash": "0x666dbf5b527af6b59a95e7655d91abd9eaefa4196753a4b8bfcbf5b068dd0732",
      "transactionIndex": "0x7",
      "blockHash": "0xdae0b5ccf89a1e8d51d54c70f490baea0ddab58b8d63be82fd6e276476c0b7f5",
      "blockNumber": "0x16d7ee7",
      "gasUsed": "0x86b4",
      "effectiveGasPrice": "0xc566d",
      "from": "0xbe2680dc1752109b4344dbeb1072fd8cd880e54b",
      "to": "0xa4253e7c13525287c56550b8708100f93e60509f",
      "contractAddress": null,
      "l1BaseFeeScalar": "0x44d",
      "l1BlobBaseFee": "0x1",
      "l1BlobBaseFeeScalar": "0xa118b",
      "l1Fee": "0x38c4f5b91",
      "l1GasPrice": "0x2039dd17b",
      "l1GasUsed": "0x640"
    },
    {
      "status": "0x1",
      "cumulativeGasUsed": "0x13c12e3",
      "logs": [],
      "logsBloom": "0x00000000000000000000000000000000000000000000000000000000000000000000000000000000000000000000000000000000000000000000000000000000000000000000000000000000000000000000000000000000000000000000000000000000000000000000000000000000000000000000000000000000000000000000000000000000000000000000000000000000000000000000000000000000000000000000000000000000000000000000000000000000000000000000000000000000000000000000000000000000000000000000000000000000000000000000000000000000000000000000000000000000000000000000000000000000",
      "type": "0x2",
      "transactionHash": "0xce46de914f506ef1a085238d0a01d6e52037e09283b68c02e0d8c48c2d02ad21",
      "transactionIndex": "0x1f",
      "blockHash": "0xec365a3f27d490b130cd9d563874bb7829309faa3cce7e51ba9b087979d65986",
      "blockNumber": "0x16d7ee8",
      "gasUsed": "0x5208",
      "effectiveGasPrice": "0xc566d",
      "from": "0xbe2680dc1752109b4344dbeb1072fd8cd880e54b",
      "to": "0xa0084de38eee190c6f1d4d83b20b9adcc4998799",
      "contractAddress": null,
      "l1BaseFeeScalar": "0x44d",
      "l1BlobBaseFee": "0x1",
      "l1BlobBaseFeeScalar": "0xa118b",
      "l1Fee": "0x38c4f5b91",
      "l1GasPrice": "0x2039dd17b",
      "l1GasUsed": "0x640"
    },
    {
      "status": "0x1",
      "cumulativeGasUsed": "0xc21c5a",
      "logs": [
        {
          "address": "0xa4253e7c13525287c56550b8708100f93e60509f",
          "topics": [
            "0xddf252ad1be2c89b69c2b068fc378daa952ba7f163c4a11628f55a4df523b3ef",
            "0x000000000000000000000000be2680dc1752109b4344dbeb1072fd8cd880e54b",
            "0x000000000000000000000000070806b631a667a3da88177d326adb27fde834db"
          ],
          "data": "0x0000000000000000000000000000000000000000000000000000000000895440",
          "blockHash": "0x164873cb48e31923767ec943d7d44b4c27aa7e242a07867678fc24bed2f5c62d",
          "blockNumber": "0x16d7eea",
          "transactionHash": "0x58887d722e62f61de43378c7b1a5c3f64880d2bebb3b2bb7b11618f36e909f96",
          "transactionIndex": "0x4a",
          "logIndex": "0x127",
          "removed": false
        }
      ],
      "logsBloom": "0x00000000000000800000080000040000000000000000200000000000000000000000000000000000000000000000000000000000000000000000000000000000000000000000000040000008000000000000000000000000000000000000000000000000000000000000000000000000000000000000000000000010000000000000000000000000000000000000000000000000000000000000000000000040000000000000000000000000000000000000000000000000000000000000000000000002000000000000000000000000000000000000000400000000000000000000000000000000000000000004000000000000000000000000000000008000",
      "type": "0x2",
      "transactionHash": "0x58887d722e62f61de43378c7b1a5c3f64880d2bebb3b2bb7b11618f36e909f96",
      "transactionIndex": "0x4a",
      "blockHash": "0x164873cb48e31923767ec943d7d44b4c27aa7e242a07867678fc24bed2f5c62d",
      "blockNumber": "0x16d7eea",
      "gasUsed": "0x86b4",
      "effectiveGasPrice": "0xc566e",
      "from": "0xbe2680dc1752109b4344dbeb1072fd8cd880e54b",
      "to": "0xa4253e7c13525287c56550b8708100f93e60509f",
      "contractAddress": null,
      "l1BaseFeeScalar": "0x44d",
      "l1BlobBaseFee": "0x1",
      "l1BlobBaseFeeScalar": "0xa118b",
      "l1Fee": "0x38c4f5b91",
      "l1GasPrice": "0x2039dd17b",
      "l1GasUsed": "0x640"
    },
    {
      "status": "0x1",
      "cumulativeGasUsed": "0x16b2820",
      "logs": [],
      "logsBloom": "0x00000000000000000000000000000000000000000000000000000000000000000000000000000000000000000000000000000000000000000000000000000000000000000000000000000000000000000000000000000000000000000000000000000000000000000000000000000000000000000000000000000000000000000000000000000000000000000000000000000000000000000000000000000000000000000000000000000000000000000000000000000000000000000000000000000000000000000000000000000000000000000000000000000000000000000000000000000000000000000000000000000000000000000000000000000000",
      "type": "0x2",
      "transactionHash": "0xe75253e275432fa083f47983168afc6350bf51ec8790e5e6b74bf9138724ada7",
      "transactionIndex": "0x2e",
      "blockHash": "0xc5939b87d210e04064a48072b0b98aae490152444533883fdbd3c955e46832cb",
      "blockNumber": "0x16d7eeb",
      "gasUsed": "0x5208",
      "effectiveGasPrice": "0xc566e",
      "from": "0xbe2680dc1752109b4344dbeb1072fd8cd880e54b",
      "to": "0x070806b631a667a3da88177d326adb27fde834db",
      "contractAddress": null,
      "l1BaseFeeScalar": "0x44d",
      "l1BlobBaseFee": "0x1",
      "l1BlobBaseFeeScalar": "0xa118b",
      "l1Fee": "0x36bb342ef",
      "l1GasPrice": "0x1f11ae3d1",
      "l1GasUsed": "0x640"
    },
    {
      "status": "0x1",
      "cumulativeGasUsed": "0x4eb8e2",
      "logs": [
        {
          "address": "0xa4253e7c13525287c56550b8708100f93e60509f",
          "topics": [
            "0xddf252ad1be2c89b69c2b068fc378daa952ba7f163c4a11628f55a4df523b3ef",
            "0x000000000000000000000000be2680dc1752109b4344dbeb1072fd8cd880e54b",
            "0x000000000000000000000000546da7c993d811d067f4c102b4281fe3c2af6a8d"
          ],
          "data": "0x000000000000000000000000000000000000000000000000000000000121eac0",
          "blockHash": "0xf9fb0938d49c2ce552ae49a62aebeb68406d3eb3fe85a7f04ab8587d3751b10e",
          "blockNumber": "0x16d7eed",
          "transactionHash": "0x49b9cc10e47f21ab2ecadb48d8029d20f689b6fd583e01ac2c07ca2db5cc2378",
          "transactionIndex": "0x18",
          "logIndex": "0x4c",
          "removed": false
        }
      ],
      "logsBloom": "0x00000000000000800000080000000000000020000400200000000000000000000000000000000000000000000000000000000000000000000000000000000000000000000000000040000008000000000000000000000000000000000000000000000000000000000000000000000000000000000000000000000010000000000000200000000000000000000000000000000000000000000000000000000000000000000000000000000000000000000000000000000000000000000000000000000002000000000000000000000000000000000000000400000000000000000000000000000000000000000000000000000000000000000000000000008000",
      "type": "0x2",
      "transactionHash": "0x49b9cc10e47f21ab2ecadb48d8029d20f689b6fd583e01ac2c07ca2db5cc2378",
      "transactionIndex": "0x18",
      "blockHash": "0xf9fb0938d49c2ce552ae49a62aebeb68406d3eb3fe85a7f04ab8587d3751b10e",
      "blockNumber": "0x16d7eed",
      "gasUsed": "0x86c0",
      "effectiveGasPrice": "0xc5670",
      "from": "0xbe2680dc1752109b4344dbeb1072fd8cd880e54b",
      "to": "0xa4253e7c13525287c56550b8708100f93e60509f",
      "contractAddress": null,
      "l1BaseFeeScalar": "0x44d",
      "l1BlobBaseFee": "0x1",
      "l1BlobBaseFeeScalar": "0xa118b",
      "l1Fee": "0x36bb342ef",
      "l1GasPrice": "0x1f11ae3d1",
      "l1GasUsed": "0x640"
    },
    {
      "status": "0x1",
      "cumulativeGasUsed": "0xd7a08",
      "logs": [],
      "logsBloom": "0x00000000000000000000000000000000000000000000000000000000000000000000000000000000000000000000000000000000000000000000000000000000000000000000000000000000000000000000000000000000000000000000000000000000000000000000000000000000000000000000000000000000000000000000000000000000000000000000000000000000000000000000000000000000000000000000000000000000000000000000000000000000000000000000000000000000000000000000000000000000000000000000000000000000000000000000000000000000000000000000000000000000000000000000000000000000",
      "type": "0x2",
      "transactionHash": "0xd75d9f841fa0f037b3034999dbc58b336edf4961437caffc7c040a766c10856f",
      "transactionIndex": "0xb",
      "blockHash": "0xd9c985bad7f9d4c713332617204a8534ed7f481de7354fc81f60a36a33884579",
      "blockNumber": "0x16d7eef",
      "gasUsed": "0x5208",
      "effectiveGasPrice": "0xc5671",
      "from": "0xbe2680dc1752109b4344dbeb1072fd8cd880e54b",
      "to": "0x546da7c993d811d067f4c102b4281fe3c2af6a8d",
      "contractAddress": null,
      "l1BaseFeeScalar": "0x44d",
      "l1BlobBaseFee": "0x1",
      "l1BlobBaseFeeScalar": "0xa118b",
      "l1Fee": "0x36bb342ef",
      "l1GasPrice": "0x1f11ae3d1",
      "l1GasUsed": "0x640"
    },
    {
      "status": "0x1",
      "cumulativeGasUsed": "0x1b1e1e",
      "logs": [
        {
          "address": "0xa4253e7c13525287c56550b8708100f93e60509f",
          "topics": [
            "0xddf252ad1be2c89b69c2b068fc378daa952ba7f163c4a11628f55a4df523b3ef",
            "0x000000000000000000000000be2680dc1752109b4344dbeb1072fd8cd880e54b",
            "0x000000000000000000000000bef88420f20ab95e5f7ea851f6008dbbee97dc26"
          ],
          "data": "0x0000000000000000000000000000000000000000000000000000000001f78a40",
          "blockHash": "0x80a8a58f8359e09628d1cfa8f7f41923e1f4f2258eed1b24440a8f148a5df79f",
          "blockNumber": "0x16d7ef1",
          "transactionHash": "0x6e6bbd794e1c06f05624a66160a472704b065caef02632c9b2820c52ae93f748",
          "transactionIndex": "0x5",
          "logIndex": "0x22",
          "removed": false
        }
      ],
      "logsBloom": "0x00020000000000800000080000000000000000000000200000000000000000000000000000000000000000000000000000000000000080000000000000000000000000000000000040000008000000000000000000000000000000000000000000000000000000000000000000000000000000000000000000000010000000000000000000000000000000000000000000000000000000000100000000000000000000000000000000000000000000000000000000000000000000000000000000000002000000000000000000000000000000000000000400000000000000000000000000000000000000000000000000000000000000000000000000008000",
      "type": "0x2",
      "transactionHash": "0x6e6bbd794e1c06f05624a66160a472704b065caef02632c9b2820c52ae93f748",
      "transactionIndex": "0x5",
      "blockHash": "0x80a8a58f8359e09628d1cfa8f7f41923e1f4f2258eed1b24440a8f148a5df79f",
      "blockNumber": "0x16d7ef1",
      "gasUsed": "0x86b4",
      "effectiveGasPrice": "0xc5670",
      "from": "0xbe2680dc1752109b4344dbeb1072fd8cd880e54b",
      "to": "0xa4253e7c13525287c56550b8708100f93e60509f",
      "contractAddress": null,
      "l1BaseFeeScalar": "0x44d",
      "l1BlobBaseFee": "0x1",
      "l1BlobBaseFeeScalar": "0xa118b",
      "l1Fee": "0x36f8f2657",
      "l1GasPrice": "0x1f34bae26",
      "l1GasUsed": "0x640"
    },
    {
      "status": "0x1",
      "cumulativeGasUsed": "0x9c0d7",
      "logs": [],
      "logsBloom": "0x00000000000000000000000000000000000000000000000000000000000000000000000000000000000000000000000000000000000000000000000000000000000000000000000000000000000000000000000000000000000000000000000000000000000000000000000000000000000000000000000000000000000000000000000000000000000000000000000000000000000000000000000000000000000000000000000000000000000000000000000000000000000000000000000000000000000000000000000000000000000000000000000000000000000000000000000000000000000000000000000000000000000000000000000000000000",
      "type": "0x2",
      "transactionHash": "0x2d3f6806a7f6a36ca0f97bbf0c3cd7a0a13f1c5e8d219575e7da23cbd4d07f08",
      "transactionIndex": "0x3",
      "blockHash": "0x8724dc49d186ead3228d4822ffb688a248563ef99bf314bdf1ae2ee2ea97a4a1",
      "blockNumber": "0x16d7ef4",
      "gasUsed": "0x5208",
      "effectiveGasPrice": "0xc5672",
      "from": "0xbe2680dc1752109b4344dbeb1072fd8cd880e54b",
      "to": "0xbef88420f20ab95e5f7ea851f6008dbbee97dc26",
      "contractAddress": null,
      "l1BaseFeeScalar": "0x44d",
      "l1BlobBaseFee": "0x1",
      "l1BlobBaseFeeScalar": "0xa118b",
      "l1Fee": "0x36f8f2657",
      "l1GasPrice": "0x1f34bae26",
      "l1GasUsed": "0x640"
    },
    {
      "status": "0x1",
      "cumulativeGasUsed": "0xccbb1a",
      "logs": [
        {
          "address": "0xa4253e7c13525287c56550b8708100f93e60509f",
          "topics": [
            "0xddf252ad1be2c89b69c2b068fc378daa952ba7f163c4a11628f55a4df523b3ef",
            "0x000000000000000000000000be2680dc1752109b4344dbeb1072fd8cd880e54b",
            "0x00000000000000000000000019f19e10e6cb2ea89dae8a40635f7a0e10aeac3d"
          ],
          "data": "0x00000000000000000000000000000000000000000000000000000000030a32c0",
          "blockHash": "0x8d74fefee15ce41962016fd68a0baf47555219ac383746a26e5b72ffdf252627",
          "blockNumber": "0x16d7ef5",
          "transactionHash": "0x01d993cc05cfd0459778c216a63a07598fee77cf9fe7a2f51234947e19b2443c",
          "transactionIndex": "0x2e",
          "logIndex": "0x152",
          "removed": false
        }
      ],
      "logsBloom": "0x00000000000000800000080000000000000000000000200000000000000000000000000000000000000000000000000000000000000000000000000000000000000000000000000040000088000000000000000000000000000000000000000000000000000000000000000000000000000000000000000000000010000000000000000000000000000000000000000000000000000000000000000000000000000000000000000000080000000000000000000000000000000000000000200000000002000000000000000000000000000000000000000400000000000000000000000000000000000000000000000000000000000000000000000000008000",
      "type": "0x2",
      "transactionHash": "0x01d993cc05cfd0459778c216a63a07598fee77cf9fe7a2f51234947e19b2443c",
      "transactionIndex": "0x2e",
      "blockHash": "0x8d74fefee15ce41962016fd68a0baf47555219ac383746a26e5b72ffdf252627",
      "blockNumber": "0x16d7ef5",
      "gasUsed": "0x86c0",
      "effectiveGasPrice": "0xc5671",
      "from": "0xbe2680dc1752109b4344dbeb1072fd8cd880e54b",
      "to": "0xa4253e7c13525287c56550b8708100f93e60509f",
      "contractAddress": null,
      "l1BaseFeeScalar": "0x44d",
      "l1BlobBaseFee": "0x1",
      "l1BlobBaseFeeScalar": "0xa118b",
      "l1Fee": "0x36f8f2657",
      "l1GasPrice": "0x1f34bae26",
      "l1GasUsed": "0x640"
    },
    {
      "status": "0x1",
      "cumulativeGasUsed": "0x4e17ae",
      "logs": [],
      "logsBloom": "0x00000000000000000000000000000000000000000000000000000000000000000000000000000000000000000000000000000000000000000000000000000000000000000000000000000000000000000000000000000000000000000000000000000000000000000000000000000000000000000000000000000000000000000000000000000000000000000000000000000000000000000000000000000000000000000000000000000000000000000000000000000000000000000000000000000000000000000000000000000000000000000000000000000000000000000000000000000000000000000000000000000000000000000000000000000000",
      "type": "0x2",
      "transactionHash": "0xfa54205dc6f296ac6f04424b7fa06ed76bdfc1f443c03b3f7e98dfe3607a06f2",
      "transactionIndex": "0x14",
      "blockHash": "0xe90c32c9c8179a3a84c5fc2a380ea445cfd6363ce495e0813c9e1749c05b148b",
      "blockNumber": "0x16d7ef7",
      "gasUsed": "0x5208",
      "effectiveGasPrice": "0xc5672",
      "from": "0xbe2680dc1752109b4344dbeb1072fd8cd880e54b",
      "to": "0x19f19e10e6cb2ea89dae8a40635f7a0e10aeac3d",
      "contractAddress": null,
      "l1BaseFeeScalar": "0x44d",
      "l1BlobBaseFee": "0x1",
      "l1BlobBaseFeeScalar": "0xa118b",
      "l1Fee": "0x36b1fa9c2",
      "l1GasPrice": "0x1f0c71a77",
      "l1GasUsed": "0x640"
    },
    {
      "status": "0x1",
      "cumulativeGasUsed": "0x2d802b",
      "logs": [
        {
          "address": "0xa4253e7c13525287c56550b8708100f93e60509f",
          "topics": [
            "0x8c5be1e5ebec7d5bd14f71427d1e84f3dd0314c0f7b2291e5b200ac8c7c3b925",
            "0x000000000000000000000000a0084de38eee190c6f1d4d83b20b9adcc4998799",
            "0x0000000000000000000000009aa2e7ffee192dcbdb40c9d75917d0d33501e5c6"
          ],
          "data": "0x00000000000000000000000000000000000000000000000000000000001e8480",
          "blockHash": "0x436c2cfda64bed7681eca75bc9dbe1f0b8ad5381224bc49f754f209c43672686",
          "blockNumber": "0x16d7ef9",
          "transactionHash": "0x5c0a0dec02b38897316a21dabccd71cbee7b57c1dd74b0444b0737404f0526ac",
          "transactionIndex": "0xe",
          "logIndex": "0x38",
          "removed": false
        }
      ],
      "logsBloom": "0x00000000000000800000000000000000000000000000200000000000000000000000002000000000000000000000200000000000000000000020000000200000000000000000000040000000000000000000000000000000000000000000000000001000000000000000000000000000000000000000000000000000000000000000000000000000000000000000000000000000000000000000000000000000020000000000000000000000000000000000000000000000000000000000000000000040000000000000800000000000000000000000000000000000000000000010000000000000000000000000000000000000000000000000000000000000",
      "type": "0x2",
      "transactionHash": "0x5c0a0dec02b38897316a21dabccd71cbee7b57c1dd74b0444b0737404f0526ac",
      "transactionIndex": "0xe",
      "blockHash": "0x436c2cfda64bed7681eca75bc9dbe1f0b8ad5381224bc49f754f209c43672686",
      "blockNumber": "0x16d7ef9",
      "gasUsed": "0xb4ff",
      "effectiveGasPrice": "0xc5673",
      "from": "0xa0084de38eee190c6f1d4d83b20b9adcc4998799",
      "to": "0xa4253e7c13525287c56550b8708100f93e60509f",
      "contractAddress": null,
      "l1BaseFeeScalar": "0x44d",
      "l1BlobBaseFee": "0x1",
      "l1BlobBaseFeeScalar": "0xa118b",
      "l1Fee": "0x36b1fa9c2",
      "l1GasPrice": "0x1f0c71a77",
      "l1GasUsed": "0x640"
    },
    {
      "status": "0x1",
      "cumulativeGasUsed": "0x669b9",
      "logs": [
        {
          "address": "0xa4253e7c13525287c56550b8708100f93e60509f",
          "topics": [
            "0xddf252ad1be2c89b69c2b068fc378daa952ba7f163c4a11628f55a4df523b3ef",
            "0x000000000000000000000000a0084de38eee190c6f1d4d83b20b9adcc4998799",
            "0x0000000000000000000000009aa2e7ffee192dcbdb40c9d75917d0d33501e5c6"
          ],
          "data": "0x00000000000000000000000000000000000000000000000000000000001e8480",
          "blockHash": "0x5364acc9c116505dbd20174691af544941ef6855ba8cc0a0441201066ef78863",
          "blockNumber": "0x16d7efb",
          "transactionHash": "0x63d9ae9493ff1e990cb991278af8905e77accfaa4ca296968b18fc33f4278730",
          "transactionIndex": "0x3",
          "logIndex": "0x5",
          "removed": false
        },
        {
          "address": "0x9aa2e7ffee192dcbdb40c9d75917d0d33501e5c6",
          "topics": [
            "0x2bdfae17037529a2e65ec70b13ee84e9aa324112f93c1598ff55cafc6b84df08",
            "0x000000000000000000000000a0084de38eee190c6f1d4d83b20b9adcc4998799"
          ],
          "data": "0x0000000000000000000000000000000000000000000000000000000000000001000000000000000000000000000000000000000000000000000000000000000200000000000000000000000000000000000000000000000000000000001e8480",
          "blockHash": "0x5364acc9c116505dbd20174691af544941ef6855ba8cc0a0441201066ef78863",
          "blockNumber": "0x16d7efb",
          "transactionHash": "0x63d9ae9493ff1e990cb991278af8905e77accfaa4ca296968b18fc33f4278730",
          "transactionIndex": "0x3",
          "logIndex": "0x6",
          "removed": false
        }
      ],
      "logsBloom": "0x00000100000000800000000000000000000000000000200000800000000000000000002000000000000000000000200000000000000000000020000000800000000000000000000040000008000400000000000000000000000000000000000000001000000000000000000000000000000000000000000000000010000000000000000000000000000000000000000000000000000000000000000040000000000000000000000000000000000000000000000000000000000000000000000000000042000000000000800000000000000000000000000000000000000000000000000000000000000000000000000000000000000000000800000000000000",
      "type": "0x2",
      "transactionHash": "0x63d9ae9493ff1e990cb991278af8905e77accfaa4ca296968b18fc33f4278730",
      "transactionIndex": "0x3",
      "blockHash": "0x5364acc9c116505dbd20174691af544941ef6855ba8cc0a0441201066ef78863",
      "blockNumber": "0x16d7efb",
      "gasUsed": "0x32d6c",
      "effectiveGasPrice": "0xc5672",
      "from": "0xa0084de38eee190c6f1d4d83b20b9adcc4998799",
      "to": "0x9aa2e7ffee192dcbdb40c9d75917d0d33501e5c6",
      "contractAddress": null,
      "l1BaseFeeScalar": "0x44d",
      "l1BlobBaseFee": "0x1",
      "l1BlobBaseFeeScalar": "0xa118b",
      "l1Fee": "0x36b1fa9c2",
      "l1GasPrice": "0x1f0c71a77",
      "l1GasUsed": "0x640"
    },
    {
      "status": "0x1",
      "cumulativeGasUsed": "0x76f6d6",
      "logs": [
        {
          "address": "0xa4253e7c13525287c56550b8708100f93e60509f",
          "topics": [
            "0x8c5be1e5ebec7d5bd14f71427d1e84f3dd0314c0f7b2291e5b200ac8c7c3b925",
            "0x000000000000000000000000070806b631a667a3da88177d326adb27fde834db",
            "0x0000000000000000000000009aa2e7ffee192dcbdb40c9d75917d0d33501e5c6"
          ],
          "data": "0x00000000000000000000000000000000000000000000000000000000007a1200",
          "blockHash": "0xf61401c1aebf767c1879bd2fc4e478f452e0a37c79cdbd87cb2127c42f227e39",
          "blockNumber": "0x16d7efc",
          "transactionHash": "0x87d518c597f3a434a2d80f06f0e0f0542af8b3c8a5fa7094ccbecbd1294bdb20",
          "transactionIndex": "0x25",
          "logIndex": "0xac",
          "removed": false
        }
      ],
      "logsBloom": "0x00000000000000800000000000040000000000000000200000000000000000000000002000000000000000000000000000000000000000000000000000200000000000000000000040000000000000000000000000000000000000000000000000001000000000000000000000000000000000000000000000000000000000000000000000000000000000000000000000000000000000000000000000000040020000000000000000000000000000000000000000000000000000000000000000000000000000000000800000000000000000000000000000000000000000000010000000000000000000000004000000000000000000000000000000000000",
      "type": "0x2",
      "transactionHash": "0x87d518c597f3a434a2d80f06f0e0f0542af8b3c8a5fa7094ccbecbd1294bdb20",
      "transactionIndex": "0x25",
      "blockHash": "0xf61401c1aebf767c1879bd2fc4e478f452e0a37c79cdbd87cb2127c42f227e39",
      "blockNumber": "0x16d7efc",
      "gasUsed": "0xb4f3",
      "effectiveGasPrice": "0xc5672",
      "from": "0x070806b631a667a3da88177d326adb27fde834db",
      "to": "0xa4253e7c13525287c56550b8708100f93e60509f",
      "contractAddress": null,
      "l1BaseFeeScalar": "0x44d",
      "l1BlobBaseFee": "0x1",
      "l1BlobBaseFeeScalar": "0xa118b",
      "l1Fee": "0x36b1fa9c2",
      "l1GasPrice": "0x1f0c71a77",
      "l1GasUsed": "0x640"
    },
    {
      "status": "0x1",
      "cumulativeGasUsed": "0xe369ef",
      "logs": [
        {
          "address": "0xa4253e7c13525287c56550b8708100f93e60509f",
          "topics": [
            "0xddf252ad1be2c89b69c2b068fc378daa952ba7f163c4a11628f55a4df523b3ef",
            "0x000000000000000000000000070806b631a667a3da88177d326adb27fde834db",
            "0x0000000000000000000000009aa2e7ffee192dcbdb40c9d75917d0d33501e5c6"
          ],
          "data": "0x00000000000000000000000000000000000000000000000000000000007a1200",
          "blockHash": "0x2c54394cc7c55d59bd1ca183e84eebcbcc8003b8e49e10791743ea188654c3f5",
          "blockNumber": "0x16d7efd",
          "transactionHash": "0x8c677c6988676e6adee83d5218854c389d32c09f64e7d3a6b0efd846f8c49079",
          "transactionIndex": "0x2a",
          "logIndex": "0xfb",
          "removed": false
        },
        {
          "address": "0x9aa2e7ffee192dcbdb40c9d75917d0d33501e5c6",
          "topics": [
            "0x2bdfae17037529a2e65ec70b13ee84e9aa324112f93c1598ff55cafc6b84df08",
            "0x000000000000000000000000070806b631a667a3da88177d326adb27fde834db"
          ],
          "data": "0x0000000000000000000000000000000000000000000000000000000000000002000000000000000000000000000000000000000000000000000000000000000400000000000000000000000000000000000000000000000000000000007a1200",
          "blockHash": "0x2c54394cc7c55d59bd1ca183e84eebcbcc8003b8e49e10791743ea188654c3f5",
          "blockNumber": "0x16d7efd",
          "transactionHash": "0x8c677c6988676e6adee83d5218854c389d32c09f64e7d3a6b0efd846f8c49079",
          "transactionIndex": "0x2a",
          "logIndex": "0xfc",
          "removed": false
        }
      ],
      "logsBloom": "0x00000100000000800000000000040000000000000000200000800000000000000000002000000000000000000000000000000000000000000000000000800000000000000000000040000008000400000000000000000000000000000000000000001000000000000000000000000000000000000000000000000010000000000000000000000000000000000000000000000000000000000000000040000040000000000000000000000000000000000000000000000000000000000000000000000002000000000000800000000000000000000000000000000000000000000000000000000000000000000004000000000000000000000800000000000000",
      "type": "0x2",
      "transactionHash": "0x8c677c6988676e6adee83d5218854c389d32c09f64e7d3a6b0efd846f8c49079",
      "transactionIndex": "0x2a",
      "blockHash": "0x2c54394cc7c55d59bd1ca183e84eebcbcc8003b8e49e10791743ea188654c3f5",
      "blockNumber": "0x16d7efd",
      "gasUsed": "0x2b18a",
      "effectiveGasPrice": "0xc5672",
      "from": "0x070806b631a667a3da88177d326adb27fde834db",
      "to": "0x9aa2e7ffee192dcbdb40c9d75917d0d33501e5c6",
      "contractAddress": null,
      "l1BaseFeeScalar": "0x44d",
      "l1BlobBaseFee": "0x1",
      "l1BlobBaseFeeScalar": "0xa118b",
      "l1Fee": "0x3649bb167",
      "l1GasPrice": "0x1ed1440fc",
      "l1GasUsed": "0x640"
    },
    {
      "status": "0x1",
      "cumulativeGasUsed": "0x6989b7",
      "logs": [
        {
          "address": "0xa4253e7c13525287c56550b8708100f93e60509f",
          "topics": [
            "0x8c5be1e5ebec7d5bd14f71427d1e84f3dd0314c0f7b2291e5b200ac8c7c3b925",
            "0x000000000000000000000000546da7c993d811d067f4c102b4281fe3c2af6a8d",
            "0x0000000000000000000000009aa2e7ffee192dcbdb40c9d75917d0d33501e5c6"
          ],
          "data": "0x000000000000000000000000000000000000000000000000000000000112a880",
          "blockHash": "0x1ac2abdaac128360dfe4d9f87a3e0857df630a9ffae769d8bbaa04399e9f85a7",
          "blockNumber": "0x16d7eff",
          "transactionHash": "0x79690d1995a3c2bde03ec12cda7d65c569d21ebbb8dac8640a462f8d2191cdee",
          "transactionIndex": "0x17",
          "logIndex": "0x61",
          "removed": false
        }
      ],
      "logsBloom": "0x00000000000000800000000000000000000020000400200000000000000000000000002000000000000000000000000000000000000000000000000000200000000000000000000040000000000000000000000000000000000000000000000000001000000000000000000000000000000000000000000000000000000000000000200000000000000000000000000000000000000000000000000000000000020000000000000000000000000000000000000000000000000000000000000000000000000000000000800000000000000000000000000000000000000000000010000000000000000000000000000000000000000000000000000000000000",
      "type": "0x2",
      "transactionHash": "0x79690d1995a3c2bde03ec12cda7d65c569d21ebbb8dac8640a462f8d2191cdee",
      "transactionIndex": "0x17",
      "blockHash": "0x1ac2abdaac128360dfe4d9f87a3e0857df630a9ffae769d8bbaa04399e9f85a7",
      "blockNumber": "0x16d7eff",
      "gasUsed": "0xb50b",
      "effectiveGasPrice": "0xc5672",
      "from": "0x546da7c993d811d067f4c102b4281fe3c2af6a8d",
      "to": "0xa4253e7c13525287c56550b8708100f93e60509f",
      "contractAddress": null,
      "l1BaseFeeScalar": "0x44d",
      "l1BlobBaseFee": "0x1",
      "l1BlobBaseFeeScalar": "0xa118b",
      "l1Fee": "0x3649bb167",
      "l1GasPrice": "0x1ed1440fc",
      "l1GasUsed": "0x640"
    },
    {
      "status": "0x1",
      "cumulativeGasUsed": "0x36e6ae",
      "logs": [
        {
          "address": "0xa4253e7c13525287c56550b8708100f93e60509f",
          "topics": [
            "0xddf252ad1be2c89b69c2b068fc378daa952ba7f163c4a11628f55a4df523b3ef",
            "0x000000000000000000000000546da7c993d811d067f4c102b4281fe3c2af6a8d",
            "0x0000000000000000000000009aa2e7ffee192dcbdb40c9d75917d0d33501e5c6"
          ],
          "data": "0x000000000000000000000000000000000000000000000000000000000112a880",
          "blockHash": "0xcef89e3e3bed06e44b4dc0188d741a491b2273aa16c3f17de97bf33aae6f9d3a",
          "blockNumber": "0x16d7f01",
          "transactionHash": "0x23e1dad3f174919bf6369f365540067490a840edc5af5b6f69856da7a34a5873",
          "transactionIndex": "0x14",
          "logIndex": "0x3a",
          "removed": false
        },
        {
          "address": "0x9aa2e7ffee192dcbdb40c9d75917d0d33501e5c6",
          "topics": [
            "0x2bdfae17037529a2e65ec70b13ee84e9aa324112f93c1598ff55cafc6b84df08",
            "0x000000000000000000000000546da7c993d811d067f4c102b4281fe3c2af6a8d"
          ],
          "data": "0x00000000000000000000000000000000000000000000000000000000000000030000000000000000000000000000000000000000000000000000000000000006000000000000000000000000000000000000000000000000000000000112a880",
          "blockHash": "0xcef89e3e3bed06e44b4dc0188d741a491b2273aa16c3f17de97bf33aae6f9d3a",
          "blockNumber": "0x16d7f01",
          "transactionHash": "0x23e1dad3f174919bf6369f365540067490a840edc5af5b6f69856da7a34a5873",
          "transactionIndex": "0x14",
          "logIndex": "0x3b",
          "removed": false
        }
      ],
      "logsBloom": "0x00000100000000800000000000000000000020000400200000800000000000000000002000000000000000000000000000000000000000000000000000800000000000000000000040000008000400000000000000000000000000000000000000001000000000000000000000000000000000000000000000000010000000000000200000000000000000000000000000000000000000000000000040000000000000000000000000000000000000000000000000000000000000000000000000000002000000000000800000000000000000000000000000000000000000000000000000000000000000000000000000000000000000000800000000000000",
      "type": "0x2",
      "transactionHash": "0x23e1dad3f174919bf6369f365540067490a840edc5af5b6f69856da7a34a5873",
      "transactionIndex": "0x14",
      "blockHash": "0xcef89e3e3bed06e44b4dc0188d741a491b2273aa16c3f17de97bf33aae6f9d3a",
      "blockNumber": "0x16d7f01",
      "gasUsed": "0x2bb40",
      "effectiveGasPrice": "0xc5672",
      "from": "0x546da7c993d811d067f4c102b4281fe3c2af6a8d",
      "to": "0x9aa2e7ffee192dcbdb40c9d75917d0d33501e5c6",
      "contractAddress": null,
      "l1BaseFeeScalar": "0x44d",
      "l1BlobBaseFee": "0x1",
      "l1BlobBaseFeeScalar": "0xa118b",
      "l1Fee": "0x3649bb167",
      "l1GasPrice": "0x1ed1440fc",
      "l1GasUsed": "0x640"
    },
    {
      "status": "0x1",
      "cumulativeGasUsed": "0x14502a",
      "logs": [
        {
          "address": "0xa4253e7c13525287c56550b8708100f93e60509f",
          "topics": [
            "0x8c5be1e5ebec7d5bd14f71427d1e84f3dd0314c0f7b2291e5b200ac8c7c3b925",
            "0x000000000000000000000000bef88420f20ab95e5f7ea851f6008dbbee97dc26",
            "0x0000000000000000000000009aa2e7ffee192dcbdb40c9d75917d0d33501e5c6"
          ],
          "data": "0x0000000000000000000000000000000000000000000000000000000001e84800",
          "blockHash": "0x8fccffc6dbbb3e45a130eace76fa53585d680c35b9f1875c21e22b8d531e6a06",
          "blockNumber": "0x16d7f03",
          "transactionHash": "0x1a38a17372113b0310cbe64947f71f79a80076f7d0d846a16ecc64b51a69fc3f",
          "transactionIndex": "0x8",
          "logIndex": "0x1e",
          "removed": false
        }
      ],
      "logsBloom": "0x00020000000000800000000000000000000000000000200000000000000000000000002000000000000000000000000000000000000080000000000000200000000000000000000040000000000000000000000000000000000000000000000000001000000000000000000000000000000000000000000000000000000000000000000000000000000000000000000000000000000000000100000000000000020000000000000000000000000000000000000000000000000000000000000000000000000000000000800000000000000000000000000000000000000000000010000000000000000000000000000000000000000000000000000000000000",
      "type": "0x2",
      "transactionHash": "0x1a38a17372113b0310cbe64947f71f79a80076f7d0d846a16ecc64b51a69fc3f",
      "transactionIndex": "0x8",
      "blockHash": "0x8fccffc6dbbb3e45a130eace76fa53585d680c35b9f1875c21e22b8d531e6a06",
      "blockNumber": "0x16d7f03",
      "gasUsed": "0xb4ff",
      "effectiveGasPrice": "0xc5670",
      "from": "0xbef88420f20ab95e5f7ea851f6008dbbee97dc26",
      "to": "0xa4253e7c13525287c56550b8708100f93e60509f",
      "contractAddress": null,
      "l1BaseFeeScalar": "0x44d",
      "l1BlobBaseFee": "0x1",
      "l1BlobBaseFeeScalar": "0xa118b",
      "l1Fee": "0x386bd948c",
      "l1GasPrice": "0x200747409",
      "l1GasUsed": "0x640"
    },
    {
      "status": "0x1",
      "cumulativeGasUsed": "0xcf2465",
      "logs": [
        {
          "address": "0xa4253e7c13525287c56550b8708100f93e60509f",
          "topics": [
            "0xddf252ad1be2c89b69c2b068fc378daa952ba7f163c4a11628f55a4df523b3ef",
            "0x000000000000000000000000bef88420f20ab95e5f7ea851f6008dbbee97dc26",
            "0x0000000000000000000000009aa2e7ffee192dcbdb40c9d75917d0d33501e5c6"
          ],
          "data": "0x0000000000000000000000000000000000000000000000000000000001e84800",
          "blockHash": "0xf14f04bd9daf4a75eb751ed6f4491014459db9b49bc89abd8a138f7e519720eb",
          "blockNumber": "0x16d7f05",
          "transactionHash": "0xf27c0f5607e1415e38f338a6c67eb628ba2f833a9e34bb8a25b84ba5e0de8045",
          "transactionIndex": "0x30",
          "logIndex": "0x141",
          "removed": false
        },
        {
          "address": "0x9aa2e7ffee192dcbdb40c9d75917d0d33501e5c6",
          "topics": [
            "0x2bdfae17037529a2e65ec70b13ee84e9aa324112f93c1598ff55cafc6b84df08",
            "0x000000000000000000000000bef88420f20ab95e5f7ea851f6008dbbee97dc26"
          ],
          "data": "0x000000000000000000000000000000000000000000000000000000000000000400000000000000000000000000000000000000000000000000000000000000080000000000000000000000000000000000000000000000000000000001e84800",
          "blockHash": "0xf14f04bd9daf4a75eb751ed6f4491014459db9b49bc89abd8a138f7e519720eb",
          "blockNumber": "0x16d7f05",
          "transactionHash": "0xf27c0f5607e1415e38f338a6c67eb628ba2f833a9e34bb8a25b84ba5e0de8045",
          "transactionIndex": "0x30",
          "logIndex": "0x142",
          "removed": false
        }
      ],
      "logsBloom": "0x00020100000000800000000000000000000000000000200000800000000000000000002000000000000000000000000000000000000080000000000000800000000000000000000040000008000400000000000000000000000000000000000000001000000000000000000000000000000000000000000000000010000000000000000000000000000000000000000000000000000000000100000040000000000000000000000000000000000000000000000000000000000000000000000000000002000000000000800000000000000000000000000000000000000000000000000000000000000000000000000000000000000000000800000000000000",
      "type": "0x2",
      "transactionHash": "0xf27c0f5607e1415e38f338a6c67eb628ba2f833a9e34bb8a25b84ba5e0de8045",
      "transactionIndex": "0x30",
      "blockHash": "0xf14f04bd9daf4a75eb751ed6f4491014459db9b49bc89abd8a138f7e519720eb",
      "blockNumber": "0x16d7f05",
      "gasUsed": "0x2c4f6",
      "effectiveGasPrice": "0xc5670",
      "from": "0xbef88420f20ab95e5f7ea851f6008dbbee97dc26",
      "to": "0x9aa2e7ffee192dcbdb40c9d75917d0d33501e5c6",
      "contractAddress": null,
      "l1BaseFeeScalar": "0x44d",
      "l1BlobBaseFee": "0x1",
      "l1BlobBaseFeeScalar": "0xa118b",
      "l1Fee": "0x386bd948c",
      "l1GasPrice": "0x200747409",
      "l1GasUsed": "0x640"
    },
    {
      "status": "0x1",
      "cumulativeGasUsed": "0x13dd63d",
      "logs": [
        {
          "address": "0xa4253e7c13525287c56550b8708100f93e60509f",
          "topics": [
            "0x8c5be1e5ebec7d5bd14f71427d1e84f3dd0314c0f7b2291e5b200ac8c7c3b925",
            "0x00000000000000000000000019f19e10e6cb2ea89dae8a40635f7a0e10aeac3d",
            "0x0000000000000000000000009aa2e7ffee192dcbdb40c9d75917d0d33501e5c6"
          ],
          "data": "0x0000000000000000000000000000000000000000000000000000000002faf080",
          "blockHash": "0x6af8b1b4a2918d9359c654b5a63c44d831d2756301b617ca5ca0e1570c6a07db",
          "blockNumber": "0x16d7f06",
          "transactionHash": "0x581ddee02ee93366e5e1e1f100456a774ff7da2c47061a4b10f933905a271fdb",
          "transactionIndex": "0x1c",
          "logIndex": "0x26e",
          "removed": false
        }
      ],
      "logsBloom": "0x00000000000000800000000000000000000000000000200000000000000000000000002000000000000000000000000000000000000000000000000000200000000000000000000040000080000000000000000000000000000000000000000000001000000000000000000000000000000000000000000000000000000000000000000000000000000000000000000000000000000000000000000000000000020000000000000000080000000000000000000000000000000000000000200000000000000000000000800000000000000000000000000000000000000000000010000000000000000000000000000000000000000000000000000000000000",
      "type": "0x2",
      "transactionHash": "0x581ddee02ee93366e5e1e1f100456a774ff7da2c47061a4b10f933905a271fdb",
      "transactionIndex": "0x1c",
      "blockHash": "0x6af8b1b4a2918d9359c654b5a63c44d831d2756301b617ca5ca0e1570c6a07db",
      "blockNumber": "0x16d7f06",
      "gasUsed": "0xb50b",
      "effectiveGasPrice": "0xc5670",
      "from": "0x19f19e10e6cb2ea89dae8a40635f7a0e10aeac3d",
      "to": "0xa4253e7c13525287c56550b8708100f93e60509f",
      "contractAddress": null,
      "l1BaseFeeScalar": "0x44d",
      "l1BlobBaseFee": "0x1",
      "l1BlobBaseFeeScalar": "0xa118b",
      "l1Fee": "0x386bd948c",
      "l1GasPrice": "0x200747409",
      "l1GasUsed": "0x640"
    },
    {
      "status": "0x1",
      "cumulativeGasUsed": "0x6a2ebe",
      "logs": [
        {
          "address": "0xa4253e7c13525287c56550b8708100f93e60509f",
          "topics": [
            "0xddf252ad1be2c89b69c2b068fc378daa952ba7f163c4a11628f55a4df523b3ef",
            "0x00000000000000000000000019f19e10e6cb2ea89dae8a40635f7a0e10aeac3d",
            "0x0000000000000000000000009aa2e7ffee192dcbdb40c9d75917d0d33501e5c6"
          ],
          "data": "0x0000000000000000000000000000000000000000000000000000000002faf080",
          "blockHash": "0x0a94ad1a15e9cc7859067a3c6753e4235ff7b910874214dc122fd24f979b6474",
          "blockNumber": "0x16d7f08",
          "transactionHash": "0xc92980a7a5884654b7980bbab451eba3857d4ba5ebf0f428a00a7d9fc0099134",
          "transactionIndex": "0x17",
          "logIndex": "0xa4",
          "removed": false
        },
        {
          "address": "0x9aa2e7ffee192dcbdb40c9d75917d0d33501e5c6",
          "topics": [
            "0x2bdfae17037529a2e65ec70b13ee84e9aa324112f93c1598ff55cafc6b84df08",
            "0x00000000000000000000000019f19e10e6cb2ea89dae8a40635f7a0e10aeac3d"
          ],
          "data": "0x0000000000000000000000000000000000000000000000000000000000000005000000000000000000000000000000000000000000000000000000000000000a0000000000000000000000000000000000000000000000000000000002faf080",
          "blockHash": "0x0a94ad1a15e9cc7859067a3c6753e4235ff7b910874214dc122fd24f979b6474",
          "blockNumber": "0x16d7f08",
          "transactionHash": "0xc92980a7a5884654b7980bbab451eba3857d4ba5ebf0f428a00a7d9fc0099134",
          "transactionIndex": "0x17",
          "logIndex": "0xa5",
          "removed": false
        }
      ],
      "logsBloom": "0x00000100000000800000000000000000000000000000200000800000000000000000002000000000000000000000000000000000000000000000000000800000000000000000000040000088000400000000000000000000000000000000000000001000000000000000000000000000000000000000000000000010000000000000000000000000000000000000000000000000000000000000000040000000000000000000000000080000000000000000000000000000000000000000200000000002000000000000800000000000000000000000000000000000000000000000000000000000000000000000000000000000000000000800000000000000",
      "type": "0x2",
      "transactionHash": "0xc92980a7a5884654b7980bbab451eba3857d4ba5ebf0f428a00a7d9fc0099134",
      "transactionIndex": "0x17",
      "blockHash": "0x0a94ad1a15e9cc7859067a3c6753e4235ff7b910874214dc122fd24f979b6474",
      "blockNumber": "0x16d7f08",
      "gasUsed": "0x2ceac",
      "effectiveGasPrice": "0xc5671",
      "from": "0x19f19e10e6cb2ea89dae8a40635f7a0e10aeac3d",
      "to": "0x9aa2e7ffee192dcbdb40c9d75917d0d33501e5c6",
      "contractAddress": null,
      "l1BaseFeeScalar": "0x44d",
      "l1BlobBaseFee": "0x1",
      "l1BlobBaseFeeScalar": "0xa118b",
      "l1Fee": "0x386bd948c",
      "l1GasPrice": "0x200747409",
      "l1GasUsed": "0x640"
    }
  ],
  "libraries": [],
  "pending": [],
  "returns": {},
  "timestamp": 1743674610,
  "chain": 84532,
  "commit": "fee831d"
}