{
  "transactions": [
    {
      "hash": "0x45ffb5d874611ead3081d6d7aca0aa457845522ae7060aa0097ce69da0a78ce4",
      "transactionType": "CALL",
      "contractName": null,
      "contractAddress": "0xa4253e7c13525287c56550b8708100f93e60509f",
      "function": "transfer(address,uint256)",
      "arguments": [
        "0xA0084dE38Eee190c6f1d4d83B20B9adcc4998799",
        "3000000"
      ],
      "transaction": {
        "from": "0xbe2680dc1752109b4344dbeb1072fd8cd880e54b",
        "to": "0xa4253e7c13525287c56550b8708100f93e60509f",
        "value": "0x0",
        "input": "0xa9059cbb000000000000000000000000a0084de38eee190c6f1d4d83b20b9adcc499879900000000000000000000000000000000000000000000000000000000002dc6c0",
        "nonce": "0x2b1",
        "chainId": "0x14a34"
      },
      "additionalContracts": [],
      "isFixedGasLimit": false
    },
    {
      "hash": "0x8f88cf7dd45bfad36a2fe80cc8a66ff82a4cf77ad53d7cad23ecef40866eeea8",
      "transactionType": "CALL",
      "contractName": null,
      "contractAddress": "0xa0084de38eee190c6f1d4d83b20b9adcc4998799",
      "function": null,
      "arguments": null,
      "transaction": {
        "from": "0xbe2680dc1752109b4344dbeb1072fd8cd880e54b",
        "to": "0xa0084de38eee190c6f1d4d83b20b9adcc4998799",
        "value": "0x9184e72a000",
        "input": "0x",
        "nonce": "0x2b2",
        "chainId": "0x14a34"
      },
      "additionalContracts": [],
      "isFixedGasLimit": false
    },
    {
      "hash": "0x365ccd1f0df1663887ed73017e613c275e80ddea2b92543ff7a26b664c80baed",
      "transactionType": "CALL",
      "contractName": null,
      "contractAddress": "0xa4253e7c13525287c56550b8708100f93e60509f",
      "function": "transfer(address,uint256)",
      "arguments": [
        "0x070806B631A667a3Da88177d326adB27fde834Db",
        "9000000"
      ],
      "transaction": {
        "from": "0xbe2680dc1752109b4344dbeb1072fd8cd880e54b",
        "to": "0xa4253e7c13525287c56550b8708100f93e60509f",
        "value": "0x0",
        "input": "0xa9059cbb000000000000000000000000070806b631a667a3da88177d326adb27fde834db0000000000000000000000000000000000000000000000000000000000895440",
        "nonce": "0x2b3",
        "chainId": "0x14a34"
      },
      "additionalContracts": [],
      "isFixedGasLimit": false
    },
    {
      "hash": "0xf1d4cd416037792ab04e7da9db6e6c7d53ee3061619f8772ca57a28d88812750",
      "transactionType": "CALL",
      "contractName": null,
      "contractAddress": "0x070806b631a667a3da88177d326adb27fde834db",
      "function": null,
      "arguments": null,
      "transaction": {
        "from": "0xbe2680dc1752109b4344dbeb1072fd8cd880e54b",
        "to": "0x070806b631a667a3da88177d326adb27fde834db",
        "value": "0x9184e72a000",
        "input": "0x",
        "nonce": "0x2b4",
        "chainId": "0x14a34"
      },
      "additionalContracts": [],
      "isFixedGasLimit": false
    },
    {
      "hash": "0x57f19d29ec8abb35117781a0fcb94bbddefe0527f34e8ce99bc4163b32e55731",
      "transactionType": "CALL",
      "contractName": null,
      "contractAddress": "0xa4253e7c13525287c56550b8708100f93e60509f",
      "function": "transfer(address,uint256)",
      "arguments": [
        "0x546da7C993D811d067f4C102B4281fE3c2AF6A8d",
        "19000000"
      ],
      "transaction": {
        "from": "0xbe2680dc1752109b4344dbeb1072fd8cd880e54b",
        "to": "0xa4253e7c13525287c56550b8708100f93e60509f",
        "value": "0x0",
        "input": "0xa9059cbb000000000000000000000000546da7c993d811d067f4c102b4281fe3c2af6a8d000000000000000000000000000000000000000000000000000000000121eac0",
        "nonce": "0x2b5",
        "chainId": "0x14a34"
      },
      "additionalContracts": [],
      "isFixedGasLimit": false
    },
    {
      "hash": "0xd2948a955cdb5f1f7d5abc10674b91e4cbfe99f2cfb648c613fc34b70d5930f1",
      "transactionType": "CALL",
      "contractName": null,
      "contractAddress": "0x546da7c993d811d067f4c102b4281fe3c2af6a8d",
      "function": null,
      "arguments": null,
      "transaction": {
        "from": "0xbe2680dc1752109b4344dbeb1072fd8cd880e54b",
        "to": "0x546da7c993d811d067f4c102b4281fe3c2af6a8d",
        "value": "0x9184e72a000",
        "input": "0x",
        "nonce": "0x2b6",
        "chainId": "0x14a34"
      },
      "additionalContracts": [],
      "isFixedGasLimit": false
    },
    {
      "hash": "0x391dfa2f8df8f32c91606e761ed2c28690a89959daa2bbf8e0241af09b53b37f",
      "transactionType": "CALL",
      "contractName": null,
      "contractAddress": "0xa4253e7c13525287c56550b8708100f93e60509f",
      "function": "transfer(address,uint256)",
      "arguments": [
        "0xBef88420F20AB95e5F7ea851F6008dbbeE97dc26",
        "33000000"
      ],
      "transaction": {
        "from": "0xbe2680dc1752109b4344dbeb1072fd8cd880e54b",
        "to": "0xa4253e7c13525287c56550b8708100f93e60509f",
        "value": "0x0",
        "input": "0xa9059cbb000000000000000000000000bef88420f20ab95e5f7ea851f6008dbbee97dc260000000000000000000000000000000000000000000000000000000001f78a40",
        "nonce": "0x2b7",
        "chainId": "0x14a34"
      },
      "additionalContracts": [],
      "isFixedGasLimit": false
    },
    {
      "hash": "0x9088b3911da00f1b390d7bd5d243579052a3e07bf58988be1eacbb964c61c0c1",
      "transactionType": "CALL",
      "contractName": null,
      "contractAddress": "0xbef88420f20ab95e5f7ea851f6008dbbee97dc26",
      "function": null,
      "arguments": null,
      "transaction": {
        "from": "0xbe2680dc1752109b4344dbeb1072fd8cd880e54b",
        "to": "0xbef88420f20ab95e5f7ea851f6008dbbee97dc26",
        "value": "0x9184e72a000",
        "input": "0x",
        "nonce": "0x2b8",
        "chainId": "0x14a34"
      },
      "additionalContracts": [],
      "isFixedGasLimit": false
    },
    {
      "hash": "0x09fe9760ba78e3c20c9a36894ffb55bc6fb5c5427b658d2c08f1e34ba5703007",
      "transactionType": "CALL",
      "contractName": null,
      "contractAddress": "0xa4253e7c13525287c56550b8708100f93e60509f",
      "function": "transfer(address,uint256)",
      "arguments": [
        "0x19f19e10E6CB2ea89dAe8a40635f7A0E10AEaC3D",
        "51000000"
      ],
      "transaction": {
        "from": "0xbe2680dc1752109b4344dbeb1072fd8cd880e54b",
        "to": "0xa4253e7c13525287c56550b8708100f93e60509f",
        "value": "0x0",
        "input": "0xa9059cbb00000000000000000000000019f19e10e6cb2ea89dae8a40635f7a0e10aeac3d00000000000000000000000000000000000000000000000000000000030a32c0",
        "nonce": "0x2b9",
        "chainId": "0x14a34"
      },
      "additionalContracts": [],
      "isFixedGasLimit": false
    },
    {
      "hash": "0x13ea86b341e1a7dc010ef4e727039161a1eaab663049da5ca6429376b1031879",
      "transactionType": "CALL",
      "contractName": null,
      "contractAddress": "0x19f19e10e6cb2ea89dae8a40635f7a0e10aeac3d",
      "function": null,
      "arguments": null,
      "transaction": {
        "from": "0xbe2680dc1752109b4344dbeb1072fd8cd880e54b",
        "to": "0x19f19e10e6cb2ea89dae8a40635f7a0e10aeac3d",
        "value": "0x9184e72a000",
        "input": "0x",
        "nonce": "0x2ba",
        "chainId": "0x14a34"
      },
      "additionalContracts": [],
      "isFixedGasLimit": false
    },
    {
      "hash": "0x2a28db105e8815b46e59e3510bddcab720dcbeb09a8b5152aa57d14cb38c632c",
      "transactionType": "CALL",
      "contractName": null,
      "contractAddress": "0xa4253e7c13525287c56550b8708100f93e60509f",
      "function": "approve(address,uint256)",
      "arguments": [
        "0xE87781CF0523ad67d55ECFDe931C41C40933Ef8f",
        "2000000"
      ],
      "transaction": {
        "from": "0xa0084de38eee190c6f1d4d83b20b9adcc4998799",
        "to": "0xa4253e7c13525287c56550b8708100f93e60509f",
        "value": "0x0",
        "input": "0x095ea7b3000000000000000000000000e87781cf0523ad67d55ecfde931c41c40933ef8f00000000000000000000000000000000000000000000000000000000001e8480",
        "nonce": "0x0",
        "chainId": "0x14a34"
      },
      "additionalContracts": [],
      "isFixedGasLimit": false
    },
    {
      "hash": "0x11d80362edaaba3863bb39e9fc735b9c79ef85242a682aa83f1439ac4519dcb7",
      "transactionType": "CALL",
      "contractName": null,
      "contractAddress": "0xe87781cf0523ad67d55ecfde931c41c40933ef8f",
      "function": "createSubscription(uint256,uint256)",
      "arguments": [
        "1",
        "2"
      ],
      "transaction": {
        "from": "0xa0084de38eee190c6f1d4d83b20b9adcc4998799",
        "to": "0xe87781cf0523ad67d55ecfde931c41c40933ef8f",
        "value": "0x0",
        "input": "0xa71b6cd000000000000000000000000000000000000000000000000000000000000000010000000000000000000000000000000000000000000000000000000000000002",
        "nonce": "0x1",
        "chainId": "0x14a34"
      },
      "additionalContracts": [],
      "isFixedGasLimit": false
    },
    {
      "hash": "0x689f2975419c34da33af390c0e17e0cd861091a889b4ce5cbcc1e65a95fafeba",
      "transactionType": "CALL",
      "contractName": null,
      "contractAddress": "0xa4253e7c13525287c56550b8708100f93e60509f",
      "function": "approve(address,uint256)",
      "arguments": [
        "0xE87781CF0523ad67d55ECFDe931C41C40933Ef8f",
        "8000000"
      ],
      "transaction": {
        "from": "0x070806b631a667a3da88177d326adb27fde834db",
        "to": "0xa4253e7c13525287c56550b8708100f93e60509f",
        "value": "0x0",
        "input": "0x095ea7b3000000000000000000000000e87781cf0523ad67d55ecfde931c41c40933ef8f00000000000000000000000000000000000000000000000000000000007a1200",
        "nonce": "0x0",
        "chainId": "0x14a34"
      },
      "additionalContracts": [],
      "isFixedGasLimit": false
    },
    {
      "hash": "0x789a2c5ac23937d87aa718bfc97de5934de1f3200bcf4bcdcb073f873d99bf20",
      "transactionType": "CALL",
      "contractName": null,
      "contractAddress": "0xe87781cf0523ad67d55ecfde931c41c40933ef8f",
      "function": "createSubscription(uint256,uint256)",
      "arguments": [
        "2",
        "4"
      ],
      "transaction": {
        "from": "0x070806b631a667a3da88177d326adb27fde834db",
        "to": "0xe87781cf0523ad67d55ecfde931c41c40933ef8f",
        "value": "0x0",
        "input": "0xa71b6cd000000000000000000000000000000000000000000000000000000000000000020000000000000000000000000000000000000000000000000000000000000004",
        "nonce": "0x1",
        "chainId": "0x14a34"
      },
      "additionalContracts": [],
      "isFixedGasLimit": false
    },
    {
      "hash": "0x21d82215b555774391030de27f47856fc3e2beb5187f66c645e5882f191126b0",
      "transactionType": "CALL",
      "contractName": null,
      "contractAddress": "0xa4253e7c13525287c56550b8708100f93e60509f",
      "function": "approve(address,uint256)",
      "arguments": [
        "0xE87781CF0523ad67d55ECFDe931C41C40933Ef8f",
        "18000000"
      ],
      "transaction": {
        "from": "0x546da7c993d811d067f4c102b4281fe3c2af6a8d",
        "to": "0xa4253e7c13525287c56550b8708100f93e60509f",
        "value": "0x0",
        "input": "0x095ea7b3000000000000000000000000e87781cf0523ad67d55ecfde931c41c40933ef8f000000000000000000000000000000000000000000000000000000000112a880",
        "nonce": "0x0",
        "chainId": "0x14a34"
      },
      "additionalContracts": [],
      "isFixedGasLimit": false
    },
    {
      "hash": "0x7aa7b4511380a78ee58e1eff1817ff622b418b0949971f2106a398256561fbce",
      "transactionType": "CALL",
      "contractName": null,
      "contractAddress": "0xe87781cf0523ad67d55ecfde931c41c40933ef8f",
      "function": "createSubscription(uint256,uint256)",
      "arguments": [
        "3",
        "6"
      ],
      "transaction": {
        "from": "0x546da7c993d811d067f4c102b4281fe3c2af6a8d",
        "to": "0xe87781cf0523ad67d55ecfde931c41c40933ef8f",
        "value": "0x0",
        "input": "0xa71b6cd000000000000000000000000000000000000000000000000000000000000000030000000000000000000000000000000000000000000000000000000000000006",
        "nonce": "0x1",
        "chainId": "0x14a34"
      },
      "additionalContracts": [],
      "isFixedGasLimit": false
    },
    {
      "hash": "0xf724f2bc79c3211d8b75244b29d88dbaefd21dbdb8dd2a0e892d46b33687127a",
      "transactionType": "CALL",
      "contractName": null,
      "contractAddress": "0xa4253e7c13525287c56550b8708100f93e60509f",
      "function": "approve(address,uint256)",
      "arguments": [
        "0xE87781CF0523ad67d55ECFDe931C41C40933Ef8f",
        "32000000"
      ],
      "transaction": {
        "from": "0xbef88420f20ab95e5f7ea851f6008dbbee97dc26",
        "to": "0xa4253e7c13525287c56550b8708100f93e60509f",
        "value": "0x0",
        "input": "0x095ea7b3000000000000000000000000e87781cf0523ad67d55ecfde931c41c40933ef8f0000000000000000000000000000000000000000000000000000000001e84800",
        "nonce": "0x0",
        "chainId": "0x14a34"
      },
      "additionalContracts": [],
      "isFixedGasLimit": false
    },
    {
      "hash": "0x4ebe83f6628b2648ade048243312f2cf1d180073d15e5ac8644eec37532373e0",
      "transactionType": "CALL",
      "contractName": null,
      "contractAddress": "0xe87781cf0523ad67d55ecfde931c41c40933ef8f",
      "function": "createSubscription(uint256,uint256)",
      "arguments": [
        "4",
        "8"
      ],
      "transaction": {
        "from": "0xbef88420f20ab95e5f7ea851f6008dbbee97dc26",
        "to": "0xe87781cf0523ad67d55ecfde931c41c40933ef8f",
        "value": "0x0",
        "input": "0xa71b6cd000000000000000000000000000000000000000000000000000000000000000040000000000000000000000000000000000000000000000000000000000000008",
        "nonce": "0x1",
        "chainId": "0x14a34"
      },
      "additionalContracts": [],
      "isFixedGasLimit": false
    },
    {
      "hash": "0xf03c0659b8abc05046c6d528c214e6ff813d4bdea091cd86f0288feee6b8af28",
      "transactionType": "CALL",
      "contractName": null,
      "contractAddress": "0xa4253e7c13525287c56550b8708100f93e60509f",
      "function": "approve(address,uint256)",
      "arguments": [
        "0xE87781CF0523ad67d55ECFDe931C41C40933Ef8f",
        "50000000"
      ],
      "transaction": {
        "from": "0x19f19e10e6cb2ea89dae8a40635f7a0e10aeac3d",
        "to": "0xa4253e7c13525287c56550b8708100f93e60509f",
        "value": "0x0",
        "input": "0x095ea7b3000000000000000000000000e87781cf0523ad67d55ecfde931c41c40933ef8f0000000000000000000000000000000000000000000000000000000002faf080",
        "nonce": "0x0",
        "chainId": "0x14a34"
      },
      "additionalContracts": [],
      "isFixedGasLimit": false
    },
    {
      "hash": "0xc0448a7f8b36290c329bdc77372a62fde048ed79fc4ab675b0322cd9af4dd36c",
      "transactionType": "CALL",
      "contractName": null,
      "contractAddress": "0xe87781cf0523ad67d55ecfde931c41c40933ef8f",
      "function": "createSubscription(uint256,uint256)",
      "arguments": [
        "5",
        "10"
      ],
      "transaction": {
        "from": "0x19f19e10e6cb2ea89dae8a40635f7a0e10aeac3d",
        "to": "0xe87781cf0523ad67d55ecfde931c41c40933ef8f",
        "value": "0x0",
        "input": "0xa71b6cd00000000000000000000000000000000000000000000000000000000000000005000000000000000000000000000000000000000000000000000000000000000a",
        "nonce": "0x1",
        "chainId": "0x14a34"
      },
      "additionalContracts": [],
      "isFixedGasLimit": false
    },
    {
      "hash": null,
      "transactionType": "CALL",
      "contractName": null,
      "contractAddress": "0xe87781cf0523ad67d55ecfde931c41c40933ef8f",
      "function": "processDailyBatch(uint256)",
      "arguments": [
        "0"
      ],
      "transaction": {
        "from": "0xbe2680dc1752109b4344dbeb1072fd8cd880e54b",
        "to": "0xe87781cf0523ad67d55ecfde931c41c40933ef8f",
        "value": "0x0",
        "input": "0x4c47c3ed0000000000000000000000000000000000000000000000000000000000000000",
        "nonce": "0x2bb",
        "chainId": "0x14a34"
      },
      "additionalContracts": [],
      "isFixedGasLimit": false
    }
  ],
  "receipts": [
    {
      "status": "0x1",
      "cumulativeGasUsed": "0x269106",
      "logs": [
        {
          "address": "0xa4253e7c13525287c56550b8708100f93e60509f",
          "topics": [
            "0xddf252ad1be2c89b69c2b068fc378daa952ba7f163c4a11628f55a4df523b3ef",
            "0x000000000000000000000000be2680dc1752109b4344dbeb1072fd8cd880e54b",
            "0x000000000000000000000000a0084de38eee190c6f1d4d83b20b9adcc4998799"
          ],
          "data": "0x00000000000000000000000000000000000000000000000000000000002dc6c0",
          "blockHash": "0xf8d7543ccdb87e349d00843e7df5c0793b9983b7325faae805fafc2f29ca5985",
          "blockNumber": "0x16d7839",
          "transactionHash": "0x45ffb5d874611ead3081d6d7aca0aa457845522ae7060aa0097ce69da0a78ce4",
          "transactionIndex": "0x9",
          "logIndex": "0x35",
          "removed": false
        }
      ],
      "logsBloom": "0x00000000000000800000080000000000000000000000200000000000000000000000000000000000000000000000200000000000000000000020000000000000000000000000000040000008000000000000000000000000000000000000000000000000000000000000000000000000000000000000000000000010000000000000000000000000000000000000000000000000000000000000000000000000000000000000000000000000000000000000000000000000000000000000000000000042000000000000000000000000000000000000000400000000000000000000000000000000000000000000000000000000000000000000000000008000",
      "type": "0x2",
      "transactionHash": "0x45ffb5d874611ead3081d6d7aca0aa457845522ae7060aa0097ce69da0a78ce4",
      "transactionIndex": "0x9",
      "blockHash": "0xf8d7543ccdb87e349d00843e7df5c0793b9983b7325faae805fafc2f29ca5985",
      "blockNumber": "0x16d7839",
      "gasUsed": "0xc980",
      "effectiveGasPrice": "0xf0992",
      "from": "0xbe2680dc1752109b4344dbeb1072fd8cd880e54b",
      "to": "0xa4253e7c13525287c56550b8708100f93e60509f",
      "contractAddress": null,
      "l1BaseFeeScalar": "0x44d",
      "l1BlobBaseFee": "0x1",
      "l1BlobBaseFeeScalar": "0xa118b",
      "l1Fee": "0x1675bc832",
      "l1GasPrice": "0xcbfedad4",
      "l1GasUsed": "0x640"
    },
    {
      "status": "0x1",
      "cumulativeGasUsed": "0x26aab",
      "logs": [],
      "logsBloom": "0x00000000000000000000000000000000000000000000000000000000000000000000000000000000000000000000000000000000000000000000000000000000000000000000000000000000000000000000000000000000000000000000000000000000000000000000000000000000000000000000000000000000000000000000000000000000000000000000000000000000000000000000000000000000000000000000000000000000000000000000000000000000000000000000000000000000000000000000000000000000000000000000000000000000000000000000000000000000000000000000000000000000000000000000000000000000",
      "type": "0x2",
      "transactionHash": "0x8f88cf7dd45bfad36a2fe80cc8a66ff82a4cf77ad53d7cad23ecef40866eeea8",
      "transactionIndex": "0x3",
      "blockHash": "0x55b1939ae260b8005a81d0886397b557093a20590355c4a1ba84217e374e9e64",
      "blockNumber": "0x16d783b",
      "gasUsed": "0x5208",
      "effectiveGasPrice": "0xf0991",
      "from": "0xbe2680dc1752109b4344dbeb1072fd8cd880e54b",
      "to": "0xa0084de38eee190c6f1d4d83b20b9adcc4998799",
      "contractAddress": null,
      "l1BaseFeeScalar": "0x44d",
      "l1BlobBaseFee": "0x1",
      "l1BlobBaseFeeScalar": "0xa118b",
      "l1Fee": "0x1675bc832",
      "l1GasPrice": "0xcbfedad4",
      "l1GasUsed": "0x640"
    },
    {
      "status": "0x1",
      "cumulativeGasUsed": "0x38af03",
      "logs": [
        {
          "address": "0xa4253e7c13525287c56550b8708100f93e60509f",
          "topics": [
            "0xddf252ad1be2c89b69c2b068fc378daa952ba7f163c4a11628f55a4df523b3ef",
            "0x000000000000000000000000be2680dc1752109b4344dbeb1072fd8cd880e54b",
            "0x000000000000000000000000070806b631a667a3da88177d326adb27fde834db"
          ],
          "data": "0x0000000000000000000000000000000000000000000000000000000000895440",
          "blockHash": "0xefa5bdb03febf5493e628a743661c69641850a3c8d6aecdfb5ef6aa11a1892e8",
          "blockNumber": "0x16d783d",
          "transactionHash": "0x365ccd1f0df1663887ed73017e613c275e80ddea2b92543ff7a26b664c80baed",
          "transactionIndex": "0x14",
          "logIndex": "0x4b",
          "removed": false
        }
      ],
      "logsBloom": "0x00000000000000800000080000040000000000000000200000000000000000000000000000000000000000000000000000000000000000000000000000000000000000000000000040000008000000000000000000000000000000000000000000000000000000000000000000000000000000000000000000000010000000000000000000000000000000000000000000000000000000000000000000000040000000000000000000000000000000000000000000000000000000000000000000000002000000000000000000000000000000000000000400000000000000000000000000000000000000000004000000000000000000000000000000008000",
      "type": "0x2",
      "transactionHash": "0x365ccd1f0df1663887ed73017e613c275e80ddea2b92543ff7a26b664c80baed",
      "transactionIndex": "0x14",
      "blockHash": "0xefa5bdb03febf5493e628a743661c69641850a3c8d6aecdfb5ef6aa11a1892e8",
      "blockNumber": "0x16d783d",
      "gasUsed": "0xc980",
      "effectiveGasPrice": "0xf0992",
      "from": "0xbe2680dc1752109b4344dbeb1072fd8cd880e54b",
      "to": "0xa4253e7c13525287c56550b8708100f93e60509f",
      "contractAddress": null,
      "l1BaseFeeScalar": "0x44d",
      "l1BlobBaseFee": "0x1",
      "l1BlobBaseFeeScalar": "0xa118b",
      "l1Fee": "0x1675bc832",
      "l1GasPrice": "0xcbfedad4",
      "l1GasUsed": "0x640"
    },
    {
      "status": "0x1",
      "cumulativeGasUsed": "0x6fec3b",
      "logs": [],
      "logsBloom": "0x00000000000000000000000000000000000000000000000000000000000000000000000000000000000000000000000000000000000000000000000000000000000000000000000000000000000000000000000000000000000000000000000000000000000000000000000000000000000000000000000000000000000000000000000000000000000000000000000000000000000000000000000000000000000000000000000000000000000000000000000000000000000000000000000000000000000000000000000000000000000000000000000000000000000000000000000000000000000000000000000000000000000000000000000000000000",
      "type": "0x2",
      "transactionHash": "0xf1d4cd416037792ab04e7da9db6e6c7d53ee3061619f8772ca57a28d88812750",
      "transactionIndex": "0x28",
      "blockHash": "0x21bd3757fa31b350bdc2848f64b38b8a21f17849c532dbe6ec08f0424adefc75",
      "blockNumber": "0x16d783f",
      "gasUsed": "0x5208",
      "effectiveGasPrice": "0xf0992",
      "from": "0xbe2680dc1752109b4344dbeb1072fd8cd880e54b",
      "to": "0x070806b631a667a3da88177d326adb27fde834db",
      "contractAddress": null,
      "l1BaseFeeScalar": "0x44d",
      "l1BlobBaseFee": "0x1",
      "l1BlobBaseFeeScalar": "0xa118b",
      "l1Fee": "0x17e9a3d02",
      "l1GasPrice": "0xd930b99f",
      "l1GasUsed": "0x640"
    },
    {
      "status": "0x1",
      "cumulativeGasUsed": "0x15bba5",
      "logs": [
        {
          "address": "0xa4253e7c13525287c56550b8708100f93e60509f",
          "topics": [
            "0xddf252ad1be2c89b69c2b068fc378daa952ba7f163c4a11628f55a4df523b3ef",
            "0x000000000000000000000000be2680dc1752109b4344dbeb1072fd8cd880e54b",
            "0x000000000000000000000000546da7c993d811d067f4c102b4281fe3c2af6a8d"
          ],
          "data": "0x000000000000000000000000000000000000000000000000000000000121eac0",
          "blockHash": "0x1b22a4fabb810bb4fc68c41b975d727c6d4ceabb5557f26f65f66c9ba1c2de0c",
          "blockNumber": "0x16d7841",
          "transactionHash": "0x57f19d29ec8abb35117781a0fcb94bbddefe0527f34e8ce99bc4163b32e55731",
          "transactionIndex": "0x7",
          "logIndex": "0xe",
          "removed": false
        }
      ],
      "logsBloom": "0x00000000000000800000080000000000000020000400200000000000000000000000000000000000000000000000000000000000000000000000000000000000000000000000000040000008000000000000000000000000000000000000000000000000000000000000000000000000000000000000000000000010000000000000200000000000000000000000000000000000000000000000000000000000000000000000000000000000000000000000000000000000000000000000000000000002000000000000000000000000000000000000000400000000000000000000000000000000000000000000000000000000000000000000000000008000",
      "type": "0x2",
      "transactionHash": "0x57f19d29ec8abb35117781a0fcb94bbddefe0527f34e8ce99bc4163b32e55731",
      "transactionIndex": "0x7",
      "blockHash": "0x1b22a4fabb810bb4fc68c41b975d727c6d4ceabb5557f26f65f66c9ba1c2de0c",
      "blockNumber": "0x16d7841",
      "gasUsed": "0xc98c",
      "effectiveGasPrice": "0xf0992",
      "from": "0xbe2680dc1752109b4344dbeb1072fd8cd880e54b",
      "to": "0xa4253e7c13525287c56550b8708100f93e60509f",
      "contractAddress": null,
      "l1BaseFeeScalar": "0x44d",
      "l1BlobBaseFee": "0x1",
      "l1BlobBaseFeeScalar": "0xa118b",
      "l1Fee": "0x17e9a3d02",
      "l1GasPrice": "0xd930b99f",
      "l1GasUsed": "0x640"
    },
    {
      "status": "0x1",
      "cumulativeGasUsed": "0xfd3b",
      "logs": [],
      "logsBloom": "0x00000000000000000000000000000000000000000000000000000000000000000000000000000000000000000000000000000000000000000000000000000000000000000000000000000000000000000000000000000000000000000000000000000000000000000000000000000000000000000000000000000000000000000000000000000000000000000000000000000000000000000000000000000000000000000000000000000000000000000000000000000000000000000000000000000000000000000000000000000000000000000000000000000000000000000000000000000000000000000000000000000000000000000000000000000000",
      "type": "0x2",
      "transactionHash": "0xd2948a955cdb5f1f7d5abc10674b91e4cbfe99f2cfb648c613fc34b70d5930f1",
      "transactionIndex": "0x1",
      "blockHash": "0x9f8d9f62e860e056b7abaa4b40919927be334f5499cf937c9473061b6fe8f869",
      "blockNumber": "0x16d7843",
      "gasUsed": "0x5208",
      "effectiveGasPrice": "0xf0992",
      "from": "0xbe2680dc1752109b4344dbeb1072fd8cd880e54b",
      "to": "0x546da7c993d811d067f4c102b4281fe3c2af6a8d",
      "contractAddress": null,
      "l1BaseFeeScalar": "0x44d",
      "l1BlobBaseFee": "0x1",
      "l1BlobBaseFeeScalar": "0xa118b",
      "l1Fee": "0x17e9a3d02",
      "l1GasPrice": "0xd930b99f",
      "l1GasUsed": "0x640"
    },
    {
      "status": "0x1",
      "cumulativeGasUsed": "0x7f25a9",
      "logs": [
        {
          "address": "0xa4253e7c13525287c56550b8708100f93e60509f",
          "topics": [
            "0xddf252ad1be2c89b69c2b068fc378daa952ba7f163c4a11628f55a4df523b3ef",
            "0x000000000000000000000000be2680dc1752109b4344dbeb1072fd8cd880e54b",
            "0x000000000000000000000000bef88420f20ab95e5f7ea851f6008dbbee97dc26"
          ],
          "data": "0x0000000000000000000000000000000000000000000000000000000001f78a40",
          "blockHash": "0xe77055c13181bb4d3eb9e457c7c3674e3d9249fb4cc3434839a207000c98be17",
          "blockNumber": "0x16d7844",
          "transactionHash": "0x391dfa2f8df8f32c91606e761ed2c28690a89959daa2bbf8e0241af09b53b37f",
          "transactionIndex": "0x31",
          "logIndex": "0xae",
          "removed": false
        }
      ],
      "logsBloom": "0x00020000000000800000080000000000000000000000200000000000000000000000000000000000000000000000000000000000000080000000000000000000000000000000000040000008000000000000000000000000000000000000000000000000000000000000000000000000000000000000000000000010000000000000000000000000000000000000000000000000000000000100000000000000000000000000000000000000000000000000000000000000000000000000000000000002000000000000000000000000000000000000000400000000000000000000000000000000000000000000000000000000000000000000000000008000",
      "type": "0x2",
      "transactionHash": "0x391dfa2f8df8f32c91606e761ed2c28690a89959daa2bbf8e0241af09b53b37f",
      "transactionIndex": "0x31",
      "blockHash": "0xe77055c13181bb4d3eb9e457c7c3674e3d9249fb4cc3434839a207000c98be17",
      "blockNumber": "0x16d7844",
      "gasUsed": "0xc980",
      "effectiveGasPrice": "0xf0992",
      "from": "0xbe2680dc1752109b4344dbeb1072fd8cd880e54b",
      "to": "0xa4253e7c13525287c56550b8708100f93e60509f",
      "contractAddress": null,
      "l1BaseFeeScalar": "0x44d",
      "l1BlobBaseFee": "0x1",
      "l1BlobBaseFeeScalar": "0xa118b",
      "l1Fee": "0x196b51ccc",
      "l1GasPrice": "0xe6dfb814",
      "l1GasUsed": "0x640"
    },
    {
      "status": "0x1",
      "cumulativeGasUsed": "0x6f624f",
      "logs": [],
      "logsBloom": "0x00000000000000000000000000000000000000000000000000000000000000000000000000000000000000000000000000000000000000000000000000000000000000000000000000000000000000000000000000000000000000000000000000000000000000000000000000000000000000000000000000000000000000000000000000000000000000000000000000000000000000000000000000000000000000000000000000000000000000000000000000000000000000000000000000000000000000000000000000000000000000000000000000000000000000000000000000000000000000000000000000000000000000000000000000000000",
      "type": "0x2",
      "transactionHash": "0x9088b3911da00f1b390d7bd5d243579052a3e07bf58988be1eacbb964c61c0c1",
      "transactionIndex": "0x1b",
      "blockHash": "0x7ec3b79c6ff887f0cca47fec660a4473bdf52a7a3cdb376ca500eed2707b22ac",
      "blockNumber": "0x16d7845",
      "gasUsed": "0x5208",
      "effectiveGasPrice": "0xf0992",
      "from": "0xbe2680dc1752109b4344dbeb1072fd8cd880e54b",
      "to": "0xbef88420f20ab95e5f7ea851f6008dbbee97dc26",
      "contractAddress": null,
      "l1BaseFeeScalar": "0x44d",
      "l1BlobBaseFee": "0x1",
      "l1BlobBaseFeeScalar": "0xa118b",
      "l1Fee": "0x196b51ccc",
      "l1GasPrice": "0xe6dfb814",
      "l1GasUsed": "0x640"
    },
    {
      "status": "0x1",
      "cumulativeGasUsed": "0x3e076f",
      "logs": [
        {
          "address": "0xa4253e7c13525287c56550b8708100f93e60509f",
          "topics": [
            "0xddf252ad1be2c89b69c2b068fc378daa952ba7f163c4a11628f55a4df523b3ef",
            "0x000000000000000000000000be2680dc1752109b4344dbeb1072fd8cd880e54b",
            "0x00000000000000000000000019f19e10e6cb2ea89dae8a40635f7a0e10aeac3d"
          ],
          "data": "0x00000000000000000000000000000000000000000000000000000000030a32c0",
          "blockHash": "0x258ba1c0b5dad7e952f901aa338081934305e8bb9d619a196ceeef0170e28691",
          "blockNumber": "0x16d7847",
          "transactionHash": "0x09fe9760ba78e3c20c9a36894ffb55bc6fb5c5427b658d2c08f1e34ba5703007",
          "transactionIndex": "0x10",
          "logIndex": "0x68",
          "removed": false
        }
      ],
      "logsBloom": "0x00000000000000800000080000000000000000000000200000000000000000000000000000000000000000000000000000000000000000000000000000000000000000000000000040000088000000000000000000000000000000000000000000000000000000000000000000000000000000000000000000000010000000000000000000000000000000000000000000000000000000000000000000000000000000000000000000080000000000000000000000000000000000000000200000000002000000000000000000000000000000000000000400000000000000000000000000000000000000000000000000000000000000000000000000008000",
      "type": "0x2",
      "transactionHash": "0x09fe9760ba78e3c20c9a36894ffb55bc6fb5c5427b658d2c08f1e34ba5703007",
      "transactionIndex": "0x10",
      "blockHash": "0x258ba1c0b5dad7e952f901aa338081934305e8bb9d619a196ceeef0170e28691",
      "blockNumber": "0x16d7847",
      "gasUsed": "0xc98c",
      "effectiveGasPrice": "0xf0992",
      "from": "0xbe2680dc1752109b4344dbeb1072fd8cd880e54b",
      "to": "0xa4253e7c13525287c56550b8708100f93e60509f",
      "contractAddress": null,
      "l1BaseFeeScalar": "0x44d",
      "l1BlobBaseFee": "0x1",
      "l1BlobBaseFeeScalar": "0xa118b",
      "l1Fee": "0x196b51ccc",
      "l1GasPrice": "0xe6dfb814",
      "l1GasUsed": "0x640"
    },
    {
      "status": "0x1",
      "cumulativeGasUsed": "0x66bcce",
      "logs": [],
      "logsBloom": "0x00000000000000000000000000000000000000000000000000000000000000000000000000000000000000000000000000000000000000000000000000000000000000000000000000000000000000000000000000000000000000000000000000000000000000000000000000000000000000000000000000000000000000000000000000000000000000000000000000000000000000000000000000000000000000000000000000000000000000000000000000000000000000000000000000000000000000000000000000000000000000000000000000000000000000000000000000000000000000000000000000000000000000000000000000000000",
      "type": "0x2",
      "transactionHash": "0x13ea86b341e1a7dc010ef4e727039161a1eaab663049da5ca6429376b1031879",
      "transactionIndex": "0x1a",
      "blockHash": "0x20f44aaabee408f3fe893b697ecd169d2acebdc4a7b1121d73255d530b472968",
      "blockNumber": "0x16d7849",
      "gasUsed": "0x5208",
      "effectiveGasPrice": "0xf0992",
      "from": "0xbe2680dc1752109b4344dbeb1072fd8cd880e54b",
      "to": "0x19f19e10e6cb2ea89dae8a40635f7a0e10aeac3d",
      "contractAddress": null,
      "l1BaseFeeScalar": "0x44d",
      "l1BlobBaseFee": "0x1",
      "l1BlobBaseFeeScalar": "0xa118b",
      "l1Fee": "0x196b51ccc",
      "l1GasPrice": "0xe6dfb814",
      "l1GasUsed": "0x640"
    },
    {
      "status": "0x1",
      "cumulativeGasUsed": "0x2fc330",
      "logs": [
        {
          "address": "0xa4253e7c13525287c56550b8708100f93e60509f",
          "topics": [
            "0x8c5be1e5ebec7d5bd14f71427d1e84f3dd0314c0f7b2291e5b200ac8c7c3b925",
            "0x000000000000000000000000a0084de38eee190c6f1d4d83b20b9adcc4998799",
            "0x000000000000000000000000e87781cf0523ad67d55ecfde931c41c40933ef8f"
          ],
          "data": "0x00000000000000000000000000000000000000000000000000000000001e8480",
          "blockHash": "0x9b2078cffd3aabbebdba696edb35161f590370c5b97adbe4b22f6fb168751e85",
          "blockNumber": "0x16d784b",
          "transactionHash": "0x2a28db105e8815b46e59e3510bddcab720dcbeb09a8b5152aa57d14cb38c632c",
          "transactionIndex": "0xd",
          "logIndex": "0x2e",
          "removed": false
        }
      ],
      "logsBloom": "0x00000000000000800000000000000000000000002000200000000000000000000000000000000000000000000000200000000000000000000020000000208000000000000000000040000000000000000000000000000000000000000000000000000000000000000000000000000000000000000000000000000000000000000000000000000000000000000000000000000000000000000000000000000000020000000000000000000000000000000000000000000000000000000020000000000040000000000000000000000000000000000000000000000000000000000010000000000000000000000000000000000000000000000000000000000000",
      "type": "0x2",
      "transactionHash": "0x2a28db105e8815b46e59e3510bddcab720dcbeb09a8b5152aa57d14cb38c632c",
      "transactionIndex": "0xd",
      "blockHash": "0x9b2078cffd3aabbebdba696edb35161f590370c5b97adbe4b22f6fb168751e85",
      "blockNumber": "0x16d784b",
      "gasUsed": "0xb4ff",
      "effectiveGasPrice": "0xf0992",
      "from": "0xa0084de38eee190c6f1d4d83b20b9adcc4998799",
      "to": "0xa4253e7c13525287c56550b8708100f93e60509f",
      "contractAddress": null,
      "l1BaseFeeScalar": "0x44d",
      "l1BlobBaseFee": "0x1",
      "l1BlobBaseFeeScalar": "0xa118b",
      "l1Fee": "0x17ad9877d",
      "l1GasPrice": "0xd70f5d0b",
      "l1GasUsed": "0x640"
    },
    {
      "status": "0x1",
      "cumulativeGasUsed": "0xa002f9",
      "logs": [
        {
          "address": "0xa4253e7c13525287c56550b8708100f93e60509f",
          "topics": [
            "0xddf252ad1be2c89b69c2b068fc378daa952ba7f163c4a11628f55a4df523b3ef",
            "0x000000000000000000000000a0084de38eee190c6f1d4d83b20b9adcc4998799",
            "0x000000000000000000000000e87781cf0523ad67d55ecfde931c41c40933ef8f"
          ],
          "data": "0x00000000000000000000000000000000000000000000000000000000001e8480",
          "blockHash": "0x4372d7f3c704125d4af228dc986799b0c6a2377a1b3de3afe1dc92fe77a5f7ca",
          "blockNumber": "0x16d784c",
          "transactionHash": "0x11d80362edaaba3863bb39e9fc735b9c79ef85242a682aa83f1439ac4519dcb7",
          "transactionIndex": "0x33",
          "logIndex": "0xe3",
          "removed": false
        },
        {
          "address": "0xe87781cf0523ad67d55ecfde931c41c40933ef8f",
          "topics": [
            "0x2bdfae17037529a2e65ec70b13ee84e9aa324112f93c1598ff55cafc6b84df08",
            "0x000000000000000000000000a0084de38eee190c6f1d4d83b20b9adcc4998799"
          ],
          "data": "0x0000000000000000000000000000000000000000000000000000000000000001000000000000000000000000000000000000000000000000000000000000000200000000000000000000000000000000000000000000000000000000001e8480",
          "blockHash": "0x4372d7f3c704125d4af228dc986799b0c6a2377a1b3de3afe1dc92fe77a5f7ca",
          "blockNumber": "0x16d784c",
          "transactionHash": "0x11d80362edaaba3863bb39e9fc735b9c79ef85242a682aa83f1439ac4519dcb7",
          "transactionIndex": "0x33",
          "logIndex": "0xe4",
          "removed": false
        }
      ],
      "logsBloom": "0x00000100000000800000000000000000000000002000200000800000000000000000000000000000000000000000200000001000000000000020000000008000000000000000000040000008000000000000000000000000000000000000000000000000000000000000000000000000000000000000000000000012000000000000000000000000000000000000000000000000000000000000000040000000000000000000000000000000000000000000000000000000000000000020000000000042000000000000000000000000000000000000010000000000000000000000000000000000000000000000000000000000000000000000000000000000",
      "type": "0x2",
      "transactionHash": "0x11d80362edaaba3863bb39e9fc735b9c79ef85242a682aa83f1439ac4519dcb7",
      "transactionIndex": "0x33",
      "blockHash": "0x4372d7f3c704125d4af228dc986799b0c6a2377a1b3de3afe1dc92fe77a5f7ca",
      "blockNumber": "0x16d784c",
      "gasUsed": "0x32d6c",
      "effectiveGasPrice": "0xf0992",
      "from": "0xa0084de38eee190c6f1d4d83b20b9adcc4998799",
      "to": "0xe87781cf0523ad67d55ecfde931c41c40933ef8f",
      "contractAddress": null,
      "l1BaseFeeScalar": "0x44d",
      "l1BlobBaseFee": "0x1",
      "l1BlobBaseFeeScalar": "0xa118b",
      "l1Fee": "0x17ad9877d",
      "l1GasPrice": "0xd70f5d0b",
      "l1GasUsed": "0x640"
    },
    {
      "status": "0x1",
      "cumulativeGasUsed": "0x51eec",
      "logs": [
        {
          "address": "0xa4253e7c13525287c56550b8708100f93e60509f",
          "topics": [
            "0x8c5be1e5ebec7d5bd14f71427d1e84f3dd0314c0f7b2291e5b200ac8c7c3b925",
            "0x000000000000000000000000070806b631a667a3da88177d326adb27fde834db",
            "0x000000000000000000000000e87781cf0523ad67d55ecfde931c41c40933ef8f"
          ],
          "data": "0x00000000000000000000000000000000000000000000000000000000007a1200",
          "blockHash": "0x5117be7ee11fa763f4a818f3f7c5c8b92cd9f7ee8db9040004d3fe4bb0af7be1",
          "blockNumber": "0x16d784e",
          "transactionHash": "0x689f2975419c34da33af390c0e17e0cd861091a889b4ce5cbcc1e65a95fafeba",
          "transactionIndex": "0x4",
          "logIndex": "0x4",
          "removed": false
        }
      ],
      "logsBloom": "0x00000000000000800000000000040000000000002000200000000000000000000000000000000000000000000000000000000000000000000000000000208000000000000000000040000000000000000000000000000000000000000000000000000000000000000000000000000000000000000000000000000000000000000000000000000000000000000000000000000000000000000000000000000040020000000000000000000000000000000000000000000000000000000020000000000000000000000000000000000000000000000000000000000000000000000010000000000000000000000004000000000000000000000000000000000000",
      "type": "0x2",
      "transactionHash": "0x689f2975419c34da33af390c0e17e0cd861091a889b4ce5cbcc1e65a95fafeba",
      "transactionIndex": "0x4",
      "blockHash": "0x5117be7ee11fa763f4a818f3f7c5c8b92cd9f7ee8db9040004d3fe4bb0af7be1",
      "blockNumber": "0x16d784e",
      "gasUsed": "0xb4f3",
      "effectiveGasPrice": "0xf0992",
      "from": "0x070806b631a667a3da88177d326adb27fde834db",
      "to": "0xa4253e7c13525287c56550b8708100f93e60509f",
      "contractAddress": null,
      "l1BaseFeeScalar": "0x44d",
      "l1BlobBaseFee": "0x1",
      "l1BlobBaseFeeScalar": "0xa118b",
      "l1Fee": "0x17ad9877d",
      "l1GasPrice": "0xd70f5d0b",
      "l1GasUsed": "0x640"
    },
    {
      "status": "0x1",
      "cumulativeGasUsed": "0x64cf60",
      "logs": [
        {
          "address": "0xa4253e7c13525287c56550b8708100f93e60509f",
          "topics": [
            "0xddf252ad1be2c89b69c2b068fc378daa952ba7f163c4a11628f55a4df523b3ef",
            "0x000000000000000000000000070806b631a667a3da88177d326adb27fde834db",
            "0x000000000000000000000000e87781cf0523ad67d55ecfde931c41c40933ef8f"
          ],
          "data": "0x00000000000000000000000000000000000000000000000000000000007a1200",
          "blockHash": "0x45db5f78e42ca576b6cfa7a3101f742aea15d68d19e76fc7a5e8f15b97fc16ff",
          "blockNumber": "0x16d784f",
          "transactionHash": "0x789a2c5ac23937d87aa718bfc97de5934de1f3200bcf4bcdcb073f873d99bf20",
          "transactionIndex": "0x20",
          "logIndex": "0x8d",
          "removed": false
        },
        {
          "address": "0xe87781cf0523ad67d55ecfde931c41c40933ef8f",
          "topics": [
            "0x2bdfae17037529a2e65ec70b13ee84e9aa324112f93c1598ff55cafc6b84df08",
            "0x000000000000000000000000070806b631a667a3da88177d326adb27fde834db"
          ],
          "data": "0x0000000000000000000000000000000000000000000000000000000000000002000000000000000000000000000000000000000000000000000000000000000400000000000000000000000000000000000000000000000000000000007a1200",
          "blockHash": "0x45db5f78e42ca576b6cfa7a3101f742aea15d68d19e76fc7a5e8f15b97fc16ff",
          "blockNumber": "0x16d784f",
          "transactionHash": "0x789a2c5ac23937d87aa718bfc97de5934de1f3200bcf4bcdcb073f873d99bf20",
          "transactionIndex": "0x20",
          "logIndex": "0x8e",
          "removed": false
        }
      ],
      "logsBloom": "0x00000100000000800000000000040000000000002000200000800000000000000000000000000000000000000000000000001000000000000000000000008000000000000000000040000008000000000000000000000000000000000000000000000000000000000000000000000000000000000000000000000012000000000000000000000000000000000000000000000000000000000000000040000040000000000000000000000000000000000000000000000000000000000020000000000002000000000000000000000000000000000000010000000000000000000000000000000000000000000004000000000000000000000000000000000000",
      "type": "0x2",
      "transactionHash": "0x789a2c5ac23937d87aa718bfc97de5934de1f3200bcf4bcdcb073f873d99bf20",
      "transactionIndex": "0x20",
      "blockHash": "0x45db5f78e42ca576b6cfa7a3101f742aea15d68d19e76fc7a5e8f15b97fc16ff",
      "blockNumber": "0x16d784f",
      "gasUsed": "0x2b18a",
      "effectiveGasPrice": "0xf0992",
      "from": "0x070806b631a667a3da88177d326adb27fde834db",
      "to": "0xe87781cf0523ad67d55ecfde931c41c40933ef8f",
      "contractAddress": null,
      "l1BaseFeeScalar": "0x44d",
      "l1BlobBaseFee": "0x1",
      "l1BlobBaseFeeScalar": "0xa118b",
      "l1Fee": "0x17ad9877d",
      "l1GasPrice": "0xd70f5d0b",
      "l1GasUsed": "0x640"
    },
    {
      "status": "0x1",
      "cumulativeGasUsed": "0xc8ba1a",
      "logs": [
        {
          "address": "0xa4253e7c13525287c56550b8708100f93e60509f",
          "topics": [
            "0x8c5be1e5ebec7d5bd14f71427d1e84f3dd0314c0f7b2291e5b200ac8c7c3b925",
            "0x000000000000000000000000546da7c993d811d067f4c102b4281fe3c2af6a8d",
            "0x000000000000000000000000e87781cf0523ad67d55ecfde931c41c40933ef8f"
          ],
          "data": "0x000000000000000000000000000000000000000000000000000000000112a880",
          "blockHash": "0x6a36a2cf5c665a767fd06daa7678d335e0d077320567a1f37cc4eb4cc6c5a739",
          "blockNumber": "0x16d7850",
          "transactionHash": "0x21d82215b555774391030de27f47856fc3e2beb5187f66c645e5882f191126b0",
          "transactionIndex": "0x25",
          "logIndex": "0x130",
          "removed": false
        }
      ],
      "logsBloom": "0x00000000000000800000000000000000000020002400200000000000000000000000000000000000000000000000000000000000000000000000000000208000000000000000000040000000000000000000000000000000000000000000000000000000000000000000000000000000000000000000000000000000000000000000200000000000000000000000000000000000000000000000000000000000020000000000000000000000000000000000000000000000000000000020000000000000000000000000000000000000000000000000000000000000000000000010000000000000000000000000000000000000000000000000000000000000",
      "type": "0x2",
      "transactionHash": "0x21d82215b555774391030de27f47856fc3e2beb5187f66c645e5882f191126b0",
      "transactionIndex": "0x25",
      "blockHash": "0x6a36a2cf5c665a767fd06daa7678d335e0d077320567a1f37cc4eb4cc6c5a739",
      "blockNumber": "0x16d7850",
      "gasUsed": "0xb50b",
      "effectiveGasPrice": "0xf0991",
      "from": "0x546da7c993d811d067f4c102b4281fe3c2af6a8d",
      "to": "0xa4253e7c13525287c56550b8708100f93e60509f",
      "contractAddress": null,
      "l1BaseFeeScalar": "0x44d",
      "l1BlobBaseFee": "0x1",
      "l1BlobBaseFeeScalar": "0xa118b",
      "l1Fee": "0x181681b8d",
      "l1GasPrice": "0xdac83c23",
      "l1GasUsed": "0x640"
    },
    {
      "status": "0x1",
      "cumulativeGasUsed": "0x7e4c04",
      "logs": [
        {
          "address": "0xa4253e7c13525287c56550b8708100f93e60509f",
          "topics": [
            "0xddf252ad1be2c89b69c2b068fc378daa952ba7f163c4a11628f55a4df523b3ef",
            "0x000000000000000000000000546da7c993d811d067f4c102b4281fe3c2af6a8d",
            "0x000000000000000000000000e87781cf0523ad67d55ecfde931c41c40933ef8f"
          ],
          "data": "0x000000000000000000000000000000000000000000000000000000000112a880",
          "blockHash": "0x1dd780c4d717dc39a0d5eae020979a071c1dd9b06ed1cacf06a74de3381b4b0b",
          "blockNumber": "0x16d7852",
          "transactionHash": "0x7aa7b4511380a78ee58e1eff1817ff622b418b0949971f2106a398256561fbce",
          "transactionIndex": "0x29",
          "logIndex": "0xd9",
          "removed": false
        },
        {
          "address": "0xe87781cf0523ad67d55ecfde931c41c40933ef8f",
          "topics": [
            "0x2bdfae17037529a2e65ec70b13ee84e9aa324112f93c1598ff55cafc6b84df08",
            "0x000000000000000000000000546da7c993d811d067f4c102b4281fe3c2af6a8d"
          ],
          "data": "0x00000000000000000000000000000000000000000000000000000000000000030000000000000000000000000000000000000000000000000000000000000006000000000000000000000000000000000000000000000000000000000112a880",
          "blockHash": "0x1dd780c4d717dc39a0d5eae020979a071c1dd9b06ed1cacf06a74de3381b4b0b",
          "blockNumber": "0x16d7852",
          "transactionHash": "0x7aa7b4511380a78ee58e1eff1817ff622b418b0949971f2106a398256561fbce",
          "transactionIndex": "0x29",
          "logIndex": "0xda",
          "removed": false
        }
      ],
      "logsBloom": "0x00000100000000800000000000000000000020002400200000800000000000000000000000000000000000000000000000001000000000000000000000008000000000000000000040000008000000000000000000000000000000000000000000000000000000000000000000000000000000000000000000000012000000000000200000000000000000000000000000000000000000000000000040000000000000000000000000000000000000000000000000000000000000000020000000000002000000000000000000000000000000000000010000000000000000000000000000000000000000000000000000000000000000000000000000000000",
      "type": "0x2",
      "transactionHash": "0x7aa7b4511380a78ee58e1eff1817ff622b418b0949971f2106a398256561fbce",
      "transactionIndex": "0x29",
      "blockHash": "0x1dd780c4d717dc39a0d5eae020979a071c1dd9b06ed1cacf06a74de3381b4b0b",
      "blockNumber": "0x16d7852",
      "gasUsed": "0x2bb40",
      "effectiveGasPrice": "0xf0992",
      "from": "0x546da7c993d811d067f4c102b4281fe3c2af6a8d",
      "to": "0xe87781cf0523ad67d55ecfde931c41c40933ef8f",
      "contractAddress": null,
      "l1BaseFeeScalar": "0x44d",
      "l1BlobBaseFee": "0x1",
      "l1BlobBaseFeeScalar": "0xa118b",
      "l1Fee": "0x181681b8d",
      "l1GasPrice": "0xdac83c23",
      "l1GasUsed": "0x640"
    },
    {
      "status": "0x1",
      "cumulativeGasUsed": "0x4a00b8",
      "logs": [
        {
          "address": "0xa4253e7c13525287c56550b8708100f93e60509f",
          "topics": [
            "0x8c5be1e5ebec7d5bd14f71427d1e84f3dd0314c0f7b2291e5b200ac8c7c3b925",
            "0x000000000000000000000000bef88420f20ab95e5f7ea851f6008dbbee97dc26",
            "0x000000000000000000000000e87781cf0523ad67d55ecfde931c41c40933ef8f"
          ],
          "data": "0x0000000000000000000000000000000000000000000000000000000001e84800",
          "blockHash": "0xf1ce616cdaa87b615dc97a1b1a8056b26d7d5e6af39e6427a3a83fe2a1f3d8ed",
          "blockNumber": "0x16d7854",
          "transactionHash": "0xf724f2bc79c3211d8b75244b29d88dbaefd21dbdb8dd2a0e892d46b33687127a",
          "transactionIndex": "0x15",
          "logIndex": "0x57",
          "removed": false
        }
      ],
      "logsBloom": "0x00020000000000800000000000000000000000002000200000000000000000000000000000000000000000000000000000000000000080000000000000208000000000000000000040000000000000000000000000000000000000000000000000000000000000000000000000000000000000000000000000000000000000000000000000000000000000000000000000000000000000000100000000000000020000000000000000000000000000000000000000000000000000000020000000000000000000000000000000000000000000000000000000000000000000000010000000000000000000000000000000000000000000000000000000000000",
      "type": "0x2",
      "transactionHash": "0xf724f2bc79c3211d8b75244b29d88dbaefd21dbdb8dd2a0e892d46b33687127a",
      "transactionIndex": "0x15",
      "blockHash": "0xf1ce616cdaa87b615dc97a1b1a8056b26d7d5e6af39e6427a3a83fe2a1f3d8ed",
      "blockNumber": "0x16d7854",
      "gasUsed": "0xb4ff",
      "effectiveGasPrice": "0xf0992",
      "from": "0xbef88420f20ab95e5f7ea851f6008dbbee97dc26",
      "to": "0xa4253e7c13525287c56550b8708100f93e60509f",
      "contractAddress": null,
      "l1BaseFeeScalar": "0x44d",
      "l1BlobBaseFee": "0x1",
      "l1BlobBaseFeeScalar": "0xa118b",
      "l1Fee": "0x181681b8d",
      "l1GasPrice": "0xdac83c23",
      "l1GasUsed": "0x640"
    },
    {
      "status": "0x1",
      "cumulativeGasUsed": "0x3ba29e",
      "logs": [
        {
          "address": "0xa4253e7c13525287c56550b8708100f93e60509f",
          "topics": [
            "0xddf252ad1be2c89b69c2b068fc378daa952ba7f163c4a11628f55a4df523b3ef",
            "0x000000000000000000000000bef88420f20ab95e5f7ea851f6008dbbee97dc26",
            "0x000000000000000000000000e87781cf0523ad67d55ecfde931c41c40933ef8f"
          ],
          "data": "0x0000000000000000000000000000000000000000000000000000000001e84800",
          "blockHash": "0x9f9f3166750ed9e75fa51b255834fd23b2d5f41ca115635b46d9deb0183b4e0a",
          "blockNumber": "0x16d7856",
          "transactionHash": "0x4ebe83f6628b2648ade048243312f2cf1d180073d15e5ac8644eec37532373e0",
          "transactionIndex": "0xf",
          "logIndex": "0x5b",
          "removed": false
        },
        {
          "address": "0xe87781cf0523ad67d55ecfde931c41c40933ef8f",
          "topics": [
            "0x2bdfae17037529a2e65ec70b13ee84e9aa324112f93c1598ff55cafc6b84df08",
            "0x000000000000000000000000bef88420f20ab95e5f7ea851f6008dbbee97dc26"
          ],
          "data": "0x000000000000000000000000000000000000000000000000000000000000000400000000000000000000000000000000000000000000000000000000000000080000000000000000000000000000000000000000000000000000000001e84800",
          "blockHash": "0x9f9f3166750ed9e75fa51b255834fd23b2d5f41ca115635b46d9deb0183b4e0a",
          "blockNumber": "0x16d7856",
          "transactionHash": "0x4ebe83f6628b2648ade048243312f2cf1d180073d15e5ac8644eec37532373e0",
          "transactionIndex": "0xf",
          "logIndex": "0x5c",
          "removed": false
        }
      ],
      "logsBloom": "0x00020100000000800000000000000000000000002000200000800000000000000000000000000000000000000000000000001000000080000000000000008000000000000000000040000008000000000000000000000000000000000000000000000000000000000000000000000000000000000000000000000012000000000000000000000000000000000000000000000000000000000100000040000000000000000000000000000000000000000000000000000000000000000020000000000002000000000000000000000000000000000000010000000000000000000000000000000000000000000000000000000000000000000000000000000000",
      "type": "0x2",
      "transactionHash": "0x4ebe83f6628b2648ade048243312f2cf1d180073d15e5ac8644eec37532373e0",
      "transactionIndex": "0xf",
      "blockHash": "0x9f9f3166750ed9e75fa51b255834fd23b2d5f41ca115635b46d9deb0183b4e0a",
      "blockNumber": "0x16d7856",
      "gasUsed": "0x2c4f6",
      "effectiveGasPrice": "0xf0993",
      "from": "0xbef88420f20ab95e5f7ea851f6008dbbee97dc26",
      "to": "0xe87781cf0523ad67d55ecfde931c41c40933ef8f",
      "contractAddress": null,
      "l1BaseFeeScalar": "0x44d",
      "l1BlobBaseFee": "0x1",
      "l1BlobBaseFeeScalar": "0xa118b",
      "l1Fee": "0x1775266a4",
      "l1GasPrice": "0xd50eb03d",
      "l1GasUsed": "0x640"
    },
    {
      "status": "0x1",
      "cumulativeGasUsed": "0x30d981",
      "logs": [
        {
          "address": "0xa4253e7c13525287c56550b8708100f93e60509f",
          "topics": [
            "0x8c5be1e5ebec7d5bd14f71427d1e84f3dd0314c0f7b2291e5b200ac8c7c3b925",
            "0x00000000000000000000000019f19e10e6cb2ea89dae8a40635f7a0e10aeac3d",
            "0x000000000000000000000000e87781cf0523ad67d55ecfde931c41c40933ef8f"
          ],
          "data": "0x0000000000000000000000000000000000000000000000000000000002faf080",
          "blockHash": "0x66c0e3fc9e500b234799117cef84a53baf80cfdc08034541d95f9bb4605a4ae4",
          "blockNumber": "0x16d7858",
          "transactionHash": "0xf03c0659b8abc05046c6d528c214e6ff813d4bdea091cd86f0288feee6b8af28",
          "transactionIndex": "0xa",
          "logIndex": "0x1c",
          "removed": false
        }
      ],
      "logsBloom": "0x00000000000000800000000000000000000000002000200000000000000000000000000000000000000000000000000000000000000000000000000000208000000000000000000040000080000000000000000000000000000000000000000000000000000000000000000000000000000000000000000000000000000000000000000000000000000000000000000000000000000000000000000000000000020000000000000000080000000000000000000000000000000000000020200000000000000000000000000000000000000000000000000000000000000000000010000000000000000000000000000000000000000000000000000000000000",
      "type": "0x2",
      "transactionHash": "0xf03c0659b8abc05046c6d528c214e6ff813d4bdea091cd86f0288feee6b8af28",
      "transactionIndex": "0xa",
      "blockHash": "0x66c0e3fc9e500b234799117cef84a53baf80cfdc08034541d95f9bb4605a4ae4",
      "blockNumber": "0x16d7858",
      "gasUsed": "0xb50b",
      "effectiveGasPrice": "0xf0993",
      "from": "0x19f19e10e6cb2ea89dae8a40635f7a0e10aeac3d",
      "to": "0xa4253e7c13525287c56550b8708100f93e60509f",
      "contractAddress": null,
      "l1BaseFeeScalar": "0x44d",
      "l1BlobBaseFee": "0x1",
      "l1BlobBaseFeeScalar": "0xa118b",
      "l1Fee": "0x1775266a4",
      "l1GasPrice": "0xd50eb03d",
      "l1GasUsed": "0x640"
    },
    {
      "status": "0x1",
      "cumulativeGasUsed": "0x207597",
      "logs": [
        {
          "address": "0xa4253e7c13525287c56550b8708100f93e60509f",
          "topics": [
            "0xddf252ad1be2c89b69c2b068fc378daa952ba7f163c4a11628f55a4df523b3ef",
            "0x00000000000000000000000019f19e10e6cb2ea89dae8a40635f7a0e10aeac3d",
            "0x000000000000000000000000e87781cf0523ad67d55ecfde931c41c40933ef8f"
          ],
          "data": "0x0000000000000000000000000000000000000000000000000000000002faf080",
          "blockHash": "0x4199ba5b9117e94b33293f463b4aeb62ef64e011262f7e40b4c55a33c404da62",
          "blockNumber": "0x16d785a",
          "transactionHash": "0xc0448a7f8b36290c329bdc77372a62fde048ed79fc4ab675b0322cd9af4dd36c",
          "transactionIndex": "0x7",
          "logIndex": "0xe",
          "removed": false
        },
        {
          "address": "0xe87781cf0523ad67d55ecfde931c41c40933ef8f",
          "topics": [
            "0x2bdfae17037529a2e65ec70b13ee84e9aa324112f93c1598ff55cafc6b84df08",
            "0x00000000000000000000000019f19e10e6cb2ea89dae8a40635f7a0e10aeac3d"
          ],
          "data": "0x0000000000000000000000000000000000000000000000000000000000000005000000000000000000000000000000000000000000000000000000000000000a0000000000000000000000000000000000000000000000000000000002faf080",
          "blockHash": "0x4199ba5b9117e94b33293f463b4aeb62ef64e011262f7e40b4c55a33c404da62",
          "blockNumber": "0x16d785a",
          "transactionHash": "0xc0448a7f8b36290c329bdc77372a62fde048ed79fc4ab675b0322cd9af4dd36c",
          "transactionIndex": "0x7",
          "logIndex": "0xf",
          "removed": false
        }
      ],
      "logsBloom": "0x00000100000000800000000000000000000000002000200000800000000000000000000000000000000000000000000000001000000000000000000000008000000000000000000040000088000000000000000000000000000000000000000000000000000000000000000000000000000000000000000000000012000000000000000000000000000000000000000000000000000000000000000040000000000000000000000000080000000000000000000000000000000000000020200000000002000000000000000000000000000000000000010000000000000000000000000000000000000000000000000000000000000000000000000000000000",
      "type": "0x2",
      "transactionHash": "0xc0448a7f8b36290c329bdc77372a62fde048ed79fc4ab675b0322cd9af4dd36c",
      "transactionIndex": "0x7",
      "blockHash": "0x4199ba5b9117e94b33293f463b4aeb62ef64e011262f7e40b4c55a33c404da62",
      "blockNumber": "0x16d785a",
      "gasUsed": "0x2ceac",
      "effectiveGasPrice": "0xf0992",
      "from": "0x19f19e10e6cb2ea89dae8a40635f7a0e10aeac3d",
      "to": "0xe87781cf0523ad67d55ecfde931c41c40933ef8f",
      "contractAddress": null,
      "l1BaseFeeScalar": "0x44d",
      "l1BlobBaseFee": "0x1",
      "l1BlobBaseFeeScalar": "0xa118b",
      "l1Fee": "0x1775266a4",
      "l1GasPrice": "0xd50eb03d",
      "l1GasUsed": "0x640"
    }
  ],
  "libraries": [],
  "pending": [],
  "returns": {},
  "timestamp": 1743671189,
  "chain": 84532,
  "commit": "f8ef37a"
}