{
  "transactions": [
    {
      "hash": "0xcb9e84a884475bc7af1b17ae036ef80898c1014702a83afced27ba6728941620",
      "transactionType": "CALL",
      "contractName": null,
      "contractAddress": "0xa4253e7c13525287c56550b8708100f93e60509f",
      "function": "transfer(address,uint256)",
      "arguments": [
        "0xA0084dE38Eee190c6f1d4d83B20B9adcc4998799",
        "3000000"
      ],
      "transaction": {
        "from": "0xbe2680dc1752109b4344dbeb1072fd8cd880e54b",
        "to": "0xa4253e7c13525287c56550b8708100f93e60509f",
        "value": "0x0",
        "input": "0xa9059cbb000000000000000000000000a0084de38eee190c6f1d4d83b20b9adcc499879900000000000000000000000000000000000000000000000000000000002dc6c0",
        "nonce": "0x2bc",
        "chainId": "0x14a34"
      },
      "additionalContracts": [],
      "isFixedGasLimit": false
    },
    {
      "hash": "0xf43a0195d8e6eb52b461864d21cda81694c61e01d1c2693701680637006df1c0",
      "transactionType": "CALL",
      "contractName": null,
      "contractAddress": "0xa0084de38eee190c6f1d4d83b20b9adcc4998799",
      "function": null,
      "arguments": null,
      "transaction": {
        "from": "0xbe2680dc1752109b4344dbeb1072fd8cd880e54b",
        "to": "0xa0084de38eee190c6f1d4d83b20b9adcc4998799",
        "value": "0x9184e72a000",
        "input": "0x",
        "nonce": "0x2bd",
        "chainId": "0x14a34"
      },
      "additionalContracts": [],
      "isFixedGasLimit": false
    },
    {
      "hash": "0x198913fdf5bb07386ce887b13148ba9c5060b3076b2e6434005b2de32f8efa32",
      "transactionType": "CALL",
      "contractName": null,
      "contractAddress": "0xa4253e7c13525287c56550b8708100f93e60509f",
      "function": "transfer(address,uint256)",
      "arguments": [
        "0x070806B631A667a3Da88177d326adB27fde834Db",
        "9000000"
      ],
      "transaction": {
        "from": "0xbe2680dc1752109b4344dbeb1072fd8cd880e54b",
        "to": "0xa4253e7c13525287c56550b8708100f93e60509f",
        "value": "0x0",
        "input": "0xa9059cbb000000000000000000000000070806b631a667a3da88177d326adb27fde834db0000000000000000000000000000000000000000000000000000000000895440",
        "nonce": "0x2be",
        "chainId": "0x14a34"
      },
      "additionalContracts": [],
      "isFixedGasLimit": false
    },
    {
      "hash": "0x5a294457181cf326b0575c7f4d96aaa3e0ebc87095f286e8c9a3b6551034368a",
      "transactionType": "CALL",
      "contractName": null,
      "contractAddress": "0x070806b631a667a3da88177d326adb27fde834db",
      "function": null,
      "arguments": null,
      "transaction": {
        "from": "0xbe2680dc1752109b4344dbeb1072fd8cd880e54b",
        "to": "0x070806b631a667a3da88177d326adb27fde834db",
        "value": "0x9184e72a000",
        "input": "0x",
        "nonce": "0x2bf",
        "chainId": "0x14a34"
      },
      "additionalContracts": [],
      "isFixedGasLimit": false
    },
    {
      "hash": "0x7cfbb6163491330792d3d34f988ab4aae4d65f0d7519224e6bb5cc7a6c6ce1aa",
      "transactionType": "CALL",
      "contractName": null,
      "contractAddress": "0xa4253e7c13525287c56550b8708100f93e60509f",
      "function": "transfer(address,uint256)",
      "arguments": [
        "0x546da7C993D811d067f4C102B4281fE3c2AF6A8d",
        "19000000"
      ],
      "transaction": {
        "from": "0xbe2680dc1752109b4344dbeb1072fd8cd880e54b",
        "to": "0xa4253e7c13525287c56550b8708100f93e60509f",
        "value": "0x0",
        "input": "0xa9059cbb000000000000000000000000546da7c993d811d067f4c102b4281fe3c2af6a8d000000000000000000000000000000000000000000000000000000000121eac0",
        "nonce": "0x2c0",
        "chainId": "0x14a34"
      },
      "additionalContracts": [],
      "isFixedGasLimit": false
    },
    {
      "hash": "0x5dd91ef3d0fa188c024c76afa6dbbae7a507af6409d3d97465701116ace82540",
      "transactionType": "CALL",
      "contractName": null,
      "contractAddress": "0x546da7c993d811d067f4c102b4281fe3c2af6a8d",
      "function": null,
      "arguments": null,
      "transaction": {
        "from": "0xbe2680dc1752109b4344dbeb1072fd8cd880e54b",
        "to": "0x546da7c993d811d067f4c102b4281fe3c2af6a8d",
        "value": "0x9184e72a000",
        "input": "0x",
        "nonce": "0x2c1",
        "chainId": "0x14a34"
      },
      "additionalContracts": [],
      "isFixedGasLimit": false
    },
    {
      "hash": "0x79efb3d2c493e08546257de6ab7ae2908b57ff698cd6da78953cb36abe2bbbb0",
      "transactionType": "CALL",
      "contractName": null,
      "contractAddress": "0xa4253e7c13525287c56550b8708100f93e60509f",
      "function": "transfer(address,uint256)",
      "arguments": [
        "0xBef88420F20AB95e5F7ea851F6008dbbeE97dc26",
        "33000000"
      ],
      "transaction": {
        "from": "0xbe2680dc1752109b4344dbeb1072fd8cd880e54b",
        "to": "0xa4253e7c13525287c56550b8708100f93e60509f",
        "value": "0x0",
        "input": "0xa9059cbb000000000000000000000000bef88420f20ab95e5f7ea851f6008dbbee97dc260000000000000000000000000000000000000000000000000000000001f78a40",
        "nonce": "0x2c2",
        "chainId": "0x14a34"
      },
      "additionalContracts": [],
      "isFixedGasLimit": false
    },
    {
      "hash": "0x96a21c7698caf119d71586e7d7145f04f63e79fc14c3e50ba9d3c0797e7c323d",
      "transactionType": "CALL",
      "contractName": null,
      "contractAddress": "0xbef88420f20ab95e5f7ea851f6008dbbee97dc26",
      "function": null,
      "arguments": null,
      "transaction": {
        "from": "0xbe2680dc1752109b4344dbeb1072fd8cd880e54b",
        "to": "0xbef88420f20ab95e5f7ea851f6008dbbee97dc26",
        "value": "0x9184e72a000",
        "input": "0x",
        "nonce": "0x2c3",
        "chainId": "0x14a34"
      },
      "additionalContracts": [],
      "isFixedGasLimit": false
    },
    {
      "hash": "0x0e438776b8f361f121c0d17ca04b06db3b4e0a9c5c4ab357b80753f65d6bc702",
      "transactionType": "CALL",
      "contractName": null,
      "contractAddress": "0xa4253e7c13525287c56550b8708100f93e60509f",
      "function": "transfer(address,uint256)",
      "arguments": [
        "0x19f19e10E6CB2ea89dAe8a40635f7A0E10AEaC3D",
        "51000000"
      ],
      "transaction": {
        "from": "0xbe2680dc1752109b4344dbeb1072fd8cd880e54b",
        "to": "0xa4253e7c13525287c56550b8708100f93e60509f",
        "value": "0x0",
        "input": "0xa9059cbb00000000000000000000000019f19e10e6cb2ea89dae8a40635f7a0e10aeac3d00000000000000000000000000000000000000000000000000000000030a32c0",
        "nonce": "0x2c4",
        "chainId": "0x14a34"
      },
      "additionalContracts": [],
      "isFixedGasLimit": false
    },
    {
      "hash": "0xdedd6b9e6252efc54c429346c4b5c4af0c84741770b16e8798d231c772f1a457",
      "transactionType": "CALL",
      "contractName": null,
      "contractAddress": "0x19f19e10e6cb2ea89dae8a40635f7a0e10aeac3d",
      "function": null,
      "arguments": null,
      "transaction": {
        "from": "0xbe2680dc1752109b4344dbeb1072fd8cd880e54b",
        "to": "0x19f19e10e6cb2ea89dae8a40635f7a0e10aeac3d",
        "value": "0x9184e72a000",
        "input": "0x",
        "nonce": "0x2c5",
        "chainId": "0x14a34"
      },
      "additionalContracts": [],
      "isFixedGasLimit": false
    },
    {
      "hash": "0x3a2775b985b412c10c59d4208ae1b2e22f70fb0716d20ea25635633adbf3afa4",
      "transactionType": "CALL",
      "contractName": null,
      "contractAddress": "0xa4253e7c13525287c56550b8708100f93e60509f",
      "function": "approve(address,uint256)",
      "arguments": [
        "0xfcCe8E829baBCe82445F4194f688f2FDc1a6492D",
        "2000000"
      ],
      "transaction": {
        "from": "0xa0084de38eee190c6f1d4d83b20b9adcc4998799",
        "to": "0xa4253e7c13525287c56550b8708100f93e60509f",
        "value": "0x0",
        "input": "0x095ea7b3000000000000000000000000fcce8e829babce82445f4194f688f2fdc1a6492d00000000000000000000000000000000000000000000000000000000001e8480",
        "nonce": "0x2",
        "chainId": "0x14a34"
      },
      "additionalContracts": [],
      "isFixedGasLimit": false
    },
    {
      "hash": "0x99940f2bf728e7ec568528738750b1af3a1e7705918d8e711a04c966f2c906d5",
      "transactionType": "CALL",
      "contractName": null,
      "contractAddress": "0xfcce8e829babce82445f4194f688f2fdc1a6492d",
      "function": "createSubscription(uint256,uint256)",
      "arguments": [
        "1",
        "2"
      ],
      "transaction": {
        "from": "0xa0084de38eee190c6f1d4d83b20b9adcc4998799",
        "to": "0xfcce8e829babce82445f4194f688f2fdc1a6492d",
        "value": "0x0",
        "input": "0xa71b6cd000000000000000000000000000000000000000000000000000000000000000010000000000000000000000000000000000000000000000000000000000000002",
        "nonce": "0x3",
        "chainId": "0x14a34"
      },
      "additionalContracts": [],
      "isFixedGasLimit": false
    },
    {
      "hash": "0xbfc5c79a0b05c7e14ae91fed4741dbf2956cfd496f60f634b5e401e72711a07d",
      "transactionType": "CALL",
      "contractName": null,
      "contractAddress": "0xa4253e7c13525287c56550b8708100f93e60509f",
      "function": "approve(address,uint256)",
      "arguments": [
        "0xfcCe8E829baBCe82445F4194f688f2FDc1a6492D",
        "8000000"
      ],
      "transaction": {
        "from": "0x070806b631a667a3da88177d326adb27fde834db",
        "to": "0xa4253e7c13525287c56550b8708100f93e60509f",
        "value": "0x0",
        "input": "0x095ea7b3000000000000000000000000fcce8e829babce82445f4194f688f2fdc1a6492d00000000000000000000000000000000000000000000000000000000007a1200",
        "nonce": "0x2",
        "chainId": "0x14a34"
      },
      "additionalContracts": [],
      "isFixedGasLimit": false
    },
    {
      "hash": "0x64c0a7d2f60ea8097af79c9a6def9a2033b9c1598c69ca2380ba10db2f68e077",
      "transactionType": "CALL",
      "contractName": null,
      "contractAddress": "0xfcce8e829babce82445f4194f688f2fdc1a6492d",
      "function": "createSubscription(uint256,uint256)",
      "arguments": [
        "2",
        "4"
      ],
      "transaction": {
        "from": "0x070806b631a667a3da88177d326adb27fde834db",
        "to": "0xfcce8e829babce82445f4194f688f2fdc1a6492d",
        "value": "0x0",
        "input": "0xa71b6cd000000000000000000000000000000000000000000000000000000000000000020000000000000000000000000000000000000000000000000000000000000004",
        "nonce": "0x3",
        "chainId": "0x14a34"
      },
      "additionalContracts": [],
      "isFixedGasLimit": false
    },
    {
      "hash": "0x8659b3c0cddf4cb9eb16bffd2f5687f857f35718e4dca5ed9da0cbe636ed9c0b",
      "transactionType": "CALL",
      "contractName": null,
      "contractAddress": "0xa4253e7c13525287c56550b8708100f93e60509f",
      "function": "approve(address,uint256)",
      "arguments": [
        "0xfcCe8E829baBCe82445F4194f688f2FDc1a6492D",
        "18000000"
      ],
      "transaction": {
        "from": "0x546da7c993d811d067f4c102b4281fe3c2af6a8d",
        "to": "0xa4253e7c13525287c56550b8708100f93e60509f",
        "value": "0x0",
        "input": "0x095ea7b3000000000000000000000000fcce8e829babce82445f4194f688f2fdc1a6492d000000000000000000000000000000000000000000000000000000000112a880",
        "nonce": "0x2",
        "chainId": "0x14a34"
      },
      "additionalContracts": [],
      "isFixedGasLimit": false
    },
    {
      "hash": "0xb85c91e28d799515d4bf89fc50942edece69b17d4b25f18e4318d6b813e0645b",
      "transactionType": "CALL",
      "contractName": null,
      "contractAddress": "0xfcce8e829babce82445f4194f688f2fdc1a6492d",
      "function": "createSubscription(uint256,uint256)",
      "arguments": [
        "3",
        "6"
      ],
      "transaction": {
        "from": "0x546da7c993d811d067f4c102b4281fe3c2af6a8d",
        "to": "0xfcce8e829babce82445f4194f688f2fdc1a6492d",
        "value": "0x0",
        "input": "0xa71b6cd000000000000000000000000000000000000000000000000000000000000000030000000000000000000000000000000000000000000000000000000000000006",
        "nonce": "0x3",
        "chainId": "0x14a34"
      },
      "additionalContracts": [],
      "isFixedGasLimit": false
    },
    {
      "hash": "0x6ab90a6d0b1ec9c390015b2a529e4e4241e3dca49f96760bf1b097d851bc77fb",
      "transactionType": "CALL",
      "contractName": null,
      "contractAddress": "0xa4253e7c13525287c56550b8708100f93e60509f",
      "function": "approve(address,uint256)",
      "arguments": [
        "0xfcCe8E829baBCe82445F4194f688f2FDc1a6492D",
        "32000000"
      ],
      "transaction": {
        "from": "0xbef88420f20ab95e5f7ea851f6008dbbee97dc26",
        "to": "0xa4253e7c13525287c56550b8708100f93e60509f",
        "value": "0x0",
        "input": "0x095ea7b3000000000000000000000000fcce8e829babce82445f4194f688f2fdc1a6492d0000000000000000000000000000000000000000000000000000000001e84800",
        "nonce": "0x2",
        "chainId": "0x14a34"
      },
      "additionalContracts": [],
      "isFixedGasLimit": false
    },
    {
      "hash": "0x7627596cedae91b6360d27460a7d8334e52f13f20a9d1b754c0c3e64f3665a0f",
      "transactionType": "CALL",
      "contractName": null,
      "contractAddress": "0xfcce8e829babce82445f4194f688f2fdc1a6492d",
      "function": "createSubscription(uint256,uint256)",
      "arguments": [
        "4",
        "8"
      ],
      "transaction": {
        "from": "0xbef88420f20ab95e5f7ea851f6008dbbee97dc26",
        "to": "0xfcce8e829babce82445f4194f688f2fdc1a6492d",
        "value": "0x0",
        "input": "0xa71b6cd000000000000000000000000000000000000000000000000000000000000000040000000000000000000000000000000000000000000000000000000000000008",
        "nonce": "0x3",
        "chainId": "0x14a34"
      },
      "additionalContracts": [],
      "isFixedGasLimit": false
    },
    {
      "hash": "0x06557466c86b49413a21d2b15e08dee32adffa7fc81b47767967b39577f9d734",
      "transactionType": "CALL",
      "contractName": null,
      "contractAddress": "0xa4253e7c13525287c56550b8708100f93e60509f",
      "function": "approve(address,uint256)",
      "arguments": [
        "0xfcCe8E829baBCe82445F4194f688f2FDc1a6492D",
        "50000000"
      ],
      "transaction": {
        "from": "0x19f19e10e6cb2ea89dae8a40635f7a0e10aeac3d",
        "to": "0xa4253e7c13525287c56550b8708100f93e60509f",
        "value": "0x0",
        "input": "0x095ea7b3000000000000000000000000fcce8e829babce82445f4194f688f2fdc1a6492d0000000000000000000000000000000000000000000000000000000002faf080",
        "nonce": "0x2",
        "chainId": "0x14a34"
      },
      "additionalContracts": [],
      "isFixedGasLimit": false
    },
    {
      "hash": "0x1733b937f9003fb68bd314cea69923355b573741ce9d799fdd2e6911551dfb30",
      "transactionType": "CALL",
      "contractName": null,
      "contractAddress": "0xfcce8e829babce82445f4194f688f2fdc1a6492d",
      "function": "createSubscription(uint256,uint256)",
      "arguments": [
        "5",
        "10"
      ],
      "transaction": {
        "from": "0x19f19e10e6cb2ea89dae8a40635f7a0e10aeac3d",
        "to": "0xfcce8e829babce82445f4194f688f2fdc1a6492d",
        "value": "0x0",
        "input": "0xa71b6cd00000000000000000000000000000000000000000000000000000000000000005000000000000000000000000000000000000000000000000000000000000000a",
        "nonce": "0x3",
        "chainId": "0x14a34"
      },
      "additionalContracts": [],
      "isFixedGasLimit": false
    },
    {
      "hash": null,
      "transactionType": "CALL",
      "contractName": null,
      "contractAddress": "0xfcce8e829babce82445f4194f688f2fdc1a6492d",
      "function": "processDailyBatch(uint256)",
      "arguments": [
        "0"
      ],
      "transaction": {
        "from": "0xbe2680dc1752109b4344dbeb1072fd8cd880e54b",
        "to": "0xfcce8e829babce82445f4194f688f2fdc1a6492d",
        "value": "0x0",
        "input": "0x4c47c3ed0000000000000000000000000000000000000000000000000000000000000000",
        "nonce": "0x2c6",
        "chainId": "0x14a34"
      },
      "additionalContracts": [],
      "isFixedGasLimit": false
    }
  ],
  "receipts": [
    {
      "status": "0x1",
      "cumulativeGasUsed": "0x4286c",
      "logs": [
        {
          "address": "0xa4253e7c13525287c56550b8708100f93e60509f",
          "topics": [
            "0xddf252ad1be2c89b69c2b068fc378daa952ba7f163c4a11628f55a4df523b3ef",
            "0x000000000000000000000000be2680dc1752109b4344dbeb1072fd8cd880e54b",
            "0x000000000000000000000000a0084de38eee190c6f1d4d83b20b9adcc4998799"
          ],
          "data": "0x00000000000000000000000000000000000000000000000000000000002dc6c0",
          "blockHash": "0xd9a10f55fd5af887afef6dbfe20dc2bae61989aa72cd4d626b1aff68dc4d9683",
          "blockNumber": "0x16d7bb0",
          "transactionHash": "0xcb9e84a884475bc7af1b17ae036ef80898c1014702a83afced27ba6728941620",
          "transactionIndex": "0x4",
          "logIndex": "0x2",
          "removed": false
        }
      ],
      "logsBloom": "0x00000000000000800000080000000000000000000000200000000000000000000000000000000000000000000000200000000000000000000020000000000000000000000000000040000008000000000000000000000000000000000000000000000000000000000000000000000000000000000000000000000010000000000000000000000000000000000000000000000000000000000000000000000000000000000000000000000000000000000000000000000000000000000000000000000042000000000000000000000000000000000000000400000000000000000000000000000000000000000000000000000000000000000000000000008000",
      "type": "0x2",
      "transactionHash": "0xcb9e84a884475bc7af1b17ae036ef80898c1014702a83afced27ba6728941620",
      "transactionIndex": "0x4",
      "blockHash": "0xd9a10f55fd5af887afef6dbfe20dc2bae61989aa72cd4d626b1aff68dc4d9683",
      "blockNumber": "0x16d7bb0",
      "gasUsed": "0x86b4",
      "effectiveGasPrice": "0xd845b",
      "from": "0xbe2680dc1752109b4344dbeb1072fd8cd880e54b",
      "to": "0xa4253e7c13525287c56550b8708100f93e60509f",
      "contractAddress": null,
      "l1BaseFeeScalar": "0x44d",
      "l1BlobBaseFee": "0x1",
      "l1BlobBaseFeeScalar": "0xa118b",
      "l1Fee": "0x4bb3c2cb3",
      "l1GasPrice": "0x2af93a052",
      "l1GasUsed": "0x640"
    },
    {
      "status": "0x1",
      "cumulativeGasUsed": "0xae5d8d",
      "logs": [],
      "logsBloom": "0x00000000000000000000000000000000000000000000000000000000000000000000000000000000000000000000000000000000000000000000000000000000000000000000000000000000000000000000000000000000000000000000000000000000000000000000000000000000000000000000000000000000000000000000000000000000000000000000000000000000000000000000000000000000000000000000000000000000000000000000000000000000000000000000000000000000000000000000000000000000000000000000000000000000000000000000000000000000000000000000000000000000000000000000000000000000",
      "type": "0x2",
      "transactionHash": "0xf43a0195d8e6eb52b461864d21cda81694c61e01d1c2693701680637006df1c0",
      "transactionIndex": "0x2c",
      "blockHash": "0xf8eea8cdf893f8e5387a407a27729af71bce824f93d25e48d481381b43262b80",
      "blockNumber": "0x16d7bb1",
      "gasUsed": "0x5208",
      "effectiveGasPrice": "0xd845b",
      "from": "0xbe2680dc1752109b4344dbeb1072fd8cd880e54b",
      "to": "0xa0084de38eee190c6f1d4d83b20b9adcc4998799",
      "contractAddress": null,
      "l1BaseFeeScalar": "0x44d",
      "l1BlobBaseFee": "0x1",
      "l1BlobBaseFeeScalar": "0xa118b",
      "l1Fee": "0x4bb3c2cb3",
      "l1GasPrice": "0x2af93a052",
      "l1GasUsed": "0x640"
    },
    {
      "status": "0x1",
      "cumulativeGasUsed": "0x80b05c",
      "logs": [
        {
          "address": "0xa4253e7c13525287c56550b8708100f93e60509f",
          "topics": [
            "0xddf252ad1be2c89b69c2b068fc378daa952ba7f163c4a11628f55a4df523b3ef",
            "0x000000000000000000000000be2680dc1752109b4344dbeb1072fd8cd880e54b",
            "0x000000000000000000000000070806b631a667a3da88177d326adb27fde834db"
          ],
          "data": "0x0000000000000000000000000000000000000000000000000000000000895440",
          "blockHash": "0x3806b0c7a822e1a10beef92e058ff1129d199cc565b8e4ccf40cb6b458be05ba",
          "blockNumber": "0x16d7bb2",
          "transactionHash": "0x198913fdf5bb07386ce887b13148ba9c5060b3076b2e6434005b2de32f8efa32",
          "transactionIndex": "0x1b",
          "logIndex": "0xe5",
          "removed": false
        }
      ],
      "logsBloom": "0x00000000000000800000080000040000000000000000200000000000000000000000000000000000000000000000000000000000000000000000000000000000000000000000000040000008000000000000000000000000000000000000000000000000000000000000000000000000000000000000000000000010000000000000000000000000000000000000000000000000000000000000000000000040000000000000000000000000000000000000000000000000000000000000000000000002000000000000000000000000000000000000000400000000000000000000000000000000000000000004000000000000000000000000000000008000",
      "type": "0x2",
      "transactionHash": "0x198913fdf5bb07386ce887b13148ba9c5060b3076b2e6434005b2de32f8efa32",
      "transactionIndex": "0x1b",
      "blockHash": "0x3806b0c7a822e1a10beef92e058ff1129d199cc565b8e4ccf40cb6b458be05ba",
      "blockNumber": "0x16d7bb2",
      "gasUsed": "0x86b4",
      "effectiveGasPrice": "0xd845b",
      "from": "0xbe2680dc1752109b4344dbeb1072fd8cd880e54b",
      "to": "0xa4253e7c13525287c56550b8708100f93e60509f",
      "contractAddress": null,
      "l1BaseFeeScalar": "0x44d",
      "l1BlobBaseFee": "0x1",
      "l1BlobBaseFeeScalar": "0xa118b",
      "l1Fee": "0x4bb3c2cb3",
      "l1GasPrice": "0x2af93a052",
      "l1GasUsed": "0x640"
    },
    {
      "status": "0x1",
      "cumulativeGasUsed": "0x73abef",
      "logs": [],
      "logsBloom": "0x00000000000000000000000000000000000000000000000000000000000000000000000000000000000000000000000000000000000000000000000000000000000000000000000000000000000000000000000000000000000000000000000000000000000000000000000000000000000000000000000000000000000000000000000000000000000000000000000000000000000000000000000000000000000000000000000000000000000000000000000000000000000000000000000000000000000000000000000000000000000000000000000000000000000000000000000000000000000000000000000000000000000000000000000000000000",
      "type": "0x2",
      "transactionHash": "0x5a294457181cf326b0575c7f4d96aaa3e0ebc87095f286e8c9a3b6551034368a",
      "transactionIndex": "0x1d",
      "blockHash": "0x5b77807973bb60fd3de41fff56303f22d1fa694825c2690c42285e77862f647c",
      "blockNumber": "0x16d7bb4",
      "gasUsed": "0x5208",
      "effectiveGasPrice": "0xd845b",
      "from": "0xbe2680dc1752109b4344dbeb1072fd8cd880e54b",
      "to": "0x070806b631a667a3da88177d326adb27fde834db",
      "contractAddress": null,
      "l1BaseFeeScalar": "0x44d",
      "l1BlobBaseFee": "0x1",
      "l1BlobBaseFeeScalar": "0xa118b",
      "l1Fee": "0x4bb3c2cb3",
      "l1GasPrice": "0x2af93a052",
      "l1GasUsed": "0x640"
    },
    {
      "status": "0x1",
      "cumulativeGasUsed": "0x66c75a",
      "logs": [
        {
          "address": "0xa4253e7c13525287c56550b8708100f93e60509f",
          "topics": [
            "0xddf252ad1be2c89b69c2b068fc378daa952ba7f163c4a11628f55a4df523b3ef",
            "0x000000000000000000000000be2680dc1752109b4344dbeb1072fd8cd880e54b",
            "0x000000000000000000000000546da7c993d811d067f4c102b4281fe3c2af6a8d"
          ],
          "data": "0x000000000000000000000000000000000000000000000000000000000121eac0",
          "blockHash": "0xb33f7cf18bc876b4e53f828c276d3ecbad7c99531ec838ea1f97dd0fea08edc3",
          "blockNumber": "0x16d7bb6",
          "transactionHash": "0x7cfbb6163491330792d3d34f988ab4aae4d65f0d7519224e6bb5cc7a6c6ce1aa",
          "transactionIndex": "0x1c",
          "logIndex": "0x63",
          "removed": false
        }
      ],
      "logsBloom": "0x00000000000000800000080000000000000020000400200000000000000000000000000000000000000000000000000000000000000000000000000000000000000000000000000040000008000000000000000000000000000000000000000000000000000000000000000000000000000000000000000000000010000000000000200000000000000000000000000000000000000000000000000000000000000000000000000000000000000000000000000000000000000000000000000000000002000000000000000000000000000000000000000400000000000000000000000000000000000000000000000000000000000000000000000000008000",
      "type": "0x2",
      "transactionHash": "0x7cfbb6163491330792d3d34f988ab4aae4d65f0d7519224e6bb5cc7a6c6ce1aa",
      "transactionIndex": "0x1c",
      "blockHash": "0xb33f7cf18bc876b4e53f828c276d3ecbad7c99531ec838ea1f97dd0fea08edc3",
      "blockNumber": "0x16d7bb6",
      "gasUsed": "0x86c0",
      "effectiveGasPrice": "0xd845c",
      "from": "0xbe2680dc1752109b4344dbeb1072fd8cd880e54b",
      "to": "0xa4253e7c13525287c56550b8708100f93e60509f",
      "contractAddress": null,
      "l1BaseFeeScalar": "0x44d",
      "l1BlobBaseFee": "0x1",
      "l1BlobBaseFeeScalar": "0xa118b",
      "l1Fee": "0x49f8eedd9",
      "l1GasPrice": "0x29fdd9332",
      "l1GasUsed": "0x640"
    },
    {
      "status": "0x1",
      "cumulativeGasUsed": "0x23959f",
      "logs": [],
      "logsBloom": "0x00000000000000000000000000000000000000000000000000000000000000000000000000000000000000000000000000000000000000000000000000000000000000000000000000000000000000000000000000000000000000000000000000000000000000000000000000000000000000000000000000000000000000000000000000000000000000000000000000000000000000000000000000000000000000000000000000000000000000000000000000000000000000000000000000000000000000000000000000000000000000000000000000000000000000000000000000000000000000000000000000000000000000000000000000000000",
      "type": "0x2",
      "transactionHash": "0x5dd91ef3d0fa188c024c76afa6dbbae7a507af6409d3d97465701116ace82540",
      "transactionIndex": "0xc",
      "blockHash": "0xe0c3c78a1ffeb30a53fc946093403259e1baa74739afb7a4ab2cc8041bba33d9",
      "blockNumber": "0x16d7bb8",
      "gasUsed": "0x5208",
      "effectiveGasPrice": "0xd845c",
      "from": "0xbe2680dc1752109b4344dbeb1072fd8cd880e54b",
      "to": "0x546da7c993d811d067f4c102b4281fe3c2af6a8d",
      "contractAddress": null,
      "l1BaseFeeScalar": "0x44d",
      "l1BlobBaseFee": "0x1",
      "l1BlobBaseFeeScalar": "0xa118b",
      "l1Fee": "0x49f8eedd9",
      "l1GasPrice": "0x29fdd9332",
      "l1GasUsed": "0x640"
    },
    {
      "status": "0x1",
      "cumulativeGasUsed": "0x128f7a",
      "logs": [
        {
          "address": "0xa4253e7c13525287c56550b8708100f93e60509f",
          "topics": [
            "0xddf252ad1be2c89b69c2b068fc378daa952ba7f163c4a11628f55a4df523b3ef",
            "0x000000000000000000000000be2680dc1752109b4344dbeb1072fd8cd880e54b",
            "0x000000000000000000000000bef88420f20ab95e5f7ea851f6008dbbee97dc26"
          ],
          "data": "0x0000000000000000000000000000000000000000000000000000000001f78a40",
          "blockHash": "0x39b37abd9beb3cf4591621aab3d9d3cda7cc7364f2ba3fb7e49587c4d5259035",
          "blockNumber": "0x16d7bba",
          "transactionHash": "0x79efb3d2c493e08546257de6ab7ae2908b57ff698cd6da78953cb36abe2bbbb0",
          "transactionIndex": "0x6",
          "logIndex": "0x9",
          "removed": false
        }
      ],
      "logsBloom": "0x00020000000000800000080000000000000000000000200000000000000000000000000000000000000000000000000000000000000080000000000000000000000000000000000040000008000000000000000000000000000000000000000000000000000000000000000000000000000000000000000000000010000000000000000000000000000000000000000000000000000000000100000000000000000000000000000000000000000000000000000000000000000000000000000000000002000000000000000000000000000000000000000400000000000000000000000000000000000000000000000000000000000000000000000000008000",
      "type": "0x2",
      "transactionHash": "0x79efb3d2c493e08546257de6ab7ae2908b57ff698cd6da78953cb36abe2bbbb0",
      "transactionIndex": "0x6",
      "blockHash": "0x39b37abd9beb3cf4591621aab3d9d3cda7cc7364f2ba3fb7e49587c4d5259035",
      "blockNumber": "0x16d7bba",
      "gasUsed": "0x86b4",
      "effectiveGasPrice": "0xd845c",
      "from": "0xbe2680dc1752109b4344dbeb1072fd8cd880e54b",
      "to": "0xa4253e7c13525287c56550b8708100f93e60509f",
      "contractAddress": null,
      "l1BaseFeeScalar": "0x44d",
      "l1BlobBaseFee": "0x1",
      "l1BlobBaseFeeScalar": "0xa118b",
      "l1Fee": "0x49f8eedd9",
      "l1GasPrice": "0x29fdd9332",
      "l1GasUsed": "0x640"
    },
    {
      "status": "0x1",
      "cumulativeGasUsed": "0x920b8b",
      "logs": [],
      "logsBloom": "0x00000000000000000000000000000000000000000000000000000000000000000000000000000000000000000000000000000000000000000000000000000000000000000000000000000000000000000000000000000000000000000000000000000000000000000000000000000000000000000000000000000000000000000000000000000000000000000000000000000000000000000000000000000000000000000000000000000000000000000000000000000000000000000000000000000000000000000000000000000000000000000000000000000000000000000000000000000000000000000000000000000000000000000000000000000000",
      "type": "0x2",
      "transactionHash": "0x96a21c7698caf119d71586e7d7145f04f63e79fc14c3e50ba9d3c0797e7c323d",
      "transactionIndex": "0x29",
      "blockHash": "0xb112258224acbd3d631c8501e773f41d9a75bd209131dff34096e28c2ce85e34",
      "blockNumber": "0x16d7bbb",
      "gasUsed": "0x5208",
      "effectiveGasPrice": "0xd845c",
      "from": "0xbe2680dc1752109b4344dbeb1072fd8cd880e54b",
      "to": "0xbef88420f20ab95e5f7ea851f6008dbbee97dc26",
      "contractAddress": null,
      "l1BaseFeeScalar": "0x44d",
      "l1BlobBaseFee": "0x1",
      "l1BlobBaseFeeScalar": "0xa118b",
      "l1Fee": "0x49f8eedd9",
      "l1GasPrice": "0x29fdd9332",
      "l1GasUsed": "0x640"
    },
    {
      "status": "0x1",
      "cumulativeGasUsed": "0x679519",
      "logs": [
        {
          "address": "0xa4253e7c13525287c56550b8708100f93e60509f",
          "topics": [
            "0xddf252ad1be2c89b69c2b068fc378daa952ba7f163c4a11628f55a4df523b3ef",
            "0x000000000000000000000000be2680dc1752109b4344dbeb1072fd8cd880e54b",
            "0x00000000000000000000000019f19e10e6cb2ea89dae8a40635f7a0e10aeac3d"
          ],
          "data": "0x00000000000000000000000000000000000000000000000000000000030a32c0",
          "blockHash": "0x99bdacbcdaff9fe2af503a1c0c910f519bc3232bcbf10d08fcbebb82058b05f2",
          "blockNumber": "0x16d7bbc",
          "transactionHash": "0x0e438776b8f361f121c0d17ca04b06db3b4e0a9c5c4ab357b80753f65d6bc702",
          "transactionIndex": "0x1d",
          "logIndex": "0x8f",
          "removed": false
        }
      ],
      "logsBloom": "0x00000000000000800000080000000000000000000000200000000000000000000000000000000000000000000000000000000000000000000000000000000000000000000000000040000088000000000000000000000000000000000000000000000000000000000000000000000000000000000000000000000010000000000000000000000000000000000000000000000000000000000000000000000000000000000000000000080000000000000000000000000000000000000000200000000002000000000000000000000000000000000000000400000000000000000000000000000000000000000000000000000000000000000000000000008000",
      "type": "0x2",
      "transactionHash": "0x0e438776b8f361f121c0d17ca04b06db3b4e0a9c5c4ab357b80753f65d6bc702",
      "transactionIndex": "0x1d",
      "blockHash": "0x99bdacbcdaff9fe2af503a1c0c910f519bc3232bcbf10d08fcbebb82058b05f2",
      "blockNumber": "0x16d7bbc",
      "gasUsed": "0x86c0",
      "effectiveGasPrice": "0xd845c",
      "from": "0xbe2680dc1752109b4344dbeb1072fd8cd880e54b",
      "to": "0xa4253e7c13525287c56550b8708100f93e60509f",
      "contractAddress": null,
      "l1BaseFeeScalar": "0x44d",
      "l1BlobBaseFee": "0x1",
      "l1BlobBaseFeeScalar": "0xa118b",
      "l1Fee": "0x4b9e2eeea",
      "l1GasPrice": "0x2aecfa502",
      "l1GasUsed": "0x640"
    },
    {
      "status": "0x1",
      "cumulativeGasUsed": "0x5ddbb2",
      "logs": [],
      "logsBloom": "0x00000000000000000000000000000000000000000000000000000000000000000000000000000000000000000000000000000000000000000000000000000000000000000000000000000000000000000000000000000000000000000000000000000000000000000000000000000000000000000000000000000000000000000000000000000000000000000000000000000000000000000000000000000000000000000000000000000000000000000000000000000000000000000000000000000000000000000000000000000000000000000000000000000000000000000000000000000000000000000000000000000000000000000000000000000000",
      "type": "0x2",
      "transactionHash": "0xdedd6b9e6252efc54c429346c4b5c4af0c84741770b16e8798d231c772f1a457",
      "transactionIndex": "0x1f",
      "blockHash": "0x46900df383ec80f6b5ed86f853adb0362bc37c4e7cfa72cd4476c45097174aea",
      "blockNumber": "0x16d7bbe",
      "gasUsed": "0x5208",
      "effectiveGasPrice": "0xd845b",
      "from": "0xbe2680dc1752109b4344dbeb1072fd8cd880e54b",
      "to": "0x19f19e10e6cb2ea89dae8a40635f7a0e10aeac3d",
      "contractAddress": null,
      "l1BaseFeeScalar": "0x44d",
      "l1BlobBaseFee": "0x1",
      "l1BlobBaseFeeScalar": "0xa118b",
      "l1Fee": "0x4b9e2eeea",
      "l1GasPrice": "0x2aecfa502",
      "l1GasUsed": "0x640"
    },
    {
      "status": "0x1",
      "cumulativeGasUsed": "0xbbb48f",
      "logs": [
        {
          "address": "0xa4253e7c13525287c56550b8708100f93e60509f",
          "topics": [
            "0x8c5be1e5ebec7d5bd14f71427d1e84f3dd0314c0f7b2291e5b200ac8c7c3b925",
            "0x000000000000000000000000a0084de38eee190c6f1d4d83b20b9adcc4998799",
            "0x000000000000000000000000fcce8e829babce82445f4194f688f2fdc1a6492d"
          ],
          "data": "0x00000000000000000000000000000000000000000000000000000000001e8480",
          "blockHash": "0x4c39f1164560474d3cbb2fdf5fbaa394966ce6540cbc35c2e1905124e8c621ad",
          "blockNumber": "0x16d7bbf",
          "transactionHash": "0x3a2775b985b412c10c59d4208ae1b2e22f70fb0716d20ea25635633adbf3afa4",
          "transactionIndex": "0x25",
          "logIndex": "0x13c",
          "removed": false
        }
      ],
      "logsBloom": "0x00000000000000800000000000000000000000000000200000080000000000000000000000000000000000000000201000000000000000000020000000200000000000000000000040000000000000000000000000000000000000000000000000000000000000000000000000000000000000000000000000000000000000000000000000000000000000000000000000000000000000000000000000000000020000000000000000000000000000000000000000000000000000000000000000000040000000000000000000000000000000000000000000000000000000000010000000000000000000000000000000000000000000000000000800000000",
      "type": "0x2",
      "transactionHash": "0x3a2775b985b412c10c59d4208ae1b2e22f70fb0716d20ea25635633adbf3afa4",
      "transactionIndex": "0x25",
      "blockHash": "0x4c39f1164560474d3cbb2fdf5fbaa394966ce6540cbc35c2e1905124e8c621ad",
      "blockNumber": "0x16d7bbf",
      "gasUsed": "0xb4ff",
      "effectiveGasPrice": "0xd845a",
      "from": "0xa0084de38eee190c6f1d4d83b20b9adcc4998799",
      "to": "0xa4253e7c13525287c56550b8708100f93e60509f",
      "contractAddress": null,
      "l1BaseFeeScalar": "0x44d",
      "l1BlobBaseFee": "0x1",
      "l1BlobBaseFeeScalar": "0xa118b",
      "l1Fee": "0x4b9e2eeea",
      "l1GasPrice": "0x2aecfa502",
      "l1GasUsed": "0x640"
    },
    {
      "status": "0x1",
      "cumulativeGasUsed": "0x85bc87",
      "logs": [
        {
          "address": "0xa4253e7c13525287c56550b8708100f93e60509f",
          "topics": [
            "0xddf252ad1be2c89b69c2b068fc378daa952ba7f163c4a11628f55a4df523b3ef",
            "0x000000000000000000000000a0084de38eee190c6f1d4d83b20b9adcc4998799",
            "0x000000000000000000000000fcce8e829babce82445f4194f688f2fdc1a6492d"
          ],
          "data": "0x00000000000000000000000000000000000000000000000000000000001e8480",
          "blockHash": "0x420892044e60f5c1f0c8fc73f3caa30606b12f5f017791576e363160ca848e49",
          "blockNumber": "0x16d7bc0",
          "transactionHash": "0x99940f2bf728e7ec568528738750b1af3a1e7705918d8e711a04c966f2c906d5",
          "transactionIndex": "0x1e",
          "logIndex": "0xc4",
          "removed": false
        },
        {
          "address": "0xfcce8e829babce82445f4194f688f2fdc1a6492d",
          "topics": [
            "0x2bdfae17037529a2e65ec70b13ee84e9aa324112f93c1598ff55cafc6b84df08",
            "0x000000000000000000000000a0084de38eee190c6f1d4d83b20b9adcc4998799"
          ],
          "data": "0x0000000000000000000000000000000000000000000000000000000000000001000000000000000000000000000000000000000000000000000000000000000200000000000000000000000000000000000000000000000000000000001e8480",
          "blockHash": "0x420892044e60f5c1f0c8fc73f3caa30606b12f5f017791576e363160ca848e49",
          "blockNumber": "0x16d7bc0",
          "transactionHash": "0x99940f2bf728e7ec568528738750b1af3a1e7705918d8e711a04c966f2c906d5",
          "transactionIndex": "0x1e",
          "logIndex": "0xc5",
          "removed": false
        }
      ],
      "logsBloom": "0x00000100000000800000000000000000000000000000200000880000000000000000000000000000000000000000201000000000000000000020000000000000000000000000000040000008000000000040000000000000000000000000000000000000000000000000000000000000000000000000000000000010000000000000000000000000080000000000000000000000000000000000000040000000000000000000000000000000000000000000000000000000000000000000000000008042000000000000000000000000000000000000000000000000000000000000000000000000000000000000000000000000000000000000000800000000",
      "type": "0x2",
      "transactionHash": "0x99940f2bf728e7ec568528738750b1af3a1e7705918d8e711a04c966f2c906d5",
      "transactionIndex": "0x1e",
      "blockHash": "0x420892044e60f5c1f0c8fc73f3caa30606b12f5f017791576e363160ca848e49",
      "blockNumber": "0x16d7bc0",
      "gasUsed": "0x32d6c",
      "effectiveGasPrice": "0xd845a",
      "from": "0xa0084de38eee190c6f1d4d83b20b9adcc4998799",
      "to": "0xfcce8e829babce82445f4194f688f2fdc1a6492d",
      "contractAddress": null,
      "l1BaseFeeScalar": "0x44d",
      "l1BlobBaseFee": "0x1",
      "l1BlobBaseFeeScalar": "0xa118b",
      "l1Fee": "0x4b9e2eeea",
      "l1GasPrice": "0x2aecfa502",
      "l1GasUsed": "0x640"
    },
    {
      "status": "0x1",
      "cumulativeGasUsed": "0x975d0e",
      "logs": [
        {
          "address": "0xa4253e7c13525287c56550b8708100f93e60509f",
          "topics": [
            "0x8c5be1e5ebec7d5bd14f71427d1e84f3dd0314c0f7b2291e5b200ac8c7c3b925",
            "0x000000000000000000000000070806b631a667a3da88177d326adb27fde834db",
            "0x000000000000000000000000fcce8e829babce82445f4194f688f2fdc1a6492d"
          ],
          "data": "0x00000000000000000000000000000000000000000000000000000000007a1200",
          "blockHash": "0xb4080fa34747971baced4f569e19e3e44ae313e1b8ff227af4c43a39d87e6689",
          "blockNumber": "0x16d7bc1",
          "transactionHash": "0xbfc5c79a0b05c7e14ae91fed4741dbf2956cfd496f60f634b5e401e72711a07d",
          "transactionIndex": "0x26",
          "logIndex": "0xf2",
          "removed": false
        }
      ],
      "logsBloom": "0x00000000000000800000000000040000000000000000200000080000000000000000000000000000000000000000001000000000000000000000000000200000000000000000000040000000000000000000000000000000000000000000000000000000000000000000000000000000000000000000000000000000000000000000000000000000000000000000000000000000000000000000000000000040020000000000000000000000000000000000000000000000000000000000000000000000000000000000000000000000000000000000000000000000000000000010000000000000000000000004000000000000000000000000000800000000",
      "type": "0x2",
      "transactionHash": "0xbfc5c79a0b05c7e14ae91fed4741dbf2956cfd496f60f634b5e401e72711a07d",
      "transactionIndex": "0x26",
      "blockHash": "0xb4080fa34747971baced4f569e19e3e44ae313e1b8ff227af4c43a39d87e6689",
      "blockNumber": "0x16d7bc1",
      "gasUsed": "0xb4f3",
      "effectiveGasPrice": "0xd845a",
      "from": "0x070806b631a667a3da88177d326adb27fde834db",
      "to": "0xa4253e7c13525287c56550b8708100f93e60509f",
      "contractAddress": null,
      "l1BaseFeeScalar": "0x44d",
      "l1BlobBaseFee": "0x1",
      "l1BlobBaseFeeScalar": "0xa118b",
      "l1Fee": "0x4b9e2eeea",
      "l1GasPrice": "0x2aecfa502",
      "l1GasUsed": "0x640"
    },
    {
      "status": "0x1",
      "cumulativeGasUsed": "0x862ea5",
      "logs": [
        {
          "address": "0xa4253e7c13525287c56550b8708100f93e60509f",
          "topics": [
            "0xddf252ad1be2c89b69c2b068fc378daa952ba7f163c4a11628f55a4df523b3ef",
            "0x000000000000000000000000070806b631a667a3da88177d326adb27fde834db",
            "0x000000000000000000000000fcce8e829babce82445f4194f688f2fdc1a6492d"
          ],
          "data": "0x00000000000000000000000000000000000000000000000000000000007a1200",
          "blockHash": "0xc380885e47318fa90de1bc78003dc26e243fdfea494e16323b972dd9bb8feaa2",
          "blockNumber": "0x16d7bc2",
          "transactionHash": "0x64c0a7d2f60ea8097af79c9a6def9a2033b9c1598c69ca2380ba10db2f68e077",
          "transactionIndex": "0x23",
          "logIndex": "0xe6",
          "removed": false
        },
        {
          "address": "0xfcce8e829babce82445f4194f688f2fdc1a6492d",
          "topics": [
            "0x2bdfae17037529a2e65ec70b13ee84e9aa324112f93c1598ff55cafc6b84df08",
            "0x000000000000000000000000070806b631a667a3da88177d326adb27fde834db"
          ],
          "data": "0x0000000000000000000000000000000000000000000000000000000000000002000000000000000000000000000000000000000000000000000000000000000400000000000000000000000000000000000000000000000000000000007a1200",
          "blockHash": "0xc380885e47318fa90de1bc78003dc26e243fdfea494e16323b972dd9bb8feaa2",
          "blockNumber": "0x16d7bc2",
          "transactionHash": "0x64c0a7d2f60ea8097af79c9a6def9a2033b9c1598c69ca2380ba10db2f68e077",
          "transactionIndex": "0x23",
          "logIndex": "0xe7",
          "removed": false
        }
      ],
      "logsBloom": "0x00000100000000800000000000040000000000000000200000880000000000000000000000000000000000000000001000000000000000000000000000000000000000000000000040000008000000000040000000000000000000000000000000000000000000000000000000000000000000000000000000000010000000000000000000000000080000000000000000000000000000000000000040000040000000000000000000000000000000000000000000000000000000000000000000008002000000000000000000000000000000000000000000000000000000000000000000000000000000000004000000000000000000000000000800000000",
      "type": "0x2",
      "transactionHash": "0x64c0a7d2f60ea8097af79c9a6def9a2033b9c1598c69ca2380ba10db2f68e077",
      "transactionIndex": "0x23",
      "blockHash": "0xc380885e47318fa90de1bc78003dc26e243fdfea494e16323b972dd9bb8feaa2",
      "blockNumber": "0x16d7bc2",
      "gasUsed": "0x2b18a",
      "effectiveGasPrice": "0xd845a",
      "from": "0x070806b631a667a3da88177d326adb27fde834db",
      "to": "0xfcce8e829babce82445f4194f688f2fdc1a6492d",
      "contractAddress": null,
      "l1BaseFeeScalar": "0x44d",
      "l1BlobBaseFee": "0x1",
      "l1BlobBaseFeeScalar": "0xa118b",
      "l1Fee": "0x4a83f2453",
      "l1GasPrice": "0x2a4cc2f37",
      "l1GasUsed": "0x640"
    },
    {
      "status": "0x1",
      "cumulativeGasUsed": "0x406c97",
      "logs": [
        {
          "address": "0xa4253e7c13525287c56550b8708100f93e60509f",
          "topics": [
            "0x8c5be1e5ebec7d5bd14f71427d1e84f3dd0314c0f7b2291e5b200ac8c7c3b925",
            "0x000000000000000000000000546da7c993d811d067f4c102b4281fe3c2af6a8d",
            "0x000000000000000000000000fcce8e829babce82445f4194f688f2fdc1a6492d"
          ],
          "data": "0x000000000000000000000000000000000000000000000000000000000112a880",
          "blockHash": "0x661b20bb1c4645c126d9eb6d2de451857242b617dd3f49b23e85924023def3da",
          "blockNumber": "0x16d7bc4",
          "transactionHash": "0x8659b3c0cddf4cb9eb16bffd2f5687f857f35718e4dca5ed9da0cbe636ed9c0b",
          "transactionIndex": "0x18",
          "logIndex": "0x3a",
          "removed": false
        }
      ],
      "logsBloom": "0x00000000000000800000000000000000000020000400200000080000000000000000000000000000000000000000001000000000000000000000000000200000000000000000000040000000000000000000000000000000000000000000000000000000000000000000000000000000000000000000000000000000000000000000200000000000000000000000000000000000000000000000000000000000020000000000000000000000000000000000000000000000000000000000000000000000000000000000000000000000000000000000000000000000000000000010000000000000000000000000000000000000000000000000000800000000",
      "type": "0x2",
      "transactionHash": "0x8659b3c0cddf4cb9eb16bffd2f5687f857f35718e4dca5ed9da0cbe636ed9c0b",
      "transactionIndex": "0x18",
      "blockHash": "0x661b20bb1c4645c126d9eb6d2de451857242b617dd3f49b23e85924023def3da",
      "blockNumber": "0x16d7bc4",
      "gasUsed": "0xb50b",
      "effectiveGasPrice": "0xd845a",
      "from": "0x546da7c993d811d067f4c102b4281fe3c2af6a8d",
      "to": "0xa4253e7c13525287c56550b8708100f93e60509f",
      "contractAddress": null,
      "l1BaseFeeScalar": "0x44d",
      "l1BlobBaseFee": "0x1",
      "l1BlobBaseFeeScalar": "0xa118b",
      "l1Fee": "0x4a83f2453",
      "l1GasPrice": "0x2a4cc2f37",
      "l1GasUsed": "0x640"
    },
    {
      "status": "0x1",
      "cumulativeGasUsed": "0x359b9f",
      "logs": [
        {
          "address": "0xa4253e7c13525287c56550b8708100f93e60509f",
          "topics": [
            "0xddf252ad1be2c89b69c2b068fc378daa952ba7f163c4a11628f55a4df523b3ef",
            "0x000000000000000000000000546da7c993d811d067f4c102b4281fe3c2af6a8d",
            "0x000000000000000000000000fcce8e829babce82445f4194f688f2fdc1a6492d"
          ],
          "data": "0x000000000000000000000000000000000000000000000000000000000112a880",
          "blockHash": "0x63b5d3678cd78bf0267765948542d2e00adcdfc4e87e0b8c9bce02af68acde4d",
          "blockNumber": "0x16d7bc6",
          "transactionHash": "0xb85c91e28d799515d4bf89fc50942edece69b17d4b25f18e4318d6b813e0645b",
          "transactionIndex": "0xf",
          "logIndex": "0x4b",
          "removed": false
        },
        {
          "address": "0xfcce8e829babce82445f4194f688f2fdc1a6492d",
          "topics": [
            "0x2bdfae17037529a2e65ec70b13ee84e9aa324112f93c1598ff55cafc6b84df08",
            "0x000000000000000000000000546da7c993d811d067f4c102b4281fe3c2af6a8d"
          ],
          "data": "0x00000000000000000000000000000000000000000000000000000000000000030000000000000000000000000000000000000000000000000000000000000006000000000000000000000000000000000000000000000000000000000112a880",
          "blockHash": "0x63b5d3678cd78bf0267765948542d2e00adcdfc4e87e0b8c9bce02af68acde4d",
          "blockNumber": "0x16d7bc6",
          "transactionHash": "0xb85c91e28d799515d4bf89fc50942edece69b17d4b25f18e4318d6b813e0645b",
          "transactionIndex": "0xf",
          "logIndex": "0x4c",
          "removed": false
        }
      ],
      "logsBloom": "0x00000100000000800000000000000000000020000400200000880000000000000000000000000000000000000000001000000000000000000000000000000000000000000000000040000008000000000040000000000000000000000000000000000000000000000000000000000000000000000000000000000010000000000000200000000000080000000000000000000000000000000000000040000000000000000000000000000000000000000000000000000000000000000000000000008002000000000000000000000000000000000000000000000000000000000000000000000000000000000000000000000000000000000000000800000000",
      "type": "0x2",
      "transactionHash": "0xb85c91e28d799515d4bf89fc50942edece69b17d4b25f18e4318d6b813e0645b",
      "transactionIndex": "0xf",
      "blockHash": "0x63b5d3678cd78bf0267765948542d2e00adcdfc4e87e0b8c9bce02af68acde4d",
      "blockNumber": "0x16d7bc6",
      "gasUsed": "0x2bb40",
      "effectiveGasPrice": "0xd845b",
      "from": "0x546da7c993d811d067f4c102b4281fe3c2af6a8d",
      "to": "0xfcce8e829babce82445f4194f688f2fdc1a6492d",
      "contractAddress": null,
      "l1BaseFeeScalar": "0x44d",
      "l1BlobBaseFee": "0x1",
      "l1BlobBaseFeeScalar": "0xa118b",
      "l1Fee": "0x4a83f2453",
      "l1GasPrice": "0x2a4cc2f37",
      "l1GasUsed": "0x640"
    },
    {
      "status": "0x1",
      "cumulativeGasUsed": "0x53e8eb",
      "logs": [
        {
          "address": "0xa4253e7c13525287c56550b8708100f93e60509f",
          "topics": [
            "0x8c5be1e5ebec7d5bd14f71427d1e84f3dd0314c0f7b2291e5b200ac8c7c3b925",
            "0x000000000000000000000000bef88420f20ab95e5f7ea851f6008dbbee97dc26",
            "0x000000000000000000000000fcce8e829babce82445f4194f688f2fdc1a6492d"
          ],
          "data": "0x0000000000000000000000000000000000000000000000000000000001e84800",
          "blockHash": "0x5c2dfb69dc23ea59a04949a95282be54f62f06baa33610cf6744d027c45e6610",
          "blockNumber": "0x16d7bc8",
          "transactionHash": "0x6ab90a6d0b1ec9c390015b2a529e4e4241e3dca49f96760bf1b097d851bc77fb",
          "transactionIndex": "0x15",
          "logIndex": "0x80",
          "removed": false
        }
      ],
      "logsBloom": "0x00020000000000800000000000000000000000000000200000080000000000000000000000000000000000000000001000000000000080000000000000200000000000000000000040000000000000000000000000000000000000000000000000000000000000000000000000000000000000000000000000000000000000000000000000000000000000000000000000000000000000000100000000000000020000000000000000000000000000000000000000000000000000000000000000000000000000000000000000000000000000000000000000000000000000000010000000000000000000000000000000000000000000000000000800000000",
      "type": "0x2",
      "transactionHash": "0x6ab90a6d0b1ec9c390015b2a529e4e4241e3dca49f96760bf1b097d851bc77fb",
      "transactionIndex": "0x15",
      "blockHash": "0x5c2dfb69dc23ea59a04949a95282be54f62f06baa33610cf6744d027c45e6610",
      "blockNumber": "0x16d7bc8",
      "gasUsed": "0xb4ff",
      "effectiveGasPrice": "0xd845b",
      "from": "0xbef88420f20ab95e5f7ea851f6008dbbee97dc26",
      "to": "0xa4253e7c13525287c56550b8708100f93e60509f",
      "contractAddress": null,
      "l1BaseFeeScalar": "0x44d",
      "l1BlobBaseFee": "0x1",
      "l1BlobBaseFeeScalar": "0xa118b",
      "l1Fee": "0x4ed2ce9c4",
      "l1GasPrice": "0x2cbed15a5",
      "l1GasUsed": "0x640"
    },
    {
      "status": "0x1",
      "cumulativeGasUsed": "0x1ccc8b",
      "logs": [
        {
          "address": "0xa4253e7c13525287c56550b8708100f93e60509f",
          "topics": [
            "0xddf252ad1be2c89b69c2b068fc378daa952ba7f163c4a11628f55a4df523b3ef",
            "0x000000000000000000000000bef88420f20ab95e5f7ea851f6008dbbee97dc26",
            "0x000000000000000000000000fcce8e829babce82445f4194f688f2fdc1a6492d"
          ],
          "data": "0x0000000000000000000000000000000000000000000000000000000001e84800",
          "blockHash": "0x01fa44c3a6160fc8b9daaa5233d5b04ee76679e11f0e6449fdfdf72c99d79b50",
          "blockNumber": "0x16d7bca",
          "transactionHash": "0x7627596cedae91b6360d27460a7d8334e52f13f20a9d1b754c0c3e64f3665a0f",
          "transactionIndex": "0x7",
          "logIndex": "0x19",
          "removed": false
        },
        {
          "address": "0xfcce8e829babce82445f4194f688f2fdc1a6492d",
          "topics": [
            "0x2bdfae17037529a2e65ec70b13ee84e9aa324112f93c1598ff55cafc6b84df08",
            "0x000000000000000000000000bef88420f20ab95e5f7ea851f6008dbbee97dc26"
          ],
          "data": "0x000000000000000000000000000000000000000000000000000000000000000400000000000000000000000000000000000000000000000000000000000000080000000000000000000000000000000000000000000000000000000001e84800",
          "blockHash": "0x01fa44c3a6160fc8b9daaa5233d5b04ee76679e11f0e6449fdfdf72c99d79b50",
          "blockNumber": "0x16d7bca",
          "transactionHash": "0x7627596cedae91b6360d27460a7d8334e52f13f20a9d1b754c0c3e64f3665a0f",
          "transactionIndex": "0x7",
          "logIndex": "0x1a",
          "removed": false
        }
      ],
      "logsBloom": "0x00020100000000800000000000000000000000000000200000880000000000000000000000000000000000000000001000000000000080000000000000000000000000000000000040000008000000000040000000000000000000000000000000000000000000000000000000000000000000000000000000000010000000000000000000000000080000000000000000000000000000000100000040000000000000000000000000000000000000000000000000000000000000000000000000008002000000000000000000000000000000000000000000000000000000000000000000000000000000000000000000000000000000000000000800000000",
      "type": "0x2",
      "transactionHash": "0x7627596cedae91b6360d27460a7d8334e52f13f20a9d1b754c0c3e64f3665a0f",
      "transactionIndex": "0x7",
      "blockHash": "0x01fa44c3a6160fc8b9daaa5233d5b04ee76679e11f0e6449fdfdf72c99d79b50",
      "blockNumber": "0x16d7bca",
      "gasUsed": "0x2c4f6",
      "effectiveGasPrice": "0xd845d",
      "from": "0xbef88420f20ab95e5f7ea851f6008dbbee97dc26",
      "to": "0xfcce8e829babce82445f4194f688f2fdc1a6492d",
      "contractAddress": null,
      "l1BaseFeeScalar": "0x44d",
      "l1BlobBaseFee": "0x1",
      "l1BlobBaseFeeScalar": "0xa118b",
      "l1Fee": "0x4ed2ce9c4",
      "l1GasPrice": "0x2cbed15a5",
      "l1GasUsed": "0x640"
    },
    {
      "status": "0x1",
      "cumulativeGasUsed": "0xae1f81",
      "logs": [
        {
          "address": "0xa4253e7c13525287c56550b8708100f93e60509f",
          "topics": [
            "0x8c5be1e5ebec7d5bd14f71427d1e84f3dd0314c0f7b2291e5b200ac8c7c3b925",
            "0x00000000000000000000000019f19e10e6cb2ea89dae8a40635f7a0e10aeac3d",
            "0x000000000000000000000000fcce8e829babce82445f4194f688f2fdc1a6492d"
          ],
          "data": "0x0000000000000000000000000000000000000000000000000000000002faf080",
          "blockHash": "0x25ecac05bd0830418b8717bbf55bddec92bbbe45e356f8ef5f945c2c527cb7d7",
          "blockNumber": "0x16d7bcc",
          "transactionHash": "0x06557466c86b49413a21d2b15e08dee32adffa7fc81b47767967b39577f9d734",
          "transactionIndex": "0x25",
          "logIndex": "0x10c",
          "removed": false
        }
      ],
      "logsBloom": "0x00000000000000800000000000000000000000000000200000080000000000000000000000000000000000000000001000000000000000000000000000200000000000000000000040000080000000000000000000000000000000000000000000000000000000000000000000000000000000000000000000000000000000000000000000000000000000000000000000000000000000000000000000000000020000000000000000080000000000000000000000000000000000000000200000000000000000000000000000000000000000000000000000000000000000000010000000000000000000000000000000000000000000000000000800000000",
      "type": "0x2",
      "transactionHash": "0x06557466c86b49413a21d2b15e08dee32adffa7fc81b47767967b39577f9d734",
      "transactionIndex": "0x25",
      "blockHash": "0x25ecac05bd0830418b8717bbf55bddec92bbbe45e356f8ef5f945c2c527cb7d7",
      "blockNumber": "0x16d7bcc",
      "gasUsed": "0xb50b",
      "effectiveGasPrice": "0xd845d",
      "from": "0x19f19e10e6cb2ea89dae8a40635f7a0e10aeac3d",
      "to": "0xa4253e7c13525287c56550b8708100f93e60509f",
      "contractAddress": null,
      "l1BaseFeeScalar": "0x44d",
      "l1BlobBaseFee": "0x1",
      "l1BlobBaseFeeScalar": "0xa118b",
      "l1Fee": "0x4ed2ce9c4",
      "l1GasPrice": "0x2cbed15a5",
      "l1GasUsed": "0x640"
    },
    {
      "status": "0x1",
      "cumulativeGasUsed": "0x1534452",
      "logs": [
        {
          "address": "0xa4253e7c13525287c56550b8708100f93e60509f",
          "topics": [
            "0xddf252ad1be2c89b69c2b068fc378daa952ba7f163c4a11628f55a4df523b3ef",
            "0x00000000000000000000000019f19e10e6cb2ea89dae8a40635f7a0e10aeac3d",
            "0x000000000000000000000000fcce8e829babce82445f4194f688f2fdc1a6492d"
          ],
          "data": "0x0000000000000000000000000000000000000000000000000000000002faf080",
          "blockHash": "0x3c3d1d8c4343fb000cb4523f50c5b0abe4d8b9adffb055d55f2a505558521c87",
          "blockNumber": "0x16d7bcd",
          "transactionHash": "0x1733b937f9003fb68bd314cea69923355b573741ce9d799fdd2e6911551dfb30",
          "transactionIndex": "0x27",
          "logIndex": "0x24e",
          "removed": false
        },
        {
          "address": "0xfcce8e829babce82445f4194f688f2fdc1a6492d",
          "topics": [
            "0x2bdfae17037529a2e65ec70b13ee84e9aa324112f93c1598ff55cafc6b84df08",
            "0x00000000000000000000000019f19e10e6cb2ea89dae8a40635f7a0e10aeac3d"
          ],
          "data": "0x0000000000000000000000000000000000000000000000000000000000000005000000000000000000000000000000000000000000000000000000000000000a0000000000000000000000000000000000000000000000000000000002faf080",
          "blockHash": "0x3c3d1d8c4343fb000cb4523f50c5b0abe4d8b9adffb055d55f2a505558521c87",
          "blockNumber": "0x16d7bcd",
          "transactionHash": "0x1733b937f9003fb68bd314cea69923355b573741ce9d799fdd2e6911551dfb30",
          "transactionIndex": "0x27",
          "logIndex": "0x24f",
          "removed": false
        }
      ],
      "logsBloom": "0x00000100000000800000000000000000000000000000200000880000000000000000000000000000000000000000001000000000000000000000000000000000000000000000000040000088000000000040000000000000000000000000000000000000000000000000000000000000000000000000000000000010000000000000000000000000080000000000000000000000000000000000000040000000000000000000000000080000000000000000000000000000000000000000200000008002000000000000000000000000000000000000000000000000000000000000000000000000000000000000000000000000000000000000000800000000",
      "type": "0x2",
      "transactionHash": "0x1733b937f9003fb68bd314cea69923355b573741ce9d799fdd2e6911551dfb30",
      "transactionIndex": "0x27",
      "blockHash": "0x3c3d1d8c4343fb000cb4523f50c5b0abe4d8b9adffb055d55f2a505558521c87",
      "blockNumber": "0x16d7bcd",
      "gasUsed": "0x2ceac",
      "effectiveGasPrice": "0xd845d",
      "from": "0x19f19e10e6cb2ea89dae8a40635f7a0e10aeac3d",
      "to": "0xfcce8e829babce82445f4194f688f2fdc1a6492d",
      "contractAddress": null,
      "l1BaseFeeScalar": "0x44d",
      "l1BlobBaseFee": "0x1",
      "l1BlobBaseFeeScalar": "0xa118b",
      "l1Fee": "0x4ed2ce9c4",
      "l1GasPrice": "0x2cbed15a5",
      "l1GasUsed": "0x640"
    }
  ],
  "libraries": [],
  "pending": [],
  "returns": {},
  "timestamp": 1743672956,
  "chain": 84532,
  "commit": "fee831d"
}