{
  "transactions": [
    {
      "hash": "0xc27b1c8a276a8b27212b813ac2a01b6aeb4065012addad7688fafc61f2513c08",
      "transactionType": "CALL",
      "contractName": null,
      "contractAddress": "0xa4253e7c13525287c56550b8708100f93e60509f",
      "function": "transfer(address,uint256)",
      "arguments": [
        "0xA0084dE38Eee190c6f1d4d83B20B9adcc4998799",
        "3000000"
      ],
      "transaction": {
        "from": "0xbe2680dc1752109b4344dbeb1072fd8cd880e54b",
        "to": "0xa4253e7c13525287c56550b8708100f93e60509f",
        "value": "0x0",
        "input": "0xa9059cbb000000000000000000000000a0084de38eee190c6f1d4d83b20b9adcc499879900000000000000000000000000000000000000000000000000000000002dc6c0",
        "nonce": "0x2d3",
        "chainId": "0x14a34"
      },
      "additionalContracts": [],
      "isFixedGasLimit": false
    },
    {
      "hash": "0xa9ec8d536d288346a9d4e6b69a8bdf1c773acb4acdfa2443c54161d31a7a2f05",
      "transactionType": "CALL",
      "contractName": null,
      "contractAddress": "0xa0084de38eee190c6f1d4d83b20b9adcc4998799",
      "function": null,
      "arguments": null,
      "transaction": {
        "from": "0xbe2680dc1752109b4344dbeb1072fd8cd880e54b",
        "to": "0xa0084de38eee190c6f1d4d83b20b9adcc4998799",
        "value": "0x9184e72a000",
        "input": "0x",
        "nonce": "0x2d4",
        "chainId": "0x14a34"
      },
      "additionalContracts": [],
      "isFixedGasLimit": false
    },
    {
      "hash": "0x294814d32b3556d354c9252b1bf1dce8b23e309a101ef6a19a344c8fd8127f29",
      "transactionType": "CALL",
      "contractName": null,
      "contractAddress": "0xa4253e7c13525287c56550b8708100f93e60509f",
      "function": "transfer(address,uint256)",
      "arguments": [
        "0x070806B631A667a3Da88177d326adB27fde834Db",
        "9000000"
      ],
      "transaction": {
        "from": "0xbe2680dc1752109b4344dbeb1072fd8cd880e54b",
        "to": "0xa4253e7c13525287c56550b8708100f93e60509f",
        "value": "0x0",
        "input": "0xa9059cbb000000000000000000000000070806b631a667a3da88177d326adb27fde834db0000000000000000000000000000000000000000000000000000000000895440",
        "nonce": "0x2d5",
        "chainId": "0x14a34"
      },
      "additionalContracts": [],
      "isFixedGasLimit": false
    },
    {
      "hash": "0xf7ded228b6424210ce81dd66536dd540298b98fc2ecef8e16c7a264511409ae4",
      "transactionType": "CALL",
      "contractName": null,
      "contractAddress": "0x070806b631a667a3da88177d326adb27fde834db",
      "function": null,
      "arguments": null,
      "transaction": {
        "from": "0xbe2680dc1752109b4344dbeb1072fd8cd880e54b",
        "to": "0x070806b631a667a3da88177d326adb27fde834db",
        "value": "0x9184e72a000",
        "input": "0x",
        "nonce": "0x2d6",
        "chainId": "0x14a34"
      },
      "additionalContracts": [],
      "isFixedGasLimit": false
    },
    {
      "hash": "0x6da641437c67c675dbcb5097ecd1f26df0660ac23015664e74a805df57913b51",
      "transactionType": "CALL",
      "contractName": null,
      "contractAddress": "0xa4253e7c13525287c56550b8708100f93e60509f",
      "function": "transfer(address,uint256)",
      "arguments": [
        "0x546da7C993D811d067f4C102B4281fE3c2AF6A8d",
        "19000000"
      ],
      "transaction": {
        "from": "0xbe2680dc1752109b4344dbeb1072fd8cd880e54b",
        "to": "0xa4253e7c13525287c56550b8708100f93e60509f",
        "value": "0x0",
        "input": "0xa9059cbb000000000000000000000000546da7c993d811d067f4c102b4281fe3c2af6a8d000000000000000000000000000000000000000000000000000000000121eac0",
        "nonce": "0x2d7",
        "chainId": "0x14a34"
      },
      "additionalContracts": [],
      "isFixedGasLimit": false
    },
    {
      "hash": "0xb350614755799f61b92ea189cf2b02a1e1af0cdc309926ad5c104fdda3bd9f09",
      "transactionType": "CALL",
      "contractName": null,
      "contractAddress": "0x546da7c993d811d067f4c102b4281fe3c2af6a8d",
      "function": null,
      "arguments": null,
      "transaction": {
        "from": "0xbe2680dc1752109b4344dbeb1072fd8cd880e54b",
        "to": "0x546da7c993d811d067f4c102b4281fe3c2af6a8d",
        "value": "0x9184e72a000",
        "input": "0x",
        "nonce": "0x2d8",
        "chainId": "0x14a34"
      },
      "additionalContracts": [],
      "isFixedGasLimit": false
    },
    {
      "hash": "0x6d0a0dcb84f8c63bc32220010768cfe36da6176cd0342b597721258218c7604d",
      "transactionType": "CALL",
      "contractName": null,
      "contractAddress": "0xa4253e7c13525287c56550b8708100f93e60509f",
      "function": "transfer(address,uint256)",
      "arguments": [
        "0xBef88420F20AB95e5F7ea851F6008dbbeE97dc26",
        "33000000"
      ],
      "transaction": {
        "from": "0xbe2680dc1752109b4344dbeb1072fd8cd880e54b",
        "to": "0xa4253e7c13525287c56550b8708100f93e60509f",
        "value": "0x0",
        "input": "0xa9059cbb000000000000000000000000bef88420f20ab95e5f7ea851f6008dbbee97dc260000000000000000000000000000000000000000000000000000000001f78a40",
        "nonce": "0x2d9",
        "chainId": "0x14a34"
      },
      "additionalContracts": [],
      "isFixedGasLimit": false
    },
    {
      "hash": "0x1f6de8938dbedd1da369ef3a670ff266f8375f7df1e83faa288745fb3682bcc3",
      "transactionType": "CALL",
      "contractName": null,
      "contractAddress": "0xbef88420f20ab95e5f7ea851f6008dbbee97dc26",
      "function": null,
      "arguments": null,
      "transaction": {
        "from": "0xbe2680dc1752109b4344dbeb1072fd8cd880e54b",
        "to": "0xbef88420f20ab95e5f7ea851f6008dbbee97dc26",
        "value": "0x9184e72a000",
        "input": "0x",
        "nonce": "0x2da",
        "chainId": "0x14a34"
      },
      "additionalContracts": [],
      "isFixedGasLimit": false
    },
    {
      "hash": "0xcf7f0bc93be3741c99f4e8189beadb5113d010ccce5cab7d8a818b3e144e0d48",
      "transactionType": "CALL",
      "contractName": null,
      "contractAddress": "0xa4253e7c13525287c56550b8708100f93e60509f",
      "function": "transfer(address,uint256)",
      "arguments": [
        "0x19f19e10E6CB2ea89dAe8a40635f7A0E10AEaC3D",
        "51000000"
      ],
      "transaction": {
        "from": "0xbe2680dc1752109b4344dbeb1072fd8cd880e54b",
        "to": "0xa4253e7c13525287c56550b8708100f93e60509f",
        "value": "0x0",
        "input": "0xa9059cbb00000000000000000000000019f19e10e6cb2ea89dae8a40635f7a0e10aeac3d00000000000000000000000000000000000000000000000000000000030a32c0",
        "nonce": "0x2db",
        "chainId": "0x14a34"
      },
      "additionalContracts": [],
      "isFixedGasLimit": false
    },
    {
      "hash": "0x51e5381288a95c683dd60f522c1155ef6ce3b57456502c7698ac3c978633257c",
      "transactionType": "CALL",
      "contractName": null,
      "contractAddress": "0x19f19e10e6cb2ea89dae8a40635f7a0e10aeac3d",
      "function": null,
      "arguments": null,
      "transaction": {
        "from": "0xbe2680dc1752109b4344dbeb1072fd8cd880e54b",
        "to": "0x19f19e10e6cb2ea89dae8a40635f7a0e10aeac3d",
        "value": "0x9184e72a000",
        "input": "0x",
        "nonce": "0x2dc",
        "chainId": "0x14a34"
      },
      "additionalContracts": [],
      "isFixedGasLimit": false
    },
    {
      "hash": "0xabe13727935eadfa6e7494caa4e56530bde85f06b279d3161e869cf861cb6a3d",
      "transactionType": "CALL",
      "contractName": null,
      "contractAddress": "0xa4253e7c13525287c56550b8708100f93e60509f",
      "function": "approve(address,uint256)",
      "arguments": [
        "0x9aa2E7FFEE192DcBdb40c9D75917d0D33501e5c6",
        "2000000"
      ],
      "transaction": {
        "from": "0xa0084de38eee190c6f1d4d83b20b9adcc4998799",
        "to": "0xa4253e7c13525287c56550b8708100f93e60509f",
        "value": "0x0",
        "input": "0x095ea7b30000000000000000000000009aa2e7ffee192dcbdb40c9d75917d0d33501e5c600000000000000000000000000000000000000000000000000000000001e8480",
        "nonce": "0x6",
        "chainId": "0x14a34"
      },
      "additionalContracts": [],
      "isFixedGasLimit": false
    },
    {
      "hash": "0x813738d207f626e667ffb685be8e674398f52f2ae6b7c5544087c449c5d8035d",
      "transactionType": "CALL",
      "contractName": null,
      "contractAddress": "0x9aa2e7ffee192dcbdb40c9d75917d0d33501e5c6",
      "function": "createSubscription(uint256,uint256)",
      "arguments": [
        "1",
        "2"
      ],
      "transaction": {
        "from": "0xa0084de38eee190c6f1d4d83b20b9adcc4998799",
        "to": "0x9aa2e7ffee192dcbdb40c9d75917d0d33501e5c6",
        "value": "0x0",
        "input": "0xa71b6cd000000000000000000000000000000000000000000000000000000000000000010000000000000000000000000000000000000000000000000000000000000002",
        "nonce": "0x7",
        "chainId": "0x14a34"
      },
      "additionalContracts": [],
      "isFixedGasLimit": false
    },
    {
      "hash": "0x2b8f6cf7dc8800c1fc56ecfb1e738272b3003d3df047ada984b4583d5b35133d",
      "transactionType": "CALL",
      "contractName": null,
      "contractAddress": "0xa4253e7c13525287c56550b8708100f93e60509f",
      "function": "approve(address,uint256)",
      "arguments": [
        "0x9aa2E7FFEE192DcBdb40c9D75917d0D33501e5c6",
        "8000000"
      ],
      "transaction": {
        "from": "0x070806b631a667a3da88177d326adb27fde834db",
        "to": "0xa4253e7c13525287c56550b8708100f93e60509f",
        "value": "0x0",
        "input": "0x095ea7b30000000000000000000000009aa2e7ffee192dcbdb40c9d75917d0d33501e5c600000000000000000000000000000000000000000000000000000000007a1200",
        "nonce": "0x6",
        "chainId": "0x14a34"
      },
      "additionalContracts": [],
      "isFixedGasLimit": false
    },
    {
      "hash": "0x12e93450e2999ba70034c71c86dfff5322d09aa9826ee88677ad08ebf87b265a",
      "transactionType": "CALL",
      "contractName": null,
      "contractAddress": "0x9aa2e7ffee192dcbdb40c9d75917d0d33501e5c6",
      "function": "createSubscription(uint256,uint256)",
      "arguments": [
        "2",
        "4"
      ],
      "transaction": {
        "from": "0x070806b631a667a3da88177d326adb27fde834db",
        "to": "0x9aa2e7ffee192dcbdb40c9d75917d0d33501e5c6",
        "value": "0x0",
        "input": "0xa71b6cd000000000000000000000000000000000000000000000000000000000000000020000000000000000000000000000000000000000000000000000000000000004",
        "nonce": "0x7",
        "chainId": "0x14a34"
      },
      "additionalContracts": [],
      "isFixedGasLimit": false
    },
    {
      "hash": "0x84d861f5599e6b1255c72f4e35490b11293d19c60c0aff9f6f29279cbf551c31",
      "transactionType": "CALL",
      "contractName": null,
      "contractAddress": "0xa4253e7c13525287c56550b8708100f93e60509f",
      "function": "approve(address,uint256)",
      "arguments": [
        "0x9aa2E7FFEE192DcBdb40c9D75917d0D33501e5c6",
        "18000000"
      ],
      "transaction": {
        "from": "0x546da7c993d811d067f4c102b4281fe3c2af6a8d",
        "to": "0xa4253e7c13525287c56550b8708100f93e60509f",
        "value": "0x0",
        "input": "0x095ea7b30000000000000000000000009aa2e7ffee192dcbdb40c9d75917d0d33501e5c6000000000000000000000000000000000000000000000000000000000112a880",
        "nonce": "0x6",
        "chainId": "0x14a34"
      },
      "additionalContracts": [],
      "isFixedGasLimit": false
    },
    {
      "hash": "0x38104499fe96f77f6ac3588fc41185df2ff1429f2860c8d269a9c6505bee7a21",
      "transactionType": "CALL",
      "contractName": null,
      "contractAddress": "0x9aa2e7ffee192dcbdb40c9d75917d0d33501e5c6",
      "function": "createSubscription(uint256,uint256)",
      "arguments": [
        "3",
        "6"
      ],
      "transaction": {
        "from": "0x546da7c993d811d067f4c102b4281fe3c2af6a8d",
        "to": "0x9aa2e7ffee192dcbdb40c9d75917d0d33501e5c6",
        "value": "0x0",
        "input": "0xa71b6cd000000000000000000000000000000000000000000000000000000000000000030000000000000000000000000000000000000000000000000000000000000006",
        "nonce": "0x7",
        "chainId": "0x14a34"
      },
      "additionalContracts": [],
      "isFixedGasLimit": false
    },
    {
      "hash": "0x29fe488f69448e2557c8f0968c45bf446dc06304913757e43453231f1a1b741e",
      "transactionType": "CALL",
      "contractName": null,
      "contractAddress": "0xa4253e7c13525287c56550b8708100f93e60509f",
      "function": "approve(address,uint256)",
      "arguments": [
        "0x9aa2E7FFEE192DcBdb40c9D75917d0D33501e5c6",
        "32000000"
      ],
      "transaction": {
        "from": "0xbef88420f20ab95e5f7ea851f6008dbbee97dc26",
        "to": "0xa4253e7c13525287c56550b8708100f93e60509f",
        "value": "0x0",
        "input": "0x095ea7b30000000000000000000000009aa2e7ffee192dcbdb40c9d75917d0d33501e5c60000000000000000000000000000000000000000000000000000000001e84800",
        "nonce": "0x6",
        "chainId": "0x14a34"
      },
      "additionalContracts": [],
      "isFixedGasLimit": false
    },
    {
      "hash": "0x27014090cbea0d0e239ea8908aa4a136927f6d401eeb013224e8b923343c27a6",
      "transactionType": "CALL",
      "contractName": null,
      "contractAddress": "0x9aa2e7ffee192dcbdb40c9d75917d0d33501e5c6",
      "function": "createSubscription(uint256,uint256)",
      "arguments": [
        "4",
        "8"
      ],
      "transaction": {
        "from": "0xbef88420f20ab95e5f7ea851f6008dbbee97dc26",
        "to": "0x9aa2e7ffee192dcbdb40c9d75917d0d33501e5c6",
        "value": "0x0",
        "input": "0xa71b6cd000000000000000000000000000000000000000000000000000000000000000040000000000000000000000000000000000000000000000000000000000000008",
        "nonce": "0x7",
        "chainId": "0x14a34"
      },
      "additionalContracts": [],
      "isFixedGasLimit": false
    },
    {
      "hash": "0x00e9bf759eabea7d42e77cf79d46277e54aa437659a76e4adc6f0895d6803a0f",
      "transactionType": "CALL",
      "contractName": null,
      "contractAddress": "0xa4253e7c13525287c56550b8708100f93e60509f",
      "function": "approve(address,uint256)",
      "arguments": [
        "0x9aa2E7FFEE192DcBdb40c9D75917d0D33501e5c6",
        "50000000"
      ],
      "transaction": {
        "from": "0x19f19e10e6cb2ea89dae8a40635f7a0e10aeac3d",
        "to": "0xa4253e7c13525287c56550b8708100f93e60509f",
        "value": "0x0",
        "input": "0x095ea7b30000000000000000000000009aa2e7ffee192dcbdb40c9d75917d0d33501e5c60000000000000000000000000000000000000000000000000000000002faf080",
        "nonce": "0x6",
        "chainId": "0x14a34"
      },
      "additionalContracts": [],
      "isFixedGasLimit": false
    },
    {
      "hash": "0x457fb7fc5a777dcca545391a53908fa9b36d2a38c58906cdc247736c7adb5b2c",
      "transactionType": "CALL",
      "contractName": null,
      "contractAddress": "0x9aa2e7ffee192dcbdb40c9d75917d0d33501e5c6",
      "function": "createSubscription(uint256,uint256)",
      "arguments": [
        "5",
        "10"
      ],
      "transaction": {
        "from": "0x19f19e10e6cb2ea89dae8a40635f7a0e10aeac3d",
        "to": "0x9aa2e7ffee192dcbdb40c9d75917d0d33501e5c6",
        "value": "0x0",
        "input": "0xa71b6cd00000000000000000000000000000000000000000000000000000000000000005000000000000000000000000000000000000000000000000000000000000000a",
        "nonce": "0x7",
        "chainId": "0x14a34"
      },
      "additionalContracts": [],
      "isFixedGasLimit": false
    },
    {
      "hash": null,
      "transactionType": "CALL",
      "contractName": null,
      "contractAddress": "0x9aa2e7ffee192dcbdb40c9d75917d0d33501e5c6",
      "function": "processDailyBatch(uint256)",
      "arguments": [
        "0"
      ],
      "transaction": {
        "from": "0xbe2680dc1752109b4344dbeb1072fd8cd880e54b",
        "to": "0x9aa2e7ffee192dcbdb40c9d75917d0d33501e5c6",
        "value": "0x0",
        "input": "0x4c47c3ed0000000000000000000000000000000000000000000000000000000000000000",
        "nonce": "0x2dd",
        "chainId": "0x14a34"
      },
      "additionalContracts": [],
      "isFixedGasLimit": false
    }
  ],
  "receipts": [
    {
      "status": "0x1",
      "cumulativeGasUsed": "0x22e9f9",
      "logs": [
        {
          "address": "0xa4253e7c13525287c56550b8708100f93e60509f",
          "topics": [
            "0xddf252ad1be2c89b69c2b068fc378daa952ba7f163c4a11628f55a4df523b3ef",
            "0x000000000000000000000000be2680dc1752109b4344dbeb1072fd8cd880e54b",
            "0x000000000000000000000000a0084de38eee190c6f1d4d83b20b9adcc4998799"
          ],
          "data": "0x00000000000000000000000000000000000000000000000000000000002dc6c0",
          "blockHash": "0x6c33b7b00af4091984396096dce43a89d0a0f49d01a7ea506e1438174ad0322a",
          "blockNumber": "0x16d7f1f",
          "transactionHash": "0xc27b1c8a276a8b27212b813ac2a01b6aeb4065012addad7688fafc61f2513c08",
          "transactionIndex": "0x8",
          "logIndex": "0x2a",
          "removed": false
        }
      ],
      "logsBloom": "0x00000000000000800000080000000000000000000000200000000000000000000000000000000000000000000000200000000000000000000020000000000000000000000000000040000008000000000000000000000000000000000000000000000000000000000000000000000000000000000000000000000010000000000000000000000000000000000000000000000000000000000000000000000000000000000000000000000000000000000000000000000000000000000000000000000042000000000000000000000000000000000000000400000000000000000000000000000000000000000000000000000000000000000000000000008000",
      "type": "0x2",
      "transactionHash": "0xc27b1c8a276a8b27212b813ac2a01b6aeb4065012addad7688fafc61f2513c08",
      "transactionIndex": "0x8",
      "blockHash": "0x6c33b7b00af4091984396096dce43a89d0a0f49d01a7ea506e1438174ad0322a",
      "blockNumber": "0x16d7f1f",
      "gasUsed": "0x86b4",
      "effectiveGasPrice": "0xf4480",
      "from": "0xbe2680dc1752109b4344dbeb1072fd8cd880e54b",
      "to": "0xa4253e7c13525287c56550b8708100f93e60509f",
      "contractAddress": null,
      "l1BaseFeeScalar": "0x44d",
      "l1BlobBaseFee": "0x1",
      "l1BlobBaseFeeScalar": "0xa118b",
      "l1Fee": "0x35cb60508",
      "l1GasPrice": "0x1e8989e7f",
      "l1GasUsed": "0x640"
    },
    {
      "status": "0x1",
      "cumulativeGasUsed": "0xc9bdb",
      "logs": [],
      "logsBloom": "0x00000000000000000000000000000000000000000000000000000000000000000000000000000000000000000000000000000000000000000000000000000000000000000000000000000000000000000000000000000000000000000000000000000000000000000000000000000000000000000000000000000000000000000000000000000000000000000000000000000000000000000000000000000000000000000000000000000000000000000000000000000000000000000000000000000000000000000000000000000000000000000000000000000000000000000000000000000000000000000000000000000000000000000000000000000000",
      "type": "0x2",
      "transactionHash": "0xa9ec8d536d288346a9d4e6b69a8bdf1c773acb4acdfa2443c54161d31a7a2f05",
      "transactionIndex": "0x4",
      "blockHash": "0x3e2bb986b0906d9af6d82267bec34e7231360d5725a7653a66cfd1c1e33bad6f",
      "blockNumber": "0x16d7f21",
      "gasUsed": "0x5208",
      "effectiveGasPrice": "0xf4481",
      "from": "0xbe2680dc1752109b4344dbeb1072fd8cd880e54b",
      "to": "0xa0084de38eee190c6f1d4d83b20b9adcc4998799",
      "contractAddress": null,
      "l1BaseFeeScalar": "0x44d",
      "l1BlobBaseFee": "0x1",
      "l1BlobBaseFeeScalar": "0xa118b",
      "l1Fee": "0x34e58b518",
      "l1GasPrice": "0x1e0712287",
      "l1GasUsed": "0x640"
    },
    {
      "status": "0x1",
      "cumulativeGasUsed": "0x5943f9",
      "logs": [
        {
          "address": "0xa4253e7c13525287c56550b8708100f93e60509f",
          "topics": [
            "0xddf252ad1be2c89b69c2b068fc378daa952ba7f163c4a11628f55a4df523b3ef",
            "0x000000000000000000000000be2680dc1752109b4344dbeb1072fd8cd880e54b",
            "0x000000000000000000000000070806b631a667a3da88177d326adb27fde834db"
          ],
          "data": "0x0000000000000000000000000000000000000000000000000000000000895440",
          "blockHash": "0x339c4cced15acd11b44e1630a0663bfcffa256a7419012a6b36f20af0eff68f7",
          "blockNumber": "0x16d7f22",
          "transactionHash": "0x294814d32b3556d354c9252b1bf1dce8b23e309a101ef6a19a344c8fd8127f29",
          "transactionIndex": "0x15",
          "logIndex": "0x81",
          "removed": false
        }
      ],
      "logsBloom": "0x00000000000000800000080000040000000000000000200000000000000000000000000000000000000000000000000000000000000000000000000000000000000000000000000040000008000000000000000000000000000000000000000000000000000000000000000000000000000000000000000000000010000000000000000000000000000000000000000000000000000000000000000000000040000000000000000000000000000000000000000000000000000000000000000000000002000000000000000000000000000000000000000400000000000000000000000000000000000000000004000000000000000000000000000000008000",
      "type": "0x2",
      "transactionHash": "0x294814d32b3556d354c9252b1bf1dce8b23e309a101ef6a19a344c8fd8127f29",
      "transactionIndex": "0x15",
      "blockHash": "0x339c4cced15acd11b44e1630a0663bfcffa256a7419012a6b36f20af0eff68f7",
      "blockNumber": "0x16d7f22",
      "gasUsed": "0x86b4",
      "effectiveGasPrice": "0xf4481",
      "from": "0xbe2680dc1752109b4344dbeb1072fd8cd880e54b",
      "to": "0xa4253e7c13525287c56550b8708100f93e60509f",
      "contractAddress": null,
      "l1BaseFeeScalar": "0x44d",
      "l1BlobBaseFee": "0x1",
      "l1BlobBaseFeeScalar": "0xa118b",
      "l1Fee": "0x34e58b518",
      "l1GasPrice": "0x1e0712287",
      "l1GasUsed": "0x640"
    },
    {
      "status": "0x1",
      "cumulativeGasUsed": "0x8a3e50",
      "logs": [],
      "logsBloom": "0x00000000000000000000000000000000000000000000000000000000000000000000000000000000000000000000000000000000000000000000000000000000000000000000000000000000000000000000000000000000000000000000000000000000000000000000000000000000000000000000000000000000000000000000000000000000000000000000000000000000000000000000000000000000000000000000000000000000000000000000000000000000000000000000000000000000000000000000000000000000000000000000000000000000000000000000000000000000000000000000000000000000000000000000000000000000",
      "type": "0x2",
      "transactionHash": "0xf7ded228b6424210ce81dd66536dd540298b98fc2ecef8e16c7a264511409ae4",
      "transactionIndex": "0x22",
      "blockHash": "0xbe2500f51428c515da7dc9134ea39b10c7f23230a1b42f42a8b8bdba6d47ca58",
      "blockNumber": "0x16d7f24",
      "gasUsed": "0x5208",
      "effectiveGasPrice": "0xf447f",
      "from": "0xbe2680dc1752109b4344dbeb1072fd8cd880e54b",
      "to": "0x070806b631a667a3da88177d326adb27fde834db",
      "contractAddress": null,
      "l1BaseFeeScalar": "0x44d",
      "l1BlobBaseFee": "0x1",
      "l1BlobBaseFeeScalar": "0xa118b",
      "l1Fee": "0x34e58b518",
      "l1GasPrice": "0x1e0712287",
      "l1GasUsed": "0x640"
    },
    {
      "status": "0x1",
      "cumulativeGasUsed": "0x30404f",
      "logs": [
        {
          "address": "0xa4253e7c13525287c56550b8708100f93e60509f",
          "topics": [
            "0xddf252ad1be2c89b69c2b068fc378daa952ba7f163c4a11628f55a4df523b3ef",
            "0x000000000000000000000000be2680dc1752109b4344dbeb1072fd8cd880e54b",
            "0x000000000000000000000000546da7c993d811d067f4c102b4281fe3c2af6a8d"
          ],
          "data": "0x000000000000000000000000000000000000000000000000000000000121eac0",
          "blockHash": "0x130e736d8d181747dddb869c6b8aeb16ea0ef5e2279c26b93d8c50cba6ba1a0b",
          "blockNumber": "0x16d7f26",
          "transactionHash": "0x6da641437c67c675dbcb5097ecd1f26df0660ac23015664e74a805df57913b51",
          "transactionIndex": "0xb",
          "logIndex": "0x48",
          "removed": false
        }
      ],
      "logsBloom": "0x00000000000000800000080000000000000020000400200000000000000000000000000000000000000000000000000000000000000000000000000000000000000000000000000040000008000000000000000000000000000000000000000000000000000000000000000000000000000000000000000000000010000000000000200000000000000000000000000000000000000000000000000000000000000000000000000000000000000000000000000000000000000000000000000000000002000000000000000000000000000000000000000400000000000000000000000000000000000000000000000000000000000000000000000000008000",
      "type": "0x2",
      "transactionHash": "0x6da641437c67c675dbcb5097ecd1f26df0660ac23015664e74a805df57913b51",
      "transactionIndex": "0xb",
      "blockHash": "0x130e736d8d181747dddb869c6b8aeb16ea0ef5e2279c26b93d8c50cba6ba1a0b",
      "blockNumber": "0x16d7f26",
      "gasUsed": "0x86c0",
      "effectiveGasPrice": "0xf447e",
      "from": "0xbe2680dc1752109b4344dbeb1072fd8cd880e54b",
      "to": "0xa4253e7c13525287c56550b8708100f93e60509f",
      "contractAddress": null,
      "l1BaseFeeScalar": "0x44d",
      "l1BlobBaseFee": "0x1",
      "l1BlobBaseFeeScalar": "0xa118b",
      "l1Fee": "0x34e58b518",
      "l1GasPrice": "0x1e0712287",
      "l1GasUsed": "0x640"
    },
    {
      "status": "0x1",
      "cumulativeGasUsed": "0x6d9144",
      "logs": [],
      "logsBloom": "0x00000000000000000000000000000000000000000000000000000000000000000000000000000000000000000000000000000000000000000000000000000000000000000000000000000000000000000000000000000000000000000000000000000000000000000000000000000000000000000000000000000000000000000000000000000000000000000000000000000000000000000000000000000000000000000000000000000000000000000000000000000000000000000000000000000000000000000000000000000000000000000000000000000000000000000000000000000000000000000000000000000000000000000000000000000000",
      "type": "0x2",
      "transactionHash": "0xb350614755799f61b92ea189cf2b02a1e1af0cdc309926ad5c104fdda3bd9f09",
      "transactionIndex": "0x1e",
      "blockHash": "0x61829d17845f43ab41b023d9ce2e5b7933a39fa78ba4fec78a89ad7d1e9b6d45",
      "blockNumber": "0x16d7f28",
      "gasUsed": "0x5208",
      "effectiveGasPrice": "0xf447e",
      "from": "0xbe2680dc1752109b4344dbeb1072fd8cd880e54b",
      "to": "0x546da7c993d811d067f4c102b4281fe3c2af6a8d",
      "contractAddress": null,
      "l1BaseFeeScalar": "0x44d",
      "l1BlobBaseFee": "0x1",
      "l1BlobBaseFeeScalar": "0xa118b",
      "l1Fee": "0x34089de09",
      "l1GasPrice": "0x1d89a86f7",
      "l1GasUsed": "0x640"
    },
    {
      "status": "0x1",
      "cumulativeGasUsed": "0x4be21",
      "logs": [
        {
          "address": "0xa4253e7c13525287c56550b8708100f93e60509f",
          "topics": [
            "0xddf252ad1be2c89b69c2b068fc378daa952ba7f163c4a11628f55a4df523b3ef",
            "0x000000000000000000000000be2680dc1752109b4344dbeb1072fd8cd880e54b",
            "0x000000000000000000000000bef88420f20ab95e5f7ea851f6008dbbee97dc26"
          ],
          "data": "0x0000000000000000000000000000000000000000000000000000000001f78a40",
          "blockHash": "0xeb3dec57fd78dba806c34bd63c69019d15a5a8fdc86df3e4458e90ecb2c4a1c6",
          "blockNumber": "0x16d7f2a",
          "transactionHash": "0x6d0a0dcb84f8c63bc32220010768cfe36da6176cd0342b597721258218c7604d",
          "transactionIndex": "0x6",
          "logIndex": "0x1",
          "removed": false
        }
      ],
      "logsBloom": "0x00020000000000800000080000000000000000000000200000000000000000000000000000000000000000000000000000000000000080000000000000000000000000000000000040000008000000000000000000000000000000000000000000000000000000000000000000000000000000000000000000000010000000000000000000000000000000000000000000000000000000000100000000000000000000000000000000000000000000000000000000000000000000000000000000000002000000000000000000000000000000000000000400000000000000000000000000000000000000000000000000000000000000000000000000008000",
      "type": "0x2",
      "transactionHash": "0x6d0a0dcb84f8c63bc32220010768cfe36da6176cd0342b597721258218c7604d",
      "transactionIndex": "0x6",
      "blockHash": "0xeb3dec57fd78dba806c34bd63c69019d15a5a8fdc86df3e4458e90ecb2c4a1c6",
      "blockNumber": "0x16d7f2a",
      "gasUsed": "0x86b4",
      "effectiveGasPrice": "0xf447f",
      "from": "0xbe2680dc1752109b4344dbeb1072fd8cd880e54b",
      "to": "0xa4253e7c13525287c56550b8708100f93e60509f",
      "contractAddress": null,
      "l1BaseFeeScalar": "0x44d",
      "l1BlobBaseFee": "0x1",
      "l1BlobBaseFeeScalar": "0xa118b",
      "l1Fee": "0x34089de09",
      "l1GasPrice": "0x1d89a86f7",
      "l1GasUsed": "0x640"
    },
    {
      "status": "0x1",
      "cumulativeGasUsed": "0xd88deb",
      "logs": [],
      "logsBloom": "0x00000000000000000000000000000000000000000000000000000000000000000000000000000000000000000000000000000000000000000000000000000000000000000000000000000000000000000000000000000000000000000000000000000000000000000000000000000000000000000000000000000000000000000000000000000000000000000000000000000000000000000000000000000000000000000000000000000000000000000000000000000000000000000000000000000000000000000000000000000000000000000000000000000000000000000000000000000000000000000000000000000000000000000000000000000000",
      "type": "0x2",
      "transactionHash": "0x1f6de8938dbedd1da369ef3a670ff266f8375f7df1e83faa288745fb3682bcc3",
      "transactionIndex": "0x25",
      "blockHash": "0x396f62f0bd2e4a66bb2c31a9130e52ee363291cf2a8b02dc7d1aa2f84c5ae971",
      "blockNumber": "0x16d7f2b",
      "gasUsed": "0x5208",
      "effectiveGasPrice": "0xf447f",
      "from": "0xbe2680dc1752109b4344dbeb1072fd8cd880e54b",
      "to": "0xbef88420f20ab95e5f7ea851f6008dbbee97dc26",
      "contractAddress": null,
      "l1BaseFeeScalar": "0x44d",
      "l1BlobBaseFee": "0x1",
      "l1BlobBaseFeeScalar": "0xa118b",
      "l1Fee": "0x34089de09",
      "l1GasPrice": "0x1d89a86f7",
      "l1GasUsed": "0x640"
    },
    {
      "status": "0x1",
      "cumulativeGasUsed": "0xb089f",
      "logs": [
        {
          "address": "0xa4253e7c13525287c56550b8708100f93e60509f",
          "topics": [
            "0xddf252ad1be2c89b69c2b068fc378daa952ba7f163c4a11628f55a4df523b3ef",
            "0x000000000000000000000000be2680dc1752109b4344dbeb1072fd8cd880e54b",
            "0x00000000000000000000000019f19e10e6cb2ea89dae8a40635f7a0e10aeac3d"
          ],
          "data": "0x00000000000000000000000000000000000000000000000000000000030a32c0",
          "blockHash": "0x81ecd53e4f1684eae589a8ee2007f9fc1771c4eb223967d9d65bc67bb0f254cf",
          "blockNumber": "0x16d7f2d",
          "transactionHash": "0xcf7f0bc93be3741c99f4e8189beadb5113d010ccce5cab7d8a818b3e144e0d48",
          "transactionIndex": "0x4",
          "logIndex": "0x1",
          "removed": false
        }
      ],
      "logsBloom": "0x00000000000000800000080000000000000000000000200000000000000000000000000000000000000000000000000000000000000000000000000000000000000000000000000040000088000000000000000000000000000000000000000000000000000000000000000000000000000000000000000000000010000000000000000000000000000000000000000000000000000000000000000000000000000000000000000000080000000000000000000000000000000000000000200000000002000000000000000000000000000000000000000400000000000000000000000000000000000000000000000000000000000000000000000000008000",
      "type": "0x2",
      "transactionHash": "0xcf7f0bc93be3741c99f4e8189beadb5113d010ccce5cab7d8a818b3e144e0d48",
      "transactionIndex": "0x4",
      "blockHash": "0x81ecd53e4f1684eae589a8ee2007f9fc1771c4eb223967d9d65bc67bb0f254cf",
      "blockNumber": "0x16d7f2d",
      "gasUsed": "0x86c0",
      "effectiveGasPrice": "0xf447e",
      "from": "0xbe2680dc1752109b4344dbeb1072fd8cd880e54b",
      "to": "0xa4253e7c13525287c56550b8708100f93e60509f",
      "contractAddress": null,
      "l1BaseFeeScalar": "0x44d",
      "l1BlobBaseFee": "0x1",
      "l1BlobBaseFeeScalar": "0xa118b",
      "l1Fee": "0x33522a7db",
      "l1GasPrice": "0x1d2216406",
      "l1GasUsed": "0x640"
    },
    {
      "status": "0x1",
      "cumulativeGasUsed": "0x9d8c12",
      "logs": [],
      "logsBloom": "0x00000000000000000000000000000000000000000000000000000000000000000000000000000000000000000000000000000000000000000000000000000000000000000000000000000000000000000000000000000000000000000000000000000000000000000000000000000000000000000000000000000000000000000000000000000000000000000000000000000000000000000000000000000000000000000000000000000000000000000000000000000000000000000000000000000000000000000000000000000000000000000000000000000000000000000000000000000000000000000000000000000000000000000000000000000000",
      "type": "0x2",
      "transactionHash": "0x51e5381288a95c683dd60f522c1155ef6ce3b57456502c7698ac3c978633257c",
      "transactionIndex": "0x27",
      "blockHash": "0xd0f85b1e932c386b4203637beedd88406623bb4645bb9d3d8801336dfef424f8",
      "blockNumber": "0x16d7f2f",
      "gasUsed": "0x5208",
      "effectiveGasPrice": "0xf447f",
      "from": "0xbe2680dc1752109b4344dbeb1072fd8cd880e54b",
      "to": "0x19f19e10e6cb2ea89dae8a40635f7a0e10aeac3d",
      "contractAddress": null,
      "l1BaseFeeScalar": "0x44d",
      "l1BlobBaseFee": "0x1",
      "l1BlobBaseFeeScalar": "0xa118b",
      "l1Fee": "0x33522a7db",
      "l1GasPrice": "0x1d2216406",
      "l1GasUsed": "0x640"
    },
    {
      "status": "0x1",
      "cumulativeGasUsed": "0x387785",
      "logs": [
        {
          "address": "0xa4253e7c13525287c56550b8708100f93e60509f",
          "topics": [
            "0x8c5be1e5ebec7d5bd14f71427d1e84f3dd0314c0f7b2291e5b200ac8c7c3b925",
            "0x000000000000000000000000a0084de38eee190c6f1d4d83b20b9adcc4998799",
            "0x0000000000000000000000009aa2e7ffee192dcbdb40c9d75917d0d33501e5c6"
          ],
          "data": "0x00000000000000000000000000000000000000000000000000000000001e8480",
          "blockHash": "0xa4cc67b7715768dba84db0943527fc149a4e22fd62a1818109a0e455654f9552",
          "blockNumber": "0x16d7f31",
          "transactionHash": "0xabe13727935eadfa6e7494caa4e56530bde85f06b279d3161e869cf861cb6a3d",
          "transactionIndex": "0x12",
          "logIndex": "0x2d",
          "removed": false
        }
      ],
      "logsBloom": "0x00000000000000800000000000000000000000000000200000000000000000000000002000000000000000000000200000000000000000000020000000200000000000000000000040000000000000000000000000000000000000000000000000001000000000000000000000000000000000000000000000000000000000000000000000000000000000000000000000000000000000000000000000000000020000000000000000000000000000000000000000000000000000000000000000000040000000000000800000000000000000000000000000000000000000000010000000000000000000000000000000000000000000000000000000000000",
      "type": "0x2",
      "transactionHash": "0xabe13727935eadfa6e7494caa4e56530bde85f06b279d3161e869cf861cb6a3d",
      "transactionIndex": "0x12",
      "blockHash": "0xa4cc67b7715768dba84db0943527fc149a4e22fd62a1818109a0e455654f9552",
      "blockNumber": "0x16d7f31",
      "gasUsed": "0xb4ff",
      "effectiveGasPrice": "0xf4480",
      "from": "0xa0084de38eee190c6f1d4d83b20b9adcc4998799",
      "to": "0xa4253e7c13525287c56550b8708100f93e60509f",
      "contractAddress": null,
      "l1BaseFeeScalar": "0x44d",
      "l1BlobBaseFee": "0x1",
      "l1BlobBaseFeeScalar": "0xa118b",
      "l1Fee": "0x33522a7db",
      "l1GasPrice": "0x1d2216406",
      "l1GasUsed": "0x640"
    },
    {
      "status": "0x1",
      "cumulativeGasUsed": "0x1e611c",
      "logs": [
        {
          "address": "0xa4253e7c13525287c56550b8708100f93e60509f",
          "topics": [
            "0xddf252ad1be2c89b69c2b068fc378daa952ba7f163c4a11628f55a4df523b3ef",
            "0x000000000000000000000000a0084de38eee190c6f1d4d83b20b9adcc4998799",
            "0x0000000000000000000000009aa2e7ffee192dcbdb40c9d75917d0d33501e5c6"
          ],
          "data": "0x00000000000000000000000000000000000000000000000000000000001e8480",
          "blockHash": "0x78a2596a8d7504baf1970c314af96bd17eaa5ecfd4c35c112164a05e654f1c90",
          "blockNumber": "0x16d7f33",
          "transactionHash": "0x813738d207f626e667ffb685be8e674398f52f2ae6b7c5544087c449c5d8035d",
          "transactionIndex": "0xa",
          "logIndex": "0x2c",
          "removed": false
        },
        {
          "address": "0x9aa2e7ffee192dcbdb40c9d75917d0d33501e5c6",
          "topics": [
            "0x7bd0f397cad502ff77ef77218a9bc164a74f31a190560438785c85c38c3f64dd",
            "0x000000000000000000000000a0084de38eee190c6f1d4d83b20b9adcc4998799"
          ],
          "data": "0x0000000000000000000000000000000000000000000000000000000000000001000000000000000000000000000000000000000000000000000000000000000400000000000000000000000000000000000000000000000000000000001e8480",
          "blockHash": "0x78a2596a8d7504baf1970c314af96bd17eaa5ecfd4c35c112164a05e654f1c90",
          "blockNumber": "0x16d7f33",
          "transactionHash": "0x813738d207f626e667ffb685be8e674398f52f2ae6b7c5544087c449c5d8035d",
          "transactionIndex": "0xa",
          "logIndex": "0x2d",
          "removed": false
        }
      ],
      "logsBloom": "0x00000000000000800000000000000000000000000000200000000000000000000000002000000000000000000000200000000000000000000020000000800000000000000000000140000008000400000000000000000000000000000400000000001000000000000000000000000000000000000000000000000010000000000000000000000000000000000000000000000000000000000000000008000000000000000000000000000000000000000000000000000000000000000000000000000042000000000000800000000000000000000000000000000000000000000000000000000000000000000000000000000000000000000800000000000000",
      "type": "0x2",
      "transactionHash": "0x813738d207f626e667ffb685be8e674398f52f2ae6b7c5544087c449c5d8035d",
      "transactionIndex": "0xa",
      "blockHash": "0x78a2596a8d7504baf1970c314af96bd17eaa5ecfd4c35c112164a05e654f1c90",
      "blockNumber": "0x16d7f33",
      "gasUsed": "0x1090f",
      "effectiveGasPrice": "0xf4480",
      "from": "0xa0084de38eee190c6f1d4d83b20b9adcc4998799",
      "to": "0x9aa2e7ffee192dcbdb40c9d75917d0d33501e5c6",
      "contractAddress": null,
      "l1BaseFeeScalar": "0x44d",
      "l1BlobBaseFee": "0x1",
      "l1BlobBaseFeeScalar": "0xa118b",
      "l1Fee": "0x341d190a8",
      "l1GasPrice": "0x1d9548ccc",
      "l1GasUsed": "0x640"
    },
    {
      "status": "0x1",
      "cumulativeGasUsed": "0xa85ec",
      "logs": [
        {
          "address": "0xa4253e7c13525287c56550b8708100f93e60509f",
          "topics": [
            "0x8c5be1e5ebec7d5bd14f71427d1e84f3dd0314c0f7b2291e5b200ac8c7c3b925",
            "0x000000000000000000000000070806b631a667a3da88177d326adb27fde834db",
            "0x0000000000000000000000009aa2e7ffee192dcbdb40c9d75917d0d33501e5c6"
          ],
          "data": "0x00000000000000000000000000000000000000000000000000000000007a1200",
          "blockHash": "0x36364ecac945e16f44b742c7c88e8effebeeba44b6ed063462638015a0e5d52a",
          "blockNumber": "0x16d7f36",
          "transactionHash": "0x2b8f6cf7dc8800c1fc56ecfb1e738272b3003d3df047ada984b4583d5b35133d",
          "transactionIndex": "0x2",
          "logIndex": "0x0",
          "removed": false
        }
      ],
      "logsBloom": "0x00000000000000800000000000040000000000000000200000000000000000000000002000000000000000000000000000000000000000000000000000200000000000000000000040000000000000000000000000000000000000000000000000001000000000000000000000000000000000000000000000000000000000000000000000000000000000000000000000000000000000000000000000000040020000000000000000000000000000000000000000000000000000000000000000000000000000000000800000000000000000000000000000000000000000000010000000000000000000000004000000000000000000000000000000000000",
      "type": "0x2",
      "transactionHash": "0x2b8f6cf7dc8800c1fc56ecfb1e738272b3003d3df047ada984b4583d5b35133d",
      "transactionIndex": "0x2",
      "blockHash": "0x36364ecac945e16f44b742c7c88e8effebeeba44b6ed063462638015a0e5d52a",
      "blockNumber": "0x16d7f36",
      "gasUsed": "0xb4f3",
      "effectiveGasPrice": "0xf4480",
      "from": "0x070806b631a667a3da88177d326adb27fde834db",
      "to": "0xa4253e7c13525287c56550b8708100f93e60509f",
      "contractAddress": null,
      "l1BaseFeeScalar": "0x44d",
      "l1BlobBaseFee": "0x1",
      "l1BlobBaseFeeScalar": "0xa118b",
      "l1Fee": "0x341d190a8",
      "l1GasPrice": "0x1d9548ccc",
      "l1GasUsed": "0x640"
    },
    {
      "status": "0x1",
      "cumulativeGasUsed": "0x590e4d",
      "logs": [
        {
          "address": "0xa4253e7c13525287c56550b8708100f93e60509f",
          "topics": [
            "0xddf252ad1be2c89b69c2b068fc378daa952ba7f163c4a11628f55a4df523b3ef",
            "0x000000000000000000000000070806b631a667a3da88177d326adb27fde834db",
            "0x0000000000000000000000009aa2e7ffee192dcbdb40c9d75917d0d33501e5c6"
          ],
          "data": "0x00000000000000000000000000000000000000000000000000000000007a1200",
          "blockHash": "0x7b6d77ad9f10bac02b889d640ebd993b1c690369dada115deeea8f36d67273e7",
          "blockNumber": "0x16d7f38",
          "transactionHash": "0x12e93450e2999ba70034c71c86dfff5322d09aa9826ee88677ad08ebf87b265a",
          "transactionIndex": "0x1d",
          "logIndex": "0x6e",
          "removed": false
        },
        {
          "address": "0x9aa2e7ffee192dcbdb40c9d75917d0d33501e5c6",
          "topics": [
            "0x7bd0f397cad502ff77ef77218a9bc164a74f31a190560438785c85c38c3f64dd",
            "0x000000000000000000000000070806b631a667a3da88177d326adb27fde834db"
          ],
          "data": "0x0000000000000000000000000000000000000000000000000000000000000002000000000000000000000000000000000000000000000000000000000000000800000000000000000000000000000000000000000000000000000000007a1200",
          "blockHash": "0x7b6d77ad9f10bac02b889d640ebd993b1c690369dada115deeea8f36d67273e7",
          "blockNumber": "0x16d7f38",
          "transactionHash": "0x12e93450e2999ba70034c71c86dfff5322d09aa9826ee88677ad08ebf87b265a",
          "transactionIndex": "0x1d",
          "logIndex": "0x6f",
          "removed": false
        }
      ],
      "logsBloom": "0x00000000000000800000000000040000000000000000200000000000000000000000002000000000000000000000000000000000000000000000000000800000000000000000000140000008000400000000000000000000000000000400000000001000000000000000000000000000000000000000000000000010000000000000000000000000000000000000000000000000000000000000000008000040000000000000000000000000000000000000000000000000000000000000000000000002000000000000800000000000000000000000000000000000000000000000000000000000000000000004000000000000000000000800000000000000",
      "type": "0x2",
      "transactionHash": "0x12e93450e2999ba70034c71c86dfff5322d09aa9826ee88677ad08ebf87b265a",
      "transactionIndex": "0x1d",
      "blockHash": "0x7b6d77ad9f10bac02b889d640ebd993b1c690369dada115deeea8f36d67273e7",
      "blockNumber": "0x16d7f38",
      "gasUsed": "0x1090f",
      "effectiveGasPrice": "0xf4483",
      "from": "0x070806b631a667a3da88177d326adb27fde834db",
      "to": "0x9aa2e7ffee192dcbdb40c9d75917d0d33501e5c6",
      "contractAddress": null,
      "l1BaseFeeScalar": "0x44d",
      "l1BlobBaseFee": "0x1",
      "l1BlobBaseFeeScalar": "0xa118b",
      "l1Fee": "0x341d190a8",
      "l1GasPrice": "0x1d9548ccc",
      "l1GasUsed": "0x640"
    },
    {
      "status": "0x1",
      "cumulativeGasUsed": "0x822bab",
      "logs": [
        {
          "address": "0xa4253e7c13525287c56550b8708100f93e60509f",
          "topics": [
            "0x8c5be1e5ebec7d5bd14f71427d1e84f3dd0314c0f7b2291e5b200ac8c7c3b925",
            "0x000000000000000000000000546da7c993d811d067f4c102b4281fe3c2af6a8d",
            "0x0000000000000000000000009aa2e7ffee192dcbdb40c9d75917d0d33501e5c6"
          ],
          "data": "0x000000000000000000000000000000000000000000000000000000000112a880",
          "blockHash": "0xa11d108282a2f504445a3ac48ea0c2e35ee34665b2b1556c5649ce507e602125",
          "blockNumber": "0x16d7f3a",
          "transactionHash": "0x84d861f5599e6b1255c72f4e35490b11293d19c60c0aff9f6f29279cbf551c31",
          "transactionIndex": "0x1a",
          "logIndex": "0x83",
          "removed": false
        }
      ],
      "logsBloom": "0x00000000000000800000000000000000000020000400200000000000000000000000002000000000000000000000000000000000000000000000000000200000000000000000000040000000000000000000000000000000000000000000000000001000000000000000000000000000000000000000000000000000000000000000200000000000000000000000000000000000000000000000000000000000020000000000000000000000000000000000000000000000000000000000000000000000000000000000800000000000000000000000000000000000000000000010000000000000000000000000000000000000000000000000000000000000",
      "type": "0x2",
      "transactionHash": "0x84d861f5599e6b1255c72f4e35490b11293d19c60c0aff9f6f29279cbf551c31",
      "transactionIndex": "0x1a",
      "blockHash": "0xa11d108282a2f504445a3ac48ea0c2e35ee34665b2b1556c5649ce507e602125",
      "blockNumber": "0x16d7f3a",
      "gasUsed": "0xb50b",
      "effectiveGasPrice": "0xf4482",
      "from": "0x546da7c993d811d067f4c102b4281fe3c2af6a8d",
      "to": "0xa4253e7c13525287c56550b8708100f93e60509f",
      "contractAddress": null,
      "l1BaseFeeScalar": "0x44d",
      "l1BlobBaseFee": "0x1",
      "l1BlobBaseFeeScalar": "0xa118b",
      "l1Fee": "0x314294f2b",
      "l1GasPrice": "0x1bf698703",
      "l1GasUsed": "0x640"
    },
    {
      "status": "0x1",
      "cumulativeGasUsed": "0x349e7a",
      "logs": [
        {
          "address": "0xa4253e7c13525287c56550b8708100f93e60509f",
          "topics": [
            "0xddf252ad1be2c89b69c2b068fc378daa952ba7f163c4a11628f55a4df523b3ef",
            "0x000000000000000000000000546da7c993d811d067f4c102b4281fe3c2af6a8d",
            "0x0000000000000000000000009aa2e7ffee192dcbdb40c9d75917d0d33501e5c6"
          ],
          "data": "0x000000000000000000000000000000000000000000000000000000000112a880",
          "blockHash": "0xffe87c53bf2899f62418a3acb8e457f1a4a5984e010df0b44eff01aa98f2b929",
          "blockNumber": "0x16d7f3c",
          "transactionHash": "0x38104499fe96f77f6ac3588fc41185df2ff1429f2860c8d269a9c6505bee7a21",
          "transactionIndex": "0x12",
          "logIndex": "0x4c",
          "removed": false
        },
        {
          "address": "0x9aa2e7ffee192dcbdb40c9d75917d0d33501e5c6",
          "topics": [
            "0x7bd0f397cad502ff77ef77218a9bc164a74f31a190560438785c85c38c3f64dd",
            "0x000000000000000000000000546da7c993d811d067f4c102b4281fe3c2af6a8d"
          ],
          "data": "0x0000000000000000000000000000000000000000000000000000000000000003000000000000000000000000000000000000000000000000000000000000000c000000000000000000000000000000000000000000000000000000000112a880",
          "blockHash": "0xffe87c53bf2899f62418a3acb8e457f1a4a5984e010df0b44eff01aa98f2b929",
          "blockNumber": "0x16d7f3c",
          "transactionHash": "0x38104499fe96f77f6ac3588fc41185df2ff1429f2860c8d269a9c6505bee7a21",
          "transactionIndex": "0x12",
          "logIndex": "0x4d",
          "removed": false
        }
      ],
      "logsBloom": "0x00000000000000800000000000000000000020000400200000000000000000000000002000000000000000000000000000000000000000000000000000800000000000000000000140000008000400000000000000000000000000000400000000001000000000000000000000000000000000000000000000000010000000000000200000000000000000000000000000000000000000000000000008000000000000000000000000000000000000000000000000000000000000000000000000000002000000000000800000000000000000000000000000000000000000000000000000000000000000000000000000000000000000000800000000000000",
      "type": "0x2",
      "transactionHash": "0x38104499fe96f77f6ac3588fc41185df2ff1429f2860c8d269a9c6505bee7a21",
      "transactionIndex": "0x12",
      "blockHash": "0xffe87c53bf2899f62418a3acb8e457f1a4a5984e010df0b44eff01aa98f2b929",
      "blockNumber": "0x16d7f3c",
      "gasUsed": "0x1090f",
      "effectiveGasPrice": "0xf4482",
      "from": "0x546da7c993d811d067f4c102b4281fe3c2af6a8d",
      "to": "0x9aa2e7ffee192dcbdb40c9d75917d0d33501e5c6",
      "contractAddress": null,
      "l1BaseFeeScalar": "0x44d",
      "l1BlobBaseFee": "0x1",
      "l1BlobBaseFeeScalar": "0xa118b",
      "l1Fee": "0x314294f2b",
      "l1GasPrice": "0x1bf698703",
      "l1GasUsed": "0x640"
    },
    {
      "status": "0x1",
      "cumulativeGasUsed": "0x15c067",
      "logs": [
        {
          "address": "0xa4253e7c13525287c56550b8708100f93e60509f",
          "topics": [
            "0x8c5be1e5ebec7d5bd14f71427d1e84f3dd0314c0f7b2291e5b200ac8c7c3b925",
            "0x000000000000000000000000bef88420f20ab95e5f7ea851f6008dbbee97dc26",
            "0x0000000000000000000000009aa2e7ffee192dcbdb40c9d75917d0d33501e5c6"
          ],
          "data": "0x0000000000000000000000000000000000000000000000000000000001e84800",
          "blockHash": "0x393173c775f7f7b256e2e550e1af7b1020534d79196ed2f43c3a3902c97e2c7e",
          "blockNumber": "0x16d7f3e",
          "transactionHash": "0x29fe488f69448e2557c8f0968c45bf446dc06304913757e43453231f1a1b741e",
          "transactionIndex": "0x7",
          "logIndex": "0x25",
          "removed": false
        }
      ],
      "logsBloom": "0x00020000000000800000000000000000000000000000200000000000000000000000002000000000000000000000000000000000000080000000000000200000000000000000000040000000000000000000000000000000000000000000000000001000000000000000000000000000000000000000000000000000000000000000000000000000000000000000000000000000000000000100000000000000020000000000000000000000000000000000000000000000000000000000000000000000000000000000800000000000000000000000000000000000000000000010000000000000000000000000000000000000000000000000000000000000",
      "type": "0x2",
      "transactionHash": "0x29fe488f69448e2557c8f0968c45bf446dc06304913757e43453231f1a1b741e",
      "transactionIndex": "0x7",
      "blockHash": "0x393173c775f7f7b256e2e550e1af7b1020534d79196ed2f43c3a3902c97e2c7e",
      "blockNumber": "0x16d7f3e",
      "gasUsed": "0xb4ff",
      "effectiveGasPrice": "0xf4483",
      "from": "0xbef88420f20ab95e5f7ea851f6008dbbee97dc26",
      "to": "0xa4253e7c13525287c56550b8708100f93e60509f",
      "contractAddress": null,
      "l1BaseFeeScalar": "0x44d",
      "l1BlobBaseFee": "0x1",
      "l1BlobBaseFeeScalar": "0xa118b",
      "l1Fee": "0x314294f2b",
      "l1GasPrice": "0x1bf698703",
      "l1GasUsed": "0x640"
    },
    {
      "status": "0x1",
      "cumulativeGasUsed": "0x28892",
      "logs": [
        {
          "address": "0xa4253e7c13525287c56550b8708100f93e60509f",
          "topics": [
            "0xddf252ad1be2c89b69c2b068fc378daa952ba7f163c4a11628f55a4df523b3ef",
            "0x000000000000000000000000bef88420f20ab95e5f7ea851f6008dbbee97dc26",
            "0x0000000000000000000000009aa2e7ffee192dcbdb40c9d75917d0d33501e5c6"
          ],
          "data": "0x0000000000000000000000000000000000000000000000000000000001e84800",
          "blockHash": "0x9b7f61c78b1b590b0cfdbbd9fbaa0eb65602c13feacc2fdc02219af5337b5515",
          "blockNumber": "0x16d7f40",
          "transactionHash": "0x27014090cbea0d0e239ea8908aa4a136927f6d401eeb013224e8b923343c27a6",
          "transactionIndex": "0x2",
          "logIndex": "0x1",
          "removed": false
        },
        {
          "address": "0x9aa2e7ffee192dcbdb40c9d75917d0d33501e5c6",
          "topics": [
            "0x7bd0f397cad502ff77ef77218a9bc164a74f31a190560438785c85c38c3f64dd",
            "0x000000000000000000000000bef88420f20ab95e5f7ea851f6008dbbee97dc26"
          ],
          "data": "0x000000000000000000000000000000000000000000000000000000000000000400000000000000000000000000000000000000000000000000000000000000100000000000000000000000000000000000000000000000000000000001e84800",
          "blockHash": "0x9b7f61c78b1b590b0cfdbbd9fbaa0eb65602c13feacc2fdc02219af5337b5515",
          "blockNumber": "0x16d7f40",
          "transactionHash": "0x27014090cbea0d0e239ea8908aa4a136927f6d401eeb013224e8b923343c27a6",
          "transactionIndex": "0x2",
          "logIndex": "0x2",
          "removed": false
        }
      ],
      "logsBloom": "0x00020000000000800000000000000000000000000000200000000000000000000000002000000000000000000000000000000000000080000000000000800000000000000000000140000008000400000000000000000000000000000400000000001000000000000000000000000000000000000000000000000010000000000000000000000000000000000000000000000000000000000100000008000000000000000000000000000000000000000000000000000000000000000000000000000002000000000000800000000000000000000000000000000000000000000000000000000000000000000000000000000000000000000800000000000000",
      "type": "0x2",
      "transactionHash": "0x27014090cbea0d0e239ea8908aa4a136927f6d401eeb013224e8b923343c27a6",
      "transactionIndex": "0x2",
      "blockHash": "0x9b7f61c78b1b590b0cfdbbd9fbaa0eb65602c13feacc2fdc02219af5337b5515",
      "blockNumber": "0x16d7f40",
      "gasUsed": "0x1090f",
      "effectiveGasPrice": "0xf4482",
      "from": "0xbef88420f20ab95e5f7ea851f6008dbbee97dc26",
      "to": "0x9aa2e7ffee192dcbdb40c9d75917d0d33501e5c6",
      "contractAddress": null,
      "l1BaseFeeScalar": "0x44d",
      "l1BlobBaseFee": "0x1",
      "l1BlobBaseFeeScalar": "0xa118b",
      "l1Fee": "0x301301aa6",
      "l1GasPrice": "0x1b4a44223",
      "l1GasUsed": "0x640"
    },
    {
      "status": "0x1",
      "cumulativeGasUsed": "0x7fdbc5",
      "logs": [
        {
          "address": "0xa4253e7c13525287c56550b8708100f93e60509f",
          "topics": [
            "0x8c5be1e5ebec7d5bd14f71427d1e84f3dd0314c0f7b2291e5b200ac8c7c3b925",
            "0x00000000000000000000000019f19e10e6cb2ea89dae8a40635f7a0e10aeac3d",
            "0x0000000000000000000000009aa2e7ffee192dcbdb40c9d75917d0d33501e5c6"
          ],
          "data": "0x0000000000000000000000000000000000000000000000000000000002faf080",
          "blockHash": "0x053c507f4c69b7f74f28d2a2fb1aa4210ca1e8e0214c20df15fb1af04b103a21",
          "blockNumber": "0x16d7f41",
          "transactionHash": "0x00e9bf759eabea7d42e77cf79d46277e54aa437659a76e4adc6f0895d6803a0f",
          "transactionIndex": "0x2c",
          "logIndex": "0xd3",
          "removed": false
        }
      ],
      "logsBloom": "0x00000000000000800000000000000000000000000000200000000000000000000000002000000000000000000000000000000000000000000000000000200000000000000000000040000080000000000000000000000000000000000000000000001000000000000000000000000000000000000000000000000000000000000000000000000000000000000000000000000000000000000000000000000000020000000000000000080000000000000000000000000000000000000000200000000000000000000000800000000000000000000000000000000000000000000010000000000000000000000000000000000000000000000000000000000000",
      "type": "0x2",
      "transactionHash": "0x00e9bf759eabea7d42e77cf79d46277e54aa437659a76e4adc6f0895d6803a0f",
      "transactionIndex": "0x2c",
      "blockHash": "0x053c507f4c69b7f74f28d2a2fb1aa4210ca1e8e0214c20df15fb1af04b103a21",
      "blockNumber": "0x16d7f41",
      "gasUsed": "0xb50b",
      "effectiveGasPrice": "0xf4482",
      "from": "0x19f19e10e6cb2ea89dae8a40635f7a0e10aeac3d",
      "to": "0xa4253e7c13525287c56550b8708100f93e60509f",
      "contractAddress": null,
      "l1BaseFeeScalar": "0x44d",
      "l1BlobBaseFee": "0x1",
      "l1BlobBaseFeeScalar": "0xa118b",
      "l1Fee": "0x301301aa6",
      "l1GasPrice": "0x1b4a44223",
      "l1GasUsed": "0x640"
    },
    {
      "status": "0x1",
      "cumulativeGasUsed": "0x7a1f44",
      "logs": [
        {
          "address": "0xa4253e7c13525287c56550b8708100f93e60509f",
          "topics": [
            "0xddf252ad1be2c89b69c2b068fc378daa952ba7f163c4a11628f55a4df523b3ef",
            "0x00000000000000000000000019f19e10e6cb2ea89dae8a40635f7a0e10aeac3d",
            "0x0000000000000000000000009aa2e7ffee192dcbdb40c9d75917d0d33501e5c6"
          ],
          "data": "0x0000000000000000000000000000000000000000000000000000000002faf080",
          "blockHash": "0xaff4e35cec108fb1a9eb0e465f65b9c1246f7f59cfd66d708d7cab58ee7836b3",
          "blockNumber": "0x16d7f42",
          "transactionHash": "0x457fb7fc5a777dcca545391a53908fa9b36d2a38c58906cdc247736c7adb5b2c",
          "transactionIndex": "0x24",
          "logIndex": "0xa2",
          "removed": false
        },
        {
          "address": "0x9aa2e7ffee192dcbdb40c9d75917d0d33501e5c6",
          "topics": [
            "0x7bd0f397cad502ff77ef77218a9bc164a74f31a190560438785c85c38c3f64dd",
            "0x00000000000000000000000019f19e10e6cb2ea89dae8a40635f7a0e10aeac3d"
          ],
          "data": "0x000000000000000000000000000000000000000000000000000000000000000500000000000000000000000000000000000000000000000000000000000000140000000000000000000000000000000000000000000000000000000002faf080",
          "blockHash": "0xaff4e35cec108fb1a9eb0e465f65b9c1246f7f59cfd66d708d7cab58ee7836b3",
          "blockNumber": "0x16d7f42",
          "transactionHash": "0x457fb7fc5a777dcca545391a53908fa9b36d2a38c58906cdc247736c7adb5b2c",
          "transactionIndex": "0x24",
          "logIndex": "0xa3",
          "removed": false
        }
      ],
      "logsBloom": "0x00000000000000800000000000000000000000000000200000000000000000000000002000000000000000000000000000000000000000000000000000800000000000000000000140000088000400000000000000000000000000000400000000001000000000000000000000000000000000000000000000000010000000000000000000000000000000000000000000000000000000000000000008000000000000000000000000080000000000000000000000000000000000000000200000000002000000000000800000000000000000000000000000000000000000000000000000000000000000000000000000000000000000000800000000000000",
      "type": "0x2",
      "transactionHash": "0x457fb7fc5a777dcca545391a53908fa9b36d2a38c58906cdc247736c7adb5b2c",
      "transactionIndex": "0x24",
      "blockHash": "0xaff4e35cec108fb1a9eb0e465f65b9c1246f7f59cfd66d708d7cab58ee7836b3",
      "blockNumber": "0x16d7f42",
      "gasUsed": "0x1090f",
      "effectiveGasPrice": "0xf4482",
      "from": "0x19f19e10e6cb2ea89dae8a40635f7a0e10aeac3d",
      "to": "0x9aa2e7ffee192dcbdb40c9d75917d0d33501e5c6",
      "contractAddress": null,
      "l1BaseFeeScalar": "0x44d",
      "l1BlobBaseFee": "0x1",
      "l1BlobBaseFeeScalar": "0xa118b",
      "l1Fee": "0x301301aa6",
      "l1GasPrice": "0x1b4a44223",
      "l1GasUsed": "0x640"
    }
  ],
  "libraries": [],
  "pending": [],
  "returns": {},
  "timestamp": 1743674725,
  "chain": 84532,
  "commit": "fee831d"
}