{
  "transactions": [
    {
      "hash": null,
      "transactionType": "CALL",
      "contractName": null,
      "contractAddress": "0xa4253e7c13525287c56550b8708100f93e60509f",
      "function": "transfer(address,uint256)",
      "arguments": [
        "0x833608a2744A85330A9643a99b6C08019F51e51e",
        "2000000"
      ],
      "transaction": {
        "from": "0xbe2680dc1752109b4344dbeb1072fd8cd880e54b",
        "to": "0xa4253e7c13525287c56550b8708100f93e60509f",
        "value": "0x0",
        "input": "0xa9059cbb000000000000000000000000833608a2744a85330a9643a99b6c08019f51e51e00000000000000000000000000000000000000000000000000000000001e8480",
        "nonce": "0x2de",
        "chainId": "0x14a34"
      },
      "additionalContracts": [],
      "isFixedGasLimit": false
    },
    {
      "hash": null,
      "transactionType": "CALL",
      "contractName": null,
      "contractAddress": "0x833608a2744a85330a9643a99b6c08019f51e51e",
      "function": null,
      "arguments": null,
      "transaction": {
        "from": "0xbe2680dc1752109b4344dbeb1072fd8cd880e54b",
        "to": "0x833608a2744a85330a9643a99b6c08019f51e51e",
        "value": "0x9184e72a000",
        "input": "0x",
        "nonce": "0x2df",
        "chainId": "0x14a34"
      },
      "additionalContracts": [],
      "isFixedGasLimit": false
    },
    {
      "hash": null,
      "transactionType": "CALL",
      "contractName": null,
      "contractAddress": "0xa4253e7c13525287c56550b8708100f93e60509f",
      "function": "transfer(address,uint256)",
      "arguments": [
        "0x8D97d2e9DA9549C5783Ba40C24C486bFe6bE164e",
        "5000000"
      ],
      "transaction": {
        "from": "0xbe2680dc1752109b4344dbeb1072fd8cd880e54b",
        "to": "0xa4253e7c13525287c56550b8708100f93e60509f",
        "value": "0x0",
        "input": "0xa9059cbb0000000000000000000000008d97d2e9da9549c5783ba40c24c486bfe6be164e00000000000000000000000000000000000000000000000000000000004c4b40",
        "nonce": "0x2e0",
        "chainId": "0x14a34"
      },
      "additionalContracts": [],
      "isFixedGasLimit": false
    },
    {
      "hash": null,
      "transactionType": "CALL",
      "contractName": null,
      "contractAddress": "0x8d97d2e9da9549c5783ba40c24c486bfe6be164e",
      "function": null,
      "arguments": null,
      "transaction": {
        "from": "0xbe2680dc1752109b4344dbeb1072fd8cd880e54b",
        "to": "0x8d97d2e9da9549c5783ba40c24c486bfe6be164e",
        "value": "0x9184e72a000",
        "input": "0x",
        "nonce": "0x2e1",
        "chainId": "0x14a34"
      },
      "additionalContracts": [],
      "isFixedGasLimit": false
    },
    {
      "hash": null,
      "transactionType": "CALL",
      "contractName": null,
      "contractAddress": "0xa4253e7c13525287c56550b8708100f93e60509f",
      "function": "transfer(address,uint256)",
      "arguments": [
        "0x134975844d919cfDE3409FE088A05a43BBd88759",
        "10000000"
      ],
      "transaction": {
        "from": "0xbe2680dc1752109b4344dbeb1072fd8cd880e54b",
        "to": "0xa4253e7c13525287c56550b8708100f93e60509f",
        "value": "0x0",
        "input": "0xa9059cbb000000000000000000000000134975844d919cfde3409fe088a05a43bbd887590000000000000000000000000000000000000000000000000000000000989680",
        "nonce": "0x2e2",
        "chainId": "0x14a34"
      },
      "additionalContracts": [],
      "isFixedGasLimit": false
    },
    {
      "hash": null,
      "transactionType": "CALL",
      "contractName": null,
      "contractAddress": "0x134975844d919cfde3409fe088a05a43bbd88759",
      "function": null,
      "arguments": null,
      "transaction": {
        "from": "0xbe2680dc1752109b4344dbeb1072fd8cd880e54b",
        "to": "0x134975844d919cfde3409fe088a05a43bbd88759",
        "value": "0x9184e72a000",
        "input": "0x",
        "nonce": "0x2e3",
        "chainId": "0x14a34"
      },
      "additionalContracts": [],
      "isFixedGasLimit": false
    },
    {
      "hash": null,
      "transactionType": "CALL",
      "contractName": null,
      "contractAddress": "0xa4253e7c13525287c56550b8708100f93e60509f",
      "function": "transfer(address,uint256)",
      "arguments": [
        "0xce17779c6A41E667E9DCAf3Cbdad585596CB48a4",
        "17000000"
      ],
      "transaction": {
        "from": "0xbe2680dc1752109b4344dbeb1072fd8cd880e54b",
        "to": "0xa4253e7c13525287c56550b8708100f93e60509f",
        "value": "0x0",
        "input": "0xa9059cbb000000000000000000000000ce17779c6a41e667e9dcaf3cbdad585596cb48a40000000000000000000000000000000000000000000000000000000001036640",
        "nonce": "0x2e4",
        "chainId": "0x14a34"
      },
      "additionalContracts": [],
      "isFixedGasLimit": false
    },
    {
      "hash": null,
      "transactionType": "CALL",
      "contractName": null,
      "contractAddress": "0xce17779c6a41e667e9dcaf3cbdad585596cb48a4",
      "function": null,
      "arguments": null,
      "transaction": {
        "from": "0xbe2680dc1752109b4344dbeb1072fd8cd880e54b",
        "to": "0xce17779c6a41e667e9dcaf3cbdad585596cb48a4",
        "value": "0x9184e72a000",
        "input": "0x",
        "nonce": "0x2e5",
        "chainId": "0x14a34"
      },
      "additionalContracts": [],
      "isFixedGasLimit": false
    },
    {
      "hash": null,
      "transactionType": "CALL",
      "contractName": null,
      "contractAddress": "0xa4253e7c13525287c56550b8708100f93e60509f",
      "function": "transfer(address,uint256)",
      "arguments": [
        "0xbFfE2D862f07F6B0E080c0CbbA63350770150c56",
        "26000000"
      ],
      "transaction": {
        "from": "0xbe2680dc1752109b4344dbeb1072fd8cd880e54b",
        "to": "0xa4253e7c13525287c56550b8708100f93e60509f",
        "value": "0x0",
        "input": "0xa9059cbb000000000000000000000000bffe2d862f07f6b0e080c0cbba63350770150c5600000000000000000000000000000000000000000000000000000000018cba80",
        "nonce": "0x2e6",
        "chainId": "0x14a34"
      },
      "additionalContracts": [],
      "isFixedGasLimit": false
    },
    {
      "hash": null,
      "transactionType": "CALL",
      "contractName": null,
      "contractAddress": "0xbffe2d862f07f6b0e080c0cbba63350770150c56",
      "function": null,
      "arguments": null,
      "transaction": {
        "from": "0xbe2680dc1752109b4344dbeb1072fd8cd880e54b",
        "to": "0xbffe2d862f07f6b0e080c0cbba63350770150c56",
        "value": "0x9184e72a000",
        "input": "0x",
        "nonce": "0x2e7",
        "chainId": "0x14a34"
      },
      "additionalContracts": [],
      "isFixedGasLimit": false
    },
    {
      "hash": null,
      "transactionType": "CALL",
      "contractName": null,
      "contractAddress": "0xa4253e7c13525287c56550b8708100f93e60509f",
      "function": "transfer(address,uint256)",
      "arguments": [
        "0x8483CF0621999fBF8b0072166e68109656859d75",
        "37000000"
      ],
      "transaction": {
        "from": "0xbe2680dc1752109b4344dbeb1072fd8cd880e54b",
        "to": "0xa4253e7c13525287c56550b8708100f93e60509f",
        "value": "0x0",
        "input": "0xa9059cbb0000000000000000000000008483cf0621999fbf8b0072166e68109656859d750000000000000000000000000000000000000000000000000000000002349340",
        "nonce": "0x2e8",
        "chainId": "0x14a34"
      },
      "additionalContracts": [],
      "isFixedGasLimit": false
    },
    {
      "hash": null,
      "transactionType": "CALL",
      "contractName": null,
      "contractAddress": "0x8483cf0621999fbf8b0072166e68109656859d75",
      "function": null,
      "arguments": null,
      "transaction": {
        "from": "0xbe2680dc1752109b4344dbeb1072fd8cd880e54b",
        "to": "0x8483cf0621999fbf8b0072166e68109656859d75",
        "value": "0x9184e72a000",
        "input": "0x",
        "nonce": "0x2e9",
        "chainId": "0x14a34"
      },
      "additionalContracts": [],
      "isFixedGasLimit": false
    },
    {
      "hash": null,
      "transactionType": "CALL",
      "contractName": null,
      "contractAddress": "0xa4253e7c13525287c56550b8708100f93e60509f",
      "function": "transfer(address,uint256)",
      "arguments": [
        "0xBc6c931d8831a2D2E7ac81e1a4651F156e9fE7E2",
        "50000000"
      ],
      "transaction": {
        "from": "0xbe2680dc1752109b4344dbeb1072fd8cd880e54b",
        "to": "0xa4253e7c13525287c56550b8708100f93e60509f",
        "value": "0x0",
        "input": "0xa9059cbb000000000000000000000000bc6c931d8831a2d2e7ac81e1a4651f156e9fe7e20000000000000000000000000000000000000000000000000000000002faf080",
        "nonce": "0x2ea",
        "chainId": "0x14a34"
      },
      "additionalContracts": [],
      "isFixedGasLimit": false
    },
    {
      "hash": null,
      "transactionType": "CALL",
      "contractName": null,
      "contractAddress": "0xbc6c931d8831a2d2e7ac81e1a4651f156e9fe7e2",
      "function": null,
      "arguments": null,
      "transaction": {
        "from": "0xbe2680dc1752109b4344dbeb1072fd8cd880e54b",
        "to": "0xbc6c931d8831a2d2e7ac81e1a4651f156e9fe7e2",
        "value": "0x9184e72a000",
        "input": "0x",
        "nonce": "0x2eb",
        "chainId": "0x14a34"
      },
      "additionalContracts": [],
      "isFixedGasLimit": false
    },
    {
      "hash": null,
      "transactionType": "CALL",
      "contractName": null,
      "contractAddress": "0xa4253e7c13525287c56550b8708100f93e60509f",
      "function": "transfer(address,uint256)",
      "arguments": [
        "0x4F486FA6a4fC4Bfd3a91033f6dd072892e71CdBc",
        "65000000"
      ],
      "transaction": {
        "from": "0xbe2680dc1752109b4344dbeb1072fd8cd880e54b",
        "to": "0xa4253e7c13525287c56550b8708100f93e60509f",
        "value": "0x0",
        "input": "0xa9059cbb0000000000000000000000004f486fa6a4fc4bfd3a91033f6dd072892e71cdbc0000000000000000000000000000000000000000000000000000000003dfd240",
        "nonce": "0x2ec",
        "chainId": "0x14a34"
      },
      "additionalContracts": [],
      "isFixedGasLimit": false
    },
    {
      "hash": null,
      "transactionType": "CALL",
      "contractName": null,
      "contractAddress": "0x4f486fa6a4fc4bfd3a91033f6dd072892e71cdbc",
      "function": null,
      "arguments": null,
      "transaction": {
        "from": "0xbe2680dc1752109b4344dbeb1072fd8cd880e54b",
        "to": "0x4f486fa6a4fc4bfd3a91033f6dd072892e71cdbc",
        "value": "0x9184e72a000",
        "input": "0x",
        "nonce": "0x2ed",
        "chainId": "0x14a34"
      },
      "additionalContracts": [],
      "isFixedGasLimit": false
    },
    {
      "hash": null,
      "transactionType": "CALL",
      "contractName": null,
      "contractAddress": "0xa4253e7c13525287c56550b8708100f93e60509f",
      "function": "transfer(address,uint256)",
      "arguments": [
        "0xfE74C15966a3D42cF4BD0B1e62264a4b0C2B198e",
        "82000000"
      ],
      "transaction": {
        "from": "0xbe2680dc1752109b4344dbeb1072fd8cd880e54b",
        "to": "0xa4253e7c13525287c56550b8708100f93e60509f",
        "value": "0x0",
        "input": "0xa9059cbb000000000000000000000000fe74c15966a3d42cf4bd0b1e62264a4b0c2b198e0000000000000000000000000000000000000000000000000000000004e33880",
        "nonce": "0x2ee",
        "chainId": "0x14a34"
      },
      "additionalContracts": [],
      "isFixedGasLimit": false
    },
    {
      "hash": null,
      "transactionType": "CALL",
      "contractName": null,
      "contractAddress": "0xfe74c15966a3d42cf4bd0b1e62264a4b0c2b198e",
      "function": null,
      "arguments": null,
      "transaction": {
        "from": "0xbe2680dc1752109b4344dbeb1072fd8cd880e54b",
        "to": "0xfe74c15966a3d42cf4bd0b1e62264a4b0c2b198e",
        "value": "0x9184e72a000",
        "input": "0x",
        "nonce": "0x2ef",
        "chainId": "0x14a34"
      },
      "additionalContracts": [],
      "isFixedGasLimit": false
    },
    {
      "hash": null,
      "transactionType": "CALL",
      "contractName": null,
      "contractAddress": "0xa4253e7c13525287c56550b8708100f93e60509f",
      "function": "transfer(address,uint256)",
      "arguments": [
        "0xecD8a4b1e23D09139e3fF783d621cb7d8acAE803",
        "101000000"
      ],
      "transaction": {
        "from": "0xbe2680dc1752109b4344dbeb1072fd8cd880e54b",
        "to": "0xa4253e7c13525287c56550b8708100f93e60509f",
        "value": "0x0",
        "input": "0xa9059cbb000000000000000000000000ecd8a4b1e23d09139e3ff783d621cb7d8acae8030000000000000000000000000000000000000000000000000000000006052340",
        "nonce": "0x2f0",
        "chainId": "0x14a34"
      },
      "additionalContracts": [],
      "isFixedGasLimit": false
    },
    {
      "hash": null,
      "transactionType": "CALL",
      "contractName": null,
      "contractAddress": "0xecd8a4b1e23d09139e3ff783d621cb7d8acae803",
      "function": null,
      "arguments": null,
      "transaction": {
        "from": "0xbe2680dc1752109b4344dbeb1072fd8cd880e54b",
        "to": "0xecd8a4b1e23d09139e3ff783d621cb7d8acae803",
        "value": "0x9184e72a000",
        "input": "0x",
        "nonce": "0x2f1",
        "chainId": "0x14a34"
      },
      "additionalContracts": [],
      "isFixedGasLimit": false
    },
    {
      "hash": null,
      "transactionType": "CALL",
      "contractName": null,
      "contractAddress": "0xa4253e7c13525287c56550b8708100f93e60509f",
      "function": "transfer(address,uint256)",
      "arguments": [
        "0xF51A34226cEA1De0aa2A1e77358bDD7AF9A70D5b",
        "12000000"
      ],
      "transaction": {
        "from": "0xbe2680dc1752109b4344dbeb1072fd8cd880e54b",
        "to": "0xa4253e7c13525287c56550b8708100f93e60509f",
        "value": "0x0",
        "input": "0xa9059cbb000000000000000000000000f51a34226cea1de0aa2a1e77358bdd7af9a70d5b0000000000000000000000000000000000000000000000000000000000b71b00",
        "nonce": "0x2f2",
        "chainId": "0x14a34"
      },
      "additionalContracts": [],
      "isFixedGasLimit": false
    },
    {
      "hash": null,
      "transactionType": "CALL",
      "contractName": null,
      "contractAddress": "0xf51a34226cea1de0aa2a1e77358bdd7af9a70d5b",
      "function": null,
      "arguments": null,
      "transaction": {
        "from": "0xbe2680dc1752109b4344dbeb1072fd8cd880e54b",
        "to": "0xf51a34226cea1de0aa2a1e77358bdd7af9a70d5b",
        "value": "0x9184e72a000",
        "input": "0x",
        "nonce": "0x2f3",
        "chainId": "0x14a34"
      },
      "additionalContracts": [],
      "isFixedGasLimit": false
    },
    {
      "hash": null,
      "transactionType": "CALL",
      "contractName": null,
      "contractAddress": "0xa4253e7c13525287c56550b8708100f93e60509f",
      "function": "transfer(address,uint256)",
      "arguments": [
        "0x78C9F6Ea7FdADD2e619C284e78a84E09830D6EA0",
        "25000000"
      ],
      "transaction": {
        "from": "0xbe2680dc1752109b4344dbeb1072fd8cd880e54b",
        "to": "0xa4253e7c13525287c56550b8708100f93e60509f",
        "value": "0x0",
        "input": "0xa9059cbb00000000000000000000000078c9f6ea7fdadd2e619c284e78a84e09830d6ea000000000000000000000000000000000000000000000000000000000017d7840",
        "nonce": "0x2f4",
        "chainId": "0x14a34"
      },
      "additionalContracts": [],
      "isFixedGasLimit": false
    },
    {
      "hash": null,
      "transactionType": "CALL",
      "contractName": null,
      "contractAddress": "0x78c9f6ea7fdadd2e619c284e78a84e09830d6ea0",
      "function": null,
      "arguments": null,
      "transaction": {
        "from": "0xbe2680dc1752109b4344dbeb1072fd8cd880e54b",
        "to": "0x78c9f6ea7fdadd2e619c284e78a84e09830d6ea0",
        "value": "0x9184e72a000",
        "input": "0x",
        "nonce": "0x2f5",
        "chainId": "0x14a34"
      },
      "additionalContracts": [],
      "isFixedGasLimit": false
    },
    {
      "hash": null,
      "transactionType": "CALL",
      "contractName": null,
      "contractAddress": "0xa4253e7c13525287c56550b8708100f93e60509f",
      "function": "transfer(address,uint256)",
      "arguments": [
        "0x69CE186d1ddc919d023b186C497FAD6d23cE063e",
        "40000000"
      ],
      "transaction": {
        "from": "0xbe2680dc1752109b4344dbeb1072fd8cd880e54b",
        "to": "0xa4253e7c13525287c56550b8708100f93e60509f",
        "value": "0x0",
        "input": "0xa9059cbb00000000000000000000000069ce186d1ddc919d023b186c497fad6d23ce063e0000000000000000000000000000000000000000000000000000000002625a00",
        "nonce": "0x2f6",
        "chainId": "0x14a34"
      },
      "additionalContracts": [],
      "isFixedGasLimit": false
    },
    {
      "hash": null,
      "transactionType": "CALL",
      "contractName": null,
      "contractAddress": "0x69ce186d1ddc919d023b186c497fad6d23ce063e",
      "function": null,
      "arguments": null,
      "transaction": {
        "from": "0xbe2680dc1752109b4344dbeb1072fd8cd880e54b",
        "to": "0x69ce186d1ddc919d023b186c497fad6d23ce063e",
        "value": "0x9184e72a000",
        "input": "0x",
        "nonce": "0x2f7",
        "chainId": "0x14a34"
      },
      "additionalContracts": [],
      "isFixedGasLimit": false
    },
    {
      "hash": null,
      "transactionType": "CALL",
      "contractName": null,
      "contractAddress": "0xa4253e7c13525287c56550b8708100f93e60509f",
      "function": "transfer(address,uint256)",
      "arguments": [
        "0xED724582Ad83e7aF1DffDC742D07FB7342FBD13a",
        "57000000"
      ],
      "transaction": {
        "from": "0xbe2680dc1752109b4344dbeb1072fd8cd880e54b",
        "to": "0xa4253e7c13525287c56550b8708100f93e60509f",
        "value": "0x0",
        "input": "0xa9059cbb000000000000000000000000ed724582ad83e7af1dffdc742d07fb7342fbd13a000000000000000000000000000000000000000000000000000000000365c040",
        "nonce": "0x2f8",
        "chainId": "0x14a34"
      },
      "additionalContracts": [],
      "isFixedGasLimit": false
    },
    {
      "hash": null,
      "transactionType": "CALL",
      "contractName": null,
      "contractAddress": "0xed724582ad83e7af1dffdc742d07fb7342fbd13a",
      "function": null,
      "arguments": null,
      "transaction": {
        "from": "0xbe2680dc1752109b4344dbeb1072fd8cd880e54b",
        "to": "0xed724582ad83e7af1dffdc742d07fb7342fbd13a",
        "value": "0x9184e72a000",
        "input": "0x",
        "nonce": "0x2f9",
        "chainId": "0x14a34"
      },
      "additionalContracts": [],
      "isFixedGasLimit": false
    },
    {
      "hash": null,
      "transactionType": "CALL",
      "contractName": null,
      "contractAddress": "0xa4253e7c13525287c56550b8708100f93e60509f",
      "function": "transfer(address,uint256)",
      "arguments": [
        "0x7B827b4Db37b61Fa59Ad228b87BF712857bAB165",
        "76000000"
      ],
      "transaction": {
        "from": "0xbe2680dc1752109b4344dbeb1072fd8cd880e54b",
        "to": "0xa4253e7c13525287c56550b8708100f93e60509f",
        "value": "0x0",
        "input": "0xa9059cbb0000000000000000000000007b827b4db37b61fa59ad228b87bf712857bab165000000000000000000000000000000000000000000000000000000000487ab00",
        "nonce": "0x2fa",
        "chainId": "0x14a34"
      },
      "additionalContracts": [],
      "isFixedGasLimit": false
    },
    {
      "hash": null,
      "transactionType": "CALL",
      "contractName": null,
      "contractAddress": "0x7b827b4db37b61fa59ad228b87bf712857bab165",
      "function": null,
      "arguments": null,
      "transaction": {
        "from": "0xbe2680dc1752109b4344dbeb1072fd8cd880e54b",
        "to": "0x7b827b4db37b61fa59ad228b87bf712857bab165",
        "value": "0x9184e72a000",
        "input": "0x",
        "nonce": "0x2fb",
        "chainId": "0x14a34"
      },
      "additionalContracts": [],
      "isFixedGasLimit": false
    },
    {
      "hash": null,
      "transactionType": "CALL",
      "contractName": null,
      "contractAddress": "0xa4253e7c13525287c56550b8708100f93e60509f",
      "function": "transfer(address,uint256)",
      "arguments": [
        "0x1fa026312FCEe00EF849A34cDDBB3e5E307C7CCd",
        "97000000"
      ],
      "transaction": {
        "from": "0xbe2680dc1752109b4344dbeb1072fd8cd880e54b",
        "to": "0xa4253e7c13525287c56550b8708100f93e60509f",
        "value": "0x0",
        "input": "0xa9059cbb0000000000000000000000001fa026312fcee00ef849a34cddbb3e5e307c7ccd0000000000000000000000000000000000000000000000000000000005c81a40",
        "nonce": "0x2fc",
        "chainId": "0x14a34"
      },
      "additionalContracts": [],
      "isFixedGasLimit": false
    },
    {
      "hash": null,
      "transactionType": "CALL",
      "contractName": null,
      "contractAddress": "0x1fa026312fcee00ef849a34cddbb3e5e307c7ccd",
      "function": null,
      "arguments": null,
      "transaction": {
        "from": "0xbe2680dc1752109b4344dbeb1072fd8cd880e54b",
        "to": "0x1fa026312fcee00ef849a34cddbb3e5e307c7ccd",
        "value": "0x9184e72a000",
        "input": "0x",
        "nonce": "0x2fd",
        "chainId": "0x14a34"
      },
      "additionalContracts": [],
      "isFixedGasLimit": false
    },
    {
      "hash": null,
      "transactionType": "CALL",
      "contractName": null,
      "contractAddress": "0xa4253e7c13525287c56550b8708100f93e60509f",
      "function": "transfer(address,uint256)",
      "arguments": [
        "0x9Fe7826a896a7BCd70Fc8b0BDddA45732b7607d0",
        "120000000"
      ],
      "transaction": {
        "from": "0xbe2680dc1752109b4344dbeb1072fd8cd880e54b",
        "to": "0xa4253e7c13525287c56550b8708100f93e60509f",
        "value": "0x0",
        "input": "0xa9059cbb0000000000000000000000009fe7826a896a7bcd70fc8b0bddda45732b7607d00000000000000000000000000000000000000000000000000000000007270e00",
        "nonce": "0x2fe",
        "chainId": "0x14a34"
      },
      "additionalContracts": [],
      "isFixedGasLimit": false
    },
    {
      "hash": null,
      "transactionType": "CALL",
      "contractName": null,
      "contractAddress": "0x9fe7826a896a7bcd70fc8b0bddda45732b7607d0",
      "function": null,
      "arguments": null,
      "transaction": {
        "from": "0xbe2680dc1752109b4344dbeb1072fd8cd880e54b",
        "to": "0x9fe7826a896a7bcd70fc8b0bddda45732b7607d0",
        "value": "0x9184e72a000",
        "input": "0x",
        "nonce": "0x2ff",
        "chainId": "0x14a34"
      },
      "additionalContracts": [],
      "isFixedGasLimit": false
    },
    {
      "hash": null,
      "transactionType": "CALL",
      "contractName": null,
      "contractAddress": "0xa4253e7c13525287c56550b8708100f93e60509f",
      "function": "transfer(address,uint256)",
      "arguments": [
        "0x53B4D2BD9EC0d63dcF601139c899FC5BbDd8042c",
        "145000000"
      ],
      "transaction": {
        "from": "0xbe2680dc1752109b4344dbeb1072fd8cd880e54b",
        "to": "0xa4253e7c13525287c56550b8708100f93e60509f",
        "value": "0x0",
        "input": "0xa9059cbb00000000000000000000000053b4d2bd9ec0d63dcf601139c899fc5bbdd8042c0000000000000000000000000000000000000000000000000000000008a48640",
        "nonce": "0x300",
        "chainId": "0x14a34"
      },
      "additionalContracts": [],
      "isFixedGasLimit": false
    },
    {
      "hash": null,
      "transactionType": "CALL",
      "contractName": null,
      "contractAddress": "0x53b4d2bd9ec0d63dcf601139c899fc5bbdd8042c",
      "function": null,
      "arguments": null,
      "transaction": {
        "from": "0xbe2680dc1752109b4344dbeb1072fd8cd880e54b",
        "to": "0x53b4d2bd9ec0d63dcf601139c899fc5bbdd8042c",
        "value": "0x9184e72a000",
        "input": "0x",
        "nonce": "0x301",
        "chainId": "0x14a34"
      },
      "additionalContracts": [],
      "isFixedGasLimit": false
    },
    {
      "hash": null,
      "transactionType": "CALL",
      "contractName": null,
      "contractAddress": "0xa4253e7c13525287c56550b8708100f93e60509f",
      "function": "transfer(address,uint256)",
      "arguments": [
        "0xb53e24183e9A1013258733bD25722E15e50FA893",
        "172000000"
      ],
      "transaction": {
        "from": "0xbe2680dc1752109b4344dbeb1072fd8cd880e54b",
        "to": "0xa4253e7c13525287c56550b8708100f93e60509f",
        "value": "0x0",
        "input": "0xa9059cbb000000000000000000000000b53e24183e9a1013258733bd25722e15e50fa893000000000000000000000000000000000000000000000000000000000a408300",
        "nonce": "0x302",
        "chainId": "0x14a34"
      },
      "additionalContracts": [],
      "isFixedGasLimit": false
    },
    {
      "hash": null,
      "transactionType": "CALL",
      "contractName": null,
      "contractAddress": "0xb53e24183e9a1013258733bd25722e15e50fa893",
      "function": null,
      "arguments": null,
      "transaction": {
        "from": "0xbe2680dc1752109b4344dbeb1072fd8cd880e54b",
        "to": "0xb53e24183e9a1013258733bd25722e15e50fa893",
        "value": "0x9184e72a000",
        "input": "0x",
        "nonce": "0x303",
        "chainId": "0x14a34"
      },
      "additionalContracts": [],
      "isFixedGasLimit": false
    },
    {
      "hash": null,
      "transactionType": "CALL",
      "contractName": null,
      "contractAddress": "0xa4253e7c13525287c56550b8708100f93e60509f",
      "function": "transfer(address,uint256)",
      "arguments": [
        "0x5e6017c793aD9F24fEb1DE489fa6Ac2Fc5EC6254",
        "201000000"
      ],
      "transaction": {
        "from": "0xbe2680dc1752109b4344dbeb1072fd8cd880e54b",
        "to": "0xa4253e7c13525287c56550b8708100f93e60509f",
        "value": "0x0",
        "input": "0xa9059cbb0000000000000000000000005e6017c793ad9f24feb1de489fa6ac2fc5ec6254000000000000000000000000000000000000000000000000000000000bfb0440",
        "nonce": "0x304",
        "chainId": "0x14a34"
      },
      "additionalContracts": [],
      "isFixedGasLimit": false
    },
    {
      "hash": null,
      "transactionType": "CALL",
      "contractName": null,
      "contractAddress": "0x5e6017c793ad9f24feb1de489fa6ac2fc5ec6254",
      "function": null,
      "arguments": null,
      "transaction": {
        "from": "0xbe2680dc1752109b4344dbeb1072fd8cd880e54b",
        "to": "0x5e6017c793ad9f24feb1de489fa6ac2fc5ec6254",
        "value": "0x9184e72a000",
        "input": "0x",
        "nonce": "0x305",
        "chainId": "0x14a34"
      },
      "additionalContracts": [],
      "isFixedGasLimit": false
    },
    {
      "hash": null,
      "transactionType": "CALL",
      "contractName": null,
      "contractAddress": "0xa4253e7c13525287c56550b8708100f93e60509f",
      "function": "approve(address,uint256)",
      "arguments": [
        "0x9aa2E7FFEE192DcBdb40c9D75917d0D33501e5c6",
        "1000000"
      ],
      "transaction": {
        "from": "0x833608a2744a85330a9643a99b6c08019f51e51e",
        "to": "0xa4253e7c13525287c56550b8708100f93e60509f",
        "value": "0x0",
        "input": "0x095ea7b30000000000000000000000009aa2e7ffee192dcbdb40c9d75917d0d33501e5c600000000000000000000000000000000000000000000000000000000000f4240",
        "nonce": "0x0",
        "chainId": "0x14a34"
      },
      "additionalContracts": [],
      "isFixedGasLimit": false
    },
    {
      "hash": null,
      "transactionType": "CALL",
      "contractName": null,
      "contractAddress": "0x9aa2e7ffee192dcbdb40c9d75917d0d33501e5c6",
      "function": "createSubscription(uint256,uint256)",
      "arguments": [
        "1",
        "1"
      ],
      "transaction": {
        "from": "0x833608a2744a85330a9643a99b6c08019f51e51e",
        "to": "0x9aa2e7ffee192dcbdb40c9d75917d0d33501e5c6",
        "value": "0x0",
        "input": "0xa71b6cd000000000000000000000000000000000000000000000000000000000000000010000000000000000000000000000000000000000000000000000000000000001",
        "nonce": "0x1",
        "chainId": "0x14a34"
      },
      "additionalContracts": [],
      "isFixedGasLimit": false
    },
    {
      "hash": null,
      "transactionType": "CALL",
      "contractName": null,
      "contractAddress": "0xa4253e7c13525287c56550b8708100f93e60509f",
      "function": "approve(address,uint256)",
      "arguments": [
        "0x9aa2E7FFEE192DcBdb40c9D75917d0D33501e5c6",
        "4000000"
      ],
      "transaction": {
        "from": "0x8d97d2e9da9549c5783ba40c24c486bfe6be164e",
        "to": "0xa4253e7c13525287c56550b8708100f93e60509f",
        "value": "0x0",
        "input": "0x095ea7b30000000000000000000000009aa2e7ffee192dcbdb40c9d75917d0d33501e5c600000000000000000000000000000000000000000000000000000000003d0900",
        "nonce": "0x0",
        "chainId": "0x14a34"
      },
      "additionalContracts": [],
      "isFixedGasLimit": false
    },
    {
      "hash": null,
      "transactionType": "CALL",
      "contractName": null,
      "contractAddress": "0x9aa2e7ffee192dcbdb40c9d75917d0d33501e5c6",
      "function": "createSubscription(uint256,uint256)",
      "arguments": [
        "2",
        "2"
      ],
      "transaction": {
        "from": "0x8d97d2e9da9549c5783ba40c24c486bfe6be164e",
        "to": "0x9aa2e7ffee192dcbdb40c9d75917d0d33501e5c6",
        "value": "0x0",
        "input": "0xa71b6cd000000000000000000000000000000000000000000000000000000000000000020000000000000000000000000000000000000000000000000000000000000002",
        "nonce": "0x1",
        "chainId": "0x14a34"
      },
      "additionalContracts": [],
      "isFixedGasLimit": false
    },
    {
      "hash": null,
      "transactionType": "CALL",
      "contractName": null,
      "contractAddress": "0xa4253e7c13525287c56550b8708100f93e60509f",
      "function": "approve(address,uint256)",
      "arguments": [
        "0x9aa2E7FFEE192DcBdb40c9D75917d0D33501e5c6",
        "9000000"
      ],
      "transaction": {
        "from": "0x134975844d919cfde3409fe088a05a43bbd88759",
        "to": "0xa4253e7c13525287c56550b8708100f93e60509f",
        "value": "0x0",
        "input": "0x095ea7b30000000000000000000000009aa2e7ffee192dcbdb40c9d75917d0d33501e5c60000000000000000000000000000000000000000000000000000000000895440",
        "nonce": "0x0",
        "chainId": "0x14a34"
      },
      "additionalContracts": [],
      "isFixedGasLimit": false
    },
    {
      "hash": null,
      "transactionType": "CALL",
      "contractName": null,
      "contractAddress": "0x9aa2e7ffee192dcbdb40c9d75917d0d33501e5c6",
      "function": "createSubscription(uint256,uint256)",
      "arguments": [
        "3",
        "3"
      ],
      "transaction": {
        "from": "0x134975844d919cfde3409fe088a05a43bbd88759",
        "to": "0x9aa2e7ffee192dcbdb40c9d75917d0d33501e5c6",
        "value": "0x0",
        "input": "0xa71b6cd000000000000000000000000000000000000000000000000000000000000000030000000000000000000000000000000000000000000000000000000000000003",
        "nonce": "0x1",
        "chainId": "0x14a34"
      },
      "additionalContracts": [],
      "isFixedGasLimit": false
    },
    {
      "hash": null,
      "transactionType": "CALL",
      "contractName": null,
      "contractAddress": "0xa4253e7c13525287c56550b8708100f93e60509f",
      "function": "approve(address,uint256)",
      "arguments": [
        "0x9aa2E7FFEE192DcBdb40c9D75917d0D33501e5c6",
        "16000000"
      ],
      "transaction": {
        "from": "0xce17779c6a41e667e9dcaf3cbdad585596cb48a4",
        "to": "0xa4253e7c13525287c56550b8708100f93e60509f",
        "value": "0x0",
        "input": "0x095ea7b30000000000000000000000009aa2e7ffee192dcbdb40c9d75917d0d33501e5c60000000000000000000000000000000000000000000000000000000000f42400",
        "nonce": "0x0",
        "chainId": "0x14a34"
      },
      "additionalContracts": [],
      "isFixedGasLimit": false
    },
    {
      "hash": null,
      "transactionType": "CALL",
      "contractName": null,
      "contractAddress": "0x9aa2e7ffee192dcbdb40c9d75917d0d33501e5c6",
      "function": "createSubscription(uint256,uint256)",
      "arguments": [
        "4",
        "4"
      ],
      "transaction": {
        "from": "0xce17779c6a41e667e9dcaf3cbdad585596cb48a4",
        "to": "0x9aa2e7ffee192dcbdb40c9d75917d0d33501e5c6",
        "value": "0x0",
        "input": "0xa71b6cd000000000000000000000000000000000000000000000000000000000000000040000000000000000000000000000000000000000000000000000000000000004",
        "nonce": "0x1",
        "chainId": "0x14a34"
      },
      "additionalContracts": [],
      "isFixedGasLimit": false
    },
    {
      "hash": null,
      "transactionType": "CALL",
      "contractName": null,
      "contractAddress": "0xa4253e7c13525287c56550b8708100f93e60509f",
      "function": "approve(address,uint256)",
      "arguments": [
        "0x9aa2E7FFEE192DcBdb40c9D75917d0D33501e5c6",
        "25000000"
      ],
      "transaction": {
        "from": "0xbffe2d862f07f6b0e080c0cbba63350770150c56",
        "to": "0xa4253e7c13525287c56550b8708100f93e60509f",
        "value": "0x0",
        "input": "0x095ea7b30000000000000000000000009aa2e7ffee192dcbdb40c9d75917d0d33501e5c600000000000000000000000000000000000000000000000000000000017d7840",
        "nonce": "0x0",
        "chainId": "0x14a34"
      },
      "additionalContracts": [],
      "isFixedGasLimit": false
    },
    {
      "hash": null,
      "transactionType": "CALL",
      "contractName": null,
      "contractAddress": "0x9aa2e7ffee192dcbdb40c9d75917d0d33501e5c6",
      "function": "createSubscription(uint256,uint256)",
      "arguments": [
        "5",
        "5"
      ],
      "transaction": {
        "from": "0xbffe2d862f07f6b0e080c0cbba63350770150c56",
        "to": "0x9aa2e7ffee192dcbdb40c9d75917d0d33501e5c6",
        "value": "0x0",
        "input": "0xa71b6cd000000000000000000000000000000000000000000000000000000000000000050000000000000000000000000000000000000000000000000000000000000005",
        "nonce": "0x1",
        "chainId": "0x14a34"
      },
      "additionalContracts": [],
      "isFixedGasLimit": false
    },
    {
      "hash": null,
      "transactionType": "CALL",
      "contractName": null,
      "contractAddress": "0xa4253e7c13525287c56550b8708100f93e60509f",
      "function": "approve(address,uint256)",
      "arguments": [
        "0x9aa2E7FFEE192DcBdb40c9D75917d0D33501e5c6",
        "36000000"
      ],
      "transaction": {
        "from": "0x8483cf0621999fbf8b0072166e68109656859d75",
        "to": "0xa4253e7c13525287c56550b8708100f93e60509f",
        "value": "0x0",
        "input": "0x095ea7b30000000000000000000000009aa2e7ffee192dcbdb40c9d75917d0d33501e5c60000000000000000000000000000000000000000000000000000000002255100",
        "nonce": "0x0",
        "chainId": "0x14a34"
      },
      "additionalContracts": [],
      "isFixedGasLimit": false
    },
    {
      "hash": null,
      "transactionType": "CALL",
      "contractName": null,
      "contractAddress": "0x9aa2e7ffee192dcbdb40c9d75917d0d33501e5c6",
      "function": "createSubscription(uint256,uint256)",
      "arguments": [
        "6",
        "6"
      ],
      "transaction": {
        "from": "0x8483cf0621999fbf8b0072166e68109656859d75",
        "to": "0x9aa2e7ffee192dcbdb40c9d75917d0d33501e5c6",
        "value": "0x0",
        "input": "0xa71b6cd000000000000000000000000000000000000000000000000000000000000000060000000000000000000000000000000000000000000000000000000000000006",
        "nonce": "0x1",
        "chainId": "0x14a34"
      },
      "additionalContracts": [],
      "isFixedGasLimit": false
    },
    {
      "hash": null,
      "transactionType": "CALL",
      "contractName": null,
      "contractAddress": "0xa4253e7c13525287c56550b8708100f93e60509f",
      "function": "approve(address,uint256)",
      "arguments": [
        "0x9aa2E7FFEE192DcBdb40c9D75917d0D33501e5c6",
        "49000000"
      ],
      "transaction": {
        "from": "0xbc6c931d8831a2d2e7ac81e1a4651f156e9fe7e2",
        "to": "0xa4253e7c13525287c56550b8708100f93e60509f",
        "value": "0x0",
        "input": "0x095ea7b30000000000000000000000009aa2e7ffee192dcbdb40c9d75917d0d33501e5c60000000000000000000000000000000000000000000000000000000002ebae40",
        "nonce": "0x0",
        "chainId": "0x14a34"
      },
      "additionalContracts": [],
      "isFixedGasLimit": false
    },
    {
      "hash": null,
      "transactionType": "CALL",
      "contractName": null,
      "contractAddress": "0x9aa2e7ffee192dcbdb40c9d75917d0d33501e5c6",
      "function": "createSubscription(uint256,uint256)",
      "arguments": [
        "7",
        "7"
      ],
      "transaction": {
        "from": "0xbc6c931d8831a2d2e7ac81e1a4651f156e9fe7e2",
        "to": "0x9aa2e7ffee192dcbdb40c9d75917d0d33501e5c6",
        "value": "0x0",
        "input": "0xa71b6cd000000000000000000000000000000000000000000000000000000000000000070000000000000000000000000000000000000000000000000000000000000007",
        "nonce": "0x1",
        "chainId": "0x14a34"
      },
      "additionalContracts": [],
      "isFixedGasLimit": false
    },
    {
      "hash": null,
      "transactionType": "CALL",
      "contractName": null,
      "contractAddress": "0xa4253e7c13525287c56550b8708100f93e60509f",
      "function": "approve(address,uint256)",
      "arguments": [
        "0x9aa2E7FFEE192DcBdb40c9D75917d0D33501e5c6",
        "64000000"
      ],
      "transaction": {
        "from": "0x4f486fa6a4fc4bfd3a91033f6dd072892e71cdbc",
        "to": "0xa4253e7c13525287c56550b8708100f93e60509f",
        "value": "0x0",
        "input": "0x095ea7b30000000000000000000000009aa2e7ffee192dcbdb40c9d75917d0d33501e5c60000000000000000000000000000000000000000000000000000000003d09000",
        "nonce": "0x0",
        "chainId": "0x14a34"
      },
      "additionalContracts": [],
      "isFixedGasLimit": false
    },
    {
      "hash": null,
      "transactionType": "CALL",
      "contractName": null,
      "contractAddress": "0x9aa2e7ffee192dcbdb40c9d75917d0d33501e5c6",
      "function": "createSubscription(uint256,uint256)",
      "arguments": [
        "8",
        "8"
      ],
      "transaction": {
        "from": "0x4f486fa6a4fc4bfd3a91033f6dd072892e71cdbc",
        "to": "0x9aa2e7ffee192dcbdb40c9d75917d0d33501e5c6",
        "value": "0x0",
        "input": "0xa71b6cd000000000000000000000000000000000000000000000000000000000000000080000000000000000000000000000000000000000000000000000000000000008",
        "nonce": "0x1",
        "chainId": "0x14a34"
      },
      "additionalContracts": [],
      "isFixedGasLimit": false
    },
    {
      "hash": null,
      "transactionType": "CALL",
      "contractName": null,
      "contractAddress": "0xa4253e7c13525287c56550b8708100f93e60509f",
      "function": "approve(address,uint256)",
      "arguments": [
        "0x9aa2E7FFEE192DcBdb40c9D75917d0D33501e5c6",
        "81000000"
      ],
      "transaction": {
        "from": "0xfe74c15966a3d42cf4bd0b1e62264a4b0c2b198e",
        "to": "0xa4253e7c13525287c56550b8708100f93e60509f",
        "value": "0x0",
        "input": "0x095ea7b30000000000000000000000009aa2e7ffee192dcbdb40c9d75917d0d33501e5c60000000000000000000000000000000000000000000000000000000004d3f640",
        "nonce": "0x0",
        "chainId": "0x14a34"
      },
      "additionalContracts": [],
      "isFixedGasLimit": false
    },
    {
      "hash": null,
      "transactionType": "CALL",
      "contractName": null,
      "contractAddress": "0x9aa2e7ffee192dcbdb40c9d75917d0d33501e5c6",
      "function": "createSubscription(uint256,uint256)",
      "arguments": [
        "9",
        "9"
      ],
      "transaction": {
        "from": "0xfe74c15966a3d42cf4bd0b1e62264a4b0c2b198e",
        "to": "0x9aa2e7ffee192dcbdb40c9d75917d0d33501e5c6",
        "value": "0x0",
        "input": "0xa71b6cd000000000000000000000000000000000000000000000000000000000000000090000000000000000000000000000000000000000000000000000000000000009",
        "nonce": "0x1",
        "chainId": "0x14a34"
      },
      "additionalContracts": [],
      "isFixedGasLimit": false
    },
    {
      "hash": null,
      "transactionType": "CALL",
      "contractName": null,
      "contractAddress": "0xa4253e7c13525287c56550b8708100f93e60509f",
      "function": "approve(address,uint256)",
      "arguments": [
        "0x9aa2E7FFEE192DcBdb40c9D75917d0D33501e5c6",
        "100000000"
      ],
      "transaction": {
        "from": "0xecd8a4b1e23d09139e3ff783d621cb7d8acae803",
        "to": "0xa4253e7c13525287c56550b8708100f93e60509f",
        "value": "0x0",
        "input": "0x095ea7b30000000000000000000000009aa2e7ffee192dcbdb40c9d75917d0d33501e5c60000000000000000000000000000000000000000000000000000000005f5e100",
        "nonce": "0x0",
        "chainId": "0x14a34"
      },
      "additionalContracts": [],
      "isFixedGasLimit": false
    },
    {
      "hash": null,
      "transactionType": "CALL",
      "contractName": null,
      "contractAddress": "0x9aa2e7ffee192dcbdb40c9d75917d0d33501e5c6",
      "function": "createSubscription(uint256,uint256)",
      "arguments": [
        "10",
        "10"
      ],
      "transaction": {
        "from": "0xecd8a4b1e23d09139e3ff783d621cb7d8acae803",
        "to": "0x9aa2e7ffee192dcbdb40c9d75917d0d33501e5c6",
        "value": "0x0",
        "input": "0xa71b6cd0000000000000000000000000000000000000000000000000000000000000000a000000000000000000000000000000000000000000000000000000000000000a",
        "nonce": "0x1",
        "chainId": "0x14a34"
      },
      "additionalContracts": [],
      "isFixedGasLimit": false
    },
    {
      "hash": null,
      "transactionType": "CALL",
      "contractName": null,
      "contractAddress": "0xa4253e7c13525287c56550b8708100f93e60509f",
      "function": "approve(address,uint256)",
      "arguments": [
        "0x9aa2E7FFEE192DcBdb40c9D75917d0D33501e5c6",
        "11000000"
      ],
      "transaction": {
        "from": "0xf51a34226cea1de0aa2a1e77358bdd7af9a70d5b",
        "to": "0xa4253e7c13525287c56550b8708100f93e60509f",
        "value": "0x0",
        "input": "0x095ea7b30000000000000000000000009aa2e7ffee192dcbdb40c9d75917d0d33501e5c60000000000000000000000000000000000000000000000000000000000a7d8c0",
        "nonce": "0x0",
        "chainId": "0x14a34"
      },
      "additionalContracts": [],
      "isFixedGasLimit": false
    },
    {
      "hash": null,
      "transactionType": "CALL",
      "contractName": null,
      "contractAddress": "0x9aa2e7ffee192dcbdb40c9d75917d0d33501e5c6",
      "function": "createSubscription(uint256,uint256)",
      "arguments": [
        "1",
        "11"
      ],
      "transaction": {
        "from": "0xf51a34226cea1de0aa2a1e77358bdd7af9a70d5b",
        "to": "0x9aa2e7ffee192dcbdb40c9d75917d0d33501e5c6",
        "value": "0x0",
        "input": "0xa71b6cd00000000000000000000000000000000000000000000000000000000000000001000000000000000000000000000000000000000000000000000000000000000b",
        "nonce": "0x1",
        "chainId": "0x14a34"
      },
      "additionalContracts": [],
      "isFixedGasLimit": false
    },
    {
      "hash": null,
      "transactionType": "CALL",
      "contractName": null,
      "contractAddress": "0xa4253e7c13525287c56550b8708100f93e60509f",
      "function": "approve(address,uint256)",
      "arguments": [
        "0x9aa2E7FFEE192DcBdb40c9D75917d0D33501e5c6",
        "24000000"
      ],
      "transaction": {
        "from": "0x78c9f6ea7fdadd2e619c284e78a84e09830d6ea0",
        "to": "0xa4253e7c13525287c56550b8708100f93e60509f",
        "value": "0x0",
        "input": "0x095ea7b30000000000000000000000009aa2e7ffee192dcbdb40c9d75917d0d33501e5c600000000000000000000000000000000000000000000000000000000016e3600",
        "nonce": "0x0",
        "chainId": "0x14a34"
      },
      "additionalContracts": [],
      "isFixedGasLimit": false
    },
    {
      "hash": null,
      "transactionType": "CALL",
      "contractName": null,
      "contractAddress": "0x9aa2e7ffee192dcbdb40c9d75917d0d33501e5c6",
      "function": "createSubscription(uint256,uint256)",
      "arguments": [
        "2",
        "12"
      ],
      "transaction": {
        "from": "0x78c9f6ea7fdadd2e619c284e78a84e09830d6ea0",
        "to": "0x9aa2e7ffee192dcbdb40c9d75917d0d33501e5c6",
        "value": "0x0",
        "input": "0xa71b6cd00000000000000000000000000000000000000000000000000000000000000002000000000000000000000000000000000000000000000000000000000000000c",
        "nonce": "0x1",
        "chainId": "0x14a34"
      },
      "additionalContracts": [],
      "isFixedGasLimit": false
    },
    {
      "hash": null,
      "transactionType": "CALL",
      "contractName": null,
      "contractAddress": "0xa4253e7c13525287c56550b8708100f93e60509f",
      "function": "approve(address,uint256)",
      "arguments": [
        "0x9aa2E7FFEE192DcBdb40c9D75917d0D33501e5c6",
        "39000000"
      ],
      "transaction": {
        "from": "0x69ce186d1ddc919d023b186c497fad6d23ce063e",
        "to": "0xa4253e7c13525287c56550b8708100f93e60509f",
        "value": "0x0",
        "input": "0x095ea7b30000000000000000000000009aa2e7ffee192dcbdb40c9d75917d0d33501e5c600000000000000000000000000000000000000000000000000000000025317c0",
        "nonce": "0x0",
        "chainId": "0x14a34"
      },
      "additionalContracts": [],
      "isFixedGasLimit": false
    },
    {
      "hash": null,
      "transactionType": "CALL",
      "contractName": null,
      "contractAddress": "0x9aa2e7ffee192dcbdb40c9d75917d0d33501e5c6",
      "function": "createSubscription(uint256,uint256)",
      "arguments": [
        "3",
        "13"
      ],
      "transaction": {
        "from": "0x69ce186d1ddc919d023b186c497fad6d23ce063e",
        "to": "0x9aa2e7ffee192dcbdb40c9d75917d0d33501e5c6",
        "value": "0x0",
        "input": "0xa71b6cd00000000000000000000000000000000000000000000000000000000000000003000000000000000000000000000000000000000000000000000000000000000d",
        "nonce": "0x1",
        "chainId": "0x14a34"
      },
      "additionalContracts": [],
      "isFixedGasLimit": false
    },
    {
      "hash": null,
      "transactionType": "CALL",
      "contractName": null,
      "contractAddress": "0xa4253e7c13525287c56550b8708100f93e60509f",
      "function": "approve(address,uint256)",
      "arguments": [
        "0x9aa2E7FFEE192DcBdb40c9D75917d0D33501e5c6",
        "56000000"
      ],
      "transaction": {
        "from": "0xed724582ad83e7af1dffdc742d07fb7342fbd13a",
        "to": "0xa4253e7c13525287c56550b8708100f93e60509f",
        "value": "0x0",
        "input": "0x095ea7b30000000000000000000000009aa2e7ffee192dcbdb40c9d75917d0d33501e5c60000000000000000000000000000000000000000000000000000000003567e00",
        "nonce": "0x0",
        "chainId": "0x14a34"
      },
      "additionalContracts": [],
      "isFixedGasLimit": false
    },
    {
      "hash": null,
      "transactionType": "CALL",
      "contractName": null,
      "contractAddress": "0x9aa2e7ffee192dcbdb40c9d75917d0d33501e5c6",
      "function": "createSubscription(uint256,uint256)",
      "arguments": [
        "4",
        "14"
      ],
      "transaction": {
        "from": "0xed724582ad83e7af1dffdc742d07fb7342fbd13a",
        "to": "0x9aa2e7ffee192dcbdb40c9d75917d0d33501e5c6",
        "value": "0x0",
        "input": "0xa71b6cd00000000000000000000000000000000000000000000000000000000000000004000000000000000000000000000000000000000000000000000000000000000e",
        "nonce": "0x1",
        "chainId": "0x14a34"
      },
      "additionalContracts": [],
      "isFixedGasLimit": false
    },
    {
      "hash": null,
      "transactionType": "CALL",
      "contractName": null,
      "contractAddress": "0xa4253e7c13525287c56550b8708100f93e60509f",
      "function": "approve(address,uint256)",
      "arguments": [
        "0x9aa2E7FFEE192DcBdb40c9D75917d0D33501e5c6",
        "75000000"
      ],
      "transaction": {
        "from": "0x7b827b4db37b61fa59ad228b87bf712857bab165",
        "to": "0xa4253e7c13525287c56550b8708100f93e60509f",
        "value": "0x0",
        "input": "0x095ea7b30000000000000000000000009aa2e7ffee192dcbdb40c9d75917d0d33501e5c600000000000000000000000000000000000000000000000000000000047868c0",
        "nonce": "0x0",
        "chainId": "0x14a34"
      },
      "additionalContracts": [],
      "isFixedGasLimit": false
    },
    {
      "hash": null,
      "transactionType": "CALL",
      "contractName": null,
      "contractAddress": "0x9aa2e7ffee192dcbdb40c9d75917d0d33501e5c6",
      "function": "createSubscription(uint256,uint256)",
      "arguments": [
        "5",
        "15"
      ],
      "transaction": {
        "from": "0x7b827b4db37b61fa59ad228b87bf712857bab165",
        "to": "0x9aa2e7ffee192dcbdb40c9d75917d0d33501e5c6",
        "value": "0x0",
        "input": "0xa71b6cd00000000000000000000000000000000000000000000000000000000000000005000000000000000000000000000000000000000000000000000000000000000f",
        "nonce": "0x1",
        "chainId": "0x14a34"
      },
      "additionalContracts": [],
      "isFixedGasLimit": false
    },
    {
      "hash": null,
      "transactionType": "CALL",
      "contractName": null,
      "contractAddress": "0xa4253e7c13525287c56550b8708100f93e60509f",
      "function": "approve(address,uint256)",
      "arguments": [
        "0x9aa2E7FFEE192DcBdb40c9D75917d0D33501e5c6",
        "96000000"
      ],
      "transaction": {
        "from": "0x1fa026312fcee00ef849a34cddbb3e5e307c7ccd",
        "to": "0xa4253e7c13525287c56550b8708100f93e60509f",
        "value": "0x0",
        "input": "0x095ea7b30000000000000000000000009aa2e7ffee192dcbdb40c9d75917d0d33501e5c60000000000000000000000000000000000000000000000000000000005b8d800",
        "nonce": "0x0",
        "chainId": "0x14a34"
      },
      "additionalContracts": [],
      "isFixedGasLimit": false
    },
    {
      "hash": null,
      "transactionType": "CALL",
      "contractName": null,
      "contractAddress": "0x9aa2e7ffee192dcbdb40c9d75917d0d33501e5c6",
      "function": "createSubscription(uint256,uint256)",
      "arguments": [
        "6",
        "16"
      ],
      "transaction": {
        "from": "0x1fa026312fcee00ef849a34cddbb3e5e307c7ccd",
        "to": "0x9aa2e7ffee192dcbdb40c9d75917d0d33501e5c6",
        "value": "0x0",
        "input": "0xa71b6cd000000000000000000000000000000000000000000000000000000000000000060000000000000000000000000000000000000000000000000000000000000010",
        "nonce": "0x1",
        "chainId": "0x14a34"
      },
      "additionalContracts": [],
      "isFixedGasLimit": false
    },
    {
      "hash": null,
      "transactionType": "CALL",
      "contractName": null,
      "contractAddress": "0xa4253e7c13525287c56550b8708100f93e60509f",
      "function": "approve(address,uint256)",
      "arguments": [
        "0x9aa2E7FFEE192DcBdb40c9D75917d0D33501e5c6",
        "119000000"
      ],
      "transaction": {
        "from": "0x9fe7826a896a7bcd70fc8b0bddda45732b7607d0",
        "to": "0xa4253e7c13525287c56550b8708100f93e60509f",
        "value": "0x0",
        "input": "0x095ea7b30000000000000000000000009aa2e7ffee192dcbdb40c9d75917d0d33501e5c6000000000000000000000000000000000000000000000000000000000717cbc0",
        "nonce": "0x0",
        "chainId": "0x14a34"
      },
      "additionalContracts": [],
      "isFixedGasLimit": false
    },
    {
      "hash": null,
      "transactionType": "CALL",
      "contractName": null,
      "contractAddress": "0x9aa2e7ffee192dcbdb40c9d75917d0d33501e5c6",
      "function": "createSubscription(uint256,uint256)",
      "arguments": [
        "7",
        "17"
      ],
      "transaction": {
        "from": "0x9fe7826a896a7bcd70fc8b0bddda45732b7607d0",
        "to": "0x9aa2e7ffee192dcbdb40c9d75917d0d33501e5c6",
        "value": "0x0",
        "input": "0xa71b6cd000000000000000000000000000000000000000000000000000000000000000070000000000000000000000000000000000000000000000000000000000000011",
        "nonce": "0x1",
        "chainId": "0x14a34"
      },
      "additionalContracts": [],
      "isFixedGasLimit": false
    },
    {
      "hash": null,
      "transactionType": "CALL",
      "contractName": null,
      "contractAddress": "0xa4253e7c13525287c56550b8708100f93e60509f",
      "function": "approve(address,uint256)",
      "arguments": [
        "0x9aa2E7FFEE192DcBdb40c9D75917d0D33501e5c6",
        "144000000"
      ],
      "transaction": {
        "from": "0x53b4d2bd9ec0d63dcf601139c899fc5bbdd8042c",
        "to": "0xa4253e7c13525287c56550b8708100f93e60509f",
        "value": "0x0",
        "input": "0x095ea7b30000000000000000000000009aa2e7ffee192dcbdb40c9d75917d0d33501e5c60000000000000000000000000000000000000000000000000000000008954400",
        "nonce": "0x0",
        "chainId": "0x14a34"
      },
      "additionalContracts": [],
      "isFixedGasLimit": false
    },
    {
      "hash": null,
      "transactionType": "CALL",
      "contractName": null,
      "contractAddress": "0x9aa2e7ffee192dcbdb40c9d75917d0d33501e5c6",
      "function": "createSubscription(uint256,uint256)",
      "arguments": [
        "8",
        "18"
      ],
      "transaction": {
        "from": "0x53b4d2bd9ec0d63dcf601139c899fc5bbdd8042c",
        "to": "0x9aa2e7ffee192dcbdb40c9d75917d0d33501e5c6",
        "value": "0x0",
        "input": "0xa71b6cd000000000000000000000000000000000000000000000000000000000000000080000000000000000000000000000000000000000000000000000000000000012",
        "nonce": "0x1",
        "chainId": "0x14a34"
      },
      "additionalContracts": [],
      "isFixedGasLimit": false
    },
    {
      "hash": null,
      "transactionType": "CALL",
      "contractName": null,
      "contractAddress": "0xa4253e7c13525287c56550b8708100f93e60509f",
      "function": "approve(address,uint256)",
      "arguments": [
        "0x9aa2E7FFEE192DcBdb40c9D75917d0D33501e5c6",
        "171000000"
      ],
      "transaction": {
        "from": "0xb53e24183e9a1013258733bd25722e15e50fa893",
        "to": "0xa4253e7c13525287c56550b8708100f93e60509f",
        "value": "0x0",
        "input": "0x095ea7b30000000000000000000000009aa2e7ffee192dcbdb40c9d75917d0d33501e5c6000000000000000000000000000000000000000000000000000000000a3140c0",
        "nonce": "0x0",
        "chainId": "0x14a34"
      },
      "additionalContracts": [],
      "isFixedGasLimit": false
    },
    {
      "hash": null,
      "transactionType": "CALL",
      "contractName": null,
      "contractAddress": "0x9aa2e7ffee192dcbdb40c9d75917d0d33501e5c6",
      "function": "createSubscription(uint256,uint256)",
      "arguments": [
        "9",
        "19"
      ],
      "transaction": {
        "from": "0xb53e24183e9a1013258733bd25722e15e50fa893",
        "to": "0x9aa2e7ffee192dcbdb40c9d75917d0d33501e5c6",
        "value": "0x0",
        "input": "0xa71b6cd000000000000000000000000000000000000000000000000000000000000000090000000000000000000000000000000000000000000000000000000000000013",
        "nonce": "0x1",
        "chainId": "0x14a34"
      },
      "additionalContracts": [],
      "isFixedGasLimit": false
    },
    {
      "hash": null,
      "transactionType": "CALL",
      "contractName": null,
      "contractAddress": "0xa4253e7c13525287c56550b8708100f93e60509f",
      "function": "approve(address,uint256)",
      "arguments": [
        "0x9aa2E7FFEE192DcBdb40c9D75917d0D33501e5c6",
        "200000000"
      ],
      "transaction": {
        "from": "0x5e6017c793ad9f24feb1de489fa6ac2fc5ec6254",
        "to": "0xa4253e7c13525287c56550b8708100f93e60509f",
        "value": "0x0",
        "input": "0x095ea7b30000000000000000000000009aa2e7ffee192dcbdb40c9d75917d0d33501e5c6000000000000000000000000000000000000000000000000000000000bebc200",
        "nonce": "0x0",
        "chainId": "0x14a34"
      },
      "additionalContracts": [],
      "isFixedGasLimit": false
    },
    {
      "hash": null,
      "transactionType": "CALL",
      "contractName": null,
      "contractAddress": "0x9aa2e7ffee192dcbdb40c9d75917d0d33501e5c6",
      "function": "createSubscription(uint256,uint256)",
      "arguments": [
        "10",
        "20"
      ],
      "transaction": {
        "from": "0x5e6017c793ad9f24feb1de489fa6ac2fc5ec6254",
        "to": "0x9aa2e7ffee192dcbdb40c9d75917d0d33501e5c6",
        "value": "0x0",
        "input": "0xa71b6cd0000000000000000000000000000000000000000000000000000000000000000a0000000000000000000000000000000000000000000000000000000000000014",
        "nonce": "0x1",
        "chainId": "0x14a34"
      },
      "additionalContracts": [],
      "isFixedGasLimit": false
    }
  ],
  "receipts": [],
  "libraries": [],
  "pending": [],
  "returns": {},
  "timestamp": 1743674796,
  "chain": 84532,
  "commit": "fee831d"
}