{
  "transactions": [
    {
      "hash": "0x558382ed06a84ad978f2c6a0b0c234124d5c5de43109e124406225fd5eff4145",
      "transactionType": "CALL",
      "contractName": null,
      "contractAddress": "0xa4253e7c13525287c56550b8708100f93e60509f",
      "function": "transfer(address,uint256)",
      "arguments": [
        "0x60d63b554738d1030406ca796381c90dE7e9D785",
        "2000000"
      ],
      "transaction": {
        "from": "0xbe2680dc1752109b4344dbeb1072fd8cd880e54b",
        "to": "0xa4253e7c13525287c56550b8708100f93e60509f",
        "value": "0x0",
        "input": "0xa9059cbb00000000000000000000000060d63b554738d1030406ca796381c90de7e9d78500000000000000000000000000000000000000000000000000000000001e8480",
        "nonce": "0x302",
        "chainId": "0x14a34"
      },
      "additionalContracts": [],
      "isFixedGasLimit": false
    },
    {
      "hash": "0xf227c621ac40bcdf9cb3810c21703c1078d7125cd8bd7df365cba2691673d15d",
      "transactionType": "CALL",
      "contractName": null,
      "contractAddress": "0x60d63b554738d1030406ca796381c90de7e9d785",
      "function": null,
      "arguments": null,
      "transaction": {
        "from": "0xbe2680dc1752109b4344dbeb1072fd8cd880e54b",
        "to": "0x60d63b554738d1030406ca796381c90de7e9d785",
        "value": "0x38d7ea4c68000",
        "input": "0x",
        "nonce": "0x303",
        "chainId": "0x14a34"
      },
      "additionalContracts": [],
      "isFixedGasLimit": false
    },
    {
      "hash": "0xdff5d487bffcd23193c2553a34deb2ae057e57292ef52b50cc850fbb55ecf5af",
      "transactionType": "CALL",
      "contractName": null,
      "contractAddress": "0xa4253e7c13525287c56550b8708100f93e60509f",
      "function": "transfer(address,uint256)",
      "arguments": [
        "0xCcc6b8213E3d72eFAc5879505C55e9E3E70854b4",
        "2000000"
      ],
      "transaction": {
        "from": "0xbe2680dc1752109b4344dbeb1072fd8cd880e54b",
        "to": "0xa4253e7c13525287c56550b8708100f93e60509f",
        "value": "0x0",
        "input": "0xa9059cbb000000000000000000000000ccc6b8213e3d72efac5879505c55e9e3e70854b400000000000000000000000000000000000000000000000000000000001e8480",
        "nonce": "0x304",
        "chainId": "0x14a34"
      },
      "additionalContracts": [],
      "isFixedGasLimit": false
    },
    {
      "hash": "0xefa87f6111869ab4b29644dc8d342e72a62fafc8e03b839f9a23b5341d8fdefb",
      "transactionType": "CALL",
      "contractName": null,
      "contractAddress": "0xccc6b8213e3d72efac5879505c55e9e3e70854b4",
      "function": null,
      "arguments": null,
      "transaction": {
        "from": "0xbe2680dc1752109b4344dbeb1072fd8cd880e54b",
        "to": "0xccc6b8213e3d72efac5879505c55e9e3e70854b4",
        "value": "0x38d7ea4c68000",
        "input": "0x",
        "nonce": "0x305",
        "chainId": "0x14a34"
      },
      "additionalContracts": [],
      "isFixedGasLimit": false
    },
    {
      "hash": "0xd9263364feef32f6f8c358160e1c7bb56337537a7545da5cd17f5c44b53c486d",
      "transactionType": "CALL",
      "contractName": null,
      "contractAddress": "0xa4253e7c13525287c56550b8708100f93e60509f",
      "function": "approve(address,uint256)",
      "arguments": [
        "0x3287e52AFBaa6D10b006438b1e679440ea66B81b",
        "2000000"
      ],
      "transaction": {
        "from": "0x60d63b554738d1030406ca796381c90de7e9d785",
        "to": "0xa4253e7c13525287c56550b8708100f93e60509f",
        "value": "0x0",
        "input": "0x095ea7b30000000000000000000000003287e52afbaa6d10b006438b1e679440ea66b81b00000000000000000000000000000000000000000000000000000000001e8480",
        "nonce": "0x1",
        "chainId": "0x14a34"
      },
      "additionalContracts": [],
      "isFixedGasLimit": false
    },
    {
      "hash": null,
      "transactionType": "CALL",
      "contractName": null,
      "contractAddress": "0x3287e52afbaa6d10b006438b1e679440ea66b81b",
      "function": "createSubscription(uint256,uint256)",
      "arguments": [
        "1",
        "1"
      ],
      "transaction": {
        "from": "0x60d63b554738d1030406ca796381c90de7e9d785",
        "to": "0x3287e52afbaa6d10b006438b1e679440ea66b81b",
        "value": "0x0",
        "input": "0xa71b6cd000000000000000000000000000000000000000000000000000000000000000010000000000000000000000000000000000000000000000000000000000000001",
        "nonce": "0x2",
        "chainId": "0x14a34"
      },
      "additionalContracts": [],
      "isFixedGasLimit": false
    },
    {
      "hash": null,
      "transactionType": "CALL",
      "contractName": null,
      "contractAddress": "0xa4253e7c13525287c56550b8708100f93e60509f",
      "function": "approve(address,uint256)",
      "arguments": [
        "0x3287e52AFBaa6D10b006438b1e679440ea66B81b",
        "2000000"
      ],
      "transaction": {
        "from": "0xccc6b8213e3d72efac5879505c55e9e3e70854b4",
        "to": "0xa4253e7c13525287c56550b8708100f93e60509f",
        "value": "0x0",
        "input": "0x095ea7b30000000000000000000000003287e52afbaa6d10b006438b1e679440ea66b81b00000000000000000000000000000000000000000000000000000000001e8480",
        "nonce": "0x0",
        "chainId": "0x14a34"
      },
      "additionalContracts": [],
      "isFixedGasLimit": false
    },
    {
      "hash": null,
      "transactionType": "CALL",
      "contractName": null,
      "contractAddress": "0x3287e52afbaa6d10b006438b1e679440ea66b81b",
      "function": "createSubscription(uint256,uint256)",
      "arguments": [
        "1",
        "1"
      ],
      "transaction": {
        "from": "0xccc6b8213e3d72efac5879505c55e9e3e70854b4",
        "to": "0x3287e52afbaa6d10b006438b1e679440ea66b81b",
        "value": "0x0",
        "input": "0xa71b6cd000000000000000000000000000000000000000000000000000000000000000010000000000000000000000000000000000000000000000000000000000000001",
        "nonce": "0x1",
        "chainId": "0x14a34"
      },
      "additionalContracts": [],
      "isFixedGasLimit": false
    }
  ],
  "receipts": [
    {
      "status": "0x1",
      "cumulativeGasUsed": "0x7dd3ec",
      "logs": [
        {
          "address": "0xa4253e7c13525287c56550b8708100f93e60509f",
          "topics": [
            "0xddf252ad1be2c89b69c2b068fc378daa952ba7f163c4a11628f55a4df523b3ef",
            "0x000000000000000000000000be2680dc1752109b4344dbeb1072fd8cd880e54b",
            "0x00000000000000000000000060d63b554738d1030406ca796381c90de7e9d785"
          ],
          "data": "0x00000000000000000000000000000000000000000000000000000000001e8480",
          "blockHash": "0x26c5dd3c14db7bdb4e8afaa5a509c535b7a0aec2f37c23dffc1125082ab02d07",
          "blockNumber": "0x16d8bfa",
          "transactionHash": "0x558382ed06a84ad978f2c6a0b0c234124d5c5de43109e124406225fd5eff4145",
          "transactionIndex": "0x1e",
          "logIndex": "0xb0",
          "removed": false
        }
      ],
      "logsBloom": "0x00000000000000800000080000000000000000000000200000000000000000000000000000000000000000000000000000000000000000000000000002000000000000000000000040000008000000000000000000000000000000000000000000000000000000000000000000000000000000000000000000000010000000000000000000000000000000000000000200000000000000000000000000000000000000000000000000000000000000000000000000000000000000000000000000000002000000000000000000000000000000000000000400000000000000000000000000000000000000000000000001000000000000000000000000008000",
      "type": "0x2",
      "transactionHash": "0x558382ed06a84ad978f2c6a0b0c234124d5c5de43109e124406225fd5eff4145",
      "transactionIndex": "0x1e",
      "blockHash": "0x26c5dd3c14db7bdb4e8afaa5a509c535b7a0aec2f37c23dffc1125082ab02d07",
      "blockNumber": "0x16d8bfa",
      "gasUsed": "0x86b4",
      "effectiveGasPrice": "0x6bfc6",
      "from": "0xbe2680dc1752109b4344dbeb1072fd8cd880e54b",
      "to": "0xa4253e7c13525287c56550b8708100f93e60509f",
      "contractAddress": null,
      "l1BaseFeeScalar": "0x44d",
      "l1BlobBaseFee": "0x1",
      "l1BlobBaseFeeScalar": "0xa118b",
      "l1Fee": "0x849c4770",
      "l1GasPrice": "0x4b474667",
      "l1GasUsed": "0x640"
    },
    {
      "status": "0x1",
      "cumulativeGasUsed": "0x36b1e8",
      "logs": [],
      "logsBloom": "0x00000000000000000000000000000000000000000000000000000000000000000000000000000000000000000000000000000000000000000000000000000000000000000000000000000000000000000000000000000000000000000000000000000000000000000000000000000000000000000000000000000000000000000000000000000000000000000000000000000000000000000000000000000000000000000000000000000000000000000000000000000000000000000000000000000000000000000000000000000000000000000000000000000000000000000000000000000000000000000000000000000000000000000000000000000000",
      "type": "0x2",
      "transactionHash": "0xf227c621ac40bcdf9cb3810c21703c1078d7125cd8bd7df365cba2691673d15d",
      "transactionIndex": "0x17",
      "blockHash": "0x53ed6564269e45b0002af46d91f97ca8060281c3c3055fb3f789d675b104c8dd",
      "blockNumber": "0x16d8bfc",
      "gasUsed": "0x5208",
      "effectiveGasPrice": "0x6bfc6",
      "from": "0xbe2680dc1752109b4344dbeb1072fd8cd880e54b",
      "to": "0x60d63b554738d1030406ca796381c90de7e9d785",
      "contractAddress": null,
      "l1BaseFeeScalar": "0x44d",
      "l1BlobBaseFee": "0x1",
      "l1BlobBaseFeeScalar": "0xa118b",
      "l1Fee": "0x8531d5cb",
      "l1GasPrice": "0x4b9c2c41",
      "l1GasUsed": "0x640"
    },
    {
      "status": "0x1",
      "cumulativeGasUsed": "0x2d87cc",
      "logs": [
        {
          "address": "0xa4253e7c13525287c56550b8708100f93e60509f",
          "topics": [
            "0xddf252ad1be2c89b69c2b068fc378daa952ba7f163c4a11628f55a4df523b3ef",
            "0x000000000000000000000000be2680dc1752109b4344dbeb1072fd8cd880e54b",
            "0x000000000000000000000000ccc6b8213e3d72efac5879505c55e9e3e70854b4"
          ],
          "data": "0x00000000000000000000000000000000000000000000000000000000001e8480",
          "blockHash": "0x8b35c26f8a3acdba92f905460ccb1c5f75ce80222d47f0a812e0454f1d6e0429",
          "blockNumber": "0x16d8bfe",
          "transactionHash": "0xdff5d487bffcd23193c2553a34deb2ae057e57292ef52b50cc850fbb55ecf5af",
          "transactionIndex": "0xd",
          "logIndex": "0x4b",
          "removed": false
        }
      ],
      "logsBloom": "0x00000000000000800000080000000000000000000000200000000000000000000000000000000000000000000000000000000000000000000000000000000000000000000004000040000208000000000000000000000000000000000100000000000000000000000000000000000000000000000000000000000010000000000000000000000000000000000000000000000000000000000000000000000000000000000000000000000000000000000000000000000000000000000000000000000002000000000000000000000000000000000000000400000000000000000000000000000000000000000000000000000000000000000000000000008000",
      "type": "0x2",
      "transactionHash": "0xdff5d487bffcd23193c2553a34deb2ae057e57292ef52b50cc850fbb55ecf5af",
      "transactionIndex": "0xd",
      "blockHash": "0x8b35c26f8a3acdba92f905460ccb1c5f75ce80222d47f0a812e0454f1d6e0429",
      "blockNumber": "0x16d8bfe",
      "gasUsed": "0x86b4",
      "effectiveGasPrice": "0x6bfc6",
      "from": "0xbe2680dc1752109b4344dbeb1072fd8cd880e54b",
      "to": "0xa4253e7c13525287c56550b8708100f93e60509f",
      "contractAddress": null,
      "l1BaseFeeScalar": "0x44d",
      "l1BlobBaseFee": "0x1",
      "l1BlobBaseFeeScalar": "0xa118b",
      "l1Fee": "0x8531d5cb",
      "l1GasPrice": "0x4b9c2c41",
      "l1GasUsed": "0x640"
    },
    {
      "status": "0x1",
      "cumulativeGasUsed": "0xcc0d4",
      "logs": [],
      "logsBloom": "0x00000000000000000000000000000000000000000000000000000000000000000000000000000000000000000000000000000000000000000000000000000000000000000000000000000000000000000000000000000000000000000000000000000000000000000000000000000000000000000000000000000000000000000000000000000000000000000000000000000000000000000000000000000000000000000000000000000000000000000000000000000000000000000000000000000000000000000000000000000000000000000000000000000000000000000000000000000000000000000000000000000000000000000000000000000000",
      "type": "0x2",
      "transactionHash": "0xefa87f6111869ab4b29644dc8d342e72a62fafc8e03b839f9a23b5341d8fdefb",
      "transactionIndex": "0x4",
      "blockHash": "0x16f382efd502b49eab755d5794cf30cd5da329f324e5a7a37824e012171f5745",
      "blockNumber": "0x16d8c00",
      "gasUsed": "0x5208",
      "effectiveGasPrice": "0x6bfc6",
      "from": "0xbe2680dc1752109b4344dbeb1072fd8cd880e54b",
      "to": "0xccc6b8213e3d72efac5879505c55e9e3e70854b4",
      "contractAddress": null,
      "l1BaseFeeScalar": "0x44d",
      "l1BlobBaseFee": "0x1",
      "l1BlobBaseFeeScalar": "0xa118b",
      "l1Fee": "0x8531d5cb",
      "l1GasPrice": "0x4b9c2c41",
      "l1GasUsed": "0x640"
    },
    {
      "status": "0x1",
      "cumulativeGasUsed": "0x80407e",
      "logs": [
        {
          "address": "0xa4253e7c13525287c56550b8708100f93e60509f",
          "topics": [
            "0x8c5be1e5ebec7d5bd14f71427d1e84f3dd0314c0f7b2291e5b200ac8c7c3b925",
            "0x00000000000000000000000060d63b554738d1030406ca796381c90de7e9d785",
            "0x0000000000000000000000003287e52afbaa6d10b006438b1e679440ea66b81b"
          ],
          "data": "0x00000000000000000000000000000000000000000000000000000000001e8480",
          "blockHash": "0x925d68bf77fb757f5fd692b7f9d7324c4cd2d3bc29f2f8103291552d4fc09672",
          "blockNumber": "0x16d8c01",
          "transactionHash": "0xd9263364feef32f6f8c358160e1c7bb56337537a7545da5cd17f5c44b53c486d",
          "transactionIndex": "0x27",
          "logIndex": "0xc7",
          "removed": false
        }
      ],
      "logsBloom": "0x00000000000000800000000000000000000000000000200000000000000000000000000000000000000000000000000000000000000000000000000002200000000000000000000040000000000000000000000000000000000000000000000000000000000000000000000000000000000010000000000000000000000000000000000000000000000000000000000200000010000000000000000000000000020000000000000004000000000000000000000000000000000000000000000000000000000000000000000000000000000000000000000000000000000000000010000000000000000000000000000001000000000000000000000000000000",
      "type": "0x2",
      "transactionHash": "0xd9263364feef32f6f8c358160e1c7bb56337537a7545da5cd17f5c44b53c486d",
      "transactionIndex": "0x27",
      "blockHash": "0x925d68bf77fb757f5fd692b7f9d7324c4cd2d3bc29f2f8103291552d4fc09672",
      "blockNumber": "0x16d8c01",
      "gasUsed": "0x7233",
      "effectiveGasPrice": "0x6bfc6",
      "from": "0x60d63b554738d1030406ca796381c90de7e9d785",
      "to": "0xa4253e7c13525287c56550b8708100f93e60509f",
      "contractAddress": null,
      "l1BaseFeeScalar": "0x44d",
      "l1BlobBaseFee": "0x1",
      "l1BlobBaseFeeScalar": "0xa118b",
      "l1Fee": "0x8531d5cb",
      "l1GasPrice": "0x4b9c2c41",
      "l1GasUsed": "0x640"
    }
  ],
  "libraries": [],
  "pending": [],
  "returns": {},
  "timestamp": 1743681252,
  "chain": 84532,
  "commit": "6f6a292"
}