{
  "transactions": [
    {
      "hash": "0x8cc411cae2079595d8d4edc05122fc45a5c083cc9a470b90ad99a362fae70dd4",
      "transactionType": "CALL",
      "contractName": null,
      "contractAddress": "0xa4253e7c13525287c56550b8708100f93e60509f",
      "function": "transfer(address,uint256)",
      "arguments": [
        "0x60d63b554738d1030406ca796381c90dE7e9D785",
        "2000000"
      ],
      "transaction": {
        "from": "0xbe2680dc1752109b4344dbeb1072fd8cd880e54b",
        "to": "0xa4253e7c13525287c56550b8708100f93e60509f",
        "value": "0x0",
        "input": "0xa9059cbb00000000000000000000000060d63b554738d1030406ca796381c90de7e9d78500000000000000000000000000000000000000000000000000000000001e8480",
        "nonce": "0x30b",
        "chainId": "0x14a34"
      },
      "additionalContracts": [],
      "isFixedGasLimit": false
    },
    {
      "hash": "0x57722df505a1e7f607bb4356899d5f68ea296369229e8a756840ded3e790acff",
      "transactionType": "CALL",
      "contractName": null,
      "contractAddress": "0x60d63b554738d1030406ca796381c90de7e9d785",
      "function": null,
      "arguments": null,
      "transaction": {
        "from": "0xbe2680dc1752109b4344dbeb1072fd8cd880e54b",
        "to": "0x60d63b554738d1030406ca796381c90de7e9d785",
        "value": "0x38d7ea4c68000",
        "input": "0x",
        "nonce": "0x30c",
        "chainId": "0x14a34"
      },
      "additionalContracts": [],
      "isFixedGasLimit": false
    },
    {
      "hash": "0x8d9bdbc55b6209711abf9319b75c068368267e1f28adf7f2c3e6b2b4e3e85842",
      "transactionType": "CALL",
      "contractName": null,
      "contractAddress": "0xa4253e7c13525287c56550b8708100f93e60509f",
      "function": "transfer(address,uint256)",
      "arguments": [
        "0xCcc6b8213E3d72eFAc5879505C55e9E3E70854b4",
        "2000000"
      ],
      "transaction": {
        "from": "0xbe2680dc1752109b4344dbeb1072fd8cd880e54b",
        "to": "0xa4253e7c13525287c56550b8708100f93e60509f",
        "value": "0x0",
        "input": "0xa9059cbb000000000000000000000000ccc6b8213e3d72efac5879505c55e9e3e70854b400000000000000000000000000000000000000000000000000000000001e8480",
        "nonce": "0x30d",
        "chainId": "0x14a34"
      },
      "additionalContracts": [],
      "isFixedGasLimit": false
    },
    {
      "hash": "0xefe5b8ff48bd872a6626f7611aa311e3e06eaa099a559bd071524e112c332b6d",
      "transactionType": "CALL",
      "contractName": null,
      "contractAddress": "0xccc6b8213e3d72efac5879505c55e9e3e70854b4",
      "function": null,
      "arguments": null,
      "transaction": {
        "from": "0xbe2680dc1752109b4344dbeb1072fd8cd880e54b",
        "to": "0xccc6b8213e3d72efac5879505c55e9e3e70854b4",
        "value": "0x38d7ea4c68000",
        "input": "0x",
        "nonce": "0x30e",
        "chainId": "0x14a34"
      },
      "additionalContracts": [],
      "isFixedGasLimit": false
    },
    {
      "hash": "0x1f17ff7d2f4c8cd6a1d943955c0979366b95573af46bdf5b012162b3c88256e8",
      "transactionType": "CALL",
      "contractName": null,
      "contractAddress": "0xa4253e7c13525287c56550b8708100f93e60509f",
      "function": "approve(address,uint256)",
      "arguments": [
        "0x60bd4010b77F17662000456C4A705D715F3087a1",
        "2000000"
      ],
      "transaction": {
        "from": "0x60d63b554738d1030406ca796381c90de7e9d785",
        "to": "0xa4253e7c13525287c56550b8708100f93e60509f",
        "value": "0x0",
        "input": "0x095ea7b300000000000000000000000060bd4010b77f17662000456c4a705d715f3087a100000000000000000000000000000000000000000000000000000000001e8480",
        "nonce": "0x4",
        "chainId": "0x14a34"
      },
      "additionalContracts": [],
      "isFixedGasLimit": false
    },
    {
      "hash": "0xf4c9f729e7c11ee1ad630a580539468e8d052772eeb2771aa81fbdf2f69c832b",
      "transactionType": "CALL",
      "contractName": null,
      "contractAddress": "0x60bd4010b77f17662000456c4a705d715f3087a1",
      "function": "createSubscription(uint256,uint256)",
      "arguments": [
        "1",
        "1"
      ],
      "transaction": {
        "from": "0x60d63b554738d1030406ca796381c90de7e9d785",
        "to": "0x60bd4010b77f17662000456c4a705d715f3087a1",
        "value": "0x0",
        "input": "0xa71b6cd000000000000000000000000000000000000000000000000000000000000000010000000000000000000000000000000000000000000000000000000000000001",
        "nonce": "0x5",
        "chainId": "0x14a34"
      },
      "additionalContracts": [],
      "isFixedGasLimit": false
    },
    {
      "hash": "0xf73826a27cbdac0952736c4f88af136e17f169b063b9ab0acb1cdb29ebfb825f",
      "transactionType": "CALL",
      "contractName": null,
      "contractAddress": "0xa4253e7c13525287c56550b8708100f93e60509f",
      "function": "approve(address,uint256)",
      "arguments": [
        "0x60bd4010b77F17662000456C4A705D715F3087a1",
        "2000000"
      ],
      "transaction": {
        "from": "0xccc6b8213e3d72efac5879505c55e9e3e70854b4",
        "to": "0xa4253e7c13525287c56550b8708100f93e60509f",
        "value": "0x0",
        "input": "0x095ea7b300000000000000000000000060bd4010b77f17662000456c4a705d715f3087a100000000000000000000000000000000000000000000000000000000001e8480",
        "nonce": "0x2",
        "chainId": "0x14a34"
      },
      "additionalContracts": [],
      "isFixedGasLimit": false
    },
    {
      "hash": "0xb5f4a759a6fd60c619ec0be8b98178a9d8048e6ece9cbc3e466bff99005fa4d9",
      "transactionType": "CALL",
      "contractName": null,
      "contractAddress": "0x60bd4010b77f17662000456c4a705d715f3087a1",
      "function": "createSubscription(uint256,uint256)",
      "arguments": [
        "1",
        "1"
      ],
      "transaction": {
        "from": "0xccc6b8213e3d72efac5879505c55e9e3e70854b4",
        "to": "0x60bd4010b77f17662000456c4a705d715f3087a1",
        "value": "0x0",
        "input": "0xa71b6cd000000000000000000000000000000000000000000000000000000000000000010000000000000000000000000000000000000000000000000000000000000001",
        "nonce": "0x3",
        "chainId": "0x14a34"
      },
      "additionalContracts": [],
      "isFixedGasLimit": false
    },
    {
      "hash": "0xdd27425122cda1aa57630e7c11768bb1d967414991d7c46434ca27ced8a3320a",
      "transactionType": "CALL",
      "contractName": null,
      "contractAddress": "0x60bd4010b77f17662000456c4a705d715f3087a1",
      "function": "processDailyBatch(uint256)",
      "arguments": [
        "0"
      ],
      "transaction": {
        "from": "0xbe2680dc1752109b4344dbeb1072fd8cd880e54b",
        "to": "0x60bd4010b77f17662000456c4a705d715f3087a1",
        "value": "0x0",
        "input": "0x4c47c3ed0000000000000000000000000000000000000000000000000000000000000000",
        "nonce": "0x30f",
        "chainId": "0x14a34"
      },
      "additionalContracts": [],
      "isFixedGasLimit": false
    }
  ],
  "receipts": [
    {
      "status": "0x1",
      "cumulativeGasUsed": "0x516e48",
      "logs": [
        {
          "address": "0xa4253e7c13525287c56550b8708100f93e60509f",
          "topics": [
            "0xddf252ad1be2c89b69c2b068fc378daa952ba7f163c4a11628f55a4df523b3ef",
            "0x000000000000000000000000be2680dc1752109b4344dbeb1072fd8cd880e54b",
            "0x00000000000000000000000060d63b554738d1030406ca796381c90de7e9d785"
          ],
          "data": "0x00000000000000000000000000000000000000000000000000000000001e8480",
          "blockHash": "0xa120aec85be181a9c9fdce3418ae9d532ecefe987591fe2778b01989a085d356",
          "blockNumber": "0x16d8cda",
          "transactionHash": "0x8cc411cae2079595d8d4edc05122fc45a5c083cc9a470b90ad99a362fae70dd4",
          "transactionIndex": "0x13",
          "logIndex": "0x28",
          "removed": false
        }
      ],
      "logsBloom": "0x00000000000000800000080000000000000000000000200000000000000000000000000000000000000000000000000000000000000000000000000002000000000000000000000040000008000000000000000000000000000000000000000000000000000000000000000000000000000000000000000000000010000000000000000000000000000000000000000200000000000000000000000000000000000000000000000000000000000000000000000000000000000000000000000000000002000000000000000000000000000000000000000400000000000000000000000000000000000000000000000001000000000000000000000000008000",
      "type": "0x2",
      "transactionHash": "0x8cc411cae2079595d8d4edc05122fc45a5c083cc9a470b90ad99a362fae70dd4",
      "transactionIndex": "0x13",
      "blockHash": "0xa120aec85be181a9c9fdce3418ae9d532ecefe987591fe2778b01989a085d356",
      "blockNumber": "0x16d8cda",
      "gasUsed": "0x86b4",
      "effectiveGasPrice": "0x1b5c7",
      "from": "0xbe2680dc1752109b4344dbeb1072fd8cd880e54b",
      "to": "0xa4253e7c13525287c56550b8708100f93e60509f",
      "contractAddress": null,
      "l1BaseFeeScalar": "0x44d",
      "l1BlobBaseFee": "0x1",
      "l1BlobBaseFeeScalar": "0xa118b",
      "l1Fee": "0xc167816d",
      "l1GasPrice": "0x6dc9fc5d",
      "l1GasUsed": "0x640"
    },
    {
      "status": "0x1",
      "cumulativeGasUsed": "0x54cf91",
      "logs": [],
      "logsBloom": "0x00000000000000000000000000000000000000000000000000000000000000000000000000000000000000000000000000000000000000000000000000000000000000000000000000000000000000000000000000000000000000000000000000000000000000000000000000000000000000000000000000000000000000000000000000000000000000000000000000000000000000000000000000000000000000000000000000000000000000000000000000000000000000000000000000000000000000000000000000000000000000000000000000000000000000000000000000000000000000000000000000000000000000000000000000000000",
      "type": "0x2",
      "transactionHash": "0x57722df505a1e7f607bb4356899d5f68ea296369229e8a756840ded3e790acff",
      "transactionIndex": "0x20",
      "blockHash": "0xf415f8b8e8d656076f30b6f484dfbfbcafb1c57d82bb00d80f7478f75c394917",
      "blockNumber": "0x16d8cdc",
      "gasUsed": "0x5208",
      "effectiveGasPrice": "0x1b5c7",
      "from": "0xbe2680dc1752109b4344dbeb1072fd8cd880e54b",
      "to": "0x60d63b554738d1030406ca796381c90de7e9d785",
      "contractAddress": null,
      "l1BaseFeeScalar": "0x44d",
      "l1BlobBaseFee": "0x1",
      "l1BlobBaseFeeScalar": "0xa118b",
      "l1Fee": "0xc8e466c3",
      "l1GasPrice": "0x720a2455",
      "l1GasUsed": "0x640"
    },
    {
      "status": "0x1",
      "cumulativeGasUsed": "0x3d99c4",
      "logs": [
        {
          "address": "0xa4253e7c13525287c56550b8708100f93e60509f",
          "topics": [
            "0xddf252ad1be2c89b69c2b068fc378daa952ba7f163c4a11628f55a4df523b3ef",
            "0x000000000000000000000000be2680dc1752109b4344dbeb1072fd8cd880e54b",
            "0x000000000000000000000000ccc6b8213e3d72efac5879505c55e9e3e70854b4"
          ],
          "data": "0x00000000000000000000000000000000000000000000000000000000001e8480",
          "blockHash": "0x13ede112539bed659bacdce5c381c2c0267f39d8fda2af59bb2b0fbf26fb8e74",
          "blockNumber": "0x16d8cde",
          "transactionHash": "0x8d9bdbc55b6209711abf9319b75c068368267e1f28adf7f2c3e6b2b4e3e85842",
          "transactionIndex": "0x15",
          "logIndex": "0x1b",
          "removed": false
        }
      ],
      "logsBloom": "0x00000000000000800000080000000000000000000000200000000000000000000000000000000000000000000000000000000000000000000000000000000000000000000004000040000208000000000000000000000000000000000100000000000000000000000000000000000000000000000000000000000010000000000000000000000000000000000000000000000000000000000000000000000000000000000000000000000000000000000000000000000000000000000000000000000002000000000000000000000000000000000000000400000000000000000000000000000000000000000000000000000000000000000000000000008000",
      "type": "0x2",
      "transactionHash": "0x8d9bdbc55b6209711abf9319b75c068368267e1f28adf7f2c3e6b2b4e3e85842",
      "transactionIndex": "0x15",
      "blockHash": "0x13ede112539bed659bacdce5c381c2c0267f39d8fda2af59bb2b0fbf26fb8e74",
      "blockNumber": "0x16d8cde",
      "gasUsed": "0x86b4",
      "effectiveGasPrice": "0x1b5c7",
      "from": "0xbe2680dc1752109b4344dbeb1072fd8cd880e54b",
      "to": "0xa4253e7c13525287c56550b8708100f93e60509f",
      "contractAddress": null,
      "l1BaseFeeScalar": "0x44d",
      "l1BlobBaseFee": "0x1",
      "l1BlobBaseFeeScalar": "0xa118b",
      "l1Fee": "0xc8e466c3",
      "l1GasPrice": "0x720a2455",
      "l1GasUsed": "0x640"
    },
    {
      "status": "0x1",
      "cumulativeGasUsed": "0x41f629",
      "logs": [],
      "logsBloom": "0x00000000000000000000000000000000000000000000000000000000000000000000000000000000000000000000000000000000000000000000000000000000000000000000000000000000000000000000000000000000000000000000000000000000000000000000000000000000000000000000000000000000000000000000000000000000000000000000000000000000000000000000000000000000000000000000000000000000000000000000000000000000000000000000000000000000000000000000000000000000000000000000000000000000000000000000000000000000000000000000000000000000000000000000000000000000",
      "type": "0x2",
      "transactionHash": "0xefe5b8ff48bd872a6626f7611aa311e3e06eaa099a559bd071524e112c332b6d",
      "transactionIndex": "0x9",
      "blockHash": "0x1986b4158c8bdfc584764c1510b584bc03c82486deb42d8de9b3c89c05d97902",
      "blockNumber": "0x16d8ce0",
      "gasUsed": "0x5208",
      "effectiveGasPrice": "0x1b5c8",
      "from": "0xbe2680dc1752109b4344dbeb1072fd8cd880e54b",
      "to": "0xccc6b8213e3d72efac5879505c55e9e3e70854b4",
      "contractAddress": null,
      "l1BaseFeeScalar": "0x44d",
      "l1BlobBaseFee": "0x1",
      "l1BlobBaseFeeScalar": "0xa118b",
      "l1Fee": "0xc8e466c3",
      "l1GasPrice": "0x720a2455",
      "l1GasUsed": "0x640"
    },
    {
      "status": "0x1",
      "cumulativeGasUsed": "0x165c2a",
      "logs": [
        {
          "address": "0xa4253e7c13525287c56550b8708100f93e60509f",
          "topics": [
            "0x8c5be1e5ebec7d5bd14f71427d1e84f3dd0314c0f7b2291e5b200ac8c7c3b925",
            "0x00000000000000000000000060d63b554738d1030406ca796381c90de7e9d785",
            "0x00000000000000000000000060bd4010b77f17662000456c4a705d715f3087a1"
          ],
          "data": "0x00000000000000000000000000000000000000000000000000000000001e8480",
          "blockHash": "0xc0f26b99e78d16dbbd0994600f8b5cd8a2467d879c23386f33c5c293aa961d67",
          "blockNumber": "0x16d8ce2",
          "transactionHash": "0x1f17ff7d2f4c8cd6a1d943955c0979366b95573af46bdf5b012162b3c88256e8",
          "transactionIndex": "0x6",
          "logIndex": "0x3",
          "removed": false
        }
      ],
      "logsBloom": "0x00000000000000800000000000000000000000000000200020000000000000000000000000000000000000000000000000000000000000000000000002200000000000000000000040000000000000000000000000000000000000000000000000000000000000000000000000000000000000000000000000000000000000000000000000000000000000000000000200000000000000000000000000000000020000000000000000000000000000000000040000000000000000000000000000000000000000000000000000000000000000000000000000010000000000000010000000000000000000000000000001000000000000000000000000000000",
      "type": "0x2",
      "transactionHash": "0x1f17ff7d2f4c8cd6a1d943955c0979366b95573af46bdf5b012162b3c88256e8",
      "transactionIndex": "0x6",
      "blockHash": "0xc0f26b99e78d16dbbd0994600f8b5cd8a2467d879c23386f33c5c293aa961d67",
      "blockNumber": "0x16d8ce2",
      "gasUsed": "0x7227",
      "effectiveGasPrice": "0x1b5c7",
      "from": "0x60d63b554738d1030406ca796381c90de7e9d785",
      "to": "0xa4253e7c13525287c56550b8708100f93e60509f",
      "contractAddress": null,
      "l1BaseFeeScalar": "0x44d",
      "l1BlobBaseFee": "0x1",
      "l1BlobBaseFeeScalar": "0xa118b",
      "l1Fee": "0xc52edd84",
      "l1GasPrice": "0x6fef1f6f",
      "l1GasUsed": "0x640"
    },
    {
      "status": "0x1",
      "cumulativeGasUsed": "0xf5f567",
      "logs": [
        {
          "address": "0xa4253e7c13525287c56550b8708100f93e60509f",
          "topics": [
            "0xddf252ad1be2c89b69c2b068fc378daa952ba7f163c4a11628f55a4df523b3ef",
            "0x00000000000000000000000060d63b554738d1030406ca796381c90de7e9d785",
            "0x00000000000000000000000060bd4010b77f17662000456c4a705d715f3087a1"
          ],
          "data": "0x00000000000000000000000000000000000000000000000000000000000f4240",
          "blockHash": "0x6d0fb77caf341b17ecc70f358b059cf15280721aa12652efa2974723c6b2ab60",
          "blockNumber": "0x16d8ce3",
          "transactionHash": "0xf4c9f729e7c11ee1ad630a580539468e8d052772eeb2771aa81fbdf2f69c832b",
          "transactionIndex": "0x29",
          "logIndex": "0x129",
          "removed": false
        },
        {
          "address": "0x60bd4010b77f17662000456c4a705d715f3087a1",
          "topics": [
            "0x7bd0f397cad502ff77ef77218a9bc164a74f31a190560438785c85c38c3f64dd",
            "0x00000000000000000000000060d63b554738d1030406ca796381c90de7e9d785"
          ],
          "data": "0x0000000000000000000000000000000000000000000000000000000000000001000000000000000000000000000000000000000000000000000000000000000200000000000000000000000000000000000000000000000000000000000f4240",
          "blockHash": "0x6d0fb77caf341b17ecc70f358b059cf15280721aa12652efa2974723c6b2ab60",
          "blockNumber": "0x16d8ce3",
          "transactionHash": "0xf4c9f729e7c11ee1ad630a580539468e8d052772eeb2771aa81fbdf2f69c832b",
          "transactionIndex": "0x29",
          "logIndex": "0x12a",
          "removed": false
        }
      ],
      "logsBloom": "0x00000000000000800000000000000000000000000000200020000000000000000000000000000000000000000000000000000000000000000000000002000000000000000000000140000008000000000000000004000000000000000400000000000000000000000000000000000000000000000000000000000110000000000000000000000000000000000000000200000000000000000000000008000000000000000000000000000000000000000000040000000000000000000000000000000002000000000000000000000000000000000000000000010000000000000000000000000000000000001000000001000000000000000000000000000000",
      "type": "0x2",
      "transactionHash": "0xf4c9f729e7c11ee1ad630a580539468e8d052772eeb2771aa81fbdf2f69c832b",
      "transactionIndex": "0x29",
      "blockHash": "0x6d0fb77caf341b17ecc70f358b059cf15280721aa12652efa2974723c6b2ab60",
      "blockNumber": "0x16d8ce3",
      "gasUsed": "0x11bcf",
      "effectiveGasPrice": "0x1b5c7",
      "from": "0x60d63b554738d1030406ca796381c90de7e9d785",
      "to": "0x60bd4010b77f17662000456c4a705d715f3087a1",
      "contractAddress": null,
      "l1BaseFeeScalar": "0x44d",
      "l1BlobBaseFee": "0x1",
      "l1BlobBaseFeeScalar": "0xa118b",
      "l1Fee": "0xc52edd84",
      "l1GasPrice": "0x6fef1f6f",
      "l1GasUsed": "0x640"
    },
    {
      "status": "0x1",
      "cumulativeGasUsed": "0xbdd73e",
      "logs": [
        {
          "address": "0xa4253e7c13525287c56550b8708100f93e60509f",
          "topics": [
            "0x8c5be1e5ebec7d5bd14f71427d1e84f3dd0314c0f7b2291e5b200ac8c7c3b925",
            "0x000000000000000000000000ccc6b8213e3d72efac5879505c55e9e3e70854b4",
            "0x00000000000000000000000060bd4010b77f17662000456c4a705d715f3087a1"
          ],
          "data": "0x00000000000000000000000000000000000000000000000000000000001e8480",
          "blockHash": "0x02f31c9ecb6fb94aaab54ffcaf06a5ee4f66e635eea390f5d3c5d516f4670b5b",
          "blockNumber": "0x16d8ce4",
          "transactionHash": "0xf73826a27cbdac0952736c4f88af136e17f169b063b9ab0acb1cdb29ebfb825f",
          "transactionIndex": "0x29",
          "logIndex": "0x147",
          "removed": false
        }
      ],
      "logsBloom": "0x00000000000000800000000000000000000000000000200020000000000000000000000000000000000000000000000000000000000000000000000000200000000000000004000040000200000000000000000000000000000000000100000000000000000000000000000000000000000000000000000000000000000000000000000000000000000000000000000000000000000000000000000000000000020000000000000000000000000000000000040000000000000000000000000000000000000000000000000000000000000000000000000000010000000000000010000000000000000000000000000000000000000000000000000000000000",
      "type": "0x2",
      "transactionHash": "0xf73826a27cbdac0952736c4f88af136e17f169b063b9ab0acb1cdb29ebfb825f",
      "transactionIndex": "0x29",
      "blockHash": "0x02f31c9ecb6fb94aaab54ffcaf06a5ee4f66e635eea390f5d3c5d516f4670b5b",
      "blockNumber": "0x16d8ce4",
      "gasUsed": "0x7227",
      "effectiveGasPrice": "0x1b5c8",
      "from": "0xccc6b8213e3d72efac5879505c55e9e3e70854b4",
      "to": "0xa4253e7c13525287c56550b8708100f93e60509f",
      "contractAddress": null,
      "l1BaseFeeScalar": "0x44d",
      "l1BlobBaseFee": "0x1",
      "l1BlobBaseFeeScalar": "0xa118b",
      "l1Fee": "0xc52edd84",
      "l1GasPrice": "0x6fef1f6f",
      "l1GasUsed": "0x640"
    },
    {
      "status": "0x1",
      "cumulativeGasUsed": "0x10f4409",
      "logs": [
        {
          "address": "0xa4253e7c13525287c56550b8708100f93e60509f",
          "topics": [
            "0xddf252ad1be2c89b69c2b068fc378daa952ba7f163c4a11628f55a4df523b3ef",
            "0x000000000000000000000000ccc6b8213e3d72efac5879505c55e9e3e70854b4",
            "0x00000000000000000000000060bd4010b77f17662000456c4a705d715f3087a1"
          ],
          "data": "0x00000000000000000000000000000000000000000000000000000000000f4240",
          "blockHash": "0xf1d98657148146f2afafd042cb40a94544c280cbccf657982571cbd3dd940533",
          "blockNumber": "0x16d8ce6",
          "transactionHash": "0xb5f4a759a6fd60c619ec0be8b98178a9d8048e6ece9cbc3e466bff99005fa4d9",
          "transactionIndex": "0x13",
          "logIndex": "0x1fe",
          "removed": false
        },
        {
          "address": "0x60bd4010b77f17662000456c4a705d715f3087a1",
          "topics": [
            "0x7bd0f397cad502ff77ef77218a9bc164a74f31a190560438785c85c38c3f64dd",
            "0x000000000000000000000000ccc6b8213e3d72efac5879505c55e9e3e70854b4"
          ],
          "data": "0x0000000000000000000000000000000000000000000000000000000000000001000000000000000000000000000000000000000000000000000000000000000200000000000000000000000000000000000000000000000000000000000f4240",
          "blockHash": "0xf1d98657148146f2afafd042cb40a94544c280cbccf657982571cbd3dd940533",
          "blockNumber": "0x16d8ce6",
          "transactionHash": "0xb5f4a759a6fd60c619ec0be8b98178a9d8048e6ece9cbc3e466bff99005fa4d9",
          "transactionIndex": "0x13",
          "logIndex": "0x1ff",
          "removed": false
        }
      ],
      "logsBloom": "0x00000000000000800000000000000000000000000000200020000000000000000000000000000000000000000000000000000000000000000000000000000000000000000004000140000208000000000000000004000000000000000500000000000000000000000000000000000000000000000000000000000110000000000000000000000000000000000000000000000000000000000000000008000000000000000000000000000000000000000000040000000000000000000000000000000002000000000000000000000000000000000000000000010000000000000000000000000000000000001000000000000000000000000000000000000000",
      "type": "0x2",
      "transactionHash": "0xb5f4a759a6fd60c619ec0be8b98178a9d8048e6ece9cbc3e466bff99005fa4d9",
      "transactionIndex": "0x13",
      "blockHash": "0xf1d98657148146f2afafd042cb40a94544c280cbccf657982571cbd3dd940533",
      "blockNumber": "0x16d8ce6",
      "gasUsed": "0x11bcf",
      "effectiveGasPrice": "0x1b5c7",
      "from": "0xccc6b8213e3d72efac5879505c55e9e3e70854b4",
      "to": "0x60bd4010b77f17662000456c4a705d715f3087a1",
      "contractAddress": null,
      "l1BaseFeeScalar": "0x44d",
      "l1BlobBaseFee": "0x1",
      "l1BlobBaseFeeScalar": "0xa118b",
      "l1Fee": "0xc52edd84",
      "l1GasPrice": "0x6fef1f6f",
      "l1GasUsed": "0x640"
    },
    {
      "status": "0x1",
      "cumulativeGasUsed": "0x186f67",
      "logs": [
        {
          "address": "0x60bd4010b77f17662000456c4a705d715f3087a1",
          "topics": [
            "0x3838459cd794256a3c29bb3186da72029a8036c0f596fee1bd526f8eb9493d41"
          ],
          "data": "0x00000000000000000000000000000000000000000000000000000000000000000000000000000000000000000000000000000000000000000000000000000000",
          "blockHash": "0xf1b14483f2051b84eaed0c4f3ab3cca87a34cb2248aac863707a870c373973c7",
          "blockNumber": "0x16d8ce8",
          "transactionHash": "0xdd27425122cda1aa57630e7c11768bb1d967414991d7c46434ca27ced8a3320a",
          "transactionIndex": "0x9",
          "logIndex": "0x29",
          "removed": false
        },
        {
          "address": "0x60bd4010b77f17662000456c4a705d715f3087a1",
          "topics": [
            "0x048ed754a11f94736f2c88ffd00ad5c2b6b27116f5160829a985beb6b9742b43"
          ],
          "data": "0x00000000000000000000000000000000000000000000000000000000000000000000000000000000000000000000000000000000000000000000000067ee78b0",
          "blockHash": "0xf1b14483f2051b84eaed0c4f3ab3cca87a34cb2248aac863707a870c373973c7",
          "blockNumber": "0x16d8ce8",
          "transactionHash": "0xdd27425122cda1aa57630e7c11768bb1d967414991d7c46434ca27ced8a3320a",
          "transactionIndex": "0x9",
          "logIndex": "0x2a",
          "removed": false
        }
      ],
      "logsBloom": "0x00000000000000000000000000000000020000000000000000000000000000000000000000000000000000000000000000000000001000000000000000000000000000000000000000000000000000000000000004000200000000000000000000000000000000000000000000000000000000000000000000000100004000000000000000000000000000000000000000000400000000000000000000000000000000000000000000000000000000000000000000000000000000000000000000000000000000000000000000000000000000000000000000000000000000000000000000000000000000001000000002000000000000000000000000000000",
      "type": "0x2",
      "transactionHash": "0xdd27425122cda1aa57630e7c11768bb1d967414991d7c46434ca27ced8a3320a",
      "transactionIndex": "0x9",
      "blockHash": "0xf1b14483f2051b84eaed0c4f3ab3cca87a34cb2248aac863707a870c373973c7",
      "blockNumber": "0x16d8ce8",
      "gasUsed": "0x150e4",
      "effectiveGasPrice": "0x1b5c8",
      "from": "0xbe2680dc1752109b4344dbeb1072fd8cd880e54b",
      "to": "0x60bd4010b77f17662000456c4a705d715f3087a1",
      "contractAddress": null,
      "l1BaseFeeScalar": "0x44d",
      "l1BlobBaseFee": "0x1",
      "l1BlobBaseFeeScalar": "0xa118b",
      "l1Fee": "0xcbac2c67",
      "l1GasPrice": "0x739e30c7",
      "l1GasUsed": "0x640"
    }
  ],
  "libraries": [],
  "pending": [],
  "returns": {},
  "timestamp": 1743681712,
  "chain": 84532,
  "commit": "6f6a292"
}