{
  "transactions": [
    {
      "hash": "0xeb6717feb529ebfece1d1ec6ea9553a382dbc3cc9603e840b8b4a939b12f2f46",
      "transactionType": "CALL",
      "contractName": null,
      "contractAddress": "0x57e150f40282b2f764a9612602e106ed5e09ac25",
      "function": null,
      "arguments": null,
      "transaction": {
        "from": "0xbe2680dc1752109b4344dbeb1072fd8cd880e54b",
        "to": "0x57e150f40282b2f764a9612602e106ed5e09ac25",
        "gas": "0x714d",
        "value": "0x9184e72a000",
        "input": "0x",
        "nonce": "0x2a2",
        "chainId": "0x14a34"
      },
      "additionalContracts": [],
      "isFixedGasLimit": false
    },
    {
      "hash": "0x34950aaa3bf9a9139a87659c1e346fc7932c6c597dac231c334e7daab0ffef34",
      "transactionType": "CALL",
      "contractName": null,
      "contractAddress": "0xa4253e7c13525287c56550b8708100f93e60509f",
      "function": "transfer(address,uint256)",
      "arguments": [
        "0x57e150f40282b2f764A9612602E106ed5e09ac25",
        "1000000"
      ],
      "transaction": {
        "from": "0xbe2680dc1752109b4344dbeb1072fd8cd880e54b",
        "to": "0xa4253e7c13525287c56550b8708100f93e60509f",
        "gas": "0x11652",
        "value": "0x0",
        "input": "0xa9059cbb00000000000000000000000057e150f40282b2f764a9612602e106ed5e09ac2500000000000000000000000000000000000000000000000000000000000f4240",
        "nonce": "0x2a3",
        "chainId": "0x14a34"
      },
      "additionalContracts": [],
      "isFixedGasLimit": false
    },
    {
      "hash": "0x34dfe8388247f39b1658037e8abd6593987444d8ee796ddce77c56a69a5f16e8",
      "transactionType": "CALL",
      "contractName": null,
      "contractAddress": "0xdd0559546de902808f8ce6e9f10cb8b460c481d2",
      "function": null,
      "arguments": null,
      "transaction": {
        "from": "0xbe2680dc1752109b4344dbeb1072fd8cd880e54b",
        "to": "0xdd0559546de902808f8ce6e9f10cb8b460c481d2",
        "gas": "0x714d",
        "value": "0x9184e72a000",
        "input": "0x",
        "nonce": "0x2a4",
        "chainId": "0x14a34"
      },
      "additionalContracts": [],
      "isFixedGasLimit": false
    },
    {
      "hash": "0x6e1758862e341b044cb61d5939bc2ad99a29bfaec2e8b10a3006a09b885f756a",
      "transactionType": "CALL",
      "contractName": null,
      "contractAddress": "0xa4253e7c13525287c56550b8708100f93e60509f",
      "function": "transfer(address,uint256)",
      "arguments": [
        "0xdd0559546DE902808f8ce6e9f10cb8B460c481d2",
        "1000000"
      ],
      "transaction": {
        "from": "0xbe2680dc1752109b4344dbeb1072fd8cd880e54b",
        "to": "0xa4253e7c13525287c56550b8708100f93e60509f",
        "gas": "0x11652",
        "value": "0x0",
        "input": "0xa9059cbb000000000000000000000000dd0559546de902808f8ce6e9f10cb8b460c481d200000000000000000000000000000000000000000000000000000000000f4240",
        "nonce": "0x2a5",
        "chainId": "0x14a34"
      },
      "additionalContracts": [],
      "isFixedGasLimit": false
    },
    {
      "hash": "0x31e85a2eb46cebf7dfc6371a6ff1a83d4913003423aa0c32f4e19d870029a612",
      "transactionType": "CALL",
      "contractName": null,
      "contractAddress": "0x26e4473264a7bcf80903a3a1f721e590298368fb",
      "function": null,
      "arguments": null,
      "transaction": {
        "from": "0xbe2680dc1752109b4344dbeb1072fd8cd880e54b",
        "to": "0x26e4473264a7bcf80903a3a1f721e590298368fb",
        "gas": "0x714d",
        "value": "0x9184e72a000",
        "input": "0x",
        "nonce": "0x2a6",
        "chainId": "0x14a34"
      },
      "additionalContracts": [],
      "isFixedGasLimit": false
    },
    {
      "hash": "0x77d0cac2844d2683823fc64a527627692bb0f56d1d6ce2af16e6d4ce46215b1e",
      "transactionType": "CALL",
      "contractName": null,
      "contractAddress": "0xa4253e7c13525287c56550b8708100f93e60509f",
      "function": "transfer(address,uint256)",
      "arguments": [
        "0x26e4473264A7Bcf80903a3a1F721e590298368fB",
        "1000000"
      ],
      "transaction": {
        "from": "0xbe2680dc1752109b4344dbeb1072fd8cd880e54b",
        "to": "0xa4253e7c13525287c56550b8708100f93e60509f",
        "gas": "0x11652",
        "value": "0x0",
        "input": "0xa9059cbb00000000000000000000000026e4473264a7bcf80903a3a1f721e590298368fb00000000000000000000000000000000000000000000000000000000000f4240",
        "nonce": "0x2a7",
        "chainId": "0x14a34"
      },
      "additionalContracts": [],
      "isFixedGasLimit": false
    },
    {
      "hash": "0x1d7093b6460b393e3cce9abbda455bd6549dc46a391cce51538ff5fddc425e96",
      "transactionType": "CALL",
      "contractName": null,
      "contractAddress": "0x9e54c1049ff9783556475fbab53e3686f23dbb20",
      "function": null,
      "arguments": null,
      "transaction": {
        "from": "0xbe2680dc1752109b4344dbeb1072fd8cd880e54b",
        "to": "0x9e54c1049ff9783556475fbab53e3686f23dbb20",
        "gas": "0x714d",
        "value": "0x9184e72a000",
        "input": "0x",
        "nonce": "0x2a8",
        "chainId": "0x14a34"
      },
      "additionalContracts": [],
      "isFixedGasLimit": false
    },
    {
      "hash": "0xd7c0b95faced2c415efc6fd3faddc2dad4253cb90b36a36db3ca4d078ca73370",
      "transactionType": "CALL",
      "contractName": null,
      "contractAddress": "0xa4253e7c13525287c56550b8708100f93e60509f",
      "function": "transfer(address,uint256)",
      "arguments": [
        "0x9E54C1049Ff9783556475FBab53E3686f23dBb20",
        "1000000"
      ],
      "transaction": {
        "from": "0xbe2680dc1752109b4344dbeb1072fd8cd880e54b",
        "to": "0xa4253e7c13525287c56550b8708100f93e60509f",
        "gas": "0x11652",
        "value": "0x0",
        "input": "0xa9059cbb0000000000000000000000009e54c1049ff9783556475fbab53e3686f23dbb2000000000000000000000000000000000000000000000000000000000000f4240",
        "nonce": "0x2a9",
        "chainId": "0x14a34"
      },
      "additionalContracts": [],
      "isFixedGasLimit": false
    },
    {
      "hash": "0x2b1755b186113d63980352315aab8563305c0e85d761df210987b4f3c0e80a91",
      "transactionType": "CALL",
      "contractName": null,
      "contractAddress": "0x7592b287ce8b0af24bb6fdaf3ae282dfdf34c6ae",
      "function": null,
      "arguments": null,
      "transaction": {
        "from": "0xbe2680dc1752109b4344dbeb1072fd8cd880e54b",
        "to": "0x7592b287ce8b0af24bb6fdaf3ae282dfdf34c6ae",
        "gas": "0x714d",
        "value": "0x9184e72a000",
        "input": "0x",
        "nonce": "0x2aa",
        "chainId": "0x14a34"
      },
      "additionalContracts": [],
      "isFixedGasLimit": false
    },
    {
      "hash": "0x0ede4acfa8f5f5d744d79759ecc6d1b17545a4c6af2f28b9c9a74ce47e580551",
      "transactionType": "CALL",
      "contractName": null,
      "contractAddress": "0xa4253e7c13525287c56550b8708100f93e60509f",
      "function": "transfer(address,uint256)",
      "arguments": [
        "0x7592B287CE8B0Af24bB6FDAF3Ae282dFDF34c6aE",
        "1000000"
      ],
      "transaction": {
        "from": "0xbe2680dc1752109b4344dbeb1072fd8cd880e54b",
        "to": "0xa4253e7c13525287c56550b8708100f93e60509f",
        "gas": "0x11652",
        "value": "0x0",
        "input": "0xa9059cbb0000000000000000000000007592b287ce8b0af24bb6fdaf3ae282dfdf34c6ae00000000000000000000000000000000000000000000000000000000000f4240",
        "nonce": "0x2ab",
        "chainId": "0x14a34"
      },
      "additionalContracts": [],
      "isFixedGasLimit": false
    },
    {
      "hash": "0xd58202657d200685154000809bc88b7fe221a3efab656a60d8d9aee4201d9d9c",
      "transactionType": "CALL",
      "contractName": null,
      "contractAddress": "0xa4253e7c13525287c56550b8708100f93e60509f",
      "function": "approve(address,uint256)",
      "arguments": [
        "0xE87781CF0523ad67d55ECFDe931C41C40933Ef8f",
        "1000000"
      ],
      "transaction": {
        "from": "0x57e150f40282b2f764a9612602e106ed5e09ac25",
        "to": "0xa4253e7c13525287c56550b8708100f93e60509f",
        "gas": "0xf9ff",
        "value": "0x0",
        "input": "0x095ea7b3000000000000000000000000e87781cf0523ad67d55ecfde931c41c40933ef8f00000000000000000000000000000000000000000000000000000000000f4240",
        "nonce": "0x0",
        "chainId": "0x14a34"
      },
      "additionalContracts": [],
      "isFixedGasLimit": false
    },
    {
      "hash": "0xd642901ad401a823d18d061bdeecb1ffd5a200ba31d2150c4ad841eff7dd2c08",
      "transactionType": "CALL",
      "contractName": null,
      "contractAddress": "0xe87781cf0523ad67d55ecfde931c41c40933ef8f",
      "function": "purchaseTicketsWithCashback(uint256)",
      "arguments": [
        "1000000"
      ],
      "transaction": {
        "from": "0x57e150f40282b2f764a9612602e106ed5e09ac25",
        "to": "0xe87781cf0523ad67d55ecfde931c41c40933ef8f",
        "gas": "0x46111",
        "value": "0x0",
        "input": "0x8209a81300000000000000000000000000000000000000000000000000000000000f4240",
        "nonce": "0x1",
        "chainId": "0x14a34"
      },
      "additionalContracts": [],
      "isFixedGasLimit": false
    },
    {
      "hash": "0xe5a24c6eaac58612f31545a0813a6f316e75d964d140b13c6f963a741be50d9f",
      "transactionType": "CALL",
      "contractName": null,
      "contractAddress": "0xa4253e7c13525287c56550b8708100f93e60509f",
      "function": "approve(address,uint256)",
      "arguments": [
        "0xE87781CF0523ad67d55ECFDe931C41C40933Ef8f",
        "1000000"
      ],
      "transaction": {
        "from": "0xdd0559546de902808f8ce6e9f10cb8b460c481d2",
        "to": "0xa4253e7c13525287c56550b8708100f93e60509f",
        "gas": "0xf9ff",
        "value": "0x0",
        "input": "0x095ea7b3000000000000000000000000e87781cf0523ad67d55ecfde931c41c40933ef8f00000000000000000000000000000000000000000000000000000000000f4240",
        "nonce": "0x0",
        "chainId": "0x14a34"
      },
      "additionalContracts": [],
      "isFixedGasLimit": false
    },
    {
      "hash": "0x907a8f8949c0dda166f9e1579389c51d4f22fef60423d869d2d2cb6ecec2e17c",
      "transactionType": "CALL",
      "contractName": null,
      "contractAddress": "0xe87781cf0523ad67d55ecfde931c41c40933ef8f",
      "function": "purchaseTicketsWithCashback(uint256)",
      "arguments": [
        "1000000"
      ],
      "transaction": {
        "from": "0xdd0559546de902808f8ce6e9f10cb8b460c481d2",
        "to": "0xe87781cf0523ad67d55ecfde931c41c40933ef8f",
        "gas": "0x46111",
        "value": "0x0",
        "input": "0x8209a81300000000000000000000000000000000000000000000000000000000000f4240",
        "nonce": "0x1",
        "chainId": "0x14a34"
      },
      "additionalContracts": [],
      "isFixedGasLimit": false
    },
    {
      "hash": "0x50c432642cc6ca5cc81648b42769465ca65cc8cf5ad96dee1b337574d6a097c6",
      "transactionType": "CALL",
      "contractName": null,
      "contractAddress": "0xa4253e7c13525287c56550b8708100f93e60509f",
      "function": "approve(address,uint256)",
      "arguments": [
        "0xE87781CF0523ad67d55ECFDe931C41C40933Ef8f",
        "1000000"
      ],
      "transaction": {
        "from": "0x26e4473264a7bcf80903a3a1f721e590298368fb",
        "to": "0xa4253e7c13525287c56550b8708100f93e60509f",
        "gas": "0xf9ff",
        "value": "0x0",
        "input": "0x095ea7b3000000000000000000000000e87781cf0523ad67d55ecfde931c41c40933ef8f00000000000000000000000000000000000000000000000000000000000f4240",
        "nonce": "0x0",
        "chainId": "0x14a34"
      },
      "additionalContracts": [],
      "isFixedGasLimit": false
    },
    {
      "hash": "0xd15c7a5ea0dd1eb0436f1c20dc743ef8f1f8d8d33a61aa5fab71f3c0ab30df08",
      "transactionType": "CALL",
      "contractName": null,
      "contractAddress": "0xe87781cf0523ad67d55ecfde931c41c40933ef8f",
      "function": "purchaseTicketsWithCashback(uint256)",
      "arguments": [
        "1000000"
      ],
      "transaction": {
        "from": "0x26e4473264a7bcf80903a3a1f721e590298368fb",
        "to": "0xe87781cf0523ad67d55ecfde931c41c40933ef8f",
        "gas": "0x46111",
        "value": "0x0",
        "input": "0x8209a81300000000000000000000000000000000000000000000000000000000000f4240",
        "nonce": "0x1",
        "chainId": "0x14a34"
      },
      "additionalContracts": [],
      "isFixedGasLimit": false
    },
    {
      "hash": "0x06fd887f347ba45397ed6be996caba9bbfee6edf808cf61e705575272b598bb8",
      "transactionType": "CALL",
      "contractName": null,
      "contractAddress": "0xa4253e7c13525287c56550b8708100f93e60509f",
      "function": "approve(address,uint256)",
      "arguments": [
        "0xE87781CF0523ad67d55ECFDe931C41C40933Ef8f",
        "1000000"
      ],
      "transaction": {
        "from": "0x9e54c1049ff9783556475fbab53e3686f23dbb20",
        "to": "0xa4253e7c13525287c56550b8708100f93e60509f",
        "gas": "0xf9ff",
        "value": "0x0",
        "input": "0x095ea7b3000000000000000000000000e87781cf0523ad67d55ecfde931c41c40933ef8f00000000000000000000000000000000000000000000000000000000000f4240",
        "nonce": "0x0",
        "chainId": "0x14a34"
      },
      "additionalContracts": [],
      "isFixedGasLimit": false
    },
    {
      "hash": "0x78019a2eca53fa76be0c049e3596ea752aa0f1de414a0665c7c4977c45712627",
      "transactionType": "CALL",
      "contractName": null,
      "contractAddress": "0xe87781cf0523ad67d55ecfde931c41c40933ef8f",
      "function": "purchaseTicketsWithCashback(uint256)",
      "arguments": [
        "1000000"
      ],
      "transaction": {
        "from": "0x9e54c1049ff9783556475fbab53e3686f23dbb20",
        "to": "0xe87781cf0523ad67d55ecfde931c41c40933ef8f",
        "gas": "0x46111",
        "value": "0x0",
        "input": "0x8209a81300000000000000000000000000000000000000000000000000000000000f4240",
        "nonce": "0x1",
        "chainId": "0x14a34"
      },
      "additionalContracts": [],
      "isFixedGasLimit": false
    },
    {
      "hash": "0xc87d401344ae81db6756c4300dcf2e3423e6240db55984650dbfc059de141829",
      "transactionType": "CALL",
      "contractName": null,
      "contractAddress": "0xa4253e7c13525287c56550b8708100f93e60509f",
      "function": "approve(address,uint256)",
      "arguments": [
        "0xE87781CF0523ad67d55ECFDe931C41C40933Ef8f",
        "1000000"
      ],
      "transaction": {
        "from": "0x7592b287ce8b0af24bb6fdaf3ae282dfdf34c6ae",
        "to": "0xa4253e7c13525287c56550b8708100f93e60509f",
        "gas": "0xf9ff",
        "value": "0x0",
        "input": "0x095ea7b3000000000000000000000000e87781cf0523ad67d55ecfde931c41c40933ef8f00000000000000000000000000000000000000000000000000000000000f4240",
        "nonce": "0x0",
        "chainId": "0x14a34"
      },
      "additionalContracts": [],
      "isFixedGasLimit": false
    },
    {
      "hash": "0xcb1f6e5a2fc785b5f8b60abc5129e9fa0646df299c5d4c10cc65e8a626990c17",
      "transactionType": "CALL",
      "contractName": null,
      "contractAddress": "0xe87781cf0523ad67d55ecfde931c41c40933ef8f",
      "function": "purchaseTicketsWithCashback(uint256)",
      "arguments": [
        "1000000"
      ],
      "transaction": {
        "from": "0x7592b287ce8b0af24bb6fdaf3ae282dfdf34c6ae",
        "to": "0xe87781cf0523ad67d55ecfde931c41c40933ef8f",
        "gas": "0x46111",
        "value": "0x0",
        "input": "0x8209a81300000000000000000000000000000000000000000000000000000000000f4240",
        "nonce": "0x1",
        "chainId": "0x14a34"
      },
      "additionalContracts": [],
      "isFixedGasLimit": false
    }
  ],
  "receipts": [
    {
      "status": "0x1",
      "cumulativeGasUsed": "0xa2928f",
      "logs": [],
      "logsBloom": "0x00000000000000000000000000000000000000000000000000000000000000000000000000000000000000000000000000000000000000000000000000000000000000000000000000000000000000000000000000000000000000000000000000000000000000000000000000000000000000000000000000000000000000000000000000000000000000000000000000000000000000000000000000000000000000000000000000000000000000000000000000000000000000000000000000000000000000000000000000000000000000000000000000000000000000000000000000000000000000000000000000000000000000000000000000000000",
      "type": "0x2",
      "transactionHash": "0xeb6717feb529ebfece1d1ec6ea9553a382dbc3cc9603e840b8b4a939b12f2f46",
      "transactionIndex": "0x3c",
      "blockHash": "0xacd3058d67f1109eb7c426ad5878fe4d73078108d01f425f49a5df79dc2fe8a5",
      "blockNumber": "0x16d760f",
      "gasUsed": "0x5208",
      "effectiveGasPrice": "0xd83f0",
      "from": "0xbe2680dc1752109b4344dbeb1072fd8cd880e54b",
      "to": "0x57e150f40282b2f764a9612602e106ed5e09ac25",
      "contractAddress": null,
      "l1BaseFeeScalar": "0x44d",
      "l1BlobBaseFee": "0x1",
      "l1BlobBaseFeeScalar": "0xa118b",
      "l1Fee": "0x169506514",
      "l1GasPrice": "0xcd1b091a",
      "l1GasUsed": "0x640"
    },
    {
      "status": "0x1",
      "cumulativeGasUsed": "0xc86c1f",
      "logs": [
        {
          "address": "0xa4253e7c13525287c56550b8708100f93e60509f",
          "topics": [
            "0xddf252ad1be2c89b69c2b068fc378daa952ba7f163c4a11628f55a4df523b3ef",
            "0x000000000000000000000000be2680dc1752109b4344dbeb1072fd8cd880e54b",
            "0x00000000000000000000000057e150f40282b2f764a9612602e106ed5e09ac25"
          ],
          "data": "0x00000000000000000000000000000000000000000000000000000000000f4240",
          "blockHash": "0xf8f94990b11664337cc2b3ea3223141e4c8cae0414247cd4a10b81452c50008f",
          "blockNumber": "0x16d7610",
          "transactionHash": "0x34950aaa3bf9a9139a87659c1e346fc7932c6c597dac231c334e7daab0ffef34",
          "transactionIndex": "0x44",
          "logIndex": "0x126",
          "removed": false
        }
      ],
      "logsBloom": "0x00000000000000800000080000000000000000000000200000000000000000000000000000000000000000000000000020000000000000000000000000000000010000000000000040000008000000000000000000000000000000000000000000000000000000000000000000000000000000000000000000000010000000000000000000000000000000000000000000000000000000000000000000000000000000000000000000000000000000000000000000000000000000000000000000000002000000000000000000000000000000000000000400000000000000000000000000000000000000000000000000000000000000800000000000008000",
      "type": "0x2",
      "transactionHash": "0x34950aaa3bf9a9139a87659c1e346fc7932c6c597dac231c334e7daab0ffef34",
      "transactionIndex": "0x44",
      "blockHash": "0xf8f94990b11664337cc2b3ea3223141e4c8cae0414247cd4a10b81452c50008f",
      "blockNumber": "0x16d7610",
      "gasUsed": "0xc980",
      "effectiveGasPrice": "0xd83f0",
      "from": "0xbe2680dc1752109b4344dbeb1072fd8cd880e54b",
      "to": "0xa4253e7c13525287c56550b8708100f93e60509f",
      "contractAddress": null,
      "l1BaseFeeScalar": "0x44d",
      "l1BlobBaseFee": "0x1",
      "l1BlobBaseFeeScalar": "0xa118b",
      "l1Fee": "0x169506514",
      "l1GasPrice": "0xcd1b091a",
      "l1GasUsed": "0x640"
    },
    {
      "status": "0x1",
      "cumulativeGasUsed": "0x80d694",
      "logs": [],
      "logsBloom": "0x00000000000000000000000000000000000000000000000000000000000000000000000000000000000000000000000000000000000000000000000000000000000000000000000000000000000000000000000000000000000000000000000000000000000000000000000000000000000000000000000000000000000000000000000000000000000000000000000000000000000000000000000000000000000000000000000000000000000000000000000000000000000000000000000000000000000000000000000000000000000000000000000000000000000000000000000000000000000000000000000000000000000000000000000000000000",
      "type": "0x2",
      "transactionHash": "0x34dfe8388247f39b1658037e8abd6593987444d8ee796ddce77c56a69a5f16e8",
      "transactionIndex": "0x2f",
      "blockHash": "0xf7ddcf39eb8b4e579f458e8005af1822ef834c70be1ae4324f9b3dcbf34af9bf",
      "blockNumber": "0x16d7611",
      "gasUsed": "0x5208",
      "effectiveGasPrice": "0xd83f0",
      "from": "0xbe2680dc1752109b4344dbeb1072fd8cd880e54b",
      "to": "0xdd0559546de902808f8ce6e9f10cb8b460c481d2",
      "contractAddress": null,
      "l1BaseFeeScalar": "0x44d",
      "l1BlobBaseFee": "0x1",
      "l1BlobBaseFeeScalar": "0xa118b",
      "l1Fee": "0x169506514",
      "l1GasPrice": "0xcd1b091a",
      "l1GasUsed": "0x640"
    },
    {
      "status": "0x1",
      "cumulativeGasUsed": "0x721934",
      "logs": [
        {
          "address": "0xa4253e7c13525287c56550b8708100f93e60509f",
          "topics": [
            "0xddf252ad1be2c89b69c2b068fc378daa952ba7f163c4a11628f55a4df523b3ef",
            "0x000000000000000000000000be2680dc1752109b4344dbeb1072fd8cd880e54b",
            "0x000000000000000000000000dd0559546de902808f8ce6e9f10cb8b460c481d2"
          ],
          "data": "0x00000000000000000000000000000000000000000000000000000000000f4240",
          "blockHash": "0xd95fd5f94d87508d6372e39be4874799c4714c984729ae1b884a45873f645c77",
          "blockNumber": "0x16d7612",
          "transactionHash": "0x6e1758862e341b044cb61d5939bc2ad99a29bfaec2e8b10a3006a09b885f756a",
          "transactionIndex": "0x1b",
          "logIndex": "0x74",
          "removed": false
        }
      ],
      "logsBloom": "0x00000000000000800000080000000000000000000000200000000000000000000000000000000000000000000000000008000000000000000000000000000000000000000000000040000008000000000040000000000000000000000000000000000000000000000000000000000000000000000000000000000010000000000000000000000000000000000000000000000000000000000000000000000000000000000000000000000000000000000000000000000000000000000000000000000002000000000000000000000000000000000000000400000000000000000000000000000000010000000000000000000000000000000000000000008000",
      "type": "0x2",
      "transactionHash": "0x6e1758862e341b044cb61d5939bc2ad99a29bfaec2e8b10a3006a09b885f756a",
      "transactionIndex": "0x1b",
      "blockHash": "0xd95fd5f94d87508d6372e39be4874799c4714c984729ae1b884a45873f645c77",
      "blockNumber": "0x16d7612",
      "gasUsed": "0xc980",
      "effectiveGasPrice": "0xd83f0",
      "from": "0xbe2680dc1752109b4344dbeb1072fd8cd880e54b",
      "to": "0xa4253e7c13525287c56550b8708100f93e60509f",
      "contractAddress": null,
      "l1BaseFeeScalar": "0x44d",
      "l1BlobBaseFee": "0x1",
      "l1BlobBaseFeeScalar": "0xa118b",
      "l1Fee": "0x169506514",
      "l1GasPrice": "0xcd1b091a",
      "l1GasUsed": "0x640"
    },
    {
      "status": "0x1",
      "cumulativeGasUsed": "0x3e7315",
      "logs": [],
      "logsBloom": "0x00000000000000000000000000000000000000000000000000000000000000000000000000000000000000000000000000000000000000000000000000000000000000000000000000000000000000000000000000000000000000000000000000000000000000000000000000000000000000000000000000000000000000000000000000000000000000000000000000000000000000000000000000000000000000000000000000000000000000000000000000000000000000000000000000000000000000000000000000000000000000000000000000000000000000000000000000000000000000000000000000000000000000000000000000000000",
      "type": "0x2",
      "transactionHash": "0x31e85a2eb46cebf7dfc6371a6ff1a83d4913003423aa0c32f4e19d870029a612",
      "transactionIndex": "0x1d",
      "blockHash": "0xb9e4e1ce9684dbf3b2f8848c1b1901db19f019766e38e725c6fce2b80677b835",
      "blockNumber": "0x16d7613",
      "gasUsed": "0x5208",
      "effectiveGasPrice": "0xd83f0",
      "from": "0xbe2680dc1752109b4344dbeb1072fd8cd880e54b",
      "to": "0x26e4473264a7bcf80903a3a1f721e590298368fb",
      "contractAddress": null,
      "l1BaseFeeScalar": "0x44d",
      "l1BlobBaseFee": "0x1",
      "l1BlobBaseFeeScalar": "0xa118b",
      "l1Fee": "0x1640a9233",
      "l1GasPrice": "0xca1cc96e",
      "l1GasUsed": "0x640"
    },
    {
      "status": "0x1",
      "cumulativeGasUsed": "0x95a89d",
      "logs": [
        {
          "address": "0xa4253e7c13525287c56550b8708100f93e60509f",
          "topics": [
            "0xddf252ad1be2c89b69c2b068fc378daa952ba7f163c4a11628f55a4df523b3ef",
            "0x000000000000000000000000be2680dc1752109b4344dbeb1072fd8cd880e54b",
            "0x00000000000000000000000026e4473264a7bcf80903a3a1f721e590298368fb"
          ],
          "data": "0x00000000000000000000000000000000000000000000000000000000000f4240",
          "blockHash": "0xd1b6d94a4ad58a511a729f42db8b8d692f65ce29e8b26fcd228c8fadcae59751",
          "blockNumber": "0x16d7614",
          "transactionHash": "0x77d0cac2844d2683823fc64a527627692bb0f56d1d6ce2af16e6d4ce46215b1e",
          "transactionIndex": "0x1d",
          "logIndex": "0x172",
          "removed": false
        }
      ],
      "logsBloom": "0x00000000000000800000080000000000000000000000200000000000000000000000000000000000000000000000000000000000000000000000000000000000000000000000000040000008000000000002000000000000000000000000000000000000000000000000000000000000000000000000000000000010000000000000000000000000000000000000000000000000000000000000000000000000000000000000000000000000000000000000000000000000000000000000000000000002000000000000000000000000000000000000000400000000000000000000000000080000000000000000000000000000000000100000000000008000",
      "type": "0x2",
      "transactionHash": "0x77d0cac2844d2683823fc64a527627692bb0f56d1d6ce2af16e6d4ce46215b1e",
      "transactionIndex": "0x1d",
      "blockHash": "0xd1b6d94a4ad58a511a729f42db8b8d692f65ce29e8b26fcd228c8fadcae59751",
      "blockNumber": "0x16d7614",
      "gasUsed": "0xc980",
      "effectiveGasPrice": "0xd83ef",
      "from": "0xbe2680dc1752109b4344dbeb1072fd8cd880e54b",
      "to": "0xa4253e7c13525287c56550b8708100f93e60509f",
      "contractAddress": null,
      "l1BaseFeeScalar": "0x44d",
      "l1BlobBaseFee": "0x1",
      "l1BlobBaseFeeScalar": "0xa118b",
      "l1Fee": "0x1640a9233",
      "l1GasPrice": "0xca1cc96e",
      "l1GasUsed": "0x640"
    },
    {
      "status": "0x1",
      "cumulativeGasUsed": "0x774ad8",
      "logs": [],
      "logsBloom": "0x00000000000000000000000000000000000000000000000000000000000000000000000000000000000000000000000000000000000000000000000000000000000000000000000000000000000000000000000000000000000000000000000000000000000000000000000000000000000000000000000000000000000000000000000000000000000000000000000000000000000000000000000000000000000000000000000000000000000000000000000000000000000000000000000000000000000000000000000000000000000000000000000000000000000000000000000000000000000000000000000000000000000000000000000000000000",
      "type": "0x2",
      "transactionHash": "0x1d7093b6460b393e3cce9abbda455bd6549dc46a391cce51538ff5fddc425e96",
      "transactionIndex": "0x25",
      "blockHash": "0x8e911ef8e9ca87dcfd3a7b9f2f8568b38e7bbfc08676b9a4fb3fce80b01a42ef",
      "blockNumber": "0x16d7616",
      "gasUsed": "0x5208",
      "effectiveGasPrice": "0xd83f0",
      "from": "0xbe2680dc1752109b4344dbeb1072fd8cd880e54b",
      "to": "0x9e54c1049ff9783556475fbab53e3686f23dbb20",
      "contractAddress": null,
      "l1BaseFeeScalar": "0x44d",
      "l1BlobBaseFee": "0x1",
      "l1BlobBaseFeeScalar": "0xa118b",
      "l1Fee": "0x1640a9233",
      "l1GasPrice": "0xca1cc96e",
      "l1GasUsed": "0x640"
    },
    {
      "status": "0x1",
      "cumulativeGasUsed": "0xc4f7a7",
      "logs": [
        {
          "address": "0xa4253e7c13525287c56550b8708100f93e60509f",
          "topics": [
            "0xddf252ad1be2c89b69c2b068fc378daa952ba7f163c4a11628f55a4df523b3ef",
            "0x000000000000000000000000be2680dc1752109b4344dbeb1072fd8cd880e54b",
            "0x0000000000000000000000009e54c1049ff9783556475fbab53e3686f23dbb20"
          ],
          "data": "0x00000000000000000000000000000000000000000000000000000000000f4240",
          "blockHash": "0x3fd8ff449b976f1aca6246d4fd13131e3cf2381a1bb1df0c4778002eb2d5248f",
          "blockNumber": "0x16d7618",
          "transactionHash": "0xd7c0b95faced2c415efc6fd3faddc2dad4253cb90b36a36db3ca4d078ca73370",
          "transactionIndex": "0x1b",
          "logIndex": "0xb5",
          "removed": false
        }
      ],
      "logsBloom": "0x00000000000000800000080000000000000000000000200000000000000000000000000000000000000000000000000000000000000000000000000000000000000000000400000040000008000000000000000000000000000000000000000000000000000000000000000000000000000000000000000000000010000000000000000000000000000800000000000000000000000000000000000000000000000000000000000000000000000000000000000000000000000000000000000000000002000000000000000000000000000000000000000400000000000000000000000000000000000000000000000000000000000000000000001000008000",
      "type": "0x2",
      "transactionHash": "0xd7c0b95faced2c415efc6fd3faddc2dad4253cb90b36a36db3ca4d078ca73370",
      "transactionIndex": "0x1b",
      "blockHash": "0x3fd8ff449b976f1aca6246d4fd13131e3cf2381a1bb1df0c4778002eb2d5248f",
      "blockNumber": "0x16d7618",
      "gasUsed": "0xc980",
      "effectiveGasPrice": "0xd83f0",
      "from": "0xbe2680dc1752109b4344dbeb1072fd8cd880e54b",
      "to": "0xa4253e7c13525287c56550b8708100f93e60509f",
      "contractAddress": null,
      "l1BaseFeeScalar": "0x44d",
      "l1BlobBaseFee": "0x1",
      "l1BlobBaseFeeScalar": "0xa118b",
      "l1Fee": "0x1640a9233",
      "l1GasPrice": "0xca1cc96e",
      "l1GasUsed": "0x640"
    },
    {
      "status": "0x1",
      "cumulativeGasUsed": "0x2c11f3",
      "logs": [],
      "logsBloom": "0x00000000000000000000000000000000000000000000000000000000000000000000000000000000000000000000000000000000000000000000000000000000000000000000000000000000000000000000000000000000000000000000000000000000000000000000000000000000000000000000000000000000000000000000000000000000000000000000000000000000000000000000000000000000000000000000000000000000000000000000000000000000000000000000000000000000000000000000000000000000000000000000000000000000000000000000000000000000000000000000000000000000000000000000000000000000",
      "type": "0x2",
      "transactionHash": "0x2b1755b186113d63980352315aab8563305c0e85d761df210987b4f3c0e80a91",
      "transactionIndex": "0xa",
      "blockHash": "0x5db27244988f5e20627fe8bdd9f580a24c92ef38fbaba52da17fddfe21dee8a7",
      "blockNumber": "0x16d761a",
      "gasUsed": "0x5208",
      "effectiveGasPrice": "0xd83f1",
      "from": "0xbe2680dc1752109b4344dbeb1072fd8cd880e54b",
      "to": "0x7592b287ce8b0af24bb6fdaf3ae282dfdf34c6ae",
      "contractAddress": null,
      "l1BaseFeeScalar": "0x44d",
      "l1BlobBaseFee": "0x1",
      "l1BlobBaseFeeScalar": "0xa118b",
      "l1Fee": "0x15b9cc99f",
      "l1GasPrice": "0xc553e314",
      "l1GasUsed": "0x640"
    },
    {
      "status": "0x1",
      "cumulativeGasUsed": "0x43b27e",
      "logs": [
        {
          "address": "0xa4253e7c13525287c56550b8708100f93e60509f",
          "topics": [
            "0xddf252ad1be2c89b69c2b068fc378daa952ba7f163c4a11628f55a4df523b3ef",
            "0x000000000000000000000000be2680dc1752109b4344dbeb1072fd8cd880e54b",
            "0x0000000000000000000000007592b287ce8b0af24bb6fdaf3ae282dfdf34c6ae"
          ],
          "data": "0x00000000000000000000000000000000000000000000000000000000000f4240",
          "blockHash": "0x64bd5bb9aa14c931771644c6fe2aa5dc8f40432bf0764260b8634fd94d4a47c0",
          "blockNumber": "0x16d761c",
          "transactionHash": "0x0ede4acfa8f5f5d744d79759ecc6d1b17545a4c6af2f28b9c9a74ce47e580551",
          "transactionIndex": "0x14",
          "logIndex": "0x69",
          "removed": false
        }
      ],
      "logsBloom": "0x00000000000000800000080100000000000000000000200000000000000000000000000000000000000000000000000000000000000000000000000000000000000000000000000040000008000000000000000000000000000000000040000000000000000000000000000000000000000000000000000000000010000000000000000000000000000000000000000000000000000000000000000000000000000000000000000000000000000000000000000000000000000000000000000000000002000000000000000000000000000000000000000400000000000000000000000000000000000000000000000000000000000000000000000000408000",
      "type": "0x2",
      "transactionHash": "0x0ede4acfa8f5f5d744d79759ecc6d1b17545a4c6af2f28b9c9a74ce47e580551",
      "transactionIndex": "0x14",
      "blockHash": "0x64bd5bb9aa14c931771644c6fe2aa5dc8f40432bf0764260b8634fd94d4a47c0",
      "blockNumber": "0x16d761c",
      "gasUsed": "0xc980",
      "effectiveGasPrice": "0xd83f1",
      "from": "0xbe2680dc1752109b4344dbeb1072fd8cd880e54b",
      "to": "0xa4253e7c13525287c56550b8708100f93e60509f",
      "contractAddress": null,
      "l1BaseFeeScalar": "0x44d",
      "l1BlobBaseFee": "0x1",
      "l1BlobBaseFeeScalar": "0xa118b",
      "l1Fee": "0x15b9cc99f",
      "l1GasPrice": "0xc553e314",
      "l1GasUsed": "0x640"
    },
    {
      "status": "0x1",
      "cumulativeGasUsed": "0x2bb28a",
      "logs": [
        {
          "address": "0xa4253e7c13525287c56550b8708100f93e60509f",
          "topics": [
            "0x8c5be1e5ebec7d5bd14f71427d1e84f3dd0314c0f7b2291e5b200ac8c7c3b925",
            "0x00000000000000000000000057e150f40282b2f764a9612602e106ed5e09ac25",
            "0x000000000000000000000000e87781cf0523ad67d55ecfde931c41c40933ef8f"
          ],
          "data": "0x00000000000000000000000000000000000000000000000000000000000f4240",
          "blockHash": "0x2bccf09cad38c4cd51276eebae13645156c9c70d00c65f60b1981379e97240c5",
          "blockNumber": "0x16d761e",
          "transactionHash": "0xd58202657d200685154000809bc88b7fe221a3efab656a60d8d9aee4201d9d9c",
          "transactionIndex": "0xa",
          "logIndex": "0x47",
          "removed": false
        }
      ],
      "logsBloom": "0x00000000000000800000000000000000000000002000200000000000000000000000000000000000000000000000000020000000000000000000000000208000010000000000000040000000000000000000000000000000000000000000000000000000000000000000000000000000000000000000000000000000000000000000000000000000000000000000000000000000000000000000000000000000020000000000000000000000000000000000000000000000000000000020000000000000000000000000000000000000000000000000000000000000000000000010000000000000000000000000000000000000000000800000000000000000",
      "type": "0x2",
      "transactionHash": "0xd58202657d200685154000809bc88b7fe221a3efab656a60d8d9aee4201d9d9c",
      "transactionIndex": "0xa",
      "blockHash": "0x2bccf09cad38c4cd51276eebae13645156c9c70d00c65f60b1981379e97240c5",
      "blockNumber": "0x16d761e",
      "gasUsed": "0xb4ff",
      "effectiveGasPrice": "0xd83f1",
      "from": "0x57e150f40282b2f764a9612602e106ed5e09ac25",
      "to": "0xa4253e7c13525287c56550b8708100f93e60509f",
      "contractAddress": null,
      "l1BaseFeeScalar": "0x44d",
      "l1BlobBaseFee": "0x1",
      "l1BlobBaseFeeScalar": "0xa118b",
      "l1Fee": "0x15b9cc99f",
      "l1GasPrice": "0xc553e314",
      "l1GasUsed": "0x640"
    },
    {
      "status": "0x1",
      "cumulativeGasUsed": "0x16192e",
      "logs": [
        {
          "address": "0xa4253e7c13525287c56550b8708100f93e60509f",
          "topics": [
            "0xddf252ad1be2c89b69c2b068fc378daa952ba7f163c4a11628f55a4df523b3ef",
            "0x00000000000000000000000057e150f40282b2f764a9612602e106ed5e09ac25",
            "0x000000000000000000000000e87781cf0523ad67d55ecfde931c41c40933ef8f"
          ],
          "data": "0x00000000000000000000000000000000000000000000000000000000000f4240",
          "blockHash": "0x5a2e2dc9dc845fdb238b49a0cd86ea321c9b2a1d1bcff98cea4bed4ac7535080",
          "blockNumber": "0x16d7620",
          "transactionHash": "0xd642901ad401a823d18d061bdeecb1ffd5a200ba31d2150c4ad841eff7dd2c08",
          "transactionIndex": "0x7",
          "logIndex": "0xc",
          "removed": false
        },
        {
          "address": "0xa4253e7c13525287c56550b8708100f93e60509f",
          "topics": [
            "0x8c5be1e5ebec7d5bd14f71427d1e84f3dd0314c0f7b2291e5b200ac8c7c3b925",
            "0x000000000000000000000000e87781cf0523ad67d55ecfde931c41c40933ef8f",
            "0x0000000000000000000000006f03c7bcadadbf5e6f5900da3d56add8fbdac5de"
          ],
          "data": "0x00000000000000000000000000000000000000000000000000000000000f4240",
          "blockHash": "0x5a2e2dc9dc845fdb238b49a0cd86ea321c9b2a1d1bcff98cea4bed4ac7535080",
          "blockNumber": "0x16d7620",
          "transactionHash": "0xd642901ad401a823d18d061bdeecb1ffd5a200ba31d2150c4ad841eff7dd2c08",
          "transactionIndex": "0x7",
          "logIndex": "0xd",
          "removed": false
        },
        {
          "address": "0xa4253e7c13525287c56550b8708100f93e60509f",
          "topics": [
            "0xddf252ad1be2c89b69c2b068fc378daa952ba7f163c4a11628f55a4df523b3ef",
            "0x000000000000000000000000e87781cf0523ad67d55ecfde931c41c40933ef8f",
            "0x0000000000000000000000006f03c7bcadadbf5e6f5900da3d56add8fbdac5de"
          ],
          "data": "0x00000000000000000000000000000000000000000000000000000000000f4240",
          "blockHash": "0x5a2e2dc9dc845fdb238b49a0cd86ea321c9b2a1d1bcff98cea4bed4ac7535080",
          "blockNumber": "0x16d7620",
          "transactionHash": "0xd642901ad401a823d18d061bdeecb1ffd5a200ba31d2150c4ad841eff7dd2c08",
          "transactionIndex": "0x7",
          "logIndex": "0xe",
          "removed": false
        },
        {
          "address": "0x6f03c7bcadadbf5e6f5900da3d56add8fbdac5de",
          "topics": [
            "0xd72c70202ab87b3549553b1d4ceb2a632c83cb96fa2dfe65c30282862fe11ade",
            "0x00000000000000000000000057e150f40282b2f764a9612602e106ed5e09ac25",
            "0x00000000000000000000000044d4f5694ba6a9f138f41c3cd74c8af1de83a002",
            "0x000000000000000000000000e87781cf0523ad67d55ecfde931c41c40933ef8f"
          ],
          "data": "0x0000000000000000000000000000000000000000000000000000000000002134",
          "blockHash": "0x5a2e2dc9dc845fdb238b49a0cd86ea321c9b2a1d1bcff98cea4bed4ac7535080",
          "blockNumber": "0x16d7620",
          "transactionHash": "0xd642901ad401a823d18d061bdeecb1ffd5a200ba31d2150c4ad841eff7dd2c08",
          "transactionIndex": "0x7",
          "logIndex": "0xf",
          "removed": false
        },
        {
          "address": "0xe87781cf0523ad67d55ecfde931c41c40933ef8f",
          "topics": [
            "0x631762e2f6bb77fc84e616a32b3f990e551b075a6618ca1b7d8f78013d71817f",
            "0x00000000000000000000000057e150f40282b2f764a9612602e106ed5e09ac25"
          ],
          "data": "0x00000000000000000000000000000000000000000000000000000000000003e8000000000000000000000000000000000000000000000000000000000000004000000000000000000000000000000000000000000000000000000000000000204e6f20636173686261636b202d20696e73756666696369656e742066756e6473",
          "blockHash": "0x5a2e2dc9dc845fdb238b49a0cd86ea321c9b2a1d1bcff98cea4bed4ac7535080",
          "blockNumber": "0x16d7620",
          "transactionHash": "0xd642901ad401a823d18d061bdeecb1ffd5a200ba31d2150c4ad841eff7dd2c08",
          "transactionIndex": "0x7",
          "logIndex": "0x10",
          "removed": false
        },
        {
          "address": "0xe87781cf0523ad67d55ecfde931c41c40933ef8f",
          "topics": [
            "0x2a91574e12ad96234e84923e146b0946ecfb871cd8d5534dc1fdcbe87a7c01b3",
            "0x00000000000000000000000057e150f40282b2f764a9612602e106ed5e09ac25"
          ],
          "data": "0x00000000000000000000000000000000000000000000000000000000000f42400000000000000000000000000000000000000000000000000000000000000000",
          "blockHash": "0x5a2e2dc9dc845fdb238b49a0cd86ea321c9b2a1d1bcff98cea4bed4ac7535080",
          "blockNumber": "0x16d7620",
          "transactionHash": "0xd642901ad401a823d18d061bdeecb1ffd5a200ba31d2150c4ad841eff7dd2c08",
          "transactionIndex": "0x7",
          "logIndex": "0x11",
          "removed": false
        }
      ],
      "logsBloom": "0x00000000000000800000000000000002000000002000200000000000000000000000000001000000000000000000000021001000100000000400000000208004010000000000000060000008000000000000000000000000000000000800000000000000000000000000000004000000000000000000000000000012000000000000000000000000080000000800000000000000040000000000000000000000020000000000000000080000000000000000000000000000000000000120000000000002000010020000000000000000000000000000010000400000000000000010000000000020000000000000000000000000000000800000000000000000",
      "type": "0x2",
      "transactionHash": "0xd642901ad401a823d18d061bdeecb1ffd5a200ba31d2150c4ad841eff7dd2c08",
      "transactionIndex": "0x7",
      "blockHash": "0x5a2e2dc9dc845fdb238b49a0cd86ea321c9b2a1d1bcff98cea4bed4ac7535080",
      "blockNumber": "0x16d7620",
      "gasUsed": "0x2fe8b",
      "effectiveGasPrice": "0xd83f1",
      "from": "0x57e150f40282b2f764a9612602e106ed5e09ac25",
      "to": "0xe87781cf0523ad67d55ecfde931c41c40933ef8f",
      "contractAddress": null,
      "l1BaseFeeScalar": "0x44d",
      "l1BlobBaseFee": "0x1",
      "l1BlobBaseFeeScalar": "0xa118b",
      "l1Fee": "0x154c37eb6",
      "l1GasPrice": "0xc1709a54",
      "l1GasUsed": "0x640"
    },
    {
      "status": "0x1",
      "cumulativeGasUsed": "0x3d8de",
      "logs": [
        {
          "address": "0xa4253e7c13525287c56550b8708100f93e60509f",
          "topics": [
            "0x8c5be1e5ebec7d5bd14f71427d1e84f3dd0314c0f7b2291e5b200ac8c7c3b925",
            "0x000000000000000000000000dd0559546de902808f8ce6e9f10cb8b460c481d2",
            "0x000000000000000000000000e87781cf0523ad67d55ecfde931c41c40933ef8f"
          ],
          "data": "0x00000000000000000000000000000000000000000000000000000000000f4240",
          "blockHash": "0xb782e8edb7e67956b641366aa6b93ee9d18e8b28ecedd7133bdfe5dc11417550",
          "blockNumber": "0x16d7622",
          "transactionHash": "0xe5a24c6eaac58612f31545a0813a6f316e75d964d140b13c6f963a741be50d9f",
          "transactionIndex": "0x4",
          "logIndex": "0x3",
          "removed": false
        }
      ],
      "logsBloom": "0x00000000000000800000000000000000000000002000200000000000000000000000000000000000000000000000000008000000000000000000000000208000000000000000000040000000000000000040000000000000000000000000000000000000000000000000000000000000000000000000000000000000000000000000000000000000000000000000000000000000000000000000000000000000020000000000000000000000000000000000000000000000000000000020000000000000000000000000000000000000000000000000000000000000000000000010000000000000010000000000000000000000000000000000000000000000",
      "type": "0x2",
      "transactionHash": "0xe5a24c6eaac58612f31545a0813a6f316e75d964d140b13c6f963a741be50d9f",
      "transactionIndex": "0x4",
      "blockHash": "0xb782e8edb7e67956b641366aa6b93ee9d18e8b28ecedd7133bdfe5dc11417550",
      "blockNumber": "0x16d7622",
      "gasUsed": "0xb4ff",
      "effectiveGasPrice": "0xd83f2",
      "from": "0xdd0559546de902808f8ce6e9f10cb8b460c481d2",
      "to": "0xa4253e7c13525287c56550b8708100f93e60509f",
      "contractAddress": null,
      "l1BaseFeeScalar": "0x44d",
      "l1BlobBaseFee": "0x1",
      "l1BlobBaseFeeScalar": "0xa118b",
      "l1Fee": "0x154c37eb6",
      "l1GasPrice": "0xc1709a54",
      "l1GasUsed": "0x640"
    },
    {
      "status": "0x1",
      "cumulativeGasUsed": "0x6cc61a",
      "logs": [
        {
          "address": "0xa4253e7c13525287c56550b8708100f93e60509f",
          "topics": [
            "0xddf252ad1be2c89b69c2b068fc378daa952ba7f163c4a11628f55a4df523b3ef",
            "0x000000000000000000000000dd0559546de902808f8ce6e9f10cb8b460c481d2",
            "0x000000000000000000000000e87781cf0523ad67d55ecfde931c41c40933ef8f"
          ],
          "data": "0x00000000000000000000000000000000000000000000000000000000000f4240",
          "blockHash": "0x450870d66a67e8a022e5aff4cbb6cce6e3b63b3d096192592162f2fff0e5d950",
          "blockNumber": "0x16d7623",
          "transactionHash": "0x907a8f8949c0dda166f9e1579389c51d4f22fef60423d869d2d2cb6ecec2e17c",
          "transactionIndex": "0x27",
          "logIndex": "0xb2",
          "removed": false
        },
        {
          "address": "0xa4253e7c13525287c56550b8708100f93e60509f",
          "topics": [
            "0x8c5be1e5ebec7d5bd14f71427d1e84f3dd0314c0f7b2291e5b200ac8c7c3b925",
            "0x000000000000000000000000e87781cf0523ad67d55ecfde931c41c40933ef8f",
            "0x0000000000000000000000006f03c7bcadadbf5e6f5900da3d56add8fbdac5de"
          ],
          "data": "0x00000000000000000000000000000000000000000000000000000000000f4240",
          "blockHash": "0x450870d66a67e8a022e5aff4cbb6cce6e3b63b3d096192592162f2fff0e5d950",
          "blockNumber": "0x16d7623",
          "transactionHash": "0x907a8f8949c0dda166f9e1579389c51d4f22fef60423d869d2d2cb6ecec2e17c",
          "transactionIndex": "0x27",
          "logIndex": "0xb3",
          "removed": false
        },
        {
          "address": "0xa4253e7c13525287c56550b8708100f93e60509f",
          "topics": [
            "0xddf252ad1be2c89b69c2b068fc378daa952ba7f163c4a11628f55a4df523b3ef",
            "0x000000000000000000000000e87781cf0523ad67d55ecfde931c41c40933ef8f",
            "0x0000000000000000000000006f03c7bcadadbf5e6f5900da3d56add8fbdac5de"
          ],
          "data": "0x00000000000000000000000000000000000000000000000000000000000f4240",
          "blockHash": "0x450870d66a67e8a022e5aff4cbb6cce6e3b63b3d096192592162f2fff0e5d950",
          "blockNumber": "0x16d7623",
          "transactionHash": "0x907a8f8949c0dda166f9e1579389c51d4f22fef60423d869d2d2cb6ecec2e17c",
          "transactionIndex": "0x27",
          "logIndex": "0xb4",
          "removed": false
        },
        {
          "address": "0x6f03c7bcadadbf5e6f5900da3d56add8fbdac5de",
          "topics": [
            "0xd72c70202ab87b3549553b1d4ceb2a632c83cb96fa2dfe65c30282862fe11ade",
            "0x000000000000000000000000dd0559546de902808f8ce6e9f10cb8b460c481d2",
            "0x00000000000000000000000044d4f5694ba6a9f138f41c3cd74c8af1de83a002",
            "0x000000000000000000000000e87781cf0523ad67d55ecfde931c41c40933ef8f"
          ],
          "data": "0x0000000000000000000000000000000000000000000000000000000000002134",
          "blockHash": "0x450870d66a67e8a022e5aff4cbb6cce6e3b63b3d096192592162f2fff0e5d950",
          "blockNumber": "0x16d7623",
          "transactionHash": "0x907a8f8949c0dda166f9e1579389c51d4f22fef60423d869d2d2cb6ecec2e17c",
          "transactionIndex": "0x27",
          "logIndex": "0xb5",
          "removed": false
        },
        {
          "address": "0xe87781cf0523ad67d55ecfde931c41c40933ef8f",
          "topics": [
            "0x631762e2f6bb77fc84e616a32b3f990e551b075a6618ca1b7d8f78013d71817f",
            "0x000000000000000000000000dd0559546de902808f8ce6e9f10cb8b460c481d2"
          ],
          "data": "0x00000000000000000000000000000000000000000000000000000000000003e8000000000000000000000000000000000000000000000000000000000000004000000000000000000000000000000000000000000000000000000000000000204e6f20636173686261636b202d20696e73756666696369656e742066756e6473",
          "blockHash": "0x450870d66a67e8a022e5aff4cbb6cce6e3b63b3d096192592162f2fff0e5d950",
          "blockNumber": "0x16d7623",
          "transactionHash": "0x907a8f8949c0dda166f9e1579389c51d4f22fef60423d869d2d2cb6ecec2e17c",
          "transactionIndex": "0x27",
          "logIndex": "0xb6",
          "removed": false
        },
        {
          "address": "0xe87781cf0523ad67d55ecfde931c41c40933ef8f",
          "topics": [
            "0x2a91574e12ad96234e84923e146b0946ecfb871cd8d5534dc1fdcbe87a7c01b3",
            "0x000000000000000000000000dd0559546de902808f8ce6e9f10cb8b460c481d2"
          ],
          "data": "0x00000000000000000000000000000000000000000000000000000000000f42400000000000000000000000000000000000000000000000000000000000000000",
          "blockHash": "0x450870d66a67e8a022e5aff4cbb6cce6e3b63b3d096192592162f2fff0e5d950",
          "blockNumber": "0x16d7623",
          "transactionHash": "0x907a8f8949c0dda166f9e1579389c51d4f22fef60423d869d2d2cb6ecec2e17c",
          "transactionIndex": "0x27",
          "logIndex": "0xb7",
          "removed": false
        }
      ],
      "logsBloom": "0x00000000000000800000000000000002000000002000200000000000000000000000000001000000000000000000000009001000100000000400000000208004000000000000000060000008000000000040000000000000000000000800000000000000000000000000000004000000000000000000000000000012000000000000000000000000080000000800000000000000040000000000000000000000020000000000000000080000000000000000000000000000000000000120000000000002000010020000000000000000000000000000010000400000000000000010000000000020010000000000000000000000000000000000000000000000",
      "type": "0x2",
      "transactionHash": "0x907a8f8949c0dda166f9e1579389c51d4f22fef60423d869d2d2cb6ecec2e17c",
      "transactionIndex": "0x27",
      "blockHash": "0x450870d66a67e8a022e5aff4cbb6cce6e3b63b3d096192592162f2fff0e5d950",
      "blockNumber": "0x16d7623",
      "gasUsed": "0x2fe8b",
      "effectiveGasPrice": "0xd83f2",
      "from": "0xdd0559546de902808f8ce6e9f10cb8b460c481d2",
      "to": "0xe87781cf0523ad67d55ecfde931c41c40933ef8f",
      "contractAddress": null,
      "l1BaseFeeScalar": "0x44d",
      "l1BlobBaseFee": "0x1",
      "l1BlobBaseFeeScalar": "0xa118b",
      "l1Fee": "0x154c37eb6",
      "l1GasPrice": "0xc1709a54",
      "l1GasUsed": "0x640"
    },
    {
      "status": "0x1",
      "cumulativeGasUsed": "0xfccea8",
      "logs": [
        {
          "address": "0xa4253e7c13525287c56550b8708100f93e60509f",
          "topics": [
            "0x8c5be1e5ebec7d5bd14f71427d1e84f3dd0314c0f7b2291e5b200ac8c7c3b925",
            "0x00000000000000000000000026e4473264a7bcf80903a3a1f721e590298368fb",
            "0x000000000000000000000000e87781cf0523ad67d55ecfde931c41c40933ef8f"
          ],
          "data": "0x00000000000000000000000000000000000000000000000000000000000f4240",
          "blockHash": "0x7e6e62a4377a69f4dbd8bcdc86cdd88aa5e74c20241b26e1309f8e95ceec2676",
          "blockNumber": "0x16d7624",
          "transactionHash": "0x50c432642cc6ca5cc81648b42769465ca65cc8cf5ad96dee1b337574d6a097c6",
          "transactionIndex": "0x2c",
          "logIndex": "0x124",
          "removed": false
        }
      ],
      "logsBloom": "0x00000000000000800000000000000000000000002000200000000000000000000000000000000000000000000000000000000000000000000000000000208000000000000000000040000000000000000002000000000000000000000000000000000000000000000000000000000000000000000000000000000000000000000000000000000000000000000000000000000000000000000000000000000000020000000000000000000000000000000000000000000000000000000020000000000000000000000000000000000000000000000000000000000000000000000010000000080000000000000000000000000000000000100000000000000000",
      "type": "0x2",
      "transactionHash": "0x50c432642cc6ca5cc81648b42769465ca65cc8cf5ad96dee1b337574d6a097c6",
      "transactionIndex": "0x2c",
      "blockHash": "0x7e6e62a4377a69f4dbd8bcdc86cdd88aa5e74c20241b26e1309f8e95ceec2676",
      "blockNumber": "0x16d7624",
      "gasUsed": "0xb4ff",
      "effectiveGasPrice": "0xd83f2",
      "from": "0x26e4473264a7bcf80903a3a1f721e590298368fb",
      "to": "0xa4253e7c13525287c56550b8708100f93e60509f",
      "contractAddress": null,
      "l1BaseFeeScalar": "0x44d",
      "l1BlobBaseFee": "0x1",
      "l1BlobBaseFeeScalar": "0xa118b",
      "l1Fee": "0x154c37eb6",
      "l1GasPrice": "0xc1709a54",
      "l1GasUsed": "0x640"
    },
    {
      "status": "0x1",
      "cumulativeGasUsed": "0x775a25",
      "logs": [
        {
          "address": "0xa4253e7c13525287c56550b8708100f93e60509f",
          "topics": [
            "0xddf252ad1be2c89b69c2b068fc378daa952ba7f163c4a11628f55a4df523b3ef",
            "0x00000000000000000000000026e4473264a7bcf80903a3a1f721e590298368fb",
            "0x000000000000000000000000e87781cf0523ad67d55ecfde931c41c40933ef8f"
          ],
          "data": "0x00000000000000000000000000000000000000000000000000000000000f4240",
          "blockHash": "0x3f5a9e15370a96e1585f38635092013be60a0f8168efda3d1e70fe24b3c6a76a",
          "blockNumber": "0x16d7626",
          "transactionHash": "0xd15c7a5ea0dd1eb0436f1c20dc743ef8f1f8d8d33a61aa5fab71f3c0ab30df08",
          "transactionIndex": "0x1d",
          "logIndex": "0xb8",
          "removed": false
        },
        {
          "address": "0xa4253e7c13525287c56550b8708100f93e60509f",
          "topics": [
            "0x8c5be1e5ebec7d5bd14f71427d1e84f3dd0314c0f7b2291e5b200ac8c7c3b925",
            "0x000000000000000000000000e87781cf0523ad67d55ecfde931c41c40933ef8f",
            "0x0000000000000000000000006f03c7bcadadbf5e6f5900da3d56add8fbdac5de"
          ],
          "data": "0x00000000000000000000000000000000000000000000000000000000000f4240",
          "blockHash": "0x3f5a9e15370a96e1585f38635092013be60a0f8168efda3d1e70fe24b3c6a76a",
          "blockNumber": "0x16d7626",
          "transactionHash": "0xd15c7a5ea0dd1eb0436f1c20dc743ef8f1f8d8d33a61aa5fab71f3c0ab30df08",
          "transactionIndex": "0x1d",
          "logIndex": "0xb9",
          "removed": false
        },
        {
          "address": "0xa4253e7c13525287c56550b8708100f93e60509f",
          "topics": [
            "0xddf252ad1be2c89b69c2b068fc378daa952ba7f163c4a11628f55a4df523b3ef",
            "0x000000000000000000000000e87781cf0523ad67d55ecfde931c41c40933ef8f",
            "0x0000000000000000000000006f03c7bcadadbf5e6f5900da3d56add8fbdac5de"
          ],
          "data": "0x00000000000000000000000000000000000000000000000000000000000f4240",
          "blockHash": "0x3f5a9e15370a96e1585f38635092013be60a0f8168efda3d1e70fe24b3c6a76a",
          "blockNumber": "0x16d7626",
          "transactionHash": "0xd15c7a5ea0dd1eb0436f1c20dc743ef8f1f8d8d33a61aa5fab71f3c0ab30df08",
          "transactionIndex": "0x1d",
          "logIndex": "0xba",
          "removed": false
        },
        {
          "address": "0x6f03c7bcadadbf5e6f5900da3d56add8fbdac5de",
          "topics": [
            "0xd72c70202ab87b3549553b1d4ceb2a632c83cb96fa2dfe65c30282862fe11ade",
            "0x00000000000000000000000026e4473264a7bcf80903a3a1f721e590298368fb",
            "0x00000000000000000000000044d4f5694ba6a9f138f41c3cd74c8af1de83a002",
            "0x000000000000000000000000e87781cf0523ad67d55ecfde931c41c40933ef8f"
          ],
          "data": "0x0000000000000000000000000000000000000000000000000000000000002134",
          "blockHash": "0x3f5a9e15370a96e1585f38635092013be60a0f8168efda3d1e70fe24b3c6a76a",
          "blockNumber": "0x16d7626",
          "transactionHash": "0xd15c7a5ea0dd1eb0436f1c20dc743ef8f1f8d8d33a61aa5fab71f3c0ab30df08",
          "transactionIndex": "0x1d",
          "logIndex": "0xbb",
          "removed": false
        },
        {
          "address": "0xe87781cf0523ad67d55ecfde931c41c40933ef8f",
          "topics": [
            "0x631762e2f6bb77fc84e616a32b3f990e551b075a6618ca1b7d8f78013d71817f",
            "0x00000000000000000000000026e4473264a7bcf80903a3a1f721e590298368fb"
          ],
          "data": "0x00000000000000000000000000000000000000000000000000000000000003e8000000000000000000000000000000000000000000000000000000000000004000000000000000000000000000000000000000000000000000000000000000204e6f20636173686261636b202d20696e73756666696369656e742066756e6473",
          "blockHash": "0x3f5a9e15370a96e1585f38635092013be60a0f8168efda3d1e70fe24b3c6a76a",
          "blockNumber": "0x16d7626",
          "transactionHash": "0xd15c7a5ea0dd1eb0436f1c20dc743ef8f1f8d8d33a61aa5fab71f3c0ab30df08",
          "transactionIndex": "0x1d",
          "logIndex": "0xbc",
          "removed": false
        },
        {
          "address": "0xe87781cf0523ad67d55ecfde931c41c40933ef8f",
          "topics": [
            "0x2a91574e12ad96234e84923e146b0946ecfb871cd8d5534dc1fdcbe87a7c01b3",
            "0x00000000000000000000000026e4473264a7bcf80903a3a1f721e590298368fb"
          ],
          "data": "0x00000000000000000000000000000000000000000000000000000000000f42400000000000000000000000000000000000000000000000000000000000000000",
          "blockHash": "0x3f5a9e15370a96e1585f38635092013be60a0f8168efda3d1e70fe24b3c6a76a",
          "blockNumber": "0x16d7626",
          "transactionHash": "0xd15c7a5ea0dd1eb0436f1c20dc743ef8f1f8d8d33a61aa5fab71f3c0ab30df08",
          "transactionIndex": "0x1d",
          "logIndex": "0xbd",
          "removed": false
        }
      ],
      "logsBloom": "0x00000000000000800000000000000002000000002000200000000000000000000000000001000000000000000000000001001000100000000400000000208004000000000000000060000008000000000002000000000000000000000800000000000000000000000000000004000000000000000000000000000012000000000000000000000000080000000800000000000000040000000000000000000000020000000000000000080000000000000000000000000000000000000120000000000002000010020000000000000000000000000000010000400000000000000010000000080020000000000000000000000000000000100000000000000000",
      "type": "0x2",
      "transactionHash": "0xd15c7a5ea0dd1eb0436f1c20dc743ef8f1f8d8d33a61aa5fab71f3c0ab30df08",
      "transactionIndex": "0x1d",
      "blockHash": "0x3f5a9e15370a96e1585f38635092013be60a0f8168efda3d1e70fe24b3c6a76a",
      "blockNumber": "0x16d7626",
      "gasUsed": "0x2fe8b",
      "effectiveGasPrice": "0xd83f3",
      "from": "0x26e4473264a7bcf80903a3a1f721e590298368fb",
      "to": "0xe87781cf0523ad67d55ecfde931c41c40933ef8f",
      "contractAddress": null,
      "l1BaseFeeScalar": "0x44d",
      "l1BlobBaseFee": "0x1",
      "l1BlobBaseFeeScalar": "0xa118b",
      "l1Fee": "0x157dd3439",
      "l1GasPrice": "0xc3332a0e",
      "l1GasUsed": "0x640"
    },
    {
      "status": "0x1",
      "cumulativeGasUsed": "0x6b5c02",
      "logs": [
        {
          "address": "0xa4253e7c13525287c56550b8708100f93e60509f",
          "topics": [
            "0x8c5be1e5ebec7d5bd14f71427d1e84f3dd0314c0f7b2291e5b200ac8c7c3b925",
            "0x0000000000000000000000009e54c1049ff9783556475fbab53e3686f23dbb20",
            "0x000000000000000000000000e87781cf0523ad67d55ecfde931c41c40933ef8f"
          ],
          "data": "0x00000000000000000000000000000000000000000000000000000000000f4240",
          "blockHash": "0xa8778d1118dc1da469255661a29000f3e3d1d2421a448013c2aaf3163bc1d190",
          "blockNumber": "0x16d7627",
          "transactionHash": "0x06fd887f347ba45397ed6be996caba9bbfee6edf808cf61e705575272b598bb8",
          "transactionIndex": "0x1a",
          "logIndex": "0x92",
          "removed": false
        }
      ],
      "logsBloom": "0x00000000000000800000000000000000000000002000200000000000000000000000000000000000000000000000000000000000000000000000000000208000000000000400000040000000000000000000000000000000000000000000000000000000000000000000000000000000000000000000000000000000000000000000000000000000000800000000000000000000000000000000000000000000020000000000000000000000000000000000000000000000000000000020000000000000000000000000000000000000000000000000000000000000000000000010000000000000000000000000000000000000000000000000001000000000",
      "type": "0x2",
      "transactionHash": "0x06fd887f347ba45397ed6be996caba9bbfee6edf808cf61e705575272b598bb8",
      "transactionIndex": "0x1a",
      "blockHash": "0xa8778d1118dc1da469255661a29000f3e3d1d2421a448013c2aaf3163bc1d190",
      "blockNumber": "0x16d7627",
      "gasUsed": "0xb4ff",
      "effectiveGasPrice": "0xd83f3",
      "from": "0x9e54c1049ff9783556475fbab53e3686f23dbb20",
      "to": "0xa4253e7c13525287c56550b8708100f93e60509f",
      "contractAddress": null,
      "l1BaseFeeScalar": "0x44d",
      "l1BlobBaseFee": "0x1",
      "l1BlobBaseFeeScalar": "0xa118b",
      "l1Fee": "0x157dd3439",
      "l1GasPrice": "0xc3332a0e",
      "l1GasUsed": "0x640"
    },
    {
      "status": "0x1",
      "cumulativeGasUsed": "0x7406b7",
      "logs": [
        {
          "address": "0xa4253e7c13525287c56550b8708100f93e60509f",
          "topics": [
            "0xddf252ad1be2c89b69c2b068fc378daa952ba7f163c4a11628f55a4df523b3ef",
            "0x0000000000000000000000009e54c1049ff9783556475fbab53e3686f23dbb20",
            "0x000000000000000000000000e87781cf0523ad67d55ecfde931c41c40933ef8f"
          ],
          "data": "0x00000000000000000000000000000000000000000000000000000000000f4240",
          "blockHash": "0x32d1b9786f8ccac5138e82471855a73d40188021c90af26ac80c045a466047a4",
          "blockNumber": "0x16d7629",
          "transactionHash": "0x78019a2eca53fa76be0c049e3596ea752aa0f1de414a0665c7c4977c45712627",
          "transactionIndex": "0x14",
          "logIndex": "0xc3",
          "removed": false
        },
        {
          "address": "0xa4253e7c13525287c56550b8708100f93e60509f",
          "topics": [
            "0x8c5be1e5ebec7d5bd14f71427d1e84f3dd0314c0f7b2291e5b200ac8c7c3b925",
            "0x000000000000000000000000e87781cf0523ad67d55ecfde931c41c40933ef8f",
            "0x0000000000000000000000006f03c7bcadadbf5e6f5900da3d56add8fbdac5de"
          ],
          "data": "0x00000000000000000000000000000000000000000000000000000000000f4240",
          "blockHash": "0x32d1b9786f8ccac5138e82471855a73d40188021c90af26ac80c045a466047a4",
          "blockNumber": "0x16d7629",
          "transactionHash": "0x78019a2eca53fa76be0c049e3596ea752aa0f1de414a0665c7c4977c45712627",
          "transactionIndex": "0x14",
          "logIndex": "0xc4",
          "removed": false
        },
        {
          "address": "0xa4253e7c13525287c56550b8708100f93e60509f",
          "topics": [
            "0xddf252ad1be2c89b69c2b068fc378daa952ba7f163c4a11628f55a4df523b3ef",
            "0x000000000000000000000000e87781cf0523ad67d55ecfde931c41c40933ef8f",
            "0x0000000000000000000000006f03c7bcadadbf5e6f5900da3d56add8fbdac5de"
          ],
          "data": "0x00000000000000000000000000000000000000000000000000000000000f4240",
          "blockHash": "0x32d1b9786f8ccac5138e82471855a73d40188021c90af26ac80c045a466047a4",
          "blockNumber": "0x16d7629",
          "transactionHash": "0x78019a2eca53fa76be0c049e3596ea752aa0f1de414a0665c7c4977c45712627",
          "transactionIndex": "0x14",
          "logIndex": "0xc5",
          "removed": false
        },
        {
          "address": "0x6f03c7bcadadbf5e6f5900da3d56add8fbdac5de",
          "topics": [
            "0xd72c70202ab87b3549553b1d4ceb2a632c83cb96fa2dfe65c30282862fe11ade",
            "0x0000000000000000000000009e54c1049ff9783556475fbab53e3686f23dbb20",
            "0x00000000000000000000000044d4f5694ba6a9f138f41c3cd74c8af1de83a002",
            "0x000000000000000000000000e87781cf0523ad67d55ecfde931c41c40933ef8f"
          ],
          "data": "0x0000000000000000000000000000000000000000000000000000000000002134",
          "blockHash": "0x32d1b9786f8ccac5138e82471855a73d40188021c90af26ac80c045a466047a4",
          "blockNumber": "0x16d7629",
          "transactionHash": "0x78019a2eca53fa76be0c049e3596ea752aa0f1de414a0665c7c4977c45712627",
          "transactionIndex": "0x14",
          "logIndex": "0xc6",
          "removed": false
        },
        {
          "address": "0xe87781cf0523ad67d55ecfde931c41c40933ef8f",
          "topics": [
            "0x631762e2f6bb77fc84e616a32b3f990e551b075a6618ca1b7d8f78013d71817f",
            "0x0000000000000000000000009e54c1049ff9783556475fbab53e3686f23dbb20"
          ],
          "data": "0x00000000000000000000000000000000000000000000000000000000000003e8000000000000000000000000000000000000000000000000000000000000004000000000000000000000000000000000000000000000000000000000000000204e6f20636173686261636b202d20696e73756666696369656e742066756e6473",
          "blockHash": "0x32d1b9786f8ccac5138e82471855a73d40188021c90af26ac80c045a466047a4",
          "blockNumber": "0x16d7629",
          "transactionHash": "0x78019a2eca53fa76be0c049e3596ea752aa0f1de414a0665c7c4977c45712627",
          "transactionIndex": "0x14",
          "logIndex": "0xc7",
          "removed": false
        },
        {
          "address": "0xe87781cf0523ad67d55ecfde931c41c40933ef8f",
          "topics": [
            "0x2a91574e12ad96234e84923e146b0946ecfb871cd8d5534dc1fdcbe87a7c01b3",
            "0x0000000000000000000000009e54c1049ff9783556475fbab53e3686f23dbb20"
          ],
          "data": "0x00000000000000000000000000000000000000000000000000000000000f42400000000000000000000000000000000000000000000000000000000000000000",
          "blockHash": "0x32d1b9786f8ccac5138e82471855a73d40188021c90af26ac80c045a466047a4",
          "blockNumber": "0x16d7629",
          "transactionHash": "0x78019a2eca53fa76be0c049e3596ea752aa0f1de414a0665c7c4977c45712627",
          "transactionIndex": "0x14",
          "logIndex": "0xc8",
          "removed": false
        }
      ],
      "logsBloom": "0x00000000000000800000000000000002000000002000200000000000000000000000000001000000000000000000000001001000100000000400000000208004000000000400000060000008000000000000000000000000000000000800000000000000000000000000000004000000000000000000000000000012000000000000000000000000080800000800000000000000040000000000000000000000020000000000000000080000000000000000000000000000000000000120000000000002000010020000000000000000000000000000010000400000000000000010000000000020000000000000000000000000000000000000001000000000",
      "type": "0x2",
      "transactionHash": "0x78019a2eca53fa76be0c049e3596ea752aa0f1de414a0665c7c4977c45712627",
      "transactionIndex": "0x14",
      "blockHash": "0x32d1b9786f8ccac5138e82471855a73d40188021c90af26ac80c045a466047a4",
      "blockNumber": "0x16d7629",
      "gasUsed": "0x2fe8b",
      "effectiveGasPrice": "0xd83f3",
      "from": "0x9e54c1049ff9783556475fbab53e3686f23dbb20",
      "to": "0xe87781cf0523ad67d55ecfde931c41c40933ef8f",
      "contractAddress": null,
      "l1BaseFeeScalar": "0x44d",
      "l1BlobBaseFee": "0x1",
      "l1BlobBaseFeeScalar": "0xa118b",
      "l1Fee": "0x157dd3439",
      "l1GasPrice": "0xc3332a0e",
      "l1GasUsed": "0x640"
    },
    {
      "status": "0x1",
      "cumulativeGasUsed": "0x31b43e",
      "logs": [
        {
          "address": "0xa4253e7c13525287c56550b8708100f93e60509f",
          "topics": [
            "0x8c5be1e5ebec7d5bd14f71427d1e84f3dd0314c0f7b2291e5b200ac8c7c3b925",
            "0x0000000000000000000000007592b287ce8b0af24bb6fdaf3ae282dfdf34c6ae",
            "0x000000000000000000000000e87781cf0523ad67d55ecfde931c41c40933ef8f"
          ],
          "data": "0x00000000000000000000000000000000000000000000000000000000000f4240",
          "blockHash": "0x6f7c5b00d9b14cc6dd92ad4745e1d980dee0821ec92d96674790905a7ac3122b",
          "blockNumber": "0x16d762b",
          "transactionHash": "0xc87d401344ae81db6756c4300dcf2e3423e6240db55984650dbfc059de141829",
          "transactionIndex": "0xd",
          "logIndex": "0x2e",
          "removed": false
        }
      ],
      "logsBloom": "0x00000000000000800000000100000000000000002000200000000000000000000000000000000000000000000000000000000000000000000000000000208000000000000000000040000000000000000000000000000000000000000040000000000000000000000000000000000000000000000000000000000000000000000000000000000000000000000000000000000000000000000000000000000000020000000000000000000000000000000000000000000000000000000020000000000000000000000000000000000000000000000000000000000000000000000010000000000000000000000000000000000000000000000000000000400000",
      "type": "0x2",
      "transactionHash": "0xc87d401344ae81db6756c4300dcf2e3423e6240db55984650dbfc059de141829",
      "transactionIndex": "0xd",
      "blockHash": "0x6f7c5b00d9b14cc6dd92ad4745e1d980dee0821ec92d96674790905a7ac3122b",
      "blockNumber": "0x16d762b",
      "gasUsed": "0xb4ff",
      "effectiveGasPrice": "0xd83f3",
      "from": "0x7592b287ce8b0af24bb6fdaf3ae282dfdf34c6ae",
      "to": "0xa4253e7c13525287c56550b8708100f93e60509f",
      "contractAddress": null,
      "l1BaseFeeScalar": "0x44d",
      "l1BlobBaseFee": "0x1",
      "l1BlobBaseFeeScalar": "0xa118b",
      "l1Fee": "0x15b421139",
      "l1GasPrice": "0xc5206362",
      "l1GasUsed": "0x640"
    },
    {
      "status": "0x1",
      "cumulativeGasUsed": "0x214c48",
      "logs": [
        {
          "address": "0xa4253e7c13525287c56550b8708100f93e60509f",
          "topics": [
            "0xddf252ad1be2c89b69c2b068fc378daa952ba7f163c4a11628f55a4df523b3ef",
            "0x0000000000000000000000007592b287ce8b0af24bb6fdaf3ae282dfdf34c6ae",
            "0x000000000000000000000000e87781cf0523ad67d55ecfde931c41c40933ef8f"
          ],
          "data": "0x00000000000000000000000000000000000000000000000000000000000f4240",
          "blockHash": "0x1711af894085ca3be9b2f56fccbd517be4a2f0a546af08768612c6631b43dbd2",
          "blockNumber": "0x16d762d",
          "transactionHash": "0xcb1f6e5a2fc785b5f8b60abc5129e9fa0646df299c5d4c10cc65e8a626990c17",
          "transactionIndex": "0xc",
          "logIndex": "0x36",
          "removed": false
        },
        {
          "address": "0xa4253e7c13525287c56550b8708100f93e60509f",
          "topics": [
            "0x8c5be1e5ebec7d5bd14f71427d1e84f3dd0314c0f7b2291e5b200ac8c7c3b925",
            "0x000000000000000000000000e87781cf0523ad67d55ecfde931c41c40933ef8f",
            "0x0000000000000000000000006f03c7bcadadbf5e6f5900da3d56add8fbdac5de"
          ],
          "data": "0x00000000000000000000000000000000000000000000000000000000000f4240",
          "blockHash": "0x1711af894085ca3be9b2f56fccbd517be4a2f0a546af08768612c6631b43dbd2",
          "blockNumber": "0x16d762d",
          "transactionHash": "0xcb1f6e5a2fc785b5f8b60abc5129e9fa0646df299c5d4c10cc65e8a626990c17",
          "transactionIndex": "0xc",
          "logIndex": "0x37",
          "removed": false
        },
        {
          "address": "0xa4253e7c13525287c56550b8708100f93e60509f",
          "topics": [
            "0xddf252ad1be2c89b69c2b068fc378daa952ba7f163c4a11628f55a4df523b3ef",
            "0x000000000000000000000000e87781cf0523ad67d55ecfde931c41c40933ef8f",
            "0x0000000000000000000000006f03c7bcadadbf5e6f5900da3d56add8fbdac5de"
          ],
          "data": "0x00000000000000000000000000000000000000000000000000000000000f4240",
          "blockHash": "0x1711af894085ca3be9b2f56fccbd517be4a2f0a546af08768612c6631b43dbd2",
          "blockNumber": "0x16d762d",
          "transactionHash": "0xcb1f6e5a2fc785b5f8b60abc5129e9fa0646df299c5d4c10cc65e8a626990c17",
          "transactionIndex": "0xc",
          "logIndex": "0x38",
          "removed": false
        },
        {
          "address": "0x6f03c7bcadadbf5e6f5900da3d56add8fbdac5de",
          "topics": [
            "0xd72c70202ab87b3549553b1d4ceb2a632c83cb96fa2dfe65c30282862fe11ade",
            "0x0000000000000000000000007592b287ce8b0af24bb6fdaf3ae282dfdf34c6ae",
            "0x00000000000000000000000044d4f5694ba6a9f138f41c3cd74c8af1de83a002",
            "0x000000000000000000000000e87781cf0523ad67d55ecfde931c41c40933ef8f"
          ],
          "data": "0x0000000000000000000000000000000000000000000000000000000000002134",
          "blockHash": "0x1711af894085ca3be9b2f56fccbd517be4a2f0a546af08768612c6631b43dbd2",
          "blockNumber": "0x16d762d",
          "transactionHash": "0xcb1f6e5a2fc785b5f8b60abc5129e9fa0646df299c5d4c10cc65e8a626990c17",
          "transactionIndex": "0xc",
          "logIndex": "0x39",
          "removed": false
        },
        {
          "address": "0xe87781cf0523ad67d55ecfde931c41c40933ef8f",
          "topics": [
            "0x631762e2f6bb77fc84e616a32b3f990e551b075a6618ca1b7d8f78013d71817f",
            "0x0000000000000000000000007592b287ce8b0af24bb6fdaf3ae282dfdf34c6ae"
          ],
          "data": "0x00000000000000000000000000000000000000000000000000000000000003e8000000000000000000000000000000000000000000000000000000000000004000000000000000000000000000000000000000000000000000000000000000204e6f20636173686261636b202d20696e73756666696369656e742066756e6473",
          "blockHash": "0x1711af894085ca3be9b2f56fccbd517be4a2f0a546af08768612c6631b43dbd2",
          "blockNumber": "0x16d762d",
          "transactionHash": "0xcb1f6e5a2fc785b5f8b60abc5129e9fa0646df299c5d4c10cc65e8a626990c17",
          "transactionIndex": "0xc",
          "logIndex": "0x3a",
          "removed": false
        },
        {
          "address": "0xe87781cf0523ad67d55ecfde931c41c40933ef8f",
          "topics": [
            "0x2a91574e12ad96234e84923e146b0946ecfb871cd8d5534dc1fdcbe87a7c01b3",
            "0x0000000000000000000000007592b287ce8b0af24bb6fdaf3ae282dfdf34c6ae"
          ],
          "data": "0x00000000000000000000000000000000000000000000000000000000000f42400000000000000000000000000000000000000000000000000000000000000000",
          "blockHash": "0x1711af894085ca3be9b2f56fccbd517be4a2f0a546af08768612c6631b43dbd2",
          "blockNumber": "0x16d762d",
          "transactionHash": "0xcb1f6e5a2fc785b5f8b60abc5129e9fa0646df299c5d4c10cc65e8a626990c17",
          "transactionIndex": "0xc",
          "logIndex": "0x3b",
          "removed": false
        }
      ],
      "logsBloom": "0x00000000000000800000000100000002000000002000200000000000000000000000000001000000000000000000000001001000100000000400000000208004000000000000000060000008000000000000000000000000000000000840000000000000000000000000000004000000000000000000000000000012000000000000000000000000080000000800000000000000040000000000000000000000020000000000000000080000000000000000000000000000000000000120000000000002000010020000000000000000000000000000010000400000000000000010000000000020000000000000000000000000000000000000000000400000",
      "type": "0x2",
      "transactionHash": "0xcb1f6e5a2fc785b5f8b60abc5129e9fa0646df299c5d4c10cc65e8a626990c17",
      "transactionIndex": "0xc",
      "blockHash": "0x1711af894085ca3be9b2f56fccbd517be4a2f0a546af08768612c6631b43dbd2",
      "blockNumber": "0x16d762d",
      "gasUsed": "0x2fe8b",
      "effectiveGasPrice": "0xd83f4",
      "from": "0x7592b287ce8b0af24bb6fdaf3ae282dfdf34c6ae",
      "to": "0xe87781cf0523ad67d55ecfde931c41c40933ef8f",
      "contractAddress": null,
      "l1BaseFeeScalar": "0x44d",
      "l1BlobBaseFee": "0x1",
      "l1BlobBaseFeeScalar": "0xa118b",
      "l1Fee": "0x15b421139",
      "l1GasPrice": "0xc5206362",
      "l1GasUsed": "0x640"
    }
  ],
  "libraries": [],
  "pending": [],
  "returns": {},
  "timestamp": 1743670074,
  "chain": 84532,
  "commit": "f8ef37a"
}